:100000000C9400040C941D040C941D040C947C2787
:100010000C942F300C941D040C941D040C941D049E
:100020000C941D040C941D040C941D040C948B154D
:100030000C941D040C941D040C941D040C941D04BC
:100040000C94A4170C941D040C94B9130C947B13FA
:100050000C941D040C941D040C941D040C941D049C
:100060000C941D040C941D043D0B8F128F12470B32
:10007000540B610B6E0B8F12720B8F12800B8F1251
:100080008A0B940BC50B8F128F128F129E0BAB0B2A
:10009000B80BC111D211F111D211F5110812FB11D7
:1000A0000112F520FB20FE20012106210E2118213E
:1000B0008B218B218B21202122212B2134213C21BA
:1000C0008B218B218B218B218B2144214E215A2185
:1000D000622165216E2177217D218B2B8E2B932B25
:1000E000962B992B9C2B9F2BA22BA52BA82BAB2BB4
:1000F000B72BB72BB72BB72BB72BB72BB72BB72BF0
:10010000B12BAE2BB42B084AD73B3BCE016E84BC3F
:10011000BFFDC12F3D6C74319ABD56833DDA3D0061
:10012000C77F11BED9E4BB4C3E916BAAAABE0000AA
:1001300000803F05A84CCDB2D44EB93836A9020C88
:1001400050B9918688083CA6AAAA2ABE0000008061
:100150003F3E0D0A002C52583A002C4275663A0078
:100160002C002C57506F733A002C002C4D506F739D
:100170003A003C436865636B003C416C61726D0002
:100180003C486F6D65003C486F6C64003C52756E76
:10019000003C5175657565003C49646C65005D0DFA
:1001A0000A005B302E39672E32303134303830352A
:1001B0003A000D0A003D00244E005D0D0A00204665
:1001C00000205400204D3800204D3900204D3500CE
:1001D000204D3400204D3300204D3200204D3100A1
:1001E000204D300020473934002047393300204764
:1001F0003931002047393000204732300020473263
:10020000310020473139002047313800204731374D
:10021000002047005B473830005B4733005B4732C4
:10022000005B4731005B4730005D0D0A005B544CBA
:100230004F3A005D0D0A002C005B4739323A005DF1
:100240000D0A002C003A003330003238005B4700C2
:100250005D0D0A002C005B5052423A00290D0A0045
:10026000206D61782074726176656C2C206D6D0054
:1002700020616363656C2C206D6D2F7365635E3246
:1002800000206D617820726174652C206D6D2F6D7A
:10029000696E002C20737465702F6D6D007A007983
:1002A0000078002028003D0024002028686F6D6938
:1002B0006E672070756C6C2D6F66662C206D6D29D5
:1002C0000D0A002028686F6D696E67206465626F93
:1002D000756E63652C206D736563290D0A243237B2
:1002E0003D002028686F6D696E67207365656B2C13
:1002F000206D6D2F6D696E290D0A2432363D002068
:1003000028686F6D696E6720666565642C206D6D69
:100310002F6D696E290D0A2432353D00290D0A24FE
:1003200032343D002028686F6D696E672064697201
:1003300020696E76657274206D61736B3A002028B7
:10034000686F6D696E67206379636C652C20626FDE
:100350006F6C290D0A2432333D00202868617264D5
:10036000206C696D6974732C20626F6F6C290D0AA3
:100370002432323D002028736F6674206C696D69E9
:1003800074732C20626F6F6C290D0A2432313D008A
:1003900020286175746F2073746172742C20626FF1
:1003A0006F6C290D0A2432303D0020287265706F71
:1003B000727420696E636865732C20626F6F6C299C
:1003C0000D0A2431343D00202861726320746F6C63
:1003D0006572616E63652C206D6D290D0A243133C1
:1003E0003D0020286A756E6374696F6E20646576BF
:1003F000696174696F6E2C206D6D290D0A2431328C
:100400003D00290D0A2431313D00202873746174A8
:100410007573207265706F7274206D61736B3A0032
:10042000202870726F62652070696E20696E766533
:1004300072742C20626F6F6C290D0A2431303D00DC
:1004400020286C696D69742070696E7320696E76FE
:100450006572742C20626F6F6C290D0A24363D0082
:1004600020287374657020656E61626C6520696E0A
:10047000766572742C20626F6F6C290D0A24353DED
:1004800000290D0A24343D00202864697220706F11
:10049000727420696E76657274206D61736B3A00B8
:1004A000290D0A24333D0020287374657020706F75
:1004B000727420696E76657274206D61736B3A0098
:1004C0002028737465702069646C652064656C61B4
:1004D000792C206D736563290D0A24323D00202894
:1004E000737465702070756C73652C20757365630B
:1004F000290D0A24313D0024303D00242420287693
:10050000696577204772626C2073657474696E67E1
:1005100073290D0A2423202876696577202320700B
:100520006172616D6574657273290D0A2447202814
:100530007669657720706172736572207374617477
:1005400065290D0A24492028766965772062756936
:100550006C6420696E666F290D0A244E2028766926
:100560006577207374617274757020626C6F636B51
:1005700073290D0A24783D76616C756520287361B6
:100580007665204772626C2073657474696E6729A2
:100590000D0A244E783D6C696E652028736176657E
:1005A000207374617274757020626C6F636B290DB7
:1005B0000A24432028636865636B2067636F646562
:1005C000206D6F6465290D0A245820286B696C6CB6
:1005D00020616C61726D206C6F636B290D0A244879
:1005E000202872756E20686F6D696E67206379636D
:1005F0006C65290D0A7E20286379636C652073740D
:10060000617274290D0A2120286665656420686F6F
:100610006C64290D0A3F202863757272656E742020
:10062000737461747573290D0A6374726C2D78206C
:10063000287265736574204772626C290D0A000D7B
:100640000A4772626C20302E3967205B27242720EE
:10065000666F722068656C705D0D0A005D0D0A00A2
:1006600044697361626C656400456E61626C6564C7
:100670000043617574696F6E3A20556E6C6F636BE1
:10068000656400272448277C2724582720746F207E
:10069000756E6C6F636B00526573657420746F20A8
:1006A000636F6E74696E7565005B000D0A005072B1
:1006B0006F6265206661696C0041626F72742064CC
:1006C0007572696E67206379636C65004861726456
:1006D0002F736F6674206C696D697400414C4152D0
:1006E0004D3A20000D0A00496E76616C69642067FE
:1006F000636F64652049443A00556E646566696EAF
:1007000065642066656564207261746500556E736A
:100710007570706F7274656420636F6D6D616E6467
:10072000004D6F64616C2067726F75702076696F21
:100730006C6174696F6E004C696E65206F766572CE
:10074000666C6F7700486F6D696E67206E6F7420FE
:10075000656E61626C656400416C61726D206C6FE6
:10076000636B004E6F742069646C650045455052A0
:100770004F4D2072656164206661696C2E2055734F
:10078000696E672064656661756C74730056616C90
:100790007565203C20332075736563005365747460
:1007A000696E672064697361626C65640056616C90
:1007B0007565203C203000496E76616C6964207359
:1007C000746174656D656E7400426164206E756D50
:1007D00062657220666F726D617400457870656342
:1007E00074656420636F6D6D616E64206C657474F4
:1007F0006572006572726F723A20006F6B0D0A00AD
:1008000011241FBECFEFD8E0DEBFCDBF11E0A0E0C6
:10081000B1E0EAE2FCE602C005900D92A630B10715
:10082000D9F716E0A6E0B1E001C01D92AD3CB107DA
:10083000E1F70E941F040C9413360C9400000E94F0
:1008400049130E9497210E9422180E941E308EE1B7
:10085000EDE2F5E0DF011D928A95E9F781E08093F2
:100860002D0578948091BC0684FF03C081E08093BD
:100870002E05C1E00E940F140E9406090E94BE12BC
:100880000E9421130E9461270E94482B0E94FF2290
:100890000E94F6170E9431260E94180910922D0519
:1008A00010922F058091BC0681FF03C0C0933D05C7
:1008B00002C010923D050E94B614DCCFEF92FF9269
:1008C0001F93CF93DF9300D000D0CDB7DEB77C016C
:1008D000122F8091BC0685FF0BC0C70149835A8344
:1008E0006B837C830E94A2297C816B815A81498120
:1008F00080912E05823021F149835A836B837C835A
:100900000E94141480912D0581111AC00E944E235B
:1009100049815A816B817C81882339F00E94A91416
:1009200049815A816B817C81E7CF212FC7010E94C9
:10093000562380912E05811103C088E080932E05F7
:100940000F900F900F900F90DF91CF911F91FF901C
:10095000EF9008952F923F924F925F926F927F9205
:100960008F929F92AF92BF92CF92DF92EF92FF92BF
:100970000F931F93CF93DF93CDB7DEB7E7970FB6F3
:10098000F894DEBF0FBECDBF9C8B8B8B1B013A0151
:1009900009871A872B873C87AD8A2D961FAD2D9727
:1009A0002E962FAD2E97298B84E0889EA0011124CE
:1009B0005A834983AB89BC89A40FB51FBF8BAE8B0B
:1009C000460D571D598F488FFA0180809180A28073
:1009D000B3802D913D914D915C91C501B4010E9470
:1009E000C1316A8F7B8F8C8F9D8FF4E01F9F8001B8
:1009F00011242B893C89200F311F3F8F2E8FA3019B
:100A0000400F511F59A348A3DA014D905D906D909E
:100A10007C90F9012081318142815381C301B2016F
:100A20000E94C1316AA37BA38CA39DA3A50194015D
:100A300050582D873E874F87588BD301C201B0583D
:100A40008D839E83AF83B887E981FA81E20DF31D20
:100A50002A8D3B8D4C8D5D8D60817181828193816A
:100A60000E94C0312B013C01F101E00FF11F2AA1CE
:100A70003BA14CA15DA160817181828193810E9423
:100A8000C0314B015C01A30192016D857E858F858C
:100A900098890E94D83469837A838B839C83A501CB
:100AA00094016D817E818F8198850E94D8349B014D
:100AB000AC0169817A818B819C810E94C1316983FB
:100AC0007A838B839C83A50194016D857E858F85B8
:100AD00098890E94D8344B015C01A30192016D8179
:100AE0007E818F8198850E94D8349B01AC01C5011D
:100AF000B4010E94C03129813A814B815C810E94FE
:100B000034322B013C0180914B0520E030E0A901FB
:100B1000823079F4C301B2010E949D3487FD19C06F
:100B20002BED3FE049EC50E4C301B2010E94C0311B
:100B30000EC0C301B2010E949A32181654F02BED78
:100B40003FE049EC50E4C301B2010E94C1312B01E6
:100B50003C018090B8069090B906A090BA06B0907B
:100B6000BB0629853A854B855C85CA01B9010E947F
:100B7000C131A50194010E94C0319B01AC01C501A6
:100B8000B4010E94D8340E9465354B015C0120E01D
:100B900030E040E05FE3C301B2010E94D834298510
:100BA0003A854B855C850E94D8349F77A5019401D6
:100BB0000E94A1320E9477330E940E337FA36EA35E
:100BC000DB01AB2B09F486C14B01A12CB12CBD89F3
:100BD000BB2361F0C501B4010E943A339B01AC0113
:100BE000C701B6010E94D8346B017C01C501B40174
:100BF0000E943A334B015C019B01AC01C301B2017D
:100C00000E94A13269877A878B879C87F989E4E003
:100C1000FE9FC00111242B893C89280F391F3A8B74
:100C2000298BF101E80FF91FD9012D913D914D91CB
:100C30005C9160817181828193810E94C031A501A4
:100C400094010E94A1326CAB7DAB8EAB9FAB29852A
:100C50003A854B855C85CA01B9010E94D8349B0155
:100C6000AC0160E070E080E090E40E94C0314B0194
:100C70005C012BEA3AEA4AE25EE369857A858B8574
:100C80009C850E94D8342B013C0120E030E040E8F4
:100C900050E4C501B4010E94C1319B01AC01C30104
:100CA000B2010E94D83468A779A78AA79BA720E041
:100CB00030E040E05FE3C501B4010E94D8346CA786
:100CC0007DA78EA79FA7198201E010E0EEA1FFA1EA
:100CD0000E171F0709F4FEC0B981BC3008F04AC0E6
:100CE0002CA53DA54EA55FA56D817E818F81988540
:100CF0000E94D8344B015C0128A539A54AA55BA503
:100D00006D857E858F8598890E94D834A5019401D0
:100D10000E94C131B62EA72E982E892E2CA53DA556
:100D20004EA55FA56D857E858F8598890E94D834F4
:100D30002B013C0128A539A54AA55BA56D817E81C3
:100D40008F8198850E94D8349B01AC01C301B20108
:100D50000E94C0316D877E878F87988BE981EF5F16
:100D6000E9838B2D9A2DA92DB82D8D839E83AF837A
:100D7000B8876EC0B80180E090E00E943A332985C0
:100D80003A854B855C850E94D8344B015C010E94FA
:100D90009E326D837E838F839887C501B4010E9444
:100DA0005B354B015C01E88DF98D80819181A281D9
:100DB000B3819C01AD01505829833A834B835C83F6
:100DC000A8A1B9A18D919D910D90BC91A02D88AB4A
:100DD00099ABAAABBBAB2D813E814F815885698110
:100DE0007A818B819C810E94D8342B013C01A50122
:100DF000940168A979A98AA99BA90E94D8349B016A
:100E0000AC01C301B2010E94C1316D877E878F871B
:100E1000988BA501940169817A818B819C810E94C4
:100E2000D8344B015C012D813E814F81588568A9E2
:100E300079A98AA99BA90E94D8349B01AC01C5015C
:100E4000B4010E94C0316D837E838F83988719829D
:100E50002D853E854F8558896A8D7B8D8C8D9D8D26
:100E60000E94C131EE89FF896083718382839383FD
:100E70002D813E814F8158856AA17BA18CA19DA1C6
:100E80000E94C131AE8DBF8D6D937D938D939C93E8
:100E900013972CA93DA94EA95FA9E989FA89608118
:100EA0007181828193810E94C131A989BA896D9330
:100EB0007D938D939C9313972D89B701A6018B8900
:100EC0009C890E945E0480912D05811121C00F5FD5
:100ED0001F4FFCCE2D89B701A601C101E7960FB6C1
:100EE000F894DEBF0FBECDBFDF91CF911F910F9160
:100EF000FF90EF90DF90CF90BF90AF909F908F903A
:100F00007F906F905F904F903F902F900C945E0475
:100F1000E7960FB6F894DEBF0FBECDBFDF91CF913D
:100F20001F910F91FF90EF90DF90CF90BF90AF9007
:100F30009F908F907F906F905F904F903F902F90F9
:100F400008958F929F92AF92BF92CF92DF92EF92CD
:100F5000FF924B015C0180912E05823009F447C05D
:100F600020E030E040EA51E4C501B4010E94D834E9
:100F70000E9477330E940E336B017C010E9426157C
:100F800020E030E04AE754E4C501B4010E94D834BF
:100F90004B015C0182E38C9DB0018D9D700D11248D
:100FA00080E090E00E943A339B01AC01C501B4019E
:100FB0000E94C0310E9477330E940E33CB010E9401
:100FC0002527C114D10499F00E94141421E0C21AFB
:100FD000D10880912D0581110AC08FEF90E722E0A2
:100FE000815090402040E1F700C00000EACFFF9020
:100FF000EF90DF90CF90BF90AF909F908F9008952B
:1010000084E080932E050E94562783E00E94B0273B
:101010000E94141480912D05811108C00E941809A6
:1010200010922E050E9460150C94612708954F922E
:101030005F926F927F928F929F92AF92BF92CF9268
:10104000DF92EF92FF920F931F93CF93DF9300D025
:1010500000D0CDB7DEB74C016A017B01722E8091C2
:101060002E05823009F49EC00E94261560903D0531
:101070000E94562B882351F09FB7F89480912F053A
:10108000806480932F059FBF0E94141480912D05CA
:10109000811188C0272DB701A601C4010E945E04FA
:1010A00081E080933E059FB7F89480912F05826080
:1010B00080932F059FBF0E94141480912D058111EC
:1010C00071C080912E05877FB1F780913E058130F8
:1010D00041F49FB7F89480912F05806480932F0589
:1010E0009FBF0E94141480912D0581115BC00E9446
:1010F000F6170E94FF220E9431260FE315E08FE7CA
:10110000A82E86E0B82E2401F80161917191819199
:1011100091918F01F50121913191419151915F019F
:1011200029833A834B835C830E943C3329813A8133
:101130004B815C810E94A132F20161937193819392
:1011400091932F01F5E00B341F07F1F6272DB7011E
:10115000A601C4010E945E049FB7F89480912F05F8
:10116000826080932F059FBF0E94261580912D05D8
:10117000811118C060923D050F900F900F900F9055
:10118000DF91CF911F910F91FF90EF90DF90CF9063
:10119000BF90AF909F908F907F906F905F904F9097
:1011A0000C947B2D0F900F900F900F90DF91CF91AB
:1011B0001F910F91FF90EF90DF90CF90BF90AF9075
:1011C0009F908F907F906F905F904F900895809147
:1011D0002F0584FD1AC09FB7F89480912F05806178
:1011E00080932F059FBF0E94B7120E941F1380910A
:1011F0002E05847351F09FB7F89480912F0580627B
:1012000080932F059FBF0C94601508958BE3EBE44A
:10121000F5E0DF011D928A95E9F76AE675E080E066
:101220000E945520811103C087E00C94752B08950E
:10123000CF92DF92EF92FF920F931F93CF93DF93A2
:1012400000D000D0CDB7DEB781E3C82E85E0D82E20
:101250009FE7E92E96E0F92E0EE515E0F601619183
:101260007191819191916F01F7012191319141919A
:1012700051917F0129833A834B835C830E943C33E5
:1012800029813A814B815C810E94A132F8016193EE
:101290007193819391938F01FDE3CF16F5E0DF0603
:1012A000E9F60F900F900F900F90DF91CF911F9163
:1012B0000F91FF90EF90DF90CF9008952F923F9283
:1012C0004F925F926F927F928F929F92AF92BF9256
:1012D000CF92DF92EF92FF920F931F93CF93DF9302
:1012E000CDB7DEB7AB970FB6F894DEBF0FBECDBF5C
:1012F00098A38F8F89E3E6E8F5E0DF011D928A95D8
:10130000E9F78AE0EBE4F5E0A7E8B5E001900D929B
:101310008A95E1F71D8E212C312CA12CB12C19A21C
:10132000512C1E8E66246394712C95E0492E9924CD
:10133000939422E0822E8D8DEF8DF8A1E80FF11DA0
:101340000081002309F444C29FEB900F9A3110F002
:101350000C9481128F5F8D8FAE01475E5F4FBE018F
:10136000635E7F4F8F8D98A10E947326882311F4AE
:101370000C948312C98CDA8CEB8CFC8CC701B601FF
:101380000E94A6350E940E33162F70E080E090E098
:101390000E943C339B01AC01C701B6010E94C031E1
:1013A00020E030E048EC52E40E94D8340E943B3503
:1013B0000E940E33073421F00D3409F40FC14CC1E3
:1013C000163209F48DC0D0F4143160F4113108F0F4
:1013D000B3C0143009F453C008F482C01A30A1F12C
:1013E0000C948F121C3181F128F4163108F4C4C01A
:1013F0000C948F121E3141F10C948F12103509F4A8
:1014000098C0A8F4153309F459C040F41B3209F40C
:10141000BCC0113309F4B9C00C948F121C3310F006
:101420000C948F12165310938D0587E0C5C01C35A0
:1014300059F028F41A3508F08DC00C948F121F351E
:1014400008F491C00C948F12611106C0BE8DB111C9
:101450000C948512E1E0EE8F1C31A1F040F41430C1
:1014600071F01A3009F0A5C080928605A2C015332C
:1014700029F11C3539F11E3109F09BC011C0909241
:10148000860597C0662341F06A3011F00C948F12E4
:1014900024E02093860508C0F3E0F093860504C09D
:1014A000611104C04092860580E08AC06A3011F064
:1014B0000C948F1236E030938605F6CF87E0809348
:1014C000860577C0662341F06A3011F00C948F12C4
:1014D000A9E0A0938605E8CF98E090938605E4CF35
:1014E000BE8DB1110C948512E2E0EE8F123089F0BE
:1014F00028F4112359F0113081F05DC0163281F0CB
:101500001035B9F0133009F056C007C010928705A6
:1015100052C0FE8DF09387054EC0109387054BC0D7
:10152000643111F00C948F1224E02093870581E040
:1015300047C0409287053FC0123129F0133131F086
:1015400010928B0505C090928B0502C080928B058E
:1015500082E032C01A3519F410928A0502C09092C6
:101560008A0583E029C01D3519F49092880502C0D0
:101570001092880584E020C0143119F490928905F6
:1015800002C01092890585E017C03E8D3111BDC79C
:10159000113331F410928C0586E093E09E8F10C0D9
:1015A0006A3009F0BCC790928C0586E0A3E0AE8F4C
:1015B00007C080E001C081E0662311F087E1BEC76B
:1015C000F30102C0EE0FFF1F8A95E2F7CF019F01E2
:1015D0002A213B21232BE9F185E1B0C76111EECF30
:1015E000163018F4133048F014C0183008F497C7B8
:1015F0001A30E8F01E3151F092C7123039F01E3126
:1016000029F011111DC090928E051AC080928E058E
:1016100017C0143029F0153031F09092900505C0B4
:101620008092900502C01092900589E00AC019309E
:1016300019F080928F0502C010928F058AE001C0D8
:1016400088E0930102C0220F331F8A95E2F7C90197
:10165000BFCFA82AB92A6FCE802F992787FD9095F2
:10166000A92FB92FFC01E654F109E531F10508F085
:1016700056C7EC5CFF4F0C94FE35C0929105D0929A
:101680009205E0929305F092940580E07FC0C092AD
:101690009505D0929605E0929705F092980539A1AC
:1016A000316039A381E072C0C0929905D0929A0549
:1016B000E0929B05F0929C0589A1826089A382E05B
:1016C00065C0C0929D05D0929E05E0929F05F09264
:1016D000A00599A1946099A383E058C01093A10537
:1016E00084E054C0C701B6010E9409336093A2058B
:1016F0007093A3058093A4059093A50585E046C04B
:10170000C092A605D092A705E092A805F092A9057F
:1017100086E03CC0C092AA05D092AB05E092AC0531
:10172000F092AD0587E032C0C092AE05D092AF0511
:10173000E092B005F092B10588E028C0C092B305F0
:10174000D092B405E092B505F092B605A52DA16042
:101750005A2E8AE01BC0C092B705D092B805E0921D
:10176000B905F092BA05B52DB2605B2E8BE00EC0C4
:10177000C092BB05D092BC05E092BD05F092BE05BB
:10178000E52DE4605E2E8CE001C089E08301082E27
:1017900002C0000F111F0A94E2F7980122213321A1
:1017A000232B09F0B4C621E633E002C03595279516
:1017B0008A95E2F720FF09C020E030E0A901C701C7
:1017C000B6010E949A3287FDA4C6202A312AB3CDE1
:1017D000552029F03E8D311102C082E08E8F25FE0A
:1017E0000EC08091A2059091A305A091A405B0918F
:1017F000A50580389649A849B1050CF08CC68091A2
:101800008805813031F4FE8DF230A1F520FE8DC6C1
:1018100031C080914C0581112DC020FE1BC08091EC
:101820008905813039F523E333E34BEC51E46091D2
:1018300091057091920580919305909194050E9475
:10184000D83460939105709392058093930590939B
:10185000940510C08091590590915A05A0915B059F
:10186000B0915C058093910590939205A0939305A8
:10187000B093940530FC10C08091550590915605A9
:10188000A0915705B09158058093AE059093AF0590
:10189000A093B005B093B10580918605813031F4F5
:1018A00026FC02C08CE14AC6E89426F880918B059C
:1018B000882341F0813061F019A682E088A791E089
:1018C0009FA30BC022E029A731E038A71FA205C0C3
:1018D000A1E0A9A718A6B2E0BFA380918905813035
:1018E00021F0EE8DE33091F52AC003EBE02E05E008
:1018F000F02E00E010E0C52CD12CC601002E02C055
:10190000959587950A94E2F780FF10C023E333E3AF
:101910004BEC51E4D7016D917D918D919C910E948A
:10192000D834F70160837183828393830F5F1F4FE5
:10193000F4E0EF0EF11C03301105F9F6D2CF8091DF
:101940008C05813019F424E05212E7C58CE0EAE6F8
:10195000F5E0DE011D9601900D928A95E1F7A7FC56
:1019600009C0309186053F8F3230B9F0383009F424
:10197000AFC014C180918D05873010F08DE1DEC5B8
:1019800090915105981769F3BE01635F7F4F0E94E4
:1019900055208111E6CF87E0D1C5511002C08AE100
:1019A000CDC5C10180759927892B09F47BCF609142
:1019B000A6057091A7058091A8059091A9050E94A0
:1019C000A6350E940E336730C8F68091A105843198
:1019D00029F0823009F0A3C527FCA1C58FEA28228F
:1019E000662319F061506F8F03C090918D059F8F12
:1019F000BE016F5F7F4F8F8D0E945520882359F263
:101A00004090A105609082057090830580908405C8
:101A100090908505DE0111967D01B3EBCB2EB5E0EC
:101A2000DB2E1EE5A12E15E0B12E00E010E0E52D25
:101A3000F0E0FEA3EDA38DA19EA1002E02C095951E
:101A400087950A94E2F780FF33C0F4E14F1226C075
:101A5000D50158962D913D914D915C915B976D917B
:101A60007D918D919C910E94C031F6012081318140
:101A7000428153810E94C031D7016D937D938D9334
:101A80009C9313970230A1F4A40193010E94C031EA
:101A9000F70160837183828393830AC0F60180819A
:101AA0009181A281B381F70180839183A283B38363
:101AB0000F5F1F4FF4E0EF0EF11C24E0C20ED11CAB
:101AC00034E0A30EB11C0330110509F0B4CF08C1F6
:101AD000552009F464CF6090820570908305809052
:101AE00084059090850503EB15E0AEE5CA2EA5E0D0
:101AF000DA2E5E018DE0A80EB11CE12CF12CA52D93
:101B0000B0E0B8A3AF8F8F8D98A10E2C02C0959531
:101B100087950A94E2F780FF26C0F5012081318184
:101B200042815381D6016D917D918D919C910E944E
:101B3000C031F80120813181428153810E94C0313E
:101B4000D8016D937D938D939C931397B2E0EB1224
:101B500014C0A40193010E94C031F8016083718315
:101B6000828393830AC0F601808D918DA28DB38DFF
:101B7000F80180839183A283B383FFEFEF1AFF0AFA
:101B80000C5F1F4F24E0C20ED11C34E0A30EB11C29
:101B900083E0E816F10409F0B6CFA1C09E8D933022
:101BA00079F4AF8DA53009F48BC0A73009F492C049
:101BB000A33009F094C0BE016F5F7F4F86E084C000
:101BC000552079F340908A056090820570908305D6
:101BD0008090840590908505FEE5CF2EF5E0DF2E00
:101BE00003EB15E05E01BDE0AB0EB11CE12CF12C66
:101BF000E52DF0E0FEA3EDA38DA19EA10E2C02C069
:101C0000959587950A94E2F780FD0BC0F6018081D7
:101C10009181A281B381F80180839183A283B383F0
:101C20003EC0FF8DF730D9F1411028C0D60158963B
:101C30002D913D914D915C915B97F5016081718192
:101C4000828193810E94C131D8012D913D914D91A6
:101C50005C910E94C131F801608371838283938318
:101C6000F2E0EF121CC0A40193010E94C131D8011F
:101C70006D937D938D939C93139711C0F6012081F2
:101C8000318142815381D8016D917D918D919C91DB
:101C90000E94C131F8016083718382839383FFEFD7
:101CA000EF1AFF0A24E0C20ED11C0C5F1F4F34E074
:101CB000A30EB11C83E0E816F10409F09DCF71CFAB
:101CC000BE016F5F7F4F87E00E945520882309F493
:101CD00062CE05C080918705823008F022C41F8E35
:101CE00010918705153041F4552009F4B3C19E8D3C
:101CF000913009F018C48BC2AE8DA23009F0AAC190
:101D00001123D9F020E030E0A90160919105709194
:101D1000920580919305909194050E949A328823B0
:101D200009F403C4143028F4123058F4113029F0A7
:101D30006EC2143009F44DC16AC2511068C21E8EC1
:101D40008CC1552009F42BCEFFA1EF2FF0E0FEA3AC
:101D5000EDA338A5232F30E03BA72AA781E090E030
:101D60003C0108A402C0660C771C0A94E2F70FA09D
:101D700002C0880F991F0A94E2F7682A792A852DF4
:101D800090E086219721892B09F4D1C3CF01880FD8
:101D9000991F880F991FFC01EA57FA4FDC01A55BD8
:101DA000BA4F53962D913D914D915C91569765A5F3
:101DB00076A587A590A90E94C0316B017C018AA5F8
:101DC0009BA5880F991F880F991FFC01EA57FA4FAE
:101DD000DC01A55BBA4F53962D913D914D915C91DD
:101DE000569765A576A587A590A90E94C0314B019D
:101DF0005C0127FE40C0E89427F82091B30530919C
:101E0000B4054091B5055091B60560915E0570919D
:101E10005F0580916005909161050E949A32811161
:101E200020C12091B7053091B8054091B905509176
:101E3000BA05609162057091630580916405909187
:101E400065050E949A3281110CC12091BB05309129
:101E5000BC054091BD055091BE056091660570912D
:101E6000670580916805909169050E949A328111F9
:101E7000F8C081E263C3F9A14F2E512C6420752074
:101E8000672809F456C321EF222280918905813009
:101E900009F45AC00AA51BA5000F111F000F111F3E
:101EA00006571A4FD8011B962D913D914D915C918B
:101EB0001E97C501B4010E94C0312B013C01ADA0A9
:101EC000BEA0AA0CBB1CAA0CBB1CF501E657FA4F1E
:101ED0005F012385348545855685C701B6010E947B
:101EE000C031A30192010E9430276B017C01D8010F
:101EF0001B962D913D914D915C911E97F501638547
:101F00007485858596850E9430274B015C0160931E
:101F1000AA057093AB058093AC059093AD059B012A
:101F2000AC01C701B6010E94C0316B017C01E8948D
:101F3000F7F82AE037ED43EA5BE3C701B6010E94F8
:101F40009D3418164CF163C125E9622E25E0722EEE
:101F500000E010E0C201002E02C0959587950A941A
:101F6000E2F780FF10C023E333E34BEC51E4D301ED
:101F70006D917D918D919C910E94D834F301608385
:101F80007183828393830F5F1F4FF4E06F0E711C88
:101F900003301105F9F67ECF20E030E040E05FE34A
:101FA000C701B6010E949D3418160CF462CF2FE6CB
:101FB00032E143E85AE3C501B4010E94D8349B01E1
:101FC000AC01C701B6010E949D3418160CF451CF24
:101FD0001EC1552009F4E3CC2091B3053091B4051E
:101FE0004091B5055091B60560915E0570915F0511
:101FF00080916005909161050E949A32811107C11C
:102000002091B7053091B8054091B9055091BA05B6
:1020100060916205709163058091640590916505FA
:102020000E949A328111F3C02091BB053091BC050A
:102030004091BD055091BE056091660570916705A0
:1020400080916805909169050E949A32882309F46D
:1020500010CFDDC02E8D2111DAC0C1018E7D9C7F95
:10206000D9C0809189058130B1F423E333E34BEC8F
:1020700051E46091AA057091AB058091AC059091F7
:10208000AD050E94D8346093AA057093AB05809388
:10209000AC059093AD054090AA055090AB056090BB
:1020A000AC057090AD0520E030E040E850E4C3019D
:1020B000B2010E94D834A30192010E94D8342B01AE
:1020C0003C01A7019601C701B6010E94D8349B01CB
:1020D000AC01C301B2010E94C0312B013C01A5013A
:1020E0009401C501B4010E94D8349B01AC01C30125
:1020F000B2010E94C0312B013C0120E030E0A90177
:102100000E949A3287FD19C2C301B2010E9465354F
:102110002B013C01A5019401C701B6010E943027A3
:102120009B01AC01C301B20190580E94A1322B0166
:102130003C0180918705833021F477FA709477F819
:1021400070948091AA059091AB05A091AC05B091D7
:10215000AD0589A39AA3ABA3BCA320E030E0A901FD
:10216000BC01CD010E949A3287FF11C077FA7094AA
:1021700077F8709489A19AA1ABA1BCA1B0588093C3
:10218000AA059093AB05A093AC05B093AD050DA146
:102190001EA1000F111F000F111F06571A4FA30198
:1021A0009201C501B4010E94D8349B01AC01C70162
:1021B000B6010E94C03120E030E040E05FE30E94C1
:1021C000D834D8011B966D937D938D939C931E9765
:1021D0000AA51BA5000F111F000F111F06571A4F4C
:1021E000A3019201C701B6010E94D8349B01AC0142
:1021F000C501B4010E94C13120E030E040E05FE35E
:102200000E94D834F8016387748785879687C10157
:102210008E7D907E892B09F08EC1809188058093F8
:102220004C058091910590919205A0919305B091F4
:1022300094058093590590935A05A0935B05B0933C
:102240005C05C090AE05D090AF05E090B005F09071
:10225000B105A701960160915505709156058091D1
:102260005705909158050E949A32882381F0C092B8
:102270005505D0925605E0925705F0925805809189
:102280005405882321F0B701A6010E94C312809152
:10229000B20580935D058091900590915405981743
:1022A00061F0809354054091550550915605609119
:1022B0005705709158050E94C31280918F05909127
:1022C0005305981721F0809353050E9424138091A1
:1022D0008605813051F46091A6057091A705809123
:1022E000A8059091A9050E94A10780918B05809374
:1022F0004F058091890580934D053E8D3330F9F46B
:1023000080918C0580935005813089F48091BB05C4
:102310009091BC05A091BD05B091BE05809382054A
:1023200090938305A0938405B093850508C010920F
:102330008205109283051092840510928505809184
:102340008D0590915105981759F0809351058CE0B7
:10235000FE013D96AAE6B5E001900D928A95E1F75F
:1023600080918A0580934E058091860590E0FC015E
:102370003297E830F10508F04BC0E75BFF4F0C9453
:10238000FE35BE016F5F7F4F8F8D0E943E1F809193
:1023900051059F8D89133CC08CE0FE013196AAE661
:1023A000B5E01AC0AE8DAA2349F020E040E050E02D
:1023B00060E87FEB83EB95E00E945E0420E040E064
:1023C00050E060E87FEBCE0101960E945E048CE055
:1023D000FE013196AEE5B5E001900D928A95E1F7E8
:1023E00017C06EE575E086E003C06EE575E087E036
:1023F0000E943E1F0DC08CE0E3EBF5E0A6E7B5E0E0
:10240000EBCF8CE0E6E7F5E0DF011D928A95E9F776
:102410008091870580934B05853009F45DC0BE8DA2
:10242000B23009F059C0843090F4823058F58823D6
:10243000F9F0813009F047C04091590550915A0593
:1024400060915B0570915C0520914C0516C084304D
:10245000D1F54091590550915A0560915B057091F5
:102460005C0520914C0583EB95E00E9417082BC07A
:1024700020E040E050E060E87FEB83EB95E00E94D5
:102480005E0421C0C0905905D0905A05E0905B05CC
:10249000F0905C050091AA051091AB052091AC0568
:1024A0003091AD05E9A5EF93F8A5FF938FA0A0901B
:1024B0004C0545E955E063EB75E08EE595E00E943B
:1024C000AA040F900F908CE0E3EBF5E0AEE5B5E0E9
:1024D00001900D928A95E1F780918E0580935205C7
:1024E000882369F00E94261510923D0580915205BF
:1024F000823019F40E94E70802C01092520580E071
:102500001DC081E01BC082E019C088E117C089E1CD
:1025100015C084E013C08BE111C085E20FC084E1D7
:102520000DC08EE10BC08FE109C086E107C080E2DB
:1025300005C083E203C084E201C082E2AB960FB61D
:10254000F894DEBF0FBECDBFDF91CF911F910F91E9
:10255000FF90EF90DF90CF90BF90AF909F908F90C3
:102560007F906F905F904F903F902F900895E0EB99
:10257000F0E080818F7780832B980895239A239AA7
:10258000259A0C94B712CF92DF92EF92FF92CF93DD
:10259000DF931F92CDB7DEB76A017B0190912E05C4
:1025A000923009F444C089830E94A9140E94261520
:1025B0008981811109C00F90DF91CF91FF90EF9039
:1025C000DF90CF900C94B712813011F42D9801C098
:1025D0002D9A83E88093B0008091B100887F82605B
:1025E0008093B10020E030E04AE754E4C701B6012F
:1025F0000E949D34181634F4C12CD12C8AE7E82EA1
:1026000084E4F82E2CE53FE842E85EE3C701B6011A
:102610000E94D83420E030E040E05FE30E94C13106
:102620000E9477330E940E336093B3002B9A0F9071
:10263000DF91CF91FF90EF90DF90CF900895439876
:1026400008953B9A0C941F13CF93DF931F92CDB73D
:10265000DEB790912E05923079F089830E94A914FB
:102660000E9426158981823011F4439A05C00F908B
:10267000DF91CF910C941F130F90DF91CF910895AC
:102680009091080180910901891708F48058891BED
:102690000895E0ECF0E08081826080831092C500B4
:1026A00080E18093C400E1ECF0E080818061808370
:1026B0008081886080838081806880830895E09134
:1026C000070191E09E0F903409F490E020910601FB
:1026D000921305C020912F0524FFF8CF0895F0E054
:1026E000E154FA4F8083909307018091C10080628A
:1026F0008093C10008951F920F920FB60F9211247C
:102700008F939F93EF93FF9380910601E82FF0E062
:10271000E154FA4F90819093C6008F5F803409F4A2
:1027200080E08093060190910701891305C0809194
:10273000C1008F7D8093C100FF91EF919F918F9198
:102740000F900FBE0F901F901895909108018091E7
:102750000901891761F0E92FF0E0E150FA4F80811B
:102760009F5F903809F490E09093080108958FEFEF
:1027700008951F920F920FB60F9211242F933F933B
:102780004F935F936F937F938F939F93AF93BF9379
:10279000EF93FF938091C6008132B1F028F4883125
:1027A000E1F40E94E7082AC08F3341F08E37A9F484
:1027B0009FB7F89480912F0582600BC09FB7F89463
:1027C00080912F05816005C09FB7F89480912F05F7
:1027D000886080932F059FBF11C0E091090191E0AF
:1027E0009E0F903809F490E020910801921731F083
:1027F000F0E0E150FA4F808390930901FF91EF914F
:10280000BF91AF919F918F917F916F915F914F9108
:102810003F912F910F900FBE0F901F9018958091B0
:102820000901809308010895CF93C0912F05CC230F
:1028300009F486C08C2F807639F181E080932E05D3
:10284000C6FF17C0C5FF02C08FEF01C08DEF0E9409
:10285000C32B81E00E94E22B9FB7F89480912F0553
:102860008F7E80932F059FBF80912F0584FFFCCF23
:1028700003C08EEF0E94C32B9FB7F89480912F0561
:102880008F7980932F059FBFC4FF04C081E08093A0
:102890002D055DC0C0FF0AC00E94212F9FB7F8948C
:1028A00080912F058E7F80932F059FBFC3FF15C09A
:1028B00080912E05803149F480E280932E050E949C
:1028C00044180E94661810923D059FB7F8948091B5
:1028D0002F05877F80932F059FBFC1FF1DC080916B
:1028E0002E05883089F480E180932E050E946618B9
:1028F0000E9440158091BC0681FF04C081E0809356
:102900003D0502C010923D059FB7F89480912F05B8
:102910008D7F80932F059FBFC2FF12C00E9424238A
:10292000892B21F088E080932E0502C010922E059D
:102930009FB7F89480912F058B7F80932F059FBFC1
:1029400080912E05847319F0CF910C946618CF9165
:10295000089580913D05882341F09FB7F8948091B8
:102960002F05826080932F059FBF0895CF93DF933B
:102970000E94082C80912E05813021F482E00E9473
:10298000E22B21C010922E058AE091E00E946B306C
:102990001AC08D3069F0DD2389F1D1E0893209F464
:1029A000D0E00E94A5138F3F09F444C08A3089F714
:1029B000EC2FF0E0E65FFE4F10820E94141480912D
:1029C0002D05882311F0C0E0EBCF80910A01811121
:1029D00003C00E94752BF7CF843229F48AE091E07E
:1029E0000E948A30F6CF80912E05813011F489E063
:1029F000F0CF8AE091E00E945E09EBCF813288F24D
:102A00008F3279F28832A1F0CF3428F08BE00E9427
:102A1000752BC0E0C6CF2C2F30E0CF5F9FE9980F19
:102A2000F901E65FFE4F9A3108F480528083B9CFF6
:102A3000D1E0B7CF0E94A9140E94141480912D05F3
:102A4000882309F4AECFDF91CF9108950E94A91495
:102A500080912E05803171F481E080933D050AC09C
:102A600080912E05803159F40E94141480912D0517
:102A7000811105C00E942423892BB1F7F1CF08955D
:102A80008091BC0682FF02C0289A01C028988091DC
:102A90002E058471A1F080918A0180939E0180911E
:102AA0008B0180939D018091AF06880F84508195A2
:102AB00080939C0180916F00826080936F000895E5
:102AC00080916F008D7F80936F0080918100887F5F
:102AD000816080938100109289018091B2068F3FBE
:102AE00021F490912F0595FF09C090912E05943007
:102AF00029F090E00E94252781E001C080E09091BC
:102B0000BC0692FF02C091E08927882311F0289A21
:102B10000895289808951F920F920FB60F921124CE
:102B20002F933F934F935F936F937F938F939F93D5
:102B3000AF93BF93CF93DF93EF93FF93809189017E
:102B40008111EFC19BB180919E01807E9F71892B85
:102B50008BB98BB1837E90919D01892B8BB980912C
:102B60009C0186BD82E085BD81E0809389017894D7
:102B70008091B0019091B101892B09F0A4C080919E
:102B80008E0190918D01981709F492C0E0918E0109
:102B900086E0E89FF0011124EE54FE4FF093B1015E
:102BA000E093B001838194819093890080938800A1
:102BB000808191819093AC018093AB01A28180913F
:102BC000AD018A1771F1A093AD0181E1A89FD001F9
:102BD0001124AA52BE4FB093AF01A093AE011D962F
:102BE0008D919D910D90BC91A02DB695A79597952F
:102BF000879580938F0190939001A0939101B0935A
:102C000092018093930190939401A0939501B093C6
:102C100096018093970190939801A0939901B093A6
:102C20009A01C091AE01D091AF0180918A01988143
:102C3000892780939E01258189819A81AB81BC81FE
:102C4000022E04C0B695A795979587950A94D2F75A
:102C500080939F019093A001A093A101B093A20142
:102C60008D819E81AF81B885022E04C0B695A7954F
:102C7000979587950A94D2F78093A3019093A40126
:102C8000A093A501B093A60189859A85AB85BC85E3
:102C900004C0B695A795979587952A95D2F7809306
:102CA000A7019093A801A093A901B093AA010BC01A
:102CB0000E9460159FB7F89480912F0584608093DF
:102CC0002F059FBF2EC10E945C2B10929D01809109
:102CD0009F019091A001A091A101B091A20140910A
:102CE0008F01509190016091910170919201840F38
:102CF000951FA61FB71F80938F0190939001A093FB
:102D00009101B0939201E091AE01F091AF01458540
:102D1000568567857089481759076A077B0768F5E4
:102D200024E020939D014585568567857089841B25
:102D3000950BA60BB70B80938F0190939001A093F6
:102D40009101B093920120818091310590913205DB
:102D5000A0913305B091340525FF04C00197A10966
:102D6000B10903C00196A11DB11D80933105909357
:102D70003205A0933305B09334058091A30190915F
:102D8000A401A091A501B091A60140919301509199
:102D900094016091950170919601840F951FA61F73
:102DA000B71F8093930190939401A0939501B093E2
:102DB00096014585568567857089481759076A07C2
:102DC0007B0778F520919D01286020939D01458522
:102DD000568567857089841B950BA60BB70B80936E
:102DE000930190939401A0939501B0939601208153
:102DF0008091350590913605A0913705B091380541
:102E000026FF04C00197A109B10903C00196A11DC5
:102E1000B11D8093350590933605A0933705B09387
:102E200038058091A7019091A801A091A901B091C6
:102E3000AA01409197015091980160919901709178
:102E40009A01840F951FA61FB71F80939701909337
:102E50009801A0939901B0939A014585568567859D
:102E60007089481759076A077B0778F520919D01FB
:102E7000206120939D014585568567857089841B57
:102E8000950BA60BB70B8093970190939801A09395
:102E90009901B0939A0120818091390590913A056A
:102EA000A0913B05B0913C0527FF04C00197A10903
:102EB000B10903C00196A11DB11D809339059093FE
:102EC0003A05A0933B05B0933C0580912E058430D4
:102ED00039F48091300590919D01892380939D0163
:102EE0008091AB019091AC0101979093AC018093DC
:102EF000AB01892B69F41092B1011092B00180915D
:102F00008E018F5F80938E01863011F410928E01B6
:102F100080918B0190919D01892780939D01109252
:102F20008901FF91EF91DF91CF91BF91AF919F9177
:102F30008F917F916F915F914F913F912F910F9062
:102F40000FBE0F901F9018951F920F920FB60F9201
:102F500011248F939F939BB180918B018C71937EF1
:102F6000892B8BB915BC9F918F910F900FBE0F903D
:102F70001F901895FF920F931F93CF93DF9310929A
:102F80008B0110928A01C0E0D0E00C2F1C2F209101
:102F9000B00630E08C2F0C2E02C0359527950A9490
:102FA000E2F720FF07C0F0908B010E94C6218F2915
:102FB00080938B012091B10630E002C035952795B2
:102FC0001A95E2F720FF08C010918A01802F0E9415
:102FD000D021812B80938A012196C330D105A9F697
:102FE000DF91CF911F910F91FF9008950E9460157E
:102FF0008BE2EAE5F1E0DF011D928A95E9F783E2D1
:10300000EFE8F1E0DF011D928A95E9F7109288015F
:103010001092870110928E0110928D0181E08093B1
:103020008C01109289010E94BA178BB1837E909116
:103030008B01892B8BB98BB18F7190918A01892B70
:103040008BB908958AB18C618AB9209A8AB1806E51
:103050008AB9E1E8F0E080818F7E8083808188609A
:103060008083E0E8F0E080818C7F808380818F70B6
:103070008083EEE6F0E08081887F808314BC15BCFD
:103080008081816080830895CF93DF93C091870111
:10309000D09188012097B9F081E080935B01609125
:1030A00071017091720180917301909174019B0183
:1030B000AC010E94D834698B7A8B8B8B9C8B1092DD
:1030C000880110928701DF91CF9108952F923F924E
:1030D0004F925F926F927F928F929F92AF92BF9228
:1030E000CF92DF92EF92FF920F931F93CF93DF93D4
:1030F000CDB7DEB7E5970FB6F894DEBF0FBECDBFF4
:1031000090918E0180918C01981709F4E1C580910E
:10311000870190918801892B09F057C20E942423CE
:103120001C019093880180938701009709F4D0C512
:1031300080915B0110912E05882319F010925B019C
:10314000BDC080915A018F5F853019F080935A017C
:1031500002C010925A01E0915A0121E12E9FF00124
:103160001124EA52FE4FF0938601E0938501D101CC
:103170008C91808311964D915D916D917C91149706
:1031800003E0440F551F661F771F0A95D1F741834F
:1031900052836383748315964D915D916D917C91FB
:1031A000189783E0440F551F661F771F8A95D1F744
:1031B000458356836783708719964D915D916D9114
:1031C0007C911C9793E0440F551F661F771F9A95BB
:1031D000D1F741875287638774871D966D917D91E2
:1031E0008D919C9150976B017C0123E0CC0CDD1CF0
:1031F000EE1CFF1C2A95D1F7C586D686E786F08A95
:103200000E943A3360935C0170935D0180935E018C
:1032100090935F01F10125A136A147A150A50E941D
:10322000A1329B01AC0160936001709361018093B6
:1032300062019093630160E070E080EA9FE30E9486
:10324000A13260936401709365018093660190934D
:103250006701109268011092690110926A01109240
:103260006B011032E1F46091790170917A018091E3
:103270007B0190917C016093710170937201809346
:103280007301909374019B01AC010E94D834D10169
:1032900051966D937D938D939C9354970FC0F1013C
:1032A00061897289838994890E946535609371016F
:1032B00070937201809373019093740110926D0169
:1032C00010926E0110926F0110927001D1019196CF
:1032D0008D909D90AD90BC909497A501940160E075
:1032E00070E080E09FE30E94A1322B013C01F101DC
:1032F000C5A0D6A0E7A0F0A4103209F04DC0F2E0BE
:10330000F0936C01D10151962D913D914D915C91BD
:1033100054972D833E834F8358870E94D8349B0156
:10332000AC01C701B6010E94C0312B013C0120E075
:1033300030E0A9010E949A3287FF1DC0A5019401C7
:10334000C501B4010E94C131A70196010E94D83481
:103350009B01AC016D817E818F8198850E94C03177
:103360000E9465356093790170937A0180937B01A7
:1033700090937C012AC140926D0150926E0160923F
:103380006F01709270011092790110927A0110927F
:103390007B0110927C0119C110926C01C0927D01D9
:1033A000D0927E01E0927F01F09280010E9434234E
:1033B0004B015C016093790170937A0180937B01EA
:1033C00090937C019B01AC010E94D83469837A837D
:1033D0008B839C830091870110918801D801959679
:1033E0002D913D914D915C91989729873A874B8714
:1033F0005C8751962D913D914D915C9154972D8311
:103400003E834F8358879B01AC016D817E818F8104
:1034100098850E94C0319B01AC01C301B2010E949A
:10342000D8349B01AC0169857A858B859C850E9487
:10343000C13120E030E040E05FE30E94D8346B010E
:103440007C0120E030E0A9010E949D3418160CF0A8
:10345000ACC029853A854B855C85C701B6010E94C1
:103460009A3287FF8EC0F801858C968CA78CB0A00D
:1034700029813A814B815C81C501B4010E94C03130
:103480009B01AC01C301B2010E94D8346093810159
:10349000709382018093830190938401A701960128
:1034A0000E949A3287FF3DC0C501B4010E94653574
:1034B0006093750170937601809377019093780102
:1034C000A50194016D817E818F8198850E949A3239
:1034D000811104C0F1E0F0936C0177C02D813E8131
:1034E0004F815885C501B4010E94C0319B01AC01D8
:1034F000C301B2010E94D8349B01AC0160917D01EF
:1035000070917E0180917F01909180010E94C03175
:1035100060937D0170937E0180937F019093800181
:1035200054C0C0927D01D0927E01E0927F01F09262
:103530008001C0928101D0928201E0928301F092D9
:103540008401D80191966D917D918D919C91949774
:103550009B01AC010E94C131A70196010E94D834A1
:1035600029813A814B815C810E94C1310E9465357D
:103570006093750170937601809377019093780141
:1035800024C0B2E0B0936C018091710190917201FE
:10359000A0917301B09174018093750190937601AD
:1035A000A0937701B093780110C010927D01109222
:1035B0007E0110927F01109280018092750190929D
:1035C0007601A0927701B092780180918D01F6E0AA
:1035D000F89FF0011124EE54FE4FFE83ED8380919D
:1035E0005A01828320918701309188013E872D877F
:1035F000D9019596BC91BCA7F901F6A1FDA7D90107
:103600009796BC91BEA7F901F0A5FFA72091640190
:103610003091650140916601509167016CA57DA5CF
:103620008B2F9F2F0E94C03168A779A78AA79BA7DD
:1036300020E030E0A9010E949A3287FF04C018A65A
:1036400019A61AA61BA620917D01288F30917E0114
:10365000398F40917F014A8F509180015B8F80911B
:1036600075018C8F909176019D8FA0917701AE8F1F
:10367000B0917801BF8FE0918101E8A3F0918201C0
:10368000F9A3209183012AA3309184013BA34091A7
:103690006D014CA350916E015DA380916F018EA3CB
:1036A000909170019FA32091790130917A0140910E
:1036B0007B0150917C0128AB39AB4AAB5BAB3091BD
:1036C00071013983409172014987209073013090D4
:1036D000740150916C015F878CA58C8B9DA59D8B8F
:1036E000AEA5AE8BBFA5BF8B3EE3C32E33ECD32E6E
:1036F0003EE2E32E39E3F32E188A198A1A8A1B8ACE
:1037000026013701EF85EE2321F0E13009F47CC07A
:10371000B1C0AD85BE8591962D913D914D915C9145
:103720009497C701B6010E94D8344B015C0120E098
:1037300030E040E05FE30E94D8349B01AC01698136
:103740007985C1010E94C1319B01AC01C701B6015D
:103750000E94D8349B01AC016C897D898E899F8938
:103760000E94C0318B018DAB9CAB288D398D4A8D69
:103770005B8D0E949A3287FF3FC0288D398D4A8D1C
:103780005B8D6CA57DA58EA59FA50E94C0319B0178
:10379000AC010E94C1316B017C012C8D3D8D4E8DA1
:1037A0005F8D69817985C1010E94C1319B01AC01A6
:1037B000C701B6010E94A1326B017C0128A139A189
:1037C0004AA15BA1688D798D8A8D9B8D0E949A326A
:1037D000882319F0B1E0BF8702C0E2E0EF87FC8DDB
:1037E000F9832D8D29872E8C3F8C088D198D3A8D6C
:1037F0003DAB4B8D4CABAFC0A50194016981798580
:10380000C1010E94C1317CC0A70196016C8D7D8DE4
:103810008E8D9F8D0E94D8349B01AC016C897D896F
:103820008E899F890E94C0318B018DAB9CAB28A1F2
:1038300039A14AA15BA10E949A3287FF8CC028A1BE
:1038400039A14AA15BA16C897D898E899F890E94DB
:10385000C0312C8D3D8D4E8D5F8D0E94A1326B014C
:103860007C0108A119A15AA15DAB8BA18CAB92E0A0
:103870009F8771C0AD85BE8591962D913D914D91EB
:103880005C919497C701B6010E94D8344B015C014A
:103890009B01AC0169817985C1010E949D34181694
:1038A0009CF520E030E040E05FE3C501B4010E94F8
:1038B000D8349B01AC0169817985C1010E94C03176
:1038C0009B01AC01C701B6010E94D8349B01AC0139
:1038D0006C897D898E899F890E94C0318B018DAB57
:1038E0009CAB2CA13DA14EA15FA10E949D34181656
:1038F0005CF4A501940169817985C1010E94C03100
:10390000698379871C0127C02CA13DA14EA15FA12D
:103910006C897D898E899F890E94C0319B01AC0191
:103920000E94C1316B017C0128A939A94AA95BA970
:1039300069817985C1010E94C1319B01AC01C70138
:10394000B6010E94A1326B017C010CA11DA1BEA198
:10395000BDABEFA1ECABA7019601688979898A8993
:103960009B890E94C131688B798B8A8B9B8BA301C9
:1039700092010E949A3287FD5AC028A539A54AA50E
:103980005BA5B8018DA99CA90E949D3418160CF462
:1039900044C089819985D10180937101909372010E
:1039A000A0937301B0937401FF85F0936C01409074
:1039B0006001509061016090620170906301980114
:1039C0004DA95CA9C301B2010E94D83469837A83EE
:1039D0008B839C830E9487326B017C0160915C0128
:1039E00070915D0180915E0190915F010E9487322C
:1039F0004B015C01A70196010E94C0310E940E3369
:103A000069877A878B879C87E985FA85AD81BE8136
:103A1000ED93FC933097B1F15AC02EE333EC4EE2B4
:103A200059E3C301B2010E94C1312B013C01288935
:103A300039894A895B89C301B2010E94C0316B0197
:103A40007C012CA13DA14EA15FA1B8018DA99CA92B
:103A50000E949D3418167CF089819985D10180934C
:103A6000710190937201A0937301B09374013F852B
:103A700030936C019CCF0C8B1D8B4DA94E8B5CA998
:103A80005F8B40CE80912E05803209F51092710136
:103A900010927201109273011092740110926801D9
:103AA0001092690110926A0110926B01C0925C0140
:103AB000D0925D01E0925E01F0925F01A30192015C
:103AC000C701B6010E94A132AD85BE85EEC020912E
:103AD00068013091690140916A0150916B016889D8
:103AE00079898A899B890E94C1312B013C012981F6
:103AF0003A814B815C81C501B4010E94C0319B01B8
:103B0000AC01C301B2010E94A1324B015C012981C9
:103B10003A814B815C81C701B6010E94C031A50189
:103B200094010E94D8346093680170936901809376
:103B30006A0190936B0120EC31EE44E65EE4C5012E
:103B4000B4010E94D8340E9487320E940E33603D37
:103B5000B7E07B078105910520F4ED81FE81158298
:103B600031C0603AFFE07F078105910510F4E1E084
:103B700009C06034FFE17F078105910510F4E2E0A0
:103B800001C0E3E0AD81BE811596EC93AD81BE81AD
:103B900015962C911597022E04C0969587957795CA
:103BA00067950A94D2F7E985FA8502C0EE0FFF1FE8
:103BB0002A95E2F7ED93FC9361157105F1E08F070B
:103BC000910538F4AD81BE8114967C936E93139762
:103BD00006C02FEF3FEFED81FE8134832383809178
:103BE0008C0180938D018F5F863019F080938C015A
:103BF00002C010928C0120916D0130916E014091B4
:103C00006F0150917001B8018DA99CA90E949D344B
:103C10001816C4F4E0918701F0918801C801ADA99C
:103C2000BCA985A396A3A7A3B0A789819A81AB81DC
:103C3000BC8180935C0190935D01A0935E01B09381
:103C40005F015ECA20E030E0A901B8018DA99CA9FE
:103C50000E949D341816ACF51092710110927201F9
:103C60001092730110927401109268011092690110
:103C700010926A0110926B01C0925C01D0925D01BA
:103C8000E0925E01F0925F0100918701109188013E
:103C90002091600130916101409162015091630176
:103CA000C701B6010E94A132D80195966D937D930C
:103CB0008D939C9398970E946B2688E080932E05A5
:103CC00007C010928801109287010E94102318CA21
:103CD000E5960FB6F894DEBF0FBECDBFDF91CF9152
:103CE0001F910F91FF90EF90DF90CF90BF90AF901A
:103CF0009F908F907F906F905F904F903F902F900C
:103D00000895F999FECF92BD81BD81E08FBB80B54A
:103D10000895F894F999FECF92BD81BD81E08FBBE3
:103D200040B54627842F992787FD9095262F30E0B0
:103D300082239323892B39F06F3F19F060BD84E013
:103D400006C084E104C0442321F060BD84E28FBB3F
:103D5000F99A789408959F92AF92BF92CF92DF9292
:103D6000EF92FF920F931F93CF93DF938C017A0111
:103D70006B01C40ED51EEB01912C5C01A61AB70A8B
:103D8000CE018A0D9B1DCC15DD0591F0911009C067
:103D9000692D772767FD7095272F221F2227221F65
:103DA00001C021E06991922E960E0E94891EE8CFF3
:103DB000692DC8018E0D9F1DDF91CF911F910F912D
:103DC000FF90EF90DF90CF90BF90AF909F900C94BA
:103DD000891E9F92AF92BF92CF92DF92EF92FF9295
:103DE0000F931F93CF93DF938B017A016C01C40E65
:103DF000D51EEC01912C5B01A81AB90AC5018C0FE4
:103E00009D1FCC15DD0591F00E94811E911009C007
:103E1000292D332727FD3095232F221F2227221FEC
:103E200001C021E0922E980E8993E8CFC8018E0D33
:103E30009F1D0E94811E21E030E0981611F020E0C5
:103E400030E0C901DF91CF911F910F91FF90EF906A
:103E5000DF90CF90BF90AF909F90089521E5829F13
:103E6000C001112440E550E09D5F0C94AB1E40E57D
:103E700050E0BC018EEA93E00C94AB1E2DE0829FD3
:103E8000C00111244CE050E09E5F0C94AB1E69E031
:103E900080E090E00E94891E4DE450E06FE776E0FC
:103EA00081E090E00C94AB1E8AE08093AF0689E13C
:103EB0008093B20680EC8093B00686E08093B106D2
:103EC00083E08093B3068AE097EDA3EABCE3809396
:103ED000B4069093B506A093B606B093B7068FE6E6
:103EE00092E1A3E0BBE38093B8069093B906A09358
:103EF000BA06B093BB0680E68093BD0680E090E0F2
:103F0000A8ECB1E48093BE069093BF06A093C006D0
:103F1000B093C10680E090E0AAEFB4E48093C206BB
:103F20009093C306A093C406B093C50684E690E0C0
:103F30009093C7068093C60680E090E0A0E8BFE3B8
:103F40008093C8069093C906A093CA06B093CB0687
:103F500082E38093BC0680E090E0A8ECB2E480931A
:103F60007F0690938006A0938106B093820680938B
:103F7000830690938406A0938506B093860680936B
:103F8000870690938806A0938906B0938A0680E0FE
:103F900090E4ACE9B5E480938B0690938C06A093F3
:103FA0008D06B0938E0680938F0690939006A09313
:103FB0009106B09392068093930690939406A093F3
:103FC0009506B093960680E098ECAFEAB8E480934B
:103FD000970690939806A0939906B0939A068093BB
:103FE0009B0690939C06A0939D06B0939E0680939B
:103FF0009F069093A006A093A106B093A20680E02E
:1040000090E0A2E5B3EC8093A3069093A406A0935E
:10401000A506B093A60680E090E0A6E9B3EC8093F5
:10402000A7069093A806A093A906B093AA0680E0DD
:1040300090E0A8ECB2EC8093AB069093AC06A09312
:10404000AD06B093AE060C94471F1F93CF93DF933A
:10405000182FEB0181E5189FB00111247D5F40E529
:1040600050E0CE010E94E91E892B39F41882BE016E
:10407000812F0E942E1F80E001C081E0DF91CF914F
:104080001F910895CF93DF93EC0140E550E06EEA75
:1040900073E00E94E91E892B21F41882CE010E9450
:1040A000371F81E0DF91CF9108951F93CF93DF9366
:1040B000182FEB018DE0189FB00111247E5F4CE0BA
:1040C00050E0CE010E94E91E892B59F48CE0FE01DC
:1040D00011928A95E9F7BE01812F0E943E1F80E070
:1040E00001C081E0DF91CF911F91089580E090E0C1
:1040F0000E94811E893059F44DE450E061E070E087
:104100008FE796E00E94E91E21E0892B09F420E068
:10411000822F0895CF92DF92EF92FF92CF93DF9399
:10412000C82F6A017B0120E030E0A901C701B60178
:104130000E949A3287FDEDC0C43608F445C02CE9D0
:104140002C0F80E02330B8F530E0823079F0F901AF
:10415000EE0FFF1FEE0FFF1F833011F1813019F0BA
:10416000E158F94F23C0E557F94F20C0E901CC0FC2
:10417000DD1FCC0FDD1FC956D94F20E030E040E7EE
:1041800052E4C701B6010E94D83420E030E040E795
:1041900052E40E94D834688379838A839B83B5C0B4
:1041A000ED55F94FF7FAF094F7F8F094C082D18208
:1041B000E282F382AAC08F5F2A3008F4ACC0843058
:1041C00009F4A9C02A50BECFC701B6010E94A63586
:1041D0000E940E338C2F90E08C31910508F09BC02B
:1041E000FC01EF5AFF4F0C94FE35633008F495C084
:1041F0006093AF068AC06093B20687C06093B00632
:1042000002C06093B1060E94BA177FC08091BC06BD
:10421000662311F0846007C08B7F05C08091BC06C7
:10422000662321F080648093BC066FC08F7BFBCF38
:104230008091BC06662311F08068F5CF8F77F3CFAD
:104240006093B306C092B406D092B506E092B6066B
:10425000F092B7065AC0C092B806D092B906E09262
:10426000BA06F092BB0651C08091BC06662311F0DD
:104270008160D9CF8E7FD7CF8091BC06662311F0A5
:104280008260D1CF8D7FCFCF8091BC06662321F095
:1042900084FF45C08062C7CF8F7DC5CF8091BC06AB
:1042A000662311F0886001C0877F8093BC060E945E
:1042B00061272BC08091BC06662311F08061B3CFCB
:1042C0008F7CB1CF6093BD0620C0C092BE06D09255
:1042D000BF06E092C006F092C10617C0C092C206A7
:1042E000D092C306E092C406F092C5060EC070E0FC
:1042F0007093C7066093C60608C0C092C806D092E5
:10430000C906E092CA06F092CB060E94471F80E0E1
:1043100007C084E005C083E003C086E001C08AE0F6
:10432000DF91CF91FF90EF90DF90CF9008951F9392
:10433000CF93DF93CDB7DEB72C970FB6F894DEBFDF
:104340000FBECDBF0E947620811107C087E00E947A
:10435000752B0E94541F0E94102C10E0BE016F5F4D
:104360007F4F812F0E945520811103C087E00E945A
:10437000752B1F5F183091F72C960FB6F894DEBF9F
:104380000FBECDBFDF91CF911F910895882321F0FB
:10439000813021F488E0089584E0089580E1089553
:1043A000882321F0813021F480E4089580E208958B
:1043B00080E80895882321F0813021F484E0089575
:1043C00082E0089580E108954F925F926F927F920C
:1043D0008F929F92AF92BF92CF92DF92EF92FF9215
:1043E0000F931F93CF93DF9310914902111101C0D6
:1043F00012E1115000914702101709F4EFC089E251
:10440000189FE0011124C55BDD4F8D889E88AF8821
:10441000B88C69A17AA18BA19CA19B01AC010E94DF
:10442000C1312DA13EA14FA158A50E94D8346B01E6
:104430007C019B01AC01B401C5010E949A3287FF47
:1044400002C064017501A601B701498B5A8B6B8BC1
:104450007C8B111101C012E177247A94710E7016D1
:1044600019F029E2622E27C080914A02081351C038
:104470000E9444184EC0679C80011124055B1D4FAB
:10448000711002C092E1792E7A9480914A027812DA
:1044900002C00E944418F801C588D688E788F08CCD
:1044A000A701960161897289838994890E949A3251
:1044B000811106C0E801809147027812DCCF29C043
:1044C000F80161A172A183A194A19B01AC010E949A
:1044D000C131F80125A136A147A150A50E94D834C9
:1044E00029893A894B895C890E94C1314B015C0161
:1044F000A70196010E949A32F80187FF05C0818AC0
:10450000928AA38AB48AD6CFC18AD28AE38AF48AED
:10451000D1CF60904702F9E26F9E80011124055BC4
:104520001D4F77247394760C82E1781201C0712CB0
:104530005090490289E2482E751409F44DC0479CF9
:10454000E0011124C55BDD4FF80181889288A388C2
:10455000B488C988DA88EB88FC88A7019601C50170
:10456000B4010E949A3287FF23C0F80161A172A1B1
:1045700083A194A19B01AC010E94C131F80125A146
:1045800036A147A150A50E94D8349B01AC01C501BA
:10459000B4010E94C1314B015C01A70196010E9448
:1045A0009A3287FF05C0898A9A8AAB8ABC8A672CAF
:1045B0002D893E894F89588D69897A898B899C8993
:1045C0000E949A32811101C0672C7394F2E17F122C
:1045D00001C0712C8E01B0CF60924702DF91CF9164
:1045E0001F910F91FF90EF90DF90CF90BF90AF9011
:1045F0009F908F907F906F905F904F9008958CE187
:10460000EBE2F2E0DF011D928A95E9F710924A028F
:104610001092490281E08093480210924702089567
:1046200090914A0280914902891769F081E0890FCF
:10463000823109F480E020914702921302C08093F6
:10464000470280934A02089580914A02909149025C
:10465000981739F029E2829FC0011124855B9D4F94
:10466000089580E090E00895E0914A02EF5FE23122
:1046700009F4E0E080914902E81761F089E2E89FDF
:10468000F0011124E55BFD4F61897289838994896A
:104690000C94653560E070E0CB01089581E02091D5
:1046A0004A0290914802291380E008952F923F9288
:1046B0004F925F926F927F928F929F92AF92BF9232
:1046C000CF92DF92EF92FF920F931F93CF93DF93DE
:1046D000CDB7DEB7AD970FB6F894DEBF0FBECDBF36
:1046E000142F052F6B8F7C8F822E2091490239E287
:1046F000239F10011124F101E55BFD4F1F01158679
:1047000016861786108A15A216A217A210A6108266
:1047100049E956E766E97EE741A352A363A374A380
:104720005C013FE7E32E36E0F32E9E01235F3F4F0F
:104730003E8F2D8F8BE292E098A38F8F6F01FE0149
:104740003196FAA3E9A3912CF501619171918191C0
:1047500091915F01F70120813181428153810E9453
:10476000D8340E94A834ED8DFE8D619371938193AE
:104770009193FE8FED8FEF8DF8A141905190619054
:104780007190F8A3EF8F64197509860997092B01B9
:104790003C0197FF07C0442455243201461A570AAA
:1047A000680A790AF6014182528263827482F101B9
:1047B0002585368547855089421653066406750659
:1047C00010F429013A01F101458656866786708A00
:1047D0000E943C33F70120813181428153810E9444
:1047E000A1322B013C01E9A1FAA16193719381935C
:1047F0009193FAA3E9A320E030E0A9010E949A3244
:1048000087FF0AC0F1019081892D9DA70E94D021C8
:104810009DA5892BF1018083A3019201C301B201FF
:104820000E94D834F10125A136A147A150A50E94CC
:10483000C131F10165A376A387A390A79394F4E017
:10484000EF0EF11C24E0C20ED11C33E093127CCF9A
:104850000E9465356B017C01F10165A376A387A3F6
:1048600090A785859685A785B089892B8A2B8B2B68
:1048700009F4DEC120E030E0A901612F702F8B8D9B
:104880009C8D0E949A3287FD21C0882061F0212FE3
:10489000302F4B8D5C8DC701B6010E94A132162FBF
:1048A000072F8B8F9C8F20E030E040E85FE3612F83
:1048B000702F8B8D9C8D0E949A3287FF0DC010E067
:1048C00000E030E83B8F8FE38C8F06C019E906E7E4
:1048D000F6E9FB8F2EE72C8FA701960160E070E0D0
:1048E00080E89FE30E94A13269A77AA78BA79CA7C3
:1048F000E7E3F2E0FAA3E9A32BE836E038A32F8F31
:10490000CE010D969A8F898FFE013196FE8FED8F25
:10491000C12CD12C7601ED8DFE8D80809180A280FE
:10492000B38020E030E0A901C501B4010E949A32B1
:10493000882309F47FC029A53AA54BA55CA5C5012C
:10494000B4010E94D8344B015C01ED8DFE8D608373
:104950007183828393839B01AC0160E070E080E807
:104960009FE30E94A1322B013C01E89477F8EF8D80
:10497000F8A12081318142815381C301B2010E949B
:10498000D8346BA37CA38DA39EA39B01AC01612FA4
:10499000702F8B8D9C8D0E949A3287FF06C01BA3BF
:1049A0000CA3FB8DFDA32C8D2EA3F101F1A1FB8F98
:1049B000F101F2A1FC8FF101F3A1FFA3F101F4A138
:1049C000F8A7EF8DF8A12485358546855785C30165
:1049D000B2010E94D8343B018C019B01AC016B8D6C
:1049E0007C8D8FA198A50E949A3287FF04C06B8CA2
:1049F0007C8C0FA118A5C301D801F10181A392A35A
:104A0000A3A3B4A3E9A1FAA12081318142815381FA
:104A1000C501B4010E94D8349B01AC01C701B601A5
:104A20000E94C0316B017C011BA10CA1FDA1FB8F79
:104A30002EA12C8F8D8D9E8D04969E8F8D8FE9A13A
:104A4000FAA13496FAA3E9A32F8D38A12C5F3F4F2A
:104A500038A32F8FE98DFA8D8E179F0709F05BCF52
:104A60009091490280914A0298130AC0F101118A7B
:104A7000128A138A148A118E128E138E148E49C0D4
:104A8000A701960160E070E080E89FE30E94C031DA
:104A900020E030E040E05FE30E94D8340E946535BA
:104AA0006B017C012091B4063091B5064091B606A9
:104AB0005091B706F10161A172A183A194A10E9456
:104AC000D834A70196010E94D8344B015C01A7019C
:104AD000960160E070E080E89FE30E94C0319B0196
:104AE000AC01C501B4010E94A1326B017C0120E040
:104AF00030E0A9010E949A3287FF04C0C12CD12C5A
:104B0000E12CF12CA601B701F101418F528F638F87
:104B1000748F212F302F4B8D5C8D612F702F8B8DDB
:104B20009C8D0E94D834162F072FF82EE92E862F41
:104B3000902FAF2DBE2DF101858F968FA78FB0A33B
:104B4000A18CB28CC38CD48C6090430270904402D0
:104B500080904502909046029301A401612F702F2E
:104B60008F2D9E2D0E949A3287FD0BC09301A401C8
:104B7000B501C6010E949A3287FD11C0530164013C
:104B80000EC0212F302F4F2D5E2DB501C6010E9482
:104B90009A3287FD04C0A12EB02ECF2CDE2CC50189
:104BA000D601F101858B968BA78BB08F8CE0FE012F
:104BB0003196A7E3B2E001900D928A95E1F7812F3B
:104BC000902FAF2DBE2D8093430290934402A0936B
:104BD0004502B09346028CE0FE013D96ABE2B2E0A6
:104BE00001900D928A95E1F78091480280934902E5
:104BF0008F5F823109F480E080934802AD960FB652
:104C0000F894DEBF0FBECDBFDF91CF911F910F9102
:104C1000FF90EF90DF90CF90BF90AF909F908F90DC
:104C20007F906F905F904F903F902F900C94E42175
:104C3000AD960FB6F894DEBF0FBECDBFDF91CF911A
:104C40001F910F91FF90EF90DF90CF90BF90AF90AA
:104C50009F908F907F906F905F904F903F902F909C
:104C600008958091310590913205A0913305B0915E
:104C7000340580932B0290932C02A0932D02B093C5
:104C80002E028091350590913605A0913705B0919F
:104C9000380580932F0290933002A0933102B09395
:104CA00032028091390590913A05A0913B05B0916F
:104CB0003C058093330290933402A0933502B09365
:104CC000360208958091490290914A02891708F4AA
:104CD0008E5E891B08950E94441880914A02809339
:104CE00047020C94E4216F927F928F929F92AF9231
:104CF000BF92CF92DF92EF92FF920F931F93CF93C9
:104D0000DF937C018B016A01FB018081F701E80FD1
:104D1000F11D2081EF012D3229F422962181662494
:104D2000639407C02B3211F0219602C02296218194
:104D3000612CA12CB12C712C60E070E0CB01FE0144
:104D400030ED932E920E29E02915C8F0B39428E097
:104D50002B1588F0A1107A94A5E0B0E09B01AC017E
:104D60000E94C535660F771F881F991F690D711D39
:104D7000811D911D0BC0A11009C0739407C02EEFB7
:104D8000921207C0A11005C0AA24A39421962081E5
:104D9000D6CFBB2009F449C00E943A334B015C01D5
:104DA00020E030E0A9010E949A32882361F18FEF60
:104DB00078166CF42AE037ED43E25CE3C501B401F8
:104DC0000E94D8344B015C0173947394F0CF781235
:104DD0000BC02DEC3CEC4CEC5DE3C501B4010E9432
:104DE000D8344B015C010FC0772069F020E030E03F
:104DF00040E251E4C501B4010E94D8344B015C018A
:104E00007A9417149CF3662021F0B7FAB094B7F89F
:104E1000B094F60180829182A282B382CE19DF091A
:104E2000C150F801C08381E001C080E0DF91CF91E3
:104E30001F910F91FF90EF90DF90CF90BF90AF90B8
:104E40009F908F907F906F900895009741F0EFE9C9
:104E5000FFE03197F1F700C000000197F6CF089509
:104E60008F929F92AF92BF92CF92DF92EF92FF927A
:104E700069017A019B01AC010E94D8344B015C01AD
:104E8000A7019601C701B6010E94D8349B01AC016D
:104E9000C501B4010E94C131FF90EF90DF90CF9027
:104EA000BF90AF909F908F900C946535EBE6F0E04B
:104EB0008081897E8083E8E6F0E080818E7F808338
:104EC000089584B1897E84B99091BC0685B196FF1E
:104ED00002C0897E01C0866185B993FF0BC08091B5
:104EE0006B00866180936B00809168008160809385
:104EF000680008950C9456271F920F920FB60F92D8
:104F000011242F933F934F935F936F937F938F93CE
:104F10009F93AF93BF93EF93FF9380912E058130C2
:104F200071F080912F0585FD0AC00E94E7089FB7A8
:104F3000F89480912F05806680932F059FBFFF9185
:104F4000EF91BF91AF919F918F917F916F915F9101
:104F50004F913F912F910F900FBE0F901F9018957A
:104F60002F923F924F925F926F927F928F929F9279
:104F7000AF92BF92CF92DF92EF92FF920F931F9367
:104F8000CF93DF93CDB7DEB76C970FB6F894DEBF43
:104F90000FBECDBF898F80912D058111BAC1409080
:104FA000C2065090C3066090C4067090C50623EAFE
:104FB00036E0388F2F8BAE01435F5F4F5A018E0171
:104FC000005F1F4F212C1D8A812C912C312C832DA9
:104FD0000E94DA21D8018D938D01832D0E94C62174
:104FE000F50181935F01AF89B88DCD90DD90ED9093
:104FF000FD90B88FAF8BA7019601622D7D89C4010A
:105000000E949D3418161CF0C22CDD887401339464
:10501000B3E03B1621F02C2CDD8A4701D8CF20E0ED
:1050200030E040EC5FEBC701B6010E94D8346B0161
:105030007C010E94FF2236E0332E01E0F98DEF2F34
:10504000F0E0F88FEF8B46015701B7FAB094B7F84C
:10505000B0949E01205F3F4F3C8B2B8B8091BC0610
:1050600086FD02C0202E03C0222423942026809196
:10507000BD06682F70E0FE01319680E090E010E000
:105080001D8A282F4F89588D082E02C055954795A7
:105090000A94E2F7DA01A170BB2740FF0FC03D89F7
:1050A0003F5F3D8B011105C080829182A282B38255
:1050B00009C0C082D182E282F38204C010821182D0
:1050C00012821382AB0102C0559547952A95E2F7EB
:1050D00040FF09C020813181428153815058208393
:1050E000318342835383AB2B41F0ADE0B0E0AC0F92
:1050F000BD1FA80FB91F2C91122B01963496833037
:10510000910509F0BECF5D89652F70E080E090E0E9
:105110000E943A330E9465359B01AC011093300523
:10512000C301B2010E94D834AB01BC0120E0CE0122
:1051300001960E9456230E9466180E94401526E19F
:10514000722E83B121108725DE015096FE013D9617
:105150002191922F912329F09C91982311F0209571
:10516000122311962B893C89E217F30789F71093D4
:1051700030050E94661880912F0584FF03C00E94AD
:105180001414C7C0812F8C71E1F60E94F6170E949B
:10519000FF228091C6069091C7060E942527409065
:1051A000BE065090BF066090C0067090C10681E0B8
:1051B00008273A9409F052CF8091BD06482F50E05D
:1051C0005E8B4D8BC090C806D090C906E090CA0691
:1051D000F090CB06D701C601B058898F9A8FAB8F5C
:1051E000BC8F81E3A82E85E0B82E9FE7292E96E09C
:1051F000392EDE0111964D0100E010E08F89988D67
:10520000002E02C0959587950A94E2F780FF3DC075
:105210008D899E89002E02C0959587950A94E2F7A4
:1052200080FF23C0F10144A055A066A077A0A30190
:105230009201C701B6010E94C131D4016D937D93E3
:105240008D939C931397F101208131814281538189
:10525000C301B2010E94D8340E94A834D5016D93D5
:105260007D938D939C93139724C0298D3A8D4B8DFC
:105270005C8DD4012D933D934D935C931397F50171
:10528000108211821282138214C0D5016D917D911A
:105290008D919C910E943C33F101208131814281AA
:1052A00053810E94A132D4016D937D938D939C9381
:1052B00013970F5F1F4FB4E08B0E911CE4E0AE0E0E
:1052C000B11CF4E02F0E311C0330110509F096CF0C
:1052D0000E9431264091C2065091C3066091C406D7
:1052E0007091C50620E0CE0101960E94562388E009
:1052F00080932E059FB7F89480912F05826080934C
:105300002F059FBF0E9414140E94261584E08093ED
:105310002E056C960FB6F894DEBF0FBECDBFDF91A1
:10532000CF911F910F91FF90EF90DF90CF90BF90A2
:10533000AF909F908F907F906F905F904F903F9035
:105340002F900895CF92DF92EF92FF920F931F93C9
:10535000CF93DF938C01C3EAD6E0F801C190D190DE
:10536000E190F1908F0120E030E0A901C701B60182
:105370000E949D34181654F0299139914991599100
:10538000C701B6010E949A3287FF27C080912E057F
:10539000803179F49FB7F89480912F0588608093CD
:1053A0002F059FBF0E94141480912D058823D1F3EF
:1053B00019C00E94E7089FB7F89480912F05806676
:1053C00080932F059FBFDF91CF911F910F91FF9089
:1053D000EF90DF90CF900C941414F6E0CF3ADF07F3
:1053E00009F0BBCFDF91CF911F910F91FF90EF900C
:1053F000DF90CF900895CF93DF93EC0189918823BC
:1054000019F00E945F13FACFDF91CF910895CF93E7
:10541000DF93FC018491EF012196882321F00E9403
:105420005F13FE01F7CFDF91CF910895EF92FF92C6
:105430000F931F93CF93DF93CDB7DEB728970FB6A7
:10544000F894DEBF0FBECDBFFE0131967F019E01F5
:10545000275F3F4F982F917091938695E217F3073E
:10546000C9F78F01F80182918F01805D0E945F135F
:105470000E151F05B9F728960FB6F894DEBF0FBEBC
:10548000CDBFDF91CF911F910F91FF90EF900895C5
:105490001F93CF93DF9300D01F92CDB7DEB781115A
:1054A00009C080E30F900F900F90DF91CF911F9173
:1054B0000C945F1390E02AE011E0190FE1E0F0E0B6
:1054C000EC0FFD1FE90FF11D622F0E94D035905D9A
:1054D0009083882311F0912FEFCF112341F0FE012B
:1054E000E10FF11D80810E945F131150F6CF0F90E4
:1054F0000F900F90DF91CF911F9108958F929F92FF
:10550000AF92BF92CF92DF92EF92FF920F931F93D1
:10551000CF93DF93CDB7DEB72A970FB6F894DEBFEF
:105520000FBECDBF6B017C01142F20E030E0A9013C
:105530000E949A3287FF07C08DE20E945F13F7FA3C
:10554000F094F7F8F094012F023060F020E030E0A2
:1055500048EC52E4C701B6010E94D8346B017C01CB
:105560000250F2CF10FF0AC020E030E040E251E4E8
:10557000C701B6010E94D8346B017C0120E030E005
:1055800040E05FE3C701B6010E94C1310E940933C8
:10559000E1E0F0E0EC0FFD1FE10FF11D2EE22083B2
:1055A000D12C5AE0852E912CA12CB12C61157105BE
:1055B00081059105A9F0D11201C0D394EE24E394A2
:1055C000F12CEC0EFD1EED0CF11CA50194010E94C6
:1055D000DC35605DF7016083B901CA01D394E6CF81
:1055E00080E3D11648F4E1E0F0E0EC0FFD1FED0D93
:1055F000F11D8083D394F5CF8D2DD1120BC0D394A0
:10560000D3948F5FE1E0F0E0EC0FFD1FE80FF11D98
:1056100080E38083DD2041F0FE01ED0DF11D8081EE
:105620000E945F13DA94F6CF2A960FB6F894DEBF85
:105630000FBECDBFDF91CF911F910F91FF90EF90E3
:10564000DF90CF90BF90AF909F908F900895209162
:10565000BC0620FF08C02BE832E441E25DE30E9473
:10566000D83444E001C043E00C947E2A2091BC066B
:1056700020FF08C02BE832E441E25DE30E94D83409
:1056800041E001C040E00C947E2A43E00C947E2A65
:105690003D988091BC0687FF04C045981092CC06C7
:1056A0000895459A80E28093CC06089586B1807271
:1056B0009091CC068927089580913E058130A1F410
:1056C0000E94562B882381F010923E058CE0E1E386
:1056D000F5E0AFE3B5E001900D928A95E1F7809196
:1056E0002F05886080932F050895CF93C82F8111CF
:1056F00003C08BEF97E044C083EF97E00E94072A36
:105700004C2F50E0FA013197E631F10580F5E3596D
:10571000FF4F0C94FE358BED97E002C089EC97E0CB
:105720000E94072A2BC087EB97E0FACF8DEA97E01B
:10573000F7CF8CE997E0F4CF8DE897E0F1CF8CE6D6
:1057400097E0EECF83E697E0EBCF88E597E0E8CFF0
:1057500085E497E0E5CF87E397E0E2CF81E297E049
:10576000DFCF8DE097E0DCCF89EF96E0D9CF87EEF1
:1057700096E00E94072A8C2F0E94482A84EE96E029
:10578000CF910C94072ACF93C82F8CED96E00E94FE
:10579000072ACE3F51F0CF3F29F0CD3F51F48EEA9A
:1057A00096E005C08CEC96E002C089EB96E00E9482
:1057B000072A8BEA96E00E94072A84EF91E0CF91B6
:1057C0000C942527CF93C82F89EA96E00E94072AD8
:1057D000C33091F038F4C13061F0C230A1F483E8F5
:1057E00096E00FC0C43059F0C53069F480E696E009
:1057F00008C087E996E005C081E796E002C089E627
:1058000096E00E94072A8CE596E0CF910C94072A37
:105810008FE396E00C94072A8BEF94E00C94072A10
:10582000FF920F931F93CF93DF9387EF94E00E9433
:10583000072A8091AF060E94482A8EED94E00E94CC
:10584000072A8091B2060E94482A80EC94E00E94C8
:10585000072A8091B0060E94482A87EA94E00E94B5
:10586000072A8091B0060E94162A80EA94E00E94DE
:10587000072A8091B1060E94482A88E894E00E9495
:10588000072A8091B1060E94162A81E894E00E94BE
:10589000072A8091BC0682FB882780F90E94482A4B
:1058A00080E694E00E94072A8091BC0686FB882748
:1058B00080F90E94482A80E494E00E94072A80919F
:1058C000BC06881F8827881F0E94482A80E294E02F
:1058D0000E94072A8091B3060E94482A8AE094E039
:1058E0000E94072A8091B3060E94162A82E094E063
:1058F0000E94072A6091B4067091B5068091B606A1
:105900009091B7060E94452B82EE93E00E94072AF1
:105910006091B8067091B9068091BA069091BB0665
:105920000E94452B87EC93E00E94072A8091BC06D9
:1059300081700E94482A8AEA93E00E94072A809197
:10594000BC06869581700E94482A80E993E00E94F7
:10595000072A8091BC0685FB882780F90E94482A87
:1059600085E793E00E94072A8091BC0683FB882785
:1059700080F90E94482A8AE593E00E94072A8091D4
:10598000BC06829581700E94482A8EE393E00E94B3
:10599000072A8091BD060E94482A84E293E00E9473
:1059A000072A8091BD060E94162A8CE193E00E948E
:1059B000072A6091BE067091BF068091C006909143
:1059C000C1060E94452B8FEF92E00E94072A60914A
:1059D000C2067091C3068091C4069091C5060E94CC
:1059E000452B82EE92E00E94072A8091C6060E9413
:1059F000482A83EC92E00E94072A6091C8067091C1
:105A0000C9068091CA069091CB060E94452B8AEA6E
:105A100092E00E94072A84E6F82E10E0CFE7D6E055
:105A200000E088EA92E00E94072A802F8F0D0E94F2
:105A3000482A86EA92E00E94072A123071F0133059
:105A4000B9F0113029F0688179818A819B8117C072
:105A50006C857D858E859F8512C020E030E041E613
:105A600055E4688D798D8A8D9B8D0E94A13207C087
:105A70008CA19DA1AEA1BFA1BC01CD0190580E94F7
:105A8000452B83EA92E00E94072A013029F0023078
:105A900031F081EA92E005C08FE992E002C08DE921
:105AA00092E00E94072A123051F0133059F0113061
:105AB00019F083E992E008C081E892E005C080E730
:105AC00092E002C080E692E00E94072A8CE592E014
:105AD0000E94072A0F5F2496033009F0A2CF8AE0C4
