:100000000C942F040C944C040C944C040C949329E1
:100010000C94AC320C944C040C944C040C944C0492
:100020000C944C040C944C040C944C040C94CB167F
:100030000C944C040C944C040C944C040C944C0400
:100040000C94EF180C944C040C94EF140C94B11411
:100050000C944C040C944C040C944C040C944C04E0
:100060000C944C040C944C047D0B4B0D4B0D870BE6
:10007000940BA10BAE0B4B0DB20B4B0DC00B4B0DEC
:10008000CA0BD40B050C4B0D4B0D4B0DDE0BEB0BC4
:10009000F80BFB110B123E120B12421255124812B2
:1000A0004E1274227A227D22802285228F2299226A
:1000B000282328232823A322A522AE22B722C12247
:1000C00028232823282328232823CB22D722E722CA
:1000D000F122F422FD2206230C232823282328239F
:1000E00028232823282328232823282328232823B8
:1000F00028231523AB2DAE2DB32DB62DB92DBC2D38
:10010000BF2DC22DC52DC82DCB2DD72DD72DD72D29
:10011000D72DD72DD72DD72DD72DD12DCE2DD42DD1
:10012000084AD73B3BCE016E84BCBFFDC12F3D6C5E
:1001300074319ABD56833DDA3D00C77F11BED9E4C4
:10014000BB4C3E916BAAAABE000000803F05A84CA4
:10015000CDB2D44EB93836A9020C50B99186880870
:100160003CA6AAAA2ABE000000803F003E0D0A005D
:100170006F66663A006F6E3A002C6C617365722090
:10018000002C52583A002C4275663A002C533A0023
:100190002C002C57506F733A002C002C4D506F736D
:1001A0003A003C436865636B003C416C61726D00D2
:1001B0003C486F6D65003C486F6C64003C52756E46
:1001C000003C5175657565003C49646C65005D0DCA
:1001D0000A005B302E39675F323232373066613A5F
:1001E000000D0A003D00244E005D0D0A0020530062
:1001F000204600205400204D3800204D3900204D6D
:100200003500204D3400204D3300204D3200204D6C
:100210003100204D30002047393400204739330069
:100220002047393100204739300020473230002044
:10023000473231002047313900204731380020470C
:100240003137002047005B473830005B4733005BA5
:100250004732005B4731005B4730005D0D0A005BB1
:10026000544C4F3A005D0D0A002C005B4739323A7E
:10027000005D0D0A002C003A003330003238005B7C
:1002800047005D0D0A002C005B5052423A00290DD8
:100290000A00206D61782074726176656C2C206D87
:1002A0006D0020616363656C2C206D6D2F73656339
:1002B0005E3200206D617820726174652C206D6D56
:1002C0002F6D696E002C20737465702F6D6D007A30
:1002D00000790078002028003D0024002028747553
:1002E000726E204C61736572206D6F6465206F6E55
:1002F0002C20626F6F6C290D0A002434303D0020E1
:1003000028686F6D696E672070756C6C2D6F6666FE
:100310002C206D6D290D0A002028686F6D696E67AD
:10032000206465626F756E63652C206D736563294B
:100330000D0A2432373D002028686F6D696E6720F2
:100340007365656B2C206D6D2F6D696E290D0A2408
:1003500032363D002028686F6D696E6720666565DE
:10036000642C206D6D2F6D696E290D0A2432353D88
:1003700000290D0A2432343D002028686F6D696E13
:10038000672064697220696E76657274206D61738E
:100390006B3A002028686F6D696E67206379636C23
:1003A000652C20626F6F6C290D0A2432333D0020CA
:1003B0002868617264206C696D6974732C20626FA7
:1003C0006F6C290D0A2432323D002028736F667449
:1003D000206C696D6974732C20626F6F6C290D0A33
:1003E0002432313D0020286175746F20737461726E
:1003F000742C20626F6F6C290D0A2432303D00206E
:10040000287265706F727420696E636865732C2042
:10041000626F6F6C290D0A2431343D00202861720F
:100420006320746F6C6572616E63652C206D6D293D
:100430000D0A2431333D0020286A756E6374696F9C
:100440006E20646576696174696F6E2C206D6D290C
:100450000D0A2431323D00290D0A2431313D00209E
:1004600028737461747573207265706F7274206D77
:1004700061736B3A00202870726F62652070696E3C
:1004800020696E766572742C20626F6F6C290D0A7C
:100490002431303D0020286C696D69742070696ECC
:1004A0007320696E766572742C20626F6F6C290DF3
:1004B0000A24363D0020287374657020656E6162E1
:1004C0006C6520696E766572742C20626F6F6C2982
:1004D0000D0A24353D00290D0A24343D00202864EE
:1004E000697220706F727420696E76657274206D07
:1004F00061736B3A00290D0A24333D002028737480
:10050000657020706F727420696E76657274206DEC
:1005100061736B3A002028737465702069646C65A0
:100520002064656C61792C206D736563290D0A2444
:10053000323D002028737465702070756C73652CD3
:100540002075736563290D0A24313D0024303D0078
:100550002424202876696577204772626C207365B1
:100560007474696E6773290D0A24232028766965DF
:1005700077202320706172616D6574657273290D37
:100580000A24472028766965772070617273657246
:10059000207374617465290D0A24492028766965E1
:1005A00077206275696C6420696E666F290D0A2474
:1005B0004E20287669657720737461727475702097
:1005C000626C6F636B73290D0A24783D76616C75DC
:1005D00065202873617665204772626C20736574AC
:1005E00074696E67290D0A244E783D6C696E65202A
:1005F0002873617665207374617274757020626C03
:100600006F636B290D0A24432028636865636B20A0
:1006100067636F6465206D6F6465290D0A24582037
:10062000286B696C6C20616C61726D206C6F636B00
:10063000290D0A2448202872756E20686F6D696E36
:1006400067206379636C65290D0A7E2028637963CE
:100650006C65207374617274290D0A212028666507
:10066000656420686F6C64290D0A3F2028637572E9
:1006700072656E7420737461747573290D0A6374E6
:10068000726C2D7820287265736574204772626CD5
:10069000290D0A000D0A4772626C20302E39675FFF
:1006A00032323237306661205B27242720666F7232
:1006B0002068656C705D0D0A005D0D0A0044697369
:1006C00061626C656400456E61626C6564004361E3
:1006D0007574696F6E3A20556E6C6F636B6564005C
:1006E000272448277C2724582720746F20756E6C98
:1006F0006F636B00526573657420746F20636F6E57
:1007000074696E7565005B000D0A0050726F62655A
:10071000206661696C0041626F7274206475726951
:100720006E67206379636C6500486172642F736F34
:100730006674206C696D697400414C41524D3A20D9
:10074000000D0A00496E76616C69642067636F640E
:10075000652049443A00556E646566696E6564209B
:1007600066656564207261746500556E737570709E
:100770006F7274656420636F6D6D616E64004D6FA0
:1007800064616C2067726F75702076696F6C61743C
:10079000696F6E004C696E65206F766572666C6F6E
:1007A0007700486F6D696E67206E6F7420656E61AB
:1007B000626C656400416C61726D206C6F636B00EC
:1007C0004E6F742069646C6500454550524F4D2052
:1007D00072656164206661696C2E205573696E676D
:1007E0002064656661756C74730056616C75652074
:1007F0003C203320757365630053657474696E67BC
:100800002064697361626C65640056616C75652073
:100810003C203000496E76616C69642073746174A9
:10082000656D656E7400426164206E756D626572FF
:1008300020666F726D6174004578706563746564DD
:1008400020636F6D6D616E64206C657474657200F9
:100850006572726F723A20006F6B0D0A00001124EE
:100860001FBECFEFD8E0DEBFCDBF11E0A0E0B1E00A
:10087000E6E2F2E702C005900D92A030B107D9F789
:1008800027E0A0E0B1E001C01D92AD32B207E1F770
:100890000E944E040C9411390C9400000E947F14A5
:1008A0000E9434230E946B190E949B328EE1EBE878
:1008B000F5E0DF011D928A95E9F781E080938B05D1
:1008C000789490911B0794FD80938C05C1E00E9461
:1008D00045150E945D090E94C9130E9460140E9480
:1008E00078290E946D2D0E94CC240E943F190E94FD
:1008F00048280E946F0910928B0510928D058091F7
:100900001B0781FF03C0C0939B0502C010929B058B
:100910000E94F415DCCF6F927F928F929F92AF92DC
:10092000BF92CF92DF92EF92FF920F931F93CF93DC
:10093000DF9300D000D0CDB7DEB73C01D22E470107
:10094000580180911B0785FF0BC0C30149835A835F
:100950006B837C830E94BE2B7C816B815A81498191
:1009600080918C05823031F149835A836B837C837B
:100970000E944A1580918B0581111CC00E941B2585
:1009800049815A816B817C81882339F00E94E71567
:1009900049815A816B817C81E7CF850174012D2DBE
:1009A000C3010E94232580918C05811103C088E03A
:1009B00080938C050F900F900F900F90DF91CF9147
:1009C0001F910F91FF90EF90DF90CF90BF90AF906D
:1009D0009F908F907F906F9008952F923F924F92AB
:1009E0005F926F927F928F929F92AF92BF92CF92BF
:1009F000DF92EF92FF920F931F93CF93DF93CDB7C8
:100A0000DEB7E5970FB6F894DEBF0FBECDBF9E8769
:100A10008D87788B6F873A0109831A832B833C83F8
:100A2000C98ADA8AEB8AFC8AAF8A24E0829E400176
:100A30001124880D991D998F888FCA01880D991DE1
:100A40009B8F8A8FDC012D903D904D905C90E88DBE
:100A5000F98D2081318142815381C201B1010E940F
:100A600063346C8F7D8F8E8F9F8F2B96AFAC2B97BF
:100A7000F4E0AF9E500111242D853E852A0D3B1DCB
:100A800039A328A3C3018A0D9B1D9BA38AA3DC0164
:100A9000CD90DD90ED90FC90F90120813181428173
:100AA0005381C701B6010E9463346CA37DA38EA35A
:100AB0009FA33201210177FA709477F87094D701DF
:100AC000C601B0588D839E83AF83B887EF85F889C0
:100AD000E80DF91D2C8D3D8D4E8D5F8D60817181EE
:100AE000828193810E9462346B017C01EF85F889D9
:100AF000EA0DFB1D2CA13DA14EA15FA1608171817A
:100B0000828193810E9462344B015C01A7019601AE
:100B1000C301B2010E94BA3769877A878B879C87A5
:100B2000A50194016D817E818F8198850E94BA37DD
:100B30009B01AC0169857A858B859C850E94633415
:100B400069877A878B879C87A5019401C301B201CD
:100B50000E94BA374B015C01A70196016D817E812D
:100B60008F8198850E94BA379B01AC01C501B40101
:100B70000E94623429853A854B855C850E94E23467
:100B80006B017C018091A90520E030E0A901823051
:100B900079F4C701B6010E947A3787FD19C02BEDA1
:100BA0003FE049EC50E4C701B6010E9462340EC038
:100BB000C701B6010E945835181654F02BED3FE0DE
:100BC00049EC50E4C701B6010E9463346B017C011B
:100BD0008090170790901807A0901907B0901A07F7
:100BE00029813A814B815C81CA01B9010E94633439
:100BF000A50194010E9462349B01AC01C501B401BE
:100C00000E94BA370E9459384B015C0120E030E065
:100C100040E05FE3C701B6010E94BA3729813A81FB
:100C20004B815C810E94BA379F77A50194010E9495
:100C300062350E9447360E94DB3579A768A7DB0141
:100C4000AB2B09F485C14B01A12CB12CBF89BB236F
:100C500081F0C501B4010E940A369B01AC0169898B
:100C60007A898B899C890E94BA37698B7A8B8B8BA6
:100C70009C8BC501B4010E940A364B015C019B01AB
:100C8000AC01C701B6010E94623569877A878B87FC
:100C90009C872C968FAD2C97E4E08E9FC001112489
:100CA0002D853E85280F391F3E8B2D8BEF85F889CA
:100CB000E80FF91FD9012D913D914D915C91608113
:100CC0007181828193810E946234A50194010E9406
:100CD00062356AAB7BAB8CAB9DAB29853A854B8586
:100CE0005C85CA01B9010E94BA379B01AC0160E082
:100CF00070E080E090E40E9462346B017C012BEA9A
:100D00003AEA4AE25EE369857A858B859C850E9492
:100D1000BA374B015C0120E030E040E850E4C70105
:100D2000B6010E9463349B01AC01C501B4010E946D
:100D3000BA376AA77BA78CA79DA720E030E040E0E8
:100D40005FE3C701B6010E94BA376EA77FA788ABE1
:100D500099AB198222242394312CE8A5F9A52E16EB
:100D60003F0609F4F5C0B981BC3008F040C02EA59B
:100D70003FA548A959A96D817E818F8198850E94E0
:100D8000BA376B017C012AA53BA54CA55DA5C30123
:100D9000B2010E94BA37A70196010E9463346B0129
:100DA0007C012EA53FA548A959A9C301B2010E9403
:100DB000BA374B015C012AA53BA54CA55DA56D8109
:100DC0007E818F8198850E94BA379B01AC01C50155
:100DD000B4010E9462342B013C01E981EF5FE98399
:100DE000C601D7018D839E83AF83B88765C0B101EB
:100DF00080E090E00E940A3629853A854B855C8523
:100E00000E94BA376B017C010E945D356D837E8341
:100E10008F839887C701B6010E944B384B015C0154
:100E2000AA8DBB8DCD90DD90ED90FC90F7FAF094FB
:100E3000F7F8F094AAA1BBA18D919D910D90BC9162
:100E4000A02D89839A83AB83BC832D813E814F8102
:100E50005885C701B6010E94BA372B013C01A50194
:100E6000940169817A818B819C810E94BA379B01B0
:100E7000AC01C301B2010E9463342B013C01A50106
:100E80009401C701B6010E94BA376B017C012D8124
:100E90003E814F81588569817A818B819C810E9436
:100EA000BA379B01AC01C701B6010E9462346D8361
:100EB0007E838F8398871982A30192016C8D7D8D2B
:100EC0008E8D9F8D0E946334E88DF98D60837183D0
:100ED000828393832D813E814F8158856CA17DA1B2
:100EE0008EA19FA10E946334A8A1B9A16D937D93A7
:100EF0008D939C9313972AA93BA94CA95DA9ED89D1
:100F0000FE8960817181828193810E946334AD8901
:100F1000BE896D937D938D939C9313976196CFAC0F
:100F200061976096ECACFDAC0EAD1FAD60972F895C
:100F300049895A896B897C898D859E850E948B049D
:100F400080918B05811116C0BFEF2B1A3B0A05CF8C
:100F50006196CFAC61976096ECACFDAC0EAD1FAD69
:100F600060972F8949895A896B897C898F859889EF
:100F70000E948B04E5960FB6F894DEBF0FBECDBF7E
:100F8000DF91CF911F910F91FF90EF90DF90CF9065
:100F9000BF90AF909F908F907F906F905F904F9099
:100FA0003F902F9008958F929F92AF92BF92CF92D1
:100FB000DF92EF92FF9220918C05223009F448C015
:100FC0004B015C0120E030E040EA51E40E94BA3776
:100FD0000E9447360E94DB356B017C010E94661639
:100FE00020E030E04AE754E4C501B4010E94BA377A
:100FF0004B015C0122E32C9DC0012D9D900D11241D
:10100000BC0180E090E00E940A369B01AC01C50162
:10101000B4010E9462340E9447360E94DB35CB0146
:101020000E943C29C114D10499F00E944A1521E084
:10103000C21AD10880918B0581110AC08FEF90E709
:1010400022E0815090402040E1F700C00000EACF4C
:10105000FF90EF90DF90CF90BF90AF909F908F90D8
:1010600008954F925F926F927F928F929F92AF926C
:10107000BF92CF92DF92EF92FF920F931F93CF9385
:10108000DF9300D000D0CDB7DEB730918C05323081
:1010900009F4B1C0722E4A015B01492E582E0E94FC
:1010A000661660909B050E947B2D882351F09FB7A8
:1010B000F89480918D05806480938D059FBF0E9478
:1010C0004A1580918B05811196C0C12CE12CF12C21
:1010D0008701272DB501A401852D942D0E948B0435
:1010E00081E080939C059FB7F89480918D05826084
:1010F00080938D059FBF0E944A1580918B058111B9
:101100007AC080918C05877FB1F780919C058130F2
:1011100041F49FB7F89480918D05806480938D058C
:101120009FBF0E944A1580918B05811164C00E9467
:101130003F190E94CC240E9448288DE9C82E85E0E2
:10114000D82E9EEDE92E96E0F92E052D142DF601F0
:1011500061917191819191916F01F701219131918B
:10116000419151917F0129833A834B835C830E9493
:101170000C3629813A814B815C810E946235F801ED
:1011800061937193819391938F01FAEEEF16F6E0DC
:10119000FF06E9F6C12CE12CF12C8701272DB501C2
:1011A000A401852D942D0E948B049FB7F894809103
:1011B0008D05826080938D059FBF0E946616809189
:1011C0008B05811118C060929B050F900F900F90B6
:1011D0000F90DF91CF911F910F91FF90EF90DF90D3
:1011E000CF90BF90AF909F908F907F906F905F90C7
:1011F0004F900C94D42F0F900F900F900F90DF9181
:10120000CF911F910F91FF90EF90DF90CF90BF9003
:10121000AF909F908F907F906F905F904F900895C8
:1012200080918D0584FD1AC09FB7F89480918D053B
:10123000806180938D059FBF0E94C0130E945E1441
:1012400080918C05847351F09FB7F89480918D053F
:10125000806280938D059FBF0C94A016089583B182
:10126000867190911B0796FD02C096E1892788231D
:1012700059F00E9410099FB7F89480918D058066FF
:1012800080938D059FBF089584E080938C050E9414
:10129000C0130E946D2983E00E94C7290E944A154D
:1012A00080918B05811108C00E946F0910928C05F6
:1012B0000E94A0160C94782908958BE3E9EAF5E0E2
:1012C000DF011D928A95E9F768EC75E080E00E94E5
:1012D000D821811103C087E00C94E32D0895CF92AB
:1012E000DF92EF92FF920F931F93CF93DF9300D083
:1012F00000D0CDB7DEB70EED16E0C12CD12CF80131
:1013000021913191419151918F01C60187559A4F99
:101310007C01F601E557FA4F6481758186819781DA
:1013200029833A834B835C830E940C3629813A815E
:101330004B815C810E946235F701638B748B858BD6
:10134000968BF4E0CF0ED11C8CE0C816D104B9F610
:101350000F900F900F900F90DF91CF911F910F91F1
:10136000FF90EF90DF90CF9008952F923F924F9291
:101370005F926F927F928F929F92AF92BF92CF9225
:10138000DF92EF92FF920F931F93CF93DF93CDB72E
:10139000DEB7AC970FB6F894DEBF0FBECDBF9F8F00
:1013A0008E8F8AE3E4EEF5E0DF011D928A95E9F77E
:1013B0008AE0E9EAF5E0A6EEB5E001900D928A95A3
:1013C000E1F71D8EE12CF12CA12CB12C1CA2212CBB
:1013D00010E0A5E03A2EB2E09B2E04E0802E8D8D29
:1013E000EE8DFF8DE80FF11DC080CC2009F439C2CD
:1013F0009FEB9C0D9A3128F00E94C01381E00C9461
:1014000096138F5F8D8FAE01475E5F4FBE01635EA7
:101410007F4F8E8D9F8D0E947C28811105C00E9478
:10142000C01382E00C949613498C5A8C6B8C7C8C84
:10143000C301B2010E949D380E94DB35062F70E087
:1014400080E090E00E940C369B01AC01C301B20128
:101450000E94623420E030E048EC52E40E94BA3747
:101460000E9427380E94DB35B7E4CB1629F0EDE463
:10147000CE1609F4ECC031C1063209F457C0B0F4FD
:10148000043150F4013108F086C00430E9F108F469
:101490004DC00A3069F1FFC20C3151F120F4063120
:1014A00008F49CC0F8C20E3119F1F5C2003509F4F8
:1014B0006BC098F40533A9F138F40B3209F498C0E5
:1014C000013309F495C0E7C20C3308F0E4C28AEC9A
:1014D000800F8093EC0587E09BC00C3549F020F429
:1014E0000A3508F067C0D7C20F3508F46DC0D3C203
:1014F00061110C944E13112311F40C947B130E9470
:10150000C01388E10C949613F1E0F093E5050CC04C
:101510000F3110F40C948413053311F00C948E13D6
:1015200011E087E08093E50580E072C01111E7CFFC
:1015300012E00230E1F048F4002399F0013039F56F
:101540000093E6050093E40524C00632B1F00035AF
:10155000D9F00330E1F40093E605F1E0F093E405FF
:1015600018C01092E605B1E0B093E40512C01093E4
:10157000E605E1E0E093E4050CC0643109F08BC2BC
:101580008092E60581E050C03092E60502C01092DC
:10159000E40581E03DC0023129F0033139F01092B9
:1015A000EA0506C021E02093EA0502C09092EA0510
:1015B00082E02EC00A3519F41092E90503C031E02B
:1015C0003093E90583E024C00D3521F481E0809358
:1015D000E70502C01092E70584E01AC0043121F447
:1015E00091E09093E80502C01092E80585E010C0F4
:1015F000111185CF013319F41092EB0506C06A3042
:1016000009F049C2A1E0A093EB0586E013E00CC00D
:10161000662351F01EC00C3111F00C948A1311E0B6
:1016200023E02093E50580E0E1E0F0E002C0EE0F6A
:10163000FF1F8A95E2F7CF019C012A213B21232B32
:1016400009F448C00E94C01385E10C9496136623E8
:1016500029F00E94C01387E10C949613063018F409
:10166000033048F015C0083008F415C20A30F8F00D
:101670000E3159F010C2023041F00E3131F001113B
:101680001FC0F1E0F093ED051BC09092ED0518C06E
:10169000043031F0053039F021E02093EF0505C02A
:1016A0009092EF0502C01092EF0589E00AC0093060
:1016B00019F09092EE0502C01092EE058AE001C08A
:1016C00088E0A1E0B0E002C0AA0FBB1F8A95E2F754
:1016D000CD01B2CFA82AB92A82CE8C2DCC0C990B81
:1016E000AA0BBB0BFC01E654F109E531F10508F04A
:1016F000D2C1EC5CFF4F0C94F1384092F00550924F
:10170000F1056092F2057092F30580E07FC040928F
:10171000F4055092F5056092F6057092F705BCA1AC
:10172000B160BCA381E072C04092F8055092F90507
:101730006092FA057092FB05ECA1E260ECA382E0F6
:1017400065C04092FC055092FD056092FE057092C6
:10175000FF05FCA1F460FCA383E058C000930006E1
:1017600084E054C0C301B2010E94D43560930106E5
:1017700070930206809303069093040685E046C0AA
:10178000409205065092060660920706709208067F
:1017900086E03CC04092090650920A0660920B0611
:1017A00070920C0687E032C040920D0650920E06F1
:1017B00060920F067092100688E028C040921206D0
:1017C000509213066092140670921506222D216025
:1017D000222E8AE01BC04092160650921706609295
:1017E000180670921906322D3260232E8BE00EC03F
:1017F00040921A0650921B0660921C0670921D06BB
:10180000822D8460282E8CE001C089E0CC24C39412
:10181000D12C082E02C0CC0CDD1C0A94E2F79601F4
:101820002E213F21232B21F00E94C01389E17EC786
:10183000A1E6B3E002C0B595A7958A95E2F7A0FFAF
:101840000DC020E030E0A901C301B2010E9458356B
:1018500087FF04C00E94C01384E068C7EC28FD28FD
:10186000BECDFBA2EAA21E8F222021F0111102C0E0
:10187000B2E0BE8FE5FE11C0809101069091020694
:10188000A0910306B091040680389649A849B10595
:1018900024F00E94C0138BE149C78091E705813095
:1018A00031F4FE8DF230A1F5E0FC32C099C2809196
:1018B000AA0581112DC0E0FE1BC08091E805813092
:1018C00039F523E333E34BEC51E46091F00570917B
:1018D000F1058091F2059091F3050E94BA3760936B
:1018E000F0057093F1058093F2059093F30510C015
:1018F0008091B7059091B805A091B905B091BA054E
:101900008093F0059093F105A093F205B093F30551
:10191000F0FC10C08091B3059091B405A091B5057D
:10192000B091B60580930D0690930E06A0930F0616
:10193000B09310068091E505813051F4E6FC04C0B7
:101940000E94C0138CE1F2C697012F7B3BA32AA310
:101950008091EA05882371F0813031F431E03AA7B3
:1019600019A682E088A70BC01AA692E099A7A1E069
:10197000A8A705C0B2E0BAA7E1E0E9A718A6809140
:10198000E805813021F0FE8DF330B1F52AC0E2E1A7
:10199000EE2EE6E0FE2E00E010E0C22CD12CC601B7
:1019A000002E02C0959587950A94E2F780FF10C03B
:1019B00023E333E34BEC51E4D7016D917D918D919D
:1019C0009C910E94BA37F70160837183828393836D
:1019D0000F5F1F4FF4E0EF0EF11C03301105F9F615
:1019E000D2CF8091EB05813039F424E0221621F02A
:1019F0000E94C01385E29AC68CE0E8ECF5E0DE01B7
:101A00001D9601900D928A95E1F7A7FE17C080916F
:101A1000EC05873020F00E94C0138DE187C69091BD
:101A2000AF05981759F0BE01635F7F4F0E94D82120
:101A3000811104C00E94C01387E078C63091E5058B
:101A400038A3323021F0383009F4A3C003C121108B
:101A500004C00E94C0138AE169C68AA19BA1807557
:101A60009927892B09F46CCF6091050670910606C1
:101A700080910706909108060E949D380E94DB35F0
:101A8000673048F680910006843149F0823019F4BD
:101A90008AA187FF04C00E94C01384E147C6662361
:101AA00021F033243A94360E02C03090EC05BE018A
:101AB0006F5F7F4F832D0E94D821882309F4BACF0E
:101AC0009091000698A34090E0055090E105609049
:101AD000E2057090E3058E010F5F1F4FC12CD12CE2
:101AE000E12CF12C822C912CC4010E2C02C0959576
:101AF00087950A94E2F780FF39C0D601AC51BA4FFE
:101B00005D01B8A1B43141F5F601E755FA4F23A5BF
:101B100034A545A556A563897489858996890E944F
:101B20006234F50126A537A540A951A90E94623467
:101B3000D8016D937D938D939C931397B2E0EB1630
:101B4000F104A1F4A30192010E946234F8016083C0
:101B50007183828393830AC0F50186A597A5A0A906
:101B6000B1A9F80180839183A283B383FFEFEF1AB9
:101B7000FF0A0C5F1F4F24E0C20ED11C33E0E316B6
:101B8000F10409F0B1CFAAA1BBA1AF7ABBA3AAA36C
:101B900003C1222009F45DCF4090E0055090E1059B
:101BA0006090E2057090E30502E116E0C12CD12CB3
:101BB000E12CF12CA22CB12CF601E755FA4FC5010E
:101BC0000E2C02C0959587950A94E2F780FF2BC0F2
:101BD000ADE0B0E0AC0FBD1FAC0DBD1D2D913D9132
:101BE0004D915C9163897489858996890E946234DC
:101BF000D8012D913D914D915C910E946234F80184
:101C00006083718382839383F2E0EF16F104A1F481
:101C1000A30192010E946234D8016D937D938D934C
:101C20009C93139709C083A594A5A5A5B6A5F80113
:101C300080839183A283B383FFEFEF1AFF0A0C5FC7
:101C40001F4F24E0C20ED11C33E0E316F10409F06B
:101C5000B3CFA1C08E8D833079F498A1953009F46B
:101C600089C0973009F48FC0933009F094C0BE0149
:101C70006F5F7F4F86E082C0222079F33090E905C4
:101C80004090E0055090E1056090E2057090E3051A
:101C90007CEBC72E75E0D72E02E116E04E01ADE0D9
:101CA0008A0E911CE12CF12CA22CB12CC5010E2C1A
:101CB00002C0959587950A94E2F780FD0BC0F60166
:101CC00080819181A281B381F80180839183A28375
:101CD000B3833FC0F8A1F730E1F1311029C0D6013C
:101CE00058962D913D914D915C915B97F4016081E7
:101CF0007181828193810E946334D8012D913D913D
:101D00004D915C910E946334F801608371838283FA
:101D10009383F2E0EF16F104E1F4A30192010E9433
:101D20006334D8016D937D938D939C93139711C069
:101D3000F6012081318142815381D8016D917D91DD
:101D40008D919C910E946334F8016083718382833A
:101D50009383FFEFEF1AFF0A24E0C20ED11C0C5F41
:101D60001F4F34E0830E911C83E0E816F10409F064
:101D70009DCF73CFBE016F5F7F4F87E00E94D82158
:101D8000811109C057CE8091E605823020F00E9473
:101D9000C0138EE1CBC4312C1091E605153059F4F7
:101DA000222009F4C8C1BE8DB13009F44FC20E948F
:101DB000C0138FE1BBC4EE8DE23009F0BCC111232A
:101DC000F1F020E030E0A9016091F0057091F1059B
:101DD0008091F2059091F3050E945835811104C05D
:101DE0000E94C01386E1A2C4143028F4123058F4C3
:101DF000113029F02BC2143009F45CC127C2222013
:101E000009F49CC123C2222009F423CE38A5232F34
:101E100030E039A328A399A5892F90E09CA78BA730
:101E200081E090E08C0109A402C0000F111F0A9408
:101E3000E2F708A402C0880F991F0A94E2F7082B62
:101E4000192B822D90E080239123892B21F40E946D
:101E5000C01380E26BC488A199A1880F991F880FD5
:101E6000991FFC01EC51FA4FDC01A755BA4F53966C
:101E70002D913D914D915C91569766A577A580A9CE
:101E800091A90E9462346B017C018BA59CA5880FEF
:101E9000991F880F991FFC01EC51FA4FDC01A755DF
:101EA000BA4F53962D913D914D915C91569766A5F1
:101EB00077A580A991A90E9462344B015C01AAA177
:101EC000A7FF43C0EAA1FBA1EF77FBA3EAA3209100
:101ED0001206309113064091140650911506609138
:101EE000BC057091BD058091BE059091BF050E9413
:101EF000583581117CC32091160630911706409108
:101F00001806509119066091C0057091C105809125
:101F1000C2059091C3050E945835811168C3209174
:101F20001A0630911B0640911C0650911D066091C7
:101F3000C4057091C5058091C6059091C7050E94A2
:101F40005835882309F4A0C052C3FCA14F2E512C50
:101F500004211521012B21F40E94C01383E2E6C362
:101F60002AA13BA1217F3BA32AA38091E8058130D0
:101F700009F456C00BA51CA5000F111F000F111F5F
:101F80000C501A4FD8012D913D914D915C91C50196
:101F9000B4010E9462342B013C0188A199A1880FF1
:101FA000991F880F991FFC01EC50FA4F5F012081A7
:101FB000318142815381C701B6010E946234A3017D
:101FC00092010E9447296B017C01D8012D913D911E
:101FD0004D915C91F50160817181828193810E94B4
:101FE00047294B015C016093090670930A068093B0
:101FF0000B0690930C069B01AC01C701B6010E9431
:1020000062346B017C01E894F7F82AE037ED43EA8B
:102010005BE3C701B6010E947A3718165CF116C15E
:1020200084EE682E85E0782E00E010E0C201002EDC
:1020300002C0959587950A94E2F780FF12C023E3CA
:1020400033E34BEC51E4D30150966D917D918D912A
:102050009C9153970E94BA37F301608B718B828BEE
:10206000938B0F5F1F4FF4E06F0E711C033011054F
:10207000E9F680CF20E030E040E05FE3C701B60141
:102080000E947A37181624F40E94C01381E24EC3CE
:102090002FE632E143E85AE3C501B4010E94BA37A2
:1020A0009B01AC01C701B6010E947A3718160CF0EB
:1020B000CDC0EACF222009F4CCCC20911206309179
:1020C000130640911406509115066091BC0570915D
:1020D000BD058091BE059091BF050E9458358111C4
:1020E000B5C0209116063091170640911806509100
:1020F00019066091C0057091C1058091C20590914B
:10210000C3050E9458358111A1C020911A06309153
:102110001B0640911C0650911D066091C4057091EC
:10212000C5058091C6059091C7050E945835882342
:1021300009F4AACF8BC02E8D211188C08AA19BA142
:102140008E7D9C7F1E8E86C0C301B2010E945938CD
:102150002B013C01A5019401C701B6010E9447294A
:102160009B01AC01C301B20190580E9462352B0162
:102170003C018091E605833021F477FA709477F87A
:1021800070948091090690910A06A0910B06B09177
:102190000C068CA39DA3AEA3BFA320E030E0A90151
:1021A000BC01CD010E94583587FF11C077FA7094A9
:1021B00077F870948CA19DA1AEA1BFA1B058809377
:1021C000090690930A06A0930B06B0930C0608A18B
:1021D00019A1000F111F000F111F0C501A4FA3015E
:1021E0009201C501B4010E94BA379B01AC01C7013D
:1021F000B6010E94623420E030E040E05FE30E94DC
:10220000BA37D8016D937D938D939C9313970BA54B
:102210001CA5000F111F000F111F0C501A4FA30116
:102220009201C701B6010E94BA379B01AC01C501FA
:10223000B4010E94633420E030E040E05FE30E949C
:10224000BA37F80160837183828393838AA19BA14B
:102250008E7D907E892B21F00E94C01384E266C29D
:102260008091E7058093AA058091F0059091F10592
:10227000A091F205B091F3058093B7059093B8054E
:10228000A093B905B093BA05C0900D06D0900E0684
:10229000E0900F06F0901006A70196016091B3053B
:1022A0007091B4058091B5059091B6050E9458359E
:1022B0008823D9F0C092B305D092B405E092B50559
:1022C000F092B60580911B0790911C0790FF04C007
:1022D0008091E405811109C08091B205882329F01D
:1022E00020E0B701A6010E94071480911106809397
:1022F000BB058091EF059091B2059817B9F08093D6
:10230000B20520911B0730911C0730FF04C090914B
:10231000E40591110BC04091B3055091B405609153
:10232000B5057091B60520E00E9407148091EE0576
:102330009091B105981721F08093B1050E94631424
:102340008091E505813051F4609105067091060693
:1023500080910706909108060E94D3078091EA05B4
:102360008093AD058091E8058093AB053E8D3330B9
:10237000F9F48091EB058093AE05813089F480916A
:102380001A0690911B06A0911C06B0911D06809321
:10239000E0059093E105A093E205B093E30508C042
:1023A0001092E0051092E1051092E2051092E3050B
:1023B0008091EC059091AF05981759F08093AF0587
:1023C0008CE0FE013D96A8ECB5E001900D928A9557
:1023D000E1F78091E9058093AC05E091E5058E2F4A
:1023E00090E0FC013297E830F10508F05EC0E75B51
:1023F000FF4F0C94F138BE016F5F7F4F832D0E9419
:10240000F7208091AF05831150C08CE0FE0131961A
:10241000A8ECB5E02EC08E8D882399F0E090B3052E
:10242000F090B4050091B5051091B605C090B205C5
:1024300020E040E050E060E87FEB82E196E00E941F
:102440008B04E090B305F090B4050091B5051091B0
:10245000B605C090B20520E040E050E060E87FEBB8
:10246000CE0101960E948B048CE0FE013196ACEB0C
:10247000B5E001900D928A95E1F717C06CEB75E01D
:1024800086E003C06CEB75E087E00E94F7200DC08A
:102490008CE0E2E1F6E0A4EDB5E0EBCF8CE0E4ED1A
:1024A000F5E0DF011D928A95E9F78091E6058093BA
:1024B000A905853009F485C0BE8DB23009F081C010
:1024C0008430E8F4823008F040C0882351F1813034
:1024D00009F06EC0E090B305F090B4050091B50529
:1024E0001091B6054091B7055091B8056091B905B6
:1024F0007091BA05C090B2052091AA0521C0843020
:1025000009F056C04091B7055091B8056091B905E2
:102510007091BA052091AA0582E196E00E943108E7
:1025200047C0E090B305F090B4050091B505109157
:10253000B605C090B20520E040E050E060E87FEBD7
:1025400082E196E00E948B0433C0C090B705D09022
:10255000B805E090B905F090BA0500910906109110
:102560000A0620910B0630910C068091B2058F93DC
:102570008091B6058F938091B5058F938091B405B6
:102580008F938091B3058F93EAA5EF93F9A5FF93FD
:1025900088A4A090AA0544EF55E062E176E08CEBB8
:1025A00095E00E94ED040FB6F894DEBF0FBECDBFDC
:1025B0008CE0E2E1F6E0ACEBB5E001900D928A959B
:1025C000E1F78091ED058093B005882309F4AEC052
:1025D0000E94661610929B058091B005823019F416
:1025E0000E94100902C01092B00580E09FC0809147
:1025F000E8058130B1F423E333E34BEC51E460911F
:10260000090670910A0680910B0690910C060E94B3
:10261000BA376093090670930A0680930B0690936D
:102620000C064090090650900A0660900B067090C8
:102630000C0620E030E040E850E4C301B2010E9403
:10264000BA37A30192010E94BA372B013C01A701BE
:102650009601C701B6010E94BA379B01AC01C301C4
:10266000B2010E9462342B013C01A5019401C50115
:10267000B4010E94BA379B01AC01C301B2010E94B0
:1026800062342B013C0120E030E0A9010E94583562
:1026900087FF5ACD0E94C01382E248C00E3141F438
:1026A0006A3009F0F8C936E03093E5050C94130B55
:1026B0000F3188F40A3021F49092E5050C94940AC5
:1026C0000C3111F00C94290B6A3009F0E4C98092A6
:1026D000E5050C94130B053311F40C94910A0C3599
:1026E00011F00C94290B6A3009F0D5C9A9E0A09328
:1026F000E5050C94130B0E3111F00C94880A11E0CF
:102700003092E5050C94130B0A3011F00C940B0B6E
:1027100011E0D2CF80E011E00C94140B0C35D1F70E
:1027200011E098E09093E5050C94130BAC960FB66E
:10273000F894DEBF0FBECDBFDF91CF911F910F91F7
:10274000FF90EF90DF90CF90BF90AF909F908F90D1
:102750007F906F905F904F903F902F900895E0EBA7
:10276000F0E080818F7780832B9808958091B3006B
:10277000882329F08091B00080688093B00008958C
:102780001092B300E0EBF0E080818F7780832B988C
:102790000895239A239A259A0C94C01383E8809372
:1027A000B000E1EBF0E08081887F82608083089553
:1027B0008093B3000895CF92DF92EF92FF926B0166
:1027C0007C0120E030E04AEF54E40E947A3718168A
:1027D00034F4C12CD12C8AEFE82E84E4F82E2CE5B9
:1027E0003FE842E05EE3C701B6010E94BA3720E04D
:1027F00030E040E05FE30E9463340E9447360E946D
:10280000DB35862FFF90EF90DF90CF900895FF92F9
:102810001F93CF93DF9300D000D0CDB7DEB7382F12
:1028200090918C05923009F440C0F22ECB01BA0190
:10283000132F20911B0730911C0730FF02C0F110AD
:102840000AC069837A838B839C830E94E7159C81ED
:102850008B817A81698120911B0730911C0730FFA1
:1028600002C0F1100AC069837A838B839C830E9423
:1028700066169C818B817A81698111110AC00F9043
:102880000F900F900F90DF91CF911F91FF900C94BC
:10289000C013113011F42D9801C02D9A0E94DB1342
:1028A0008093B3000E94CE132B9A0F900F900F903D
:1028B0000F90DF91CF911F91FF9008954398089555
:1028C0003B9A0C945E14CF9390918C05923061F0FA
:1028D000C82F0E94E7150E946616C23011F4439A71
:1028E00003C0CF910C945E14CF9108959091020192
:1028F00080910301891708F48058891B0895E0EC42
:10290000F0E08081826080831092C50080E1809336
:10291000C400E1ECF0E08081806180838081886088
:1029200080838081806880830895E091010191E037
:102930009E0F903431F490E004C020918D0524FD69
:102940000FC0209100019217C1F3F0E0E25EF94F51
:102950008083909301018091C10080628093C100C7
:1029600008951F920F920FB60F9211248F939F9389
:10297000EF93FF9380910001E82FF0E0E25EF94FC2
:1029800090819093C6008F5F803409F480E080933B
:10299000000190910101891305C08091C1008F7DD4
:1029A0008093C100FF91EF919F918F910F900FBE87
:1029B0000F901F9018959091020180910301891743
:1029C00061F0E92FF0E0E25AF94F80819F5F903883
:1029D00009F490E09093020108958FEF08951F92FB
:1029E0000F920FB60F9211242F933F934F935F9343
:1029F0006F937F938F939F93AF93BF93EF93FF93C7
:102A00008091C6008132B1F028F48831E1F40E944F
:102A100010092AC08F3341F08E37A9F49FB7F8947C
:102A200080918D0582600BC09FB7F89480918D05D1
:102A3000816005C09FB7F89480918D058860809370
:102A40008D059FBF11C0E091030191E09E0F90386A
:102A500009F490E020910201921731F0F0E0E25A7F
:102A6000F94F808390930301FF91EF91BF91AF9154
:102A70009F918F917F916F915F914F913F912F9196
:102A80000F900FBE0F901F901895809103018093B7
:102A900002010895CF93C0918D05CC2309F48EC017
:102AA0008C2F807649F181E080938C050E94AF13D2
:102AB000C6FF17C0C5FF02C08FEF01C08DEF0E9497
:102AC000EB2D81E00E940A2E9FB7F89480918D052E
:102AD0008F7E80938D059FBF80918D0584FFFCCFF5
:102AE00003C08EEF0E94EB2D9FB7F89480918D0567
:102AF0008F7980938D059FBFC4FF06C00E94AF13DE
:102B000081E080938B0561C0C0FF0AC00E948331C1
:102B10009FB7F89480918D058E7F80938D059FBF20
:102B2000C3FF15C080918C05803149F480E2809309
:102B30008C050E948D190E94AF1910929B059FB7BA
:102B4000F89480918D05877F80938D059FBFC1FF8D
:102B50001FC080918C05883099F480E180938C05AA
:102B60000E94B6130E94AF190E94801680911B0725
:102B700081FF04C081E080939B0502C010929B05F9
:102B80009FB7F89480918D058D7F80938D059FBFB1
:102B9000C2FF14C00E94F124892B31F00E94AF13B0
:102BA00088E080938C0502C010928C059FB7F89442
:102BB00080918D058B7F80938D059FBF80918C05C3
:102BC000847319F0CF910C94AF19CF91089580912F
:102BD0009B05882341F09FB7F89480918D05826012
:102BE00080938D059FBF0895CF93DF930E94302E71
:102BF00080918C05813021F482E00E940A2E21C050
:102C000010928C0584E091E00E94E8321AC08D3069
:102C100069F0DD2389F1D1E0893209F4D0E00E9426
:102C2000DB148F3F09F446C08A3089F7EC2FF0E0BF
:102C3000EC5FFE4F10820E944A1580918B0588231D
:102C400011F0C0E0EBCF80910401811103C00E941C
:102C5000E32DF7CF843229F484E091E00E94083319
:102C6000F6CF80918C05813011F489E0F0CF84E0BB
:102C700091E00E94B509EBCF813288F28F3279F270
:102C80008832B1F0CF3428F08BE00E94E32DC0E011
:102C9000C6CF2C2F30E0E1E0EC0F9FE9980FD9016F
:102CA000AC5FBE4F9A3108F480528C93CE2FB7CFD1
:102CB000D1E0B5CF0E94E7150E944A1580918B059F
:102CC000882309F4ACCFDF91CF9108950E94E715D6
:102CD00080918C05803171F481E080939B050AC05E
:102CE00080918C05803159F40E944A1580918B05A2
:102CF000811105C00E94F124892BB1F7F1CF08950D
:102D000080911B0782FF02C0289A01C028988091F9
:102D10008C058471A1F08091840180939801809149
:102D200085018093970180910E07880F84508195CB
:102D30008093960180916F00826080936F00089568
:102D400080916F008D7F80936F0080918100887FDC
:102D500081608093810010928301809111078F3FE1
:102D600021F490918D0595FF09C090918C059430C8
:102D700029F090E00E943C2981E001C080E0909120
:102D80001B0792FF02C091E08927882311F0289A3F
:102D90000895289808951F920F920FB60F9211244C
:102DA0002F933F934F935F936F937F938F939F9353
:102DB000AF93BF93EF93FF93809183018111FEC185
:102DC0008BB190919801907E8F71892B8BB98BB1CB
:102DD000837E90919701892B8BB98091960186BD56
:102DE00082E085BD81E08093830178948091AA017F
:102DF0009091AB01892B09F0B3C08091880190912B
:102E00008701981709F4A1C0E091880186E0E89F46
:102E1000F0011124E455FE4FF093AB01E093AA01B9
:102E2000838194819093890080938800808191812F
:102E30009093A6018093A501E2818091A7018E174E
:102E4000C1F1E093A70183E1E89FF0011124E05371
:102E5000FE4FF093A901E093A80185859685A7858B
:102E6000B089B695A795979587958093890190939A
:102E70008A01A0938B01B0938C0180938D01909374
:102E80008E01A0938F01B093900180939101909354
:102E90009201A0939301B093940180911B079091AC
:102EA0001C0790FF06C08289882319F081890E943F
:102EB000D813E091A801F091A9019091840180813B
:102EC000892780939801A091AA01B091AB01159632
:102ED0002C9181819281A381B481022E04C0B69588
:102EE000A795979587950A94D2F780939901909327
:102EF0009A01A0939B01B0939C0185819681A78143
:102F0000B085022E04C0B695A795979587950A942B
:102F1000D2F780939D0190939E01A0939F01B0935F
:102F2000A00181859285A385B48504C0B695A79537
:102F3000979587952A95D2F78093A1019093A20146
:102F4000A093A301B093A4010BC00E94A0169FB749
:102F5000F89480918D05846080938D059FBF2EC16C
:102F60000E94812D109297014091990150919A01F0
:102F700060919B0170919C018091890190918A01DF
:102F8000A0918B01B0918C01840F951FA61FB71FD4
:102F90008093890190938A01A0938B01B0938C0157
:102FA000E091A801F091A901458556856785708952
:102FB000481759076A077B0768F524E020939701B3
:102FC0004585568567857089841B950BA60BB70BC5
:102FD0008093890190938A01A0938B01B0938C0117
:102FE000208180918F0590919005A0919105B091DD
:102FF000920525FF04C00197A109B10903C00196FC
:10300000A11DB11D80938F0590939005A09391050C
:10301000B093920540919D0150919E0160919F0156
:103020007091A00180918D0190918E01A0918F01EE
:10303000B0919001840F951FA61FB71F80938D013B
:1030400090938E01A0938F01B09390014585568592
:1030500067857089481759076A077B0778F52091BB
:10306000970128602093970145855685678570896B
:10307000841B950BA60BB70B80938D0190938E014B
:10308000A0938F01B093900120818091930590913E
:103090009405A0919505B091960526FF04C001976F
:1030A000A109B10903C00196A11DB11D809393052B
:1030B00090939405A0939505B09396054091A10136
:1030C0005091A2016091A3017091A401809191019E
:1030D00090919201A0919301B0919401840F951F5A
:1030E000A61FB71F8093910190939201A093930123
:1030F000B0939401458556856785708948175907AF
:103100006A077B0778F5209197012061209397014A
:103110004585568567857089841B950BA60BB70B73
:103120008093910190939201A0939301B0939401A5
:1031300020818091970590919805A0919905B09173
:103140009A0527FF04C00197A109B10903C00196A0
:10315000A11DB11D8093970590939805A0939905A3
:10316000B0939A0580918C05843039F490918E0546
:10317000809197018923809397018091A501909177
:10318000A60101979093A6018093A501892B69F46C
:103190001092AB011092AA01809188018F5F8093F9
:1031A0008801863011F410928801909185018091F8
:1031B000970189278093970110928301FF91EF91E6
:1031C000BF91AF919F918F917F916F915F914F913F
:1031D0003F912F910F900FBE0F901F9018951F9247
:1031E0000F920FB60F9211248F939F938BB19091F2
:1031F00085019C71837E892B8BB915BC9F918F9122
:103200000F900FBE0F901F9018950F931F93CF93A1
:10321000DF931092850110928401C0E0D0E01C2F52
:103220000C2F20910F0730E08C2F0C2E02C035950B
:1032300027950A94E2F720FF07C00E94632390912C
:103240008501892B809385012091100730E002C011
:10325000359527950A95E2F720FF08C0812F0E9437
:103260006D2390918401892B809384012196C33032
:10327000D105A9F6DF91CF911F910F9108950E947A
:10328000A0168BE2E4E5F1E0DF011D928A95E9F7F3
:1032900083E2E9E8F1E0DF011D928A95E9F71092F7
:1032A000820110928101109288011092870181E0C1
:1032B00080938601109283010E9405198BB1837E51
:1032C00090918501892B8BB98BB18F71909184017D
:1032D000892B8BB908958AB18C618AB9209A8AB1F9
:1032E000806E8AB9E1E8F0E080818F7E8083808102
:1032F00088608083E0E8F0E080818C7F808380813B
:103300008F708083EEE6F0E08081887F808314BC3C
:1033100015BC8081816080830895CF93DF93C09135
:103320008101D09182012097B9F081E0809355010D
:1033300060916B0170916C0180916D0190916E01B3
:103340009B01AC010E94BA376E8B7F8B888F998F5F
:103350001092820110928101DF91CF9108952F92F6
:103360003F924F925F926F927F928F929F92AF9215
:10337000BF92CF92DF92EF92FF920F931F93CF9362
:10338000DF93CDB7DEB7E8970FB6F894DEBF0FBE78
:10339000CDBF9091880180918601981709F44FC69E
:1033A0008091810190918201892B09F080C20E9455
:1033B000F124FC019093820180938101892B09F40F
:1033C0003EC680915501882319F010925501E0C046
:1033D000809154018F5F853019F08093540102C0B1
:1033E000109254019091540143E1499F900111249E
:1033F000890100531E4F1093800100937F01858146
:10340000D8018C9386819781A085B185AC01BD01DF
:1034100093E0440F551F661F771F9A95D1F7D80187
:1034200011964D935D936D937C931497828593854C
:10343000A485B585AC01BD0123E0440F551F661F6F
:10344000771F2A95D1F7D80115964D935D936D930B
:103450007C93189786859785A089B189AC01BD01B9
:1034600033E0440F551F661F771F3A95D1F7D801F7
:1034700019964D935D936D937C931C9782899389E4
:10348000A489B589AC01BD01A3E0440F551F661F97
:10349000771FAA95D1F7D8011D964D935D936D9333
:1034A0007C935097848152968C9360817181828144
:1034B00093810E94DB13F801818B009181011091AF
:1034C0008201D80152966D917D918D919C91559775
:1034D0000E940A36609356017093570180935801F9
:1034E00090935901F80122A533A544A555A50E9442
:1034F00062359B01AC0160935A0170935B0180932C
:103500005C0190935D0160E070E080EA9FE30E94BF
:10351000623560935E0170935F01809360019093C8
:103520006101109262011092630110926401109285
:10353000650180918C058032E1F460917301709196
:103540007401809175019091760160936B01709385
:103550006C0180936D0190936E019B01AC010E9400
:10356000BA37D80156966D937D938D939C93599756
:103570000FC0F80166897789808D918D0E94593836
:1035800060936B0170936C0180936D0190936E0159
:1035900010926701109268011092690110926A01FD
:1035A0000091810110918201D80196968D909D9095
:1035B000AD90BC909997A501940160E070E080E027
:1035C0009FE30E9462352B013C0180918C05F8013C
:1035D000C2A4D3A4E4A4F5A4803209F04FC0F2E061
:1035E000F0936601D80156962D913D914D915C91D5
:1035F000599729833A834B835C83C301B2010E94AC
:10360000BA379B01AC01C701B6010E9462342B019D
:103610003C0120E030E0A9010E94583587FF1DC021
:10362000A5019401C501B4010E946334A70196016C
:103630000E94BA379B01AC0169817A818B819C81A0
:103640000E9462340E945938609373017093740130
:1036500080937501909376012AC140926701509240
:1036600068016092690170926A0110927301109270
:103670007401109275011092760119C110926601C1
:10368000C0927701D0927801E0927901F0927A01AC
:103690000E9401254B015C016093730170937401DA
:1036A00080937501909376019B01AC010E94BA371B
:1036B0006D837E838F8398870091810110918201B1
:1036C000D8019A962D913D914D915C919D972987B6
:1036D0003A874B875C8756962D913D914D915C9131
:1036E000599729833A834B835C839B01AC016981A1
:1036F0007A818B819C810E9462349B01AC01C30161
:10370000B2010E94BA379B01AC0169857A858B852D
:103710009C850E94633420E030E040E05FE30E943B
:10372000BA376B017C0120E030E0A9010E947A37B2
:1037300018160CF0ACC029853A854B855C85C7010D
:10374000B6010E94583587FF8EC0F80182A093A071
:10375000A4A0B5A02D813E814F815885C501B4013B
:103760000E9462349B01AC01C301B2010E94BA37CE
:1037700060937B0170937C0180937D0190937E0127
:10378000A70196010E94583587FF3DC0C501B401CD
:103790000E94593860936F0170937001809371019A
:1037A00090937201A501940169817A818B819C813A
:1037B0000E945835811104C0F1E0F093660177C092
:1037C00029813A814B815C81C501B4010E94623438
:1037D0009B01AC01C301B2010E94BA379B01AC014D
:1037E00060917701709178018091790190917A01CF
:1037F0000E9462346093770170937801809379011D
:1038000090937A0154C0C0927701D0927801E092EF
:103810007901F0927A01C0927B01D0927C01E09212
:103820007D01F0927E01D80196966D917D918D91EA
:103830009C9199979B01AC010E946334A70196016A
:103840000E94BA372D813E814F8158850E94633492
:103850000E94593860936F017093700180937101D9
:103860009093720124C0B2E0B093660180916B0125
:1038700090916C01A0916D01B0916E0180936F01E8
:1038800090937001A0937101B093720110C01092D7
:103890007701109278011092790110927A0180924A
:1038A0006F0190927001A0927101B09272018091AB
:1038B0008701E82FF0E0FA87E98746E09F01429F01
:1038C000F001439FF00D1124E455FE4F8091540107
:1038D000828380918101909182019A8B898BDC0196
:1038E0009A96BC91BBA7FC01F3A5FCA7DC019C96B2
:1038F000BC91BDA7FC01F5A5FEA720915E0130910A
:103900005F0140916001509161016BA57CA58B2FF7
:103910009F2F0E9462346FA378A789A79AA720E0FF
:1039200030E0A9010E94583587FF04C01FA218A6E5
:1039300019A61AA6209177012F8B30917801388F24
:1039400040917901498F50917A015A8F80916F018E
:103950008B8F909170019C8FA0917101AD8FB09170
:103960007201BE8FE0917B01EF8FF0917C01F8A393
:1039700020917D0129A330917E013AA340916601F7
:103980004D8730906B0120906C0150916D015983EF
:1039900080916E018D83909167019BA3A091680136
:1039A000ACA3B0916901BDA3E0916A01EEA320919F
:1039B00073013091740140917501509176012BABE8
:1039C0003CAB4DAB5EAB0BA51CA53DA538AF4EA5E2
:1039D0004FAB8EE3C82E83ECD82E8EE2E82E89E31F
:1039E000F82E412C512C3201CB8ADC8AED8AFE8ADA
:1039F0009D85992321F0913009F482C0B4C0A98932
:103A0000BA8996962D913D914D915C919997C701F8
:103A1000B6010E94BA374B015C0120E030E040E083
:103A20005FE30E94BA379B01AC01632D722D89813F
:103A30009D810E9463349B01AC01C701B6010E94C5
:103A4000BA379B01AC01B80188AD9FA90E946234CE
:103A50008B0188AF9FAB2F89388D498D5A8D0E947D
:103A6000583587FF40C02F89388D498D5A8D6BA5F9
:103A70007CA58DA59EA50E9462349B01AC010E948D
:103A800063346B017C012B8D3C8D4D8D5E8D632DE0
:103A9000722D89819D810E9463349B01AC01C70115
:103AA000B6010E9462356B017C012F8D38A149A1BE
:103AB0005AA16F89788D898D9A8D0E945835811110
:103AC00003C0B2E0BD8702C0E1E0ED873B8C2C8CE7
:103AD000FD8DF9832E8D2D830F89188D398D38AF8B
:103AE0004A8D4FABBFC0A5019401632D722D898112
:103AF0009D810E946334362E272E89839D83B2C018
:103B0000A70196016B8D7C8D8D8D9E8D0E94BA379D
:103B10009B01AC01B80188AD9FA90E9462344B01A2
:103B20005C012F8D38A149A15AA10E94583587FF09
:103B300096C02F8D38A149A15AA1B80188AD9FA97F
:103B40000E9462342B8D3C8D4D8D5E8D0E946235BE
:103B50006B017C010F8D18A159A158AF8AA18FABC1
:103B600092E09D877FC0A989BA8996962D913D9153
:103B70004D915C919997C701B6010E94BA374B01EC
:103B80005C019B01AC01632D722D89819D810E9496
:103B90007A371816E4F520E030E040E05FE3C50135
:103BA000B4010E94BA379B01AC01632D722D89814B
:103BB0009D810E9462349B01AC01C701B6010E9445
:103BC000BA379B01AC01B80188AD9FA90E9462344D
:103BD0006FA778AB89AB9AAB2BA13CA14DA15EA19D
:103BE0000E947A3718169CF4A5019401632D722D5A
:103BF00089819D810E946234362E272E89839D8380
:103C00000FA518A9B9A9B8AFEAA9EFAB2BC02BA192
:103C10003CA14DA15EA1B80188AD9FA90E9462346C
:103C20009B01AC010E9463346B017C012BA93CA970
:103C30004DA95EA9632D722D89819D810E946334F7
:103C40009B01AC01C701B6010E9462356B017C018A
:103C50000BA11CA1FDA1F8AF2EA12FAB03C08401C5
:103C6000A8AEBFAAA7019601C301B2010E946334A6
:103C70002B013C012B893C894D895E890E94583576
:103C800087FF07C0A30192016B897C898D899E897A
:103C90006EC02FA138A549A55AA5B80188AD9FA926
:103CA0000E947A3718160CF452C03D853093660195
:103CB000832D922DA981BD8180936B0190936C011E
:103CC000A0936D01B0936E0180915A0190915B01B8
:103CD000A0915C01B0915D018D879E87AF87B88B05
:103CE000980148AD5FA9BC01CD010E94BA37698334
:103CF0007A838B839C830E9441356B017C016091A8
:103D000056017091570180915801909159010E947C
:103D100041354B015C01A70196010E9462340E946B
:103D2000DB356D837E838F83988726E0A985BA85EE
:103D30002A9FF0012B9FF00D1124E455FE4F4D8179
:103D40005E8151834083CA01892B29F14BC02EE348
:103D500033EC4EE259E36B897C898D899E890E9400
:103D600063346B8B7C8B8D8B9E8BA30192010E94A5
:103D700062346B017C012BA13CA14DA15EA1B80175
:103D800088AD9FA90E947A3718160CF431CE9D8514
:103D9000909366018DCF80918C05803219F5109239
:103DA0006B0110926C0110926D0110926E011092D5
:103DB0006201109263011092640110926501C09239
:103DC0005601D0925701E0925801F09259012D8589
:103DD0003E854F855889C701B6010E946235A98981
:103DE000BA891AC120916201309163014091640146
:103DF00050916501C301B2010E9463342B013C0163
:103E000029813A814B815C81C501B4010E946234F1
:103E10009B01AC01C301B2010E9462354B015C0100
:103E200029813A814B815C81C701B6010E946234CD
:103E3000A50194010E94BA376093620170936301F7
:103E4000809364019093650120EC31EE44E65EE4DA
:103E5000C501B4010E94BA370E9441350E94DB358A
:103E6000603DB7E07B078105910560F446E0298558
:103E70003A85429FF001439FF00D1124E455FE4F17
:103E8000158253C0603A5FE075078105910560F4C3
:103E900026E0A985BA852A9FF0012B9FF00D1124F9
:103EA000E455FE4F31E011C060344FE174078105E5
:103EB000910568F426E0A985BA852A9FF0012B9F19
:103EC000F00D1124E455FE4F32E035830CC0A6E01E
:103ED00049855A85A49FF001A59FF00D1124E45552
:103EE000FE4FB3E0B58346E029853A85429FF00155
:103EF000439FF00D1124E455FE4F2581022E04C08E
:103F000096958795779567950A94D2F7AD81BE818E
:103F100002C0AA0FBB1F2A95E2F7B183A0836115E7
:103F20007105B1E08B07910568F446E029853A8573
:103F3000429FF001439FF00D1124E455FE4F74831E
:103F4000638304C08FEF9FEF948383838091860106
:103F5000809387018F5F863019F08093860102C0BD
:103F600010928601209167013091680140916901AA
:103F700050916A01B80188AD9FA90E947A3718163E
:103F8000C4F4E0918101F0918201C801A8ADBFA9FC
:103F900082A793A7A4A7B5A729813A814B815C8109
:103FA0002093560130935701409358015093590183
:103FB000F0C920E030E0A901B80188AD9FA90E94B6
:103FC0007A371816ACF510926B0110926C011092B2
:103FD0006D0110926E0110926201109263011092B5
:103FE000640110926501C0925601D0925701E0928F
:103FF0005801F092590100918101109182012091A4
:104000005A0130915B0140915C0150915D01C70103
:10401000B6010E946235D8019A966D937D938D9377
:104020009C939D970E94742888E080938C0507C01C
:1040300010928201109281010E94DD24AAC9E896A3
:104040000FB6F894DEBF0FBECDBFDF91CF911F91A9
:104050000F91FF90EF90DF90CF90BF90AF909F9027
:104060008F907F906F905F904F903F902F9008952A
:10407000F999FECF92BD81BD81E08FBB80B50895D7
:10408000F894F999FECF92BD81BD81E08FBB80B5D8
:104090008627482F082E000C550B262F30E02423AE
:1040A0003523232B39F06F3F19F060BD84E006C043
:1040B00084E104C0882321F060BD84E28FBBF99ABB
:1040C000789408958F929F92AF92BF92CF92DF9291
:1040D000EF92FF920F931F93CF937C014A016B01E4
:1040E000C40ED51E8B01C0E05C01A61AB70AC80138
:1040F0008A0D9B1D0C151D0599F0C11108C02C2FB0
:10410000CC0F330B232F221F2227221F01C021E0B7
:10411000F80161918F01C22FC60F0E944020E7CFA6
:104120006C2FC701880D991DCF911F910F91FF90A2
:10413000EF90DF90CF90BF90AF909F908F900C94B6
:1041400040208F929F92AF92BF92CF92DF92EF92D8
:10415000FF920F931F93CF934B017A016C01C40E12
:10416000D51E8C01C0E05B01A81AB90AC501800FF9
:10417000911F0C151D0599F00E943820C11108C02F
:104180002C2FCC0F330B232F221F2227221F01C0DD
:1041900021E0C22FC80FF80181938F01E7CFC4013E
:1041A0008E0D9F1D0E94382021E030E0C81711F0CD
:1041B00020E030E0C901CF911F910F91FF90EF9067
:1041C000DF90CF90BF90AF909F908F90089521E5A2
:1041D000829FC001112440E550E09D5F0C94622055
:1041E00040E550E0BC018EEA93E00C9462202DE0A3
:1041F000829FC00111244CE050E09E5F0C9462202D
:1042000069E080E090E00E9440204EE450E06EEDD6
:1042100076E081E090E00C946220EEEDF6E08AE03A
:1042200080AB8FEF83AB11AA82E082AB8FE184ABCE
:104230008AE097EDA3EABCE385AB96ABA7ABB0AF42
:104240008FE692E1A3E0BBE381AF92AFA3AFB4AF3F
:1042500010921D0780E090E0A8ECB1E480931E0767
:1042600090931F07A0932007B093210780E090E070
:10427000AAEFB4E48093220790932307A093240726
:10428000B093250784E690E0909327078093260754
:1042900080E090E0A0E8BFE380932807909329078F
:1042A000A0932A07B0932B0782E391E090931C0719
:1042B00080931B0780E090E0A8ECB2E480839183B8
:1042C000A283B38384839583A683B78380879187F2
:1042D000A287B38780E090E4ACE9B5E48487958752
:1042E000A687B787808B918BA28BB38B848B958BA2
:1042F000A68BB78B80E09FECA9E1BAE4808F918F09
:10430000A28FB38F848F958FA68FB78F80E098ECA4
:10431000AFEAB8E480A391A3A2A3B3A380E090E89E
:10432000AAEFB3EC84A395A3A6A3B7A380E090E87B
:10433000A3ECB3EC80A791A7A2A7B3A780E090E07D
:10434000A0E2B2EC84A795A7A6A7B7A70C9400217A
:104350001F93CF93DF93182FEB0181E5189FB001D6
:1043600011247D5F40E550E0CE010E94A120892B01
:1043700039F41882BE01812F0E94E72080E001C03D
:1043800081E0DF91CF911F910895CF93DF93EC01EE
:1043900040E550E06EEA73E00E94A120892B21F4F1
:1043A0001882CE010E94F02081E0DF91CF91089524
:1043B0001F93CF93DF93182FEB018DE0189FB0016F
:1043C00011247E5F4CE050E0CE010E94A120892B99
:1043D00059F48CE0FE0111928A95E9F7BE01812F14
:1043E0000E94F72080E001C081E0DF91CF911F9112
:1043F000089580E090E00E943820893059F44EE41E
:1044000050E061E070E08EED96E00E94A12021E096
:10441000892B09F420E0822F0895CF92DF92EF924A
:10442000FF92CF93DF93C82F6A017B0120E030E039
:10443000A901C701B6010E94583587FD07C1C436DE
:1044400008F441C08CE98C0F20E0833098F590E0AF
:10445000880F991F880F991F223059F0FC012330D3
:10446000F1F0213019F0E252F94F1FC0E651F94F37
:104470001CC0EC01CA50D94F20E030E040E752E4C4
:10448000C701B6010E94BA3720E030E040E752E4AD
:104490000E94BA37688379838A839B83D3C0EE5F97
:1044A000F84FF7FAF094F7F8F094C082D182E282E4
:1044B000F382C8C02F5F8A3008F4CAC0243009F4E0
:1044C000C7C08A50C2CFC701B6010E949D380E9462
:1044D000DB358C2F90E08932910508F0B9C0FC01E2
:1044E000EF5AFF4F0C94F138633008F4B3C0609377
:1044F0000E07A8C060931107A5C060930F0702C004
:10450000609310070E9405199DC080911B07909130
:104510001C07662311F0846091C08B7F8FC080914F
:104520001B0790911C07662311F0806487C08F7B66
:1045300085C080911B0790911C07662311F080684D
:104540007DC08F777BC060931207C0921307D09213
:104550001407E0921507F092160774C0C09217076F
:10456000D0921807E0921907F0921A076BC0809159
:104570001B0790911C07662311F081605FC08E7F3E
:104580005DC080911B0790911C07662311F082602B
:1045900055C08D7F53C080911B0790911C076623E7
:1045A00021F084FF59C0806249C08F7D47C080914F
:1045B0001B0790911C07662311F0886001C0877F5C
:1045C00090931C0780931B070E9478293BC0809121
:1045D0001B0790911C07662311F080612FC08F7C10
:1045E0002DC060931D072EC0C0921E07D0921F07DA
:1045F000E0922007F092210725C0C0922207D092B6
:104600002307E0922407F09225071CC070E0709306
:1046100027076093260716C0C0922807D092290763
:10462000E0922A07F0922B070DC080911B07909112
:104630001C07662311F0916001C09E7F90931C07B8
:1046400080931B070E94002180E007C084E005C022
:1046500083E003C086E001C08AE0DF91CF91FF9044
:10466000EF90DF90CF9008951F93CF93DF93CDB756
:10467000DEB72C970FB6F894DEBF0FBECDBF0E94F9
:10468000F921811107C087E00E94E32D0E940D21CE
:104690000E94382E10E0BE016F5F7F4F812F0E9475
:1046A000D821811103C087E00E94E32D1F5F1830DD
:1046B00091F72C960FB6F894DEBF0FBECDBFDF91F9
:1046C000CF911F910895882321F0813021F080E15E
:1046D000089584E0089588E00895882321F08130CA
:1046E00021F080E8089580E2089580E40895882309
:1046F00021F0813021F080E1089582E0089584E086
:1047000008952F923F924F925F926F927F928F9275
:104710009F92AF92BF92CF92DF92EF92FF920F9350
:104720001F93CF93DF93C0914D02C11101C0C2E12D
:10473000C150D0914B02CD1709F41BC1EC2EF12CC6
:104740002EE2C29F80011124015B1D4FF801A28C53
:10475000B38CC48CD58C66A177A180A591A59B0153
:10476000AC010E946334F80122A533A544A555A5E8
:104770000E94BA374B018C019B01AC01B501C60107
:104780000E94583587FD02C0540168018EE28E9D5B
:10479000F0018F9DF00D1124E15BFD4FC501D601A5
:1047A000868B978BA08FB18FC11101C0C2E1C15020
:1047B000CD1761F02EE22E9DC0012F9D900D11248A
:1047C0009C01215B3D4F7901DEE233C080914E02B6
:1047D000D8135EC00E948D195BC0AC2EB12CDA9D3F
:1047E000C001DB9D900D1124FC01E15BFD4F6F01C9
:1047F000C11101C0C2E1C15080914E02C81302C074
:104800000E948D19DA9D8001DB9D100D1124015B42
:104810001D4FF801828C938CA48CB58CA50194015A
:1048200066897789808D918D0E945835811106C0E7
:10483000760180914B02C813D0CF2AC0F80166A13F
:1048400077A180A591A59B01AC010E946334F8017A
:1048500022A533A544A555A50E94BA37F70126899C
:104860003789408D518D0E9463342B013C01A50195
:1048700094010E945835F80187FF05C0468A578A7F
:10488000608E718ED5CF868A978AA08EB18ED0CF5A
:10489000D0914B02FEE2DF9F80011124015B1D4F8E
:1048A000C1E0CD0FC23109F4C0E020904D028EE28C
:1048B000382EC21509F45BC0CC2ED12C3C9CC00113
:1048C0003D9C900D11249C01215B3D4F7901F80125
:1048D00046885788608C718CF90186889788A08CEF
:1048E000B18CA5019401C301B2010E94583587FF24
:1048F00024C0F80166A177A180A591A59B01AC0118
:104900000E946334F80122A533A544A555A50E9451
:10491000BA379B01AC01C301B2010E9463342B0181
:104920003C01A50194010E94583587FF06C0F7019C
:10493000468A578A608E718EDC2F3C9CF0013D9C2C
:10494000F00D1124E15BFD4F228D338D448D558D8B
:1049500066897789808D918D0E945835811101C0BB
:10496000DC2FCF5FC23109F4C0E08701A2CFD09322
:104970004B02DF91CF911F910F91FF90EF90DF904D
:10498000CF90BF90AF909F908F907F906F905F90EF
:104990004F903F902F9008958CE1EFE2F2E0DF011D
:1049A0001D928A95E9F710924E0210924D0281E015
:1049B00080934C0210924B02089590914E02809188
:1049C0004D02891769F081E0890F823109F480E096
:1049D00020914B02921302C080934B0280934E02AF
:1049E000089580914E0290914D02981739F02EE271
:1049F000829FC0011124815B9D4F089580E090E06B
:104A00000895E0914E02EF5FE23109F4E0E0809119
:104A10004D02E81761F08EE2E89FF0011124E15B9E
:104A2000FD4F66897789808D918D0C94593860E0AF
:104A300070E0CB01089581E020914E0290914C02EC
:104A4000291380E008952F923F924F925F926F92C8
:104A50007F928F929F92AF92BF92CF92DF92EF920E
:104A6000FF920F931F93CF93DF93CDB7DEB7E497F9
:104A70000FB6F894DEBF0FBECDBF4B8F5C8F6D8F2E
:104A80007E8FB22E20914D02422F50E05AA349A3AF
:104A9000EEE22E9FA0011124FA01E15BFD4FE082BE
:104AA000F18202831383C482128A138A148A158ABC
:104AB00012A613A614A615A6158249E956E766E9BB
:104AC0007EE746A357A360A771A71C014EED56E0F1
:104AD0005EA34DA3CE010D969EA78DA74FE252E097
:104AE0005CA74BA70C979CA38BA38EE2289FA001E9
:104AF00011245CAB4BAB2BA13CA138A32F8F4FE211
:104B000052E058A74FA38EEDC82E86E0D82EE12C98
:104B1000F12CA12C8F01CF01429698AB8FA735962F
:104B2000FAABE9AB4801FAE28F0E911CF1016191F9
:104B30007191819191911F01F60120813181428112
:104B400053810E94BA370E948737EDA5FEA5619375
:104B5000719381939193FEA7EDA7EFA1F8A54190E2
:104B6000519061907190F8A7EFA3641975098609B7
:104B700097092B013C0197FF07C0442455243201BB
:104B8000461A570A680A790AEBA9FCA9EE0DFF1D1F
:104B9000E15BFD4F4682578260867186EFA5F8A9DA
:104BA0002081318142815381421653066406750685
:104BB00010F429013A01EFA5F8A9408251826282DE
:104BC00073820E940C36F60120813181428153812B
:104BD0000E9462352B013C01EF8DF8A16193719326
:104BE00081939193F8A3EF8F20E030E0A9010E9418
:104BF000583587FF08C08A2D0E946D23E9A9FAA9BC
:104C00009081892B8083A3019201C301B2010E948C
:104C1000BA37F40120813181428153810E9463348B
:104C2000F4016083718382839383A394F4E0EF0E95
:104C3000F11C24E0C20ED11C3CE0E316F10409F0A3
:104C400075CF0E9459386B017C01F4016083718338
:104C500082839383F80182899389A489B589892BFA
:104C60008A2B8B2B09F4FBC120E030E0A9016B8D6E
:104C70007C8D8D8D9E8D0E94583587FD21C0BB2077
:104C800061F02B8D3C8D4D8D5E8DC701B6010E946C
:104C900062356B8F7C8F8D8F9E8F20E030E040E8F7
:104CA0005FE36B8D7C8D8D8D9E8D0E94583587FFC7
:104CB0000FC01B8E1C8EF0E8FD8F2FE32E8F08C0D7
:104CC00039E93B8F46E74C8F56E95D8F8EE78E8F33
:104CD000A701960160E070E080E89FE30E946235E2
:104CE0006FA378A789A79AA7FE013D96FA8FE98F4F
:104CF000812C912C54012EE249A15AA1249FC0017C
:104D0000259F900D1124FC01EB58FD4FF8A3EF8F68
:104D1000EBA1FCA1C080D180E280F38020E030E0F4
:104D2000A901C701B6010E945835882309F46CC057
:104D30002FA138A549A55AA5C701B6010E94BA37C7
:104D40002B013C01EBA1FCA16083718382839383DF
:104D50009B01AC0160E070E080E89FE30E94623557
:104D60006B017C01E894F7F8EDA1FEA1248535855F
:104D700046855785C701B6010E94BA371B018C01D1
:104D80009B01AC016B8D7C8D8D8D9E8D0E94583565
:104D900087FD04C02B8E3C8E0D8F1E8FEF8DF8A1EA
:104DA0002080318002811381EDA1FEA1208D318D03
:104DB000428D538DC701B6010E94BA376B017C0149
:104DC0009B01AC01B101C8010E94583587FD02C0AA
:104DD00016018701C101D801EF8DF8A1808391836D
:104DE000A283B383EBA5FCA524853585468557852D
:104DF000C301B2010E94BA379B01AC01C501B401E5
:104E00000E9462344B015C012BA13CA12C5F3F4FFF
:104E10003CA32BA34BA55CA54C5F5F4F5CA74BA7A6
:104E20008DA19EA104969EA38DA3E98DFA8D2E17C8
:104E30003F0709F06DCF90914D0280914E0298137B
:104E400013C08EE229A13AA1829FF001839FF00D49
:104E50001124E15BFD4F168A178A108E118E168E73
:104E6000178E10A211A25BC0A501940160E070E052
:104E700080E89FE30E94623420E030E040E05FE39E
:104E80000E94BA370E9459386B017C018EE249A119
:104E90005AA1849FF001859FF00D1124E15BFD4F25
:104EA0002091130730911407409115075091160770
:104EB00066A177A180A591A50E94BA37A7019601A6
:104EC0000E94BA374B015C01A701960160E070E0D7
:104ED00080E89FE30E9462349B01AC01C501B401EC
:104EE0000E9462357B018C0120E030E0A9010E9424
:104EF000583587FF04C0E12CF12C00E010E08EE271
:104F000029A13AA1829FF001839FF00D1124E15B5A
:104F1000FD4FA701B801468F578F60A371A32B8D5A
:104F20003C8D4D8D5E8D6B8D7C8D8D8D9E8D0E940B
:104F3000BA377B018C018EE249A15AA1849FF0010E
:104F4000859FF00D1124E15BFD4FC701D80182A3BD
:104F500093A3A4A3B5A3A68CB78CC0A0D1A0609046
:104F60004702709048028090490290904A02930153
:104F7000A401B701C8010E94583587FD05C0762DF0
:104F8000672D982D892D04C07E2D6F2D902F812F98
:104F9000272F362F492F582FB501C6010E945835AB
:104FA00087FD0DC09301A401B701C8010E945835C7
:104FB00087FD03C05301640102C0570168018EE2FE
:104FC00029A13AA1829FF001839FF00D1124E15B9A
:104FD000FD4FC501D601828F938FA48FB58F8CE0D2
:104FE000FE013196ABE3B2E001900D928A95E1F7B4
:104FF000C701D8018093470290934802A0934902C9
:10500000B0934A028CE0FE013D96AFE2B2E001901F
:105010000D928A95E1F780914C0280934D028F5F4B
:10502000823109F480E080934C02E4960FB6F89444
:10503000DEBF0FBECDBFDF91CF911F910F91FF90CB
:10504000EF90DF90CF90BF90AF909F908F907F9028
:105050006F905F904F903F902F900C948123E49637
:105060000FB6F894DEBF0FBECDBFDF91CF911F9179
:105070000F91FF90EF90DF90CF90BF90AF909F90F7
:105080008F907F906F905F904F903F902F900895FA
:10509000EFE2F2E0ABE8B5E014964D915D916D91D1
:1050A0007C911797408351836283738318964D9147
:1050B0005D916D917C911B974483558366837783C3
:1050C0001C968D919D910D90BC91A02D808791870C
:1050D000A287B387089580914D0290914E0289175F
:1050E00008F48E5E891B08950E948D1980914E02EE
:1050F00080934B020C9481234F925F926F927F9228
:10510000AF92BF92CF92DF92EF92FF920F931F93D5
:10511000CF93DF936C01FB015A018081D601A80F68
:10512000B11D9C918D019D3231F40E5F1F4F119680
:105130009C91D1E00AC09B3219F00F5F1F4F04C051
:105140000E5F1F4F11969C91D0E0512C612CC0E056
:1051500020E030E0A901780160ED762E790E89E03B
:105160008715D8F06394A8E0A61598F05110C150A7
:10517000A5E0B0E00E94F738DC01CB01880F991F51
:10518000AA1FBB1F9C01AD01270D311D411D511DE3
:105190000BC0511009C0CF5F07C0BEEF7B1209C022
:1051A000511007C0552453940F5F1F4FD7019C9196
:1051B000D2CF662009F450C07F01CA01B9010E9414
:1051C0000A362B013C0120E030E0A9010E9458354D
:1051D000882349F1CF3F64F42AE037ED43E25CE3F2
:1051E000C301B2010E94BA372B013C01CE5FF2CF5E
:1051F000CF3F59F42DEC3CEC4CEC5DE3C301B20124
:105200000E94BA372B013C010EC0CC2361F020E094
:1052100030E040E251E4C301B2010E94BA372B01F1
:105220003C01C150F2CFDD2351F077FA709477F84A
:105230007094F501408251826282738206C0D5016A
:105240004D925D926D927C9213970C191D0901503D
:10525000F701008381E001C080E0DF91CF911F91D1
:105260000F91FF90EF90DF90CF90BF90AF907F9025
:105270006F905F904F900895009741F0EFE9FFE045
:105280003197F1F700C000000197F6CF08958F9293
:105290009F92AF92BF92CF92DF92EF92FF926901FD
:1052A0007A019B01AC010E94BA374B015C01A70156
:1052B0009601C701B6010E94BA379B01AC01C50136
:1052C000B4010E946334FF90EF90DF90CF90BF90C5
:1052D000AF909F908F900C945938EBE6F0E080816E
:1052E000897E8083E8E6F0E080818E7F8083089568
:1052F00084B1897E84B990911B0785B196FF02C065
:10530000897E01C0866185B993FF0BC080916B00D7
:10531000866180936B008091680081608093680053
:1053200008950C946D291F920F920FB60F921124BD
:105330002F933F934F935F936F937F938F939F939D
:10534000AF93BF93EF93FF9380918C05813071F001
:1053500080918D0585FD0AC00E9410099FB7F894C1
:1053600080918D05806680938D059FBFFF91EF91A1
:10537000BF91AF919F918F917F916F915F914F916D
:105380003F912F910F900FBE0F901F9018952F9265
:105390003F924F925F926F927F928F929F92AF92C5
:1053A000BF92CF92DF92EF92FF920F931F93CF9312
:1053B000DF93CDB7DEB76E970FB6F894DEBF0FBEA2
:1053C000CDBF90918B059111C0C1082F809122070C
:1053D00090912307A0912407B09125078D8B9E8B78
:1053E000AF8BB88FDE011D96BC8BAB8B32E0A32E4A
:1053F00037E0B32E6D019E01205F3F4F7901212CD4
:10540000312C812C912C10E0812F0E947723D70121
:105410008D937D01812F0E946323F60181936F019B
:10542000D5014D905D906D907D905D01A30192013D
:10543000B101C4010E947A37181614F41201430115
:105440001F5F133009F720E030E040EC5FEBB10163
:10545000C4010E94BA372B013C010E94CC2426E0F3
:10546000922EBB24B394E02FF0E0FE8FED8F9301DA
:1054700082013058098F1A8F2B8F3C8F8B8813E055
:10548000810E80911B0786FD02C0AB2C03C081E01A
:10549000AB2CA826E0901D07F12C9E012F5F3F4FFB
:1054A0001901F90180E090E0D12C60E0782F2D8D7A
:1054B0003E8D082E02C0359527950A94E2F7A90182
:1054C0004170552720FF11C06F5FB11009C0098DD1
:1054D0001A8D2B8D3C8D008311832283338309C069
:1054E000408251826282738204C0108211821282D1
:1054F0001382970102C0359527957A95E2F720FF30
:1055000009C00081118122813381305800831183C9
:1055100022833383452B41F0ADE0B0E0AC0FBD1FDB
:10552000A80FB91F2C91D22A019634968330910589
:1055300009F0BCCF70E080E090E00E940A360E9443
:1055400059389B01AC01D0928E056D897E898F8977
:10555000988D0E94BA37AB01BC01C12CE12CF12C13
:10556000870120E0CE0101960E9423250E94AF19F9
:105570000E94801616E193B1A1109127DE0150968A
:10558000FE013D968191282F2D2129F02C91292370
:1055900011F08095D82211968E12F4CFD0928E05FC
:1055A0000E94AF1980918D0584FF03C00E944A15A7
:1055B000CCC08D2D8C71F9F60E943F190E94CC242D
:1055C00080912607909127070E943C2980911E0711
:1055D00090911F07A0912007B09121078D8B9E8B82
:1055E000AF8BB88F81E0B8269A9491104ACF809102
:1055F0001D07082F10E01E8B0D8B809028079090C0
:105600002907A0902A07B0902B07D501C401B058F4
:10561000898F9A8FAB8FBC8F8BE8C82E85E0D82EF0
:105620009EEDE92E96E0F92E00E010E08D8D9E8D26
:10563000002E02C0959587950A94E2F780FF3EC040
:105640008D899E89002E02C0959587950A94E2F770
:1056500080FF23C0D70194964D905D906D907C9013
:105660009797A3019201C501B4010E946334F1012F
:105670006083718382839383D7012D913D914D91F6
:105680005C91C301B2010E94BA370E948737F601CC
:10569000648375838683978324C0898D9A8DAB8DAF
:1056A000BC8DF10180839183A283B383D6011496CC
:1056B0001D921D921D921C92179713C0F6016481D2
:1056C0007581868197810E940C36D7012D913D917D
:1056D0004D915C910E946235F101608371838283F8
:1056E00093830F5F1F4FF4E02F0E311C24E0C20E96
:1056F000D11C34E0E30EF11C0330110509F096CF04
:105700000E94482840912207509123076091240766
:1057100070912507C12CE12CF12C870120E0CE01EE
:1057200001960E94232588E080938C059FB7F8940A
:1057300080918D05826080938D059FBF0E944A15E0
:105740000E94661684E080938C056E960FB6F894DE
:10575000DEBF0FBECDBFDF91CF911F910F91FF90A4
:10576000EF90DF90CF90BF90AF909F908F907F9001
:105770006F905F904F903F902F900895AF92BF929F
:10578000CF92DF92EF92FF920F931F93CF93DF930D
:10579000EC0102E017E05C018CE0A80EB11CC9909E
:1057A000D990E990F99020E030E0A901C701B60155
:1057B0000E947A37181684F0F801219131914191B5
:1057C00051918F01C701B6010E94583587FD04C071
:1057D000CA15DB0521F729C080918C05803179F449
:1057E0009FB7F89480918D05886080938D059FBF49
:1057F0000E944A1580918B058823D1F316C00E9420
:1058000010099FB7F89480918D05806680938D056F
:105810009FBFDF91CF911F910F91FF90EF90DF908D
:10582000CF90BF90AF900C944A15DF91CF911F910C
:105830000F91FF90EF90DF90CF90BF90AF900895C1
:10584000CF93DF93EC018991882319F00E9495147E
:10585000FACFDF91CF910895CF93DF93FC0184912C
:10586000EF012196882321F00E949514FE01F7CFC5
:10587000DF91CF910895EF92FF920F931F93CF93F3
:10588000DF93CDB7DEB728970FB6F894DEBF0FBE13
:10589000CDBF8E010F5F1F4FF80198E0900F282FAA
:1058A0002170219386959E13FACF7E0189E0E80E40
:1058B000F11CF70182917F01805D0E949514E01632
:1058C000F106B9F728960FB6F894DEBF0FBECDBF2C
:1058D000DF91CF911F910F91FF90EF9008951F934B
:1058E000CF93DF9300D01F92CDB7DEB7811109C0EF
:1058F00080E30F900F900F90DF91CF911F910C9448
:10590000951490E02AE011E0190FE1E0F0E0EC0FCF
:10591000FD1FE90FF11D622F0E94C338905D908337
:10592000912F8111F0CF112341F0FE01E10FF11D04
:1059300080810E9495141150F6CF0F900F900F9018
:10594000DF91CF911F9108958F929F92AF92BF9256
:10595000CF92DF92EF92FF920F931F93CF93DF933B
:10596000CDB7DEB72A970FB6F894DEBF0FBECDBF16
:105970006B017C01042F20E030E0A9010E94583522
:1059800087FF07C08DE20E949514F7FAF094F7F8AC
:10599000F094102F123060F020E030E048EC52E438
:1059A000C701B6010E94BA376B017C011250F2CFD9
:1059B00000FF0AC020E030E040E251E4C701B60138
:1059C0000E94BA376B017C0120E030E040E05FE3E9
:1059D000C701B6010E9463340E94D435E1E0F0E0D3
:1059E000EC0FFD1FE00FF11D2EE2208310E03AE0E6
:1059F000832E912CA12CB12C611571058105910587
:105A0000A9F0101301C01F5FEE24E394F12CEC0EFB
:105A1000FD1EE10EF11CA50194010E94CF38605DCE
:105A2000F7016083B901CA011F5FE6CF80E3101759
:105A300048F4E1E0F0E0EC0FFD1FE10FF11D808381
:105A40001F5FF5CF10130BC012E0100F0F5FE1E0E6
:105A5000F0E0EC0FFD1FE00FF11D80E380831123C8
:105A600041F0FE01E10FF11D80810E94951411505B
:105A7000F6CF2A960FB6F894DEBF0FBECDBFDF91EA
:105A8000CF911F910F91FF90EF90DF90CF90BF903B
:105A9000AF909F908F90089520911B0720FF08C022
:105AA0002BE832E441E25DE30E94BA3744E001C0F2
:105AB00043E00C94A42C20911B0720FF08C02BE886
:105AC00032E441E25DE30E94BA3741E001C040E0C8
:105AD0000C94A42C43E00C94A42C3D9880911B07BB
