:100000000C9435040C9452040C9452040C94ED2876
:100010000C940B320C9452040C9452040C94520421
:100020000C9452040C9452040C9452040C94AC168C
:100030000C9452040C9452040C9452040C945204E8
:100040000C94D0180C9452040C94D2140C94941464
:100050000C9452040C9452040C9452040C945204C8
:100060000C9452040C945204AD0B730D730DB70B2A
:10007000C40BD10BDE0B730DE20B730DF00B730D84
:10008000FA0B040C350C730D730D730D0E0C1B0C59
:10009000280C1E122F1262122F12661279126C1285
:1000A0007212422248224B224E2253225D226722A4
:1000B000F622F622F622712273227C2285228F22DA
:1000C000F622F622F622F622F6229922A522B5225F
:1000D000BF22C222CB22D422DA22F622F622F62234
:1000E000F622F622F622F622F622F622F622F62250
:1000F000F622E322102D132D182D1B2D1E2D212D40
:10010000242D272D2A2D2D2D302D3C2D3C2D3C2D01
:100110003C2D3C2D3C2D3C2D3C2D362D332D392DA9
:10012000084AD73B3BCE016E84BCBFFDC12F3D6C5E
:1001300074319ABD56833DDA3D00C77F11BED9E4C4
:10014000BB4C3E916BAAAABE000000803F05A84CA4
:10015000CDB2D44EB93836A9020C50B99186880870
:100160003CA6AAAA2ABE000000803F003E0D0A005D
:100170006F66663A006F6E3A002C6C617365722090
:10018000002C52583A002C4275663A002C533A0023
:100190002C002C57506F733A002C002C4D506F736D
:1001A0003A003C436865636B003C416C61726D00D2
:1001B0003C486F6D65003C486F6C64003C52756E46
:1001C000003C5175657565003C49646C65005D0DCA
:1001D0000A005B302E39672E623335616537332D67
:1001E00064697274793A000D0A003D00244E005D86
:1001F0000D0A00205300204600205400204D3800F6
:10020000204D3900204D3500204D3400204D330065
:10021000204D3200204D3100204D30002047393430
:10022000002047393300204739310020473930005A
:10023000204732300020473231002047313900203A
:100240004731380020473137002047005B473830BE
:10025000005B4733005B4732005B4731005B473050
:10026000005D0D0A005B544C4F3A005D0D0A002CF6
:10027000005B4739323A005D0D0A002C003A00332A
:1002800030003238005B47005D0D0A002C005B50E7
:1002900052423A00290D0A00206D61782074726183
:1002A00076656C2C206D6D0020616363656C2C207D
:1002B0006D6D2F7365635E3200206D617820726111
:1002C00074652C206D6D2F6D696E002C2073746524
:1002D000702F6D6D007A00790078002028003D00B5
:1002E000240020287475726E204C61736572206D35
:1002F0006F6465206F6E2C20626F6F6C290D0A0091
:100300002434303D002028686F6D696E6720707559
:100310006C6C2D6F66662C206D6D290D0A002028EF
:10032000686F6D696E67206465626F756E63652CBA
:10033000206D736563290D0A2432373D002028683B
:100340006F6D696E67207365656B2C206D6D2F6D09
:10035000696E290D0A2432363D002028686F6D69C8
:100360006E6720666565642C206D6D2F6D696E2942
:100370000D0A2432353D00290D0A2432343D002077
:1003800028686F6D696E672064697220696E766592
:100390007274206D61736B3A002028686F6D696E0E
:1003A00067206379636C652C20626F6F6C290D0A7E
:1003B0002432333D00202868617264206C696D69C5
:1003C00074732C20626F6F6C290D0A2432323D0049
:1003D0002028736F6674206C696D6974732C2062B9
:1003E0006F6F6C290D0A2432313D0020286175742D
:1003F0006F2073746172742C20626F6F6C290D0A08
:100400002432303D0020287265706F727420696E4E
:10041000636865732C20626F6F6C290D0A24313478
:100420003D00202861726320746F6C6572616E6399
:10043000652C206D6D290D0A2431333D0020286A7A
:10044000756E6374696F6E20646576696174696F37
:100450006E2C206D6D290D0A2431323D00290D0AC4
:100460002431313D002028737461747573207265E6
:10047000706F7274206D61736B3A00202870726F18
:1004800062652070696E20696E766572742C2062D8
:100490006F6F6C290D0A2431303D0020286C696D86
:1004A00069742070696E7320696E766572742C2091
:1004B000626F6F6C290D0A24363D00202873746525
:1004C0007020656E61626C6520696E766572742C51
:1004D00020626F6F6C290D0A24353D00290D0A2416
:1004E000343D00202864697220706F727420696E38
:1004F00076657274206D61736B3A00290D0A24339E
:100500003D0020287374657020706F727420696ECE
:1005100076657274206D61736B3A00202873746580
:10052000702069646C652064656C61792C206D7342
:100530006563290D0A24323D0020287374657020FC
:1005400070756C73652C2075736563290D0A2431F1
:100550003D0024303D00242420287669657720471B
:1005600072626C2073657474696E6773290D0A2456
:1005700023202876696577202320706172616D657C
:1005800074657273290D0A244720287669657720DF
:10059000706172736572207374617465290D0A2429
:1005A00049202876696577206275696C6420696ED8
:1005B000666F290D0A244E202876696577207374AA
:1005C000617274757020626C6F636B73290D0A24FD
:1005D000783D76616C756520287361766520477279
:1005E000626C2073657474696E67290D0A244E78F5
:1005F0003D6C696E65202873617665207374617245
:1006000074757020626C6F636B290D0A2443202877
:10061000636865636B2067636F6465206D6F6465F5
:10062000290D0A245820286B696C6C20616C61725A
:100630006D206C6F636B290D0A2448202872756E3B
:1006400020686F6D696E67206379636C65290D0A98
:100650007E20286379636C65207374617274290D40
:100660000A2120286665656420686F6C64290D0A7C
:100670003F202863757272656E742073746174759F
:1006800073290D0A6374726C2D7820287265736566
:1006900074204772626C290D0A000D0A4772626C61
:1006A00020302E39675F623335616537332D6469D9
:1006B000727479205B27242720666F722068656C2E
:1006C000705D0D0A005D0D0A0044697361626C651E
:1006D0006400456E61626C65640043617574696FA6
:1006E0006E3A20556E6C6F636B6564002724482753
:1006F0007C2724582720746F20756E6C6F636B0005
:10070000526573657420746F20636F6E74696E75C3
:1007100065005B000D0A0050726F626520666169BA
:100720006C0041626F727420647572696E67206339
:1007300079636C6500486172642F736F6674206C16
:10074000696D697400414C41524D3A20000D0A0018
:10075000496E76616C69642067636F646520494403
:100760003A00556E646566696E6564206665656409
:10077000207261746500556E737570706F72746568
:100780006420636F6D6D616E64004D6F64616C20F9
:1007900067726F75702076696F6C6174696F6E0037
:1007A0004C696E65206F766572666C6F7700486F76
:1007B0006D696E67206E6F7420656E61626C656432
:1007C00000416C61726D206C6F636B004E6F742022
:1007D00069646C6500454550524F4D2072656164F7
:1007E000206661696C2E205573696E6720646566AA
:1007F00061756C74730056616C7565203C20332004
:10080000757365630053657474696E6720646973FA
:1008100061626C65640056616C7565203C20300037
:10082000496E76616C69642073746174656D656E80
:100830007400426164206E756D62657220666F722D
:100840006D617400457870656374656420636F6DD5
:100850006D616E64206C6574746572006572726F90
:10086000723A20006F6B0D0A000011241FBECFEFFB
:10087000D8E0DEBFCDBF11E0A0E0B1E0ECE0F0E7F2
:1008800002C005900D92A630B107D9F717E0A6E097
:10089000B1E001C01D92A333B107E1F70E945404F7
:1008A0000C9404380C9400000E9462140E940223ED
:1008B0000E944E190E94FA318EE1E1E9F5E0DF0174
:1008C0001D928A95E9F781E0809391057894909143
:1008D000210794FD80939205C1E00E9428150E9493
:1008E0006B090E94A3130E943A140E94D2280E940E
:1008F000CD2C0E946A240E9422190E94A2270E94E5
:100900007D0910929105109293058091210781FF36
:1009100003C0C093A10502C01092A1050E94D71583
:10092000DCCF6F927F928F929F92AF92BF92CF92C5
:10093000DF92EF92FF920F931F93CF93DF9300D03C
:1009400000D0CDB7DEB73C01D22E470158018091CF
:10095000210785FF0BC0C30149835A836B837C83C6
:100960000E94272B7C816B815A814981809192055D
:10097000823031F149835A836B837C830E942D1529
:100980008091910581111CC00E94B92449815A812E
:100990006B817C81882339F00E94CA1549815A8174
:1009A0006B817C81E7CF850174012D2DC3010E94ED
:1009B000C12480919205811103C088E08093920543
:1009C0000F900F900F900F90DF91CF911F910F918B
:1009D000FF90EF90DF90CF90BF90AF909F908F905F
:1009E0007F906F9008952F923F924F925F926F92F7
:1009F0007F928F929F92AF92BF92CF92DF92EF92AF
:100A0000FF920F931F93CF93DF93CDB7DEB7E79796
:100A10000FB6F894DEBF0FBECDBF9A8B898B1B013A
:100A20003A0109871A872B873C87CB8ADC8AED8AB3
:100A3000FE8AA98E24E0829E20011124840D951D3A
:100A40009B8F8A8FCA01840D951D9D8F8C8FDC0131
:100A50008D909D90AD90BC90EA8DFB8D2081318171
:100A600042815381C501B4010E94B2336E8F7F8FE2
:100A700088A399A32D960FAD2D97F4E00F9F8001C9
:100A8000112429893A89200F311F3BA32AA3C301CE
:100A9000800F911F9DA38CA3DC01CD90DD90ED9084
:100AA000FC90F9012081318142815381C701B60157
:100AB0000E94B2336EA37FA388A799A7D501C40172
:100AC000B0588D839E83AF83B887D701C601B058D5
:100AD00089839A83AB83BC83F101E40DF51D2E8DD0
:100AE0003F8D48A159A160817181828193810E94CB
:100AF000B1336B017C01F101E00FF11F2EA13FA189
:100B000048A559A560817181828193810E94B1338A
:100B10004B015C01A70196016D817E818F819885D3
:100B20000E94C9362B013C01A501940169817A819B
:100B30008B819C810E94C9369B01AC01C301B2012B
:100B40000E94B2332B013C01A50194016D817E818D
:100B50008F8198850E94C9364B015C01A7019601DF
:100B600069817A818B819C810E94C9369B01AC018D
:100B7000C501B4010E94B133A30192010E94253442
:100B80006B017C018091AF0520E030E0A90182304B
:100B900079F4C701B6010E948E3687FD19C02BED8E
:100BA0003FE049EC50E4C701B6010E94B1330EC0EA
:100BB000C701B6010E948B34181654F02BED3FE0AC
:100BC00049EC50E4C701B6010E94B2336B017C01CD
:100BD00080901D0790901E07A0901F07B0902007DF
:100BE00029853A854B855C85CA01B9010E94B233DB
:100BF000A50194010E94B1339B01AC01C501B40170
:100C00000E94C9360E9456374B015C0120E030E05B
:100C100040E05FE3C701B6010E94C93629853A85E5
:100C20004B855C850E94C9369F77A50194010E947F
:100C300092340E9468350E94FF347BA76AA7DB01CB
:100C4000AB2B09F493C14B01A12CB12CB98DBB2363
:100C500081F0C501B4010E942B359B01AC016B8969
:100C60007C898D899E890E94C9366B8B7C8B8D8B8C
:100C70009E8BC501B4010E942B354B015C019B0189
:100C8000AC01C701B6010E9492342B013C012E96A3
:100C90008FAD2E97E4E08E9FC001112429893A89F7
:100CA000280F391F388F2F8BF101E80FF91FD90159
:100CB0002D913D914D915C916081718182819381F3
:100CC0000E94B133A50194010E9492346CAB7DABBC
:100CD0008EAB9FABA3019201C301B2010E94C93642
:100CE0009B01AC0160E070E080E090E40E94B133D1
:100CF0006B017C012BEA3AEA4AE25EE3C301B201EE
:100D00000E94C9364B015C0120E030E040E850E42D
:100D1000C701B6010E94B2339B01AC01C501B40109
:100D20000E94C9366CA77DA78EA79FA720E030E060
:100D300040E05FE3C701B6010E94C93668AB79ABFA
:100D40008AAB9BAB1D86E1E0F0E0FA87E987298555
:100D50003A858AA59BA52817390709F407C1FD859F
:100D6000FC3008F04AC028A939A94AA95BA96981C1
:100D70007A818B819C810E94C9366B017C012CA5F4
:100D80003DA54EA55FA56D817E818F8198850E94CE
:100D9000C936A70196010E94B233B62EA72E982E0F
:100DA000892E28A939A94AA95BA96D817E818F81E5
:100DB00098850E94C9366B017C012CA53DA54EA5E6
:100DC0005FA569817A818B819C810E94C9369B01D4
:100DD000AC01C701B6010E94B1336D837E838F835E
:100DE00098872D852F5F2D878B2D9A2DA92DB82DB6
:100DF00089839A83AB83BC836BC0A985BA85BD0107
:100E000080E090E00E942B35A30192010E94C93638
:100E10006B017C010E948F3469837A838B839C836E
:100E2000C701B6010E944C374B015C01EC8DFD8D72
:100E3000C080D180E280F380F7FAF094F7F8F09464
:100E4000ACA1BDA18D919D910D90BC91A02D8D87E0
:100E50009E87AF87B88B29813A814B815C81C7011E
:100E6000B6010E94C9366D837E838F839887A50162
:100E700094016D857E858F8598890E94C9369B0176
:100E8000AC016D817E818F8198850E94B2336D8324
:100E90007E838F839887A5019401C701B6010E94C4
:100EA000C9366B017C0129813A814B815C816D855A
:100EB0007E858F8598890E94C9369B01AC01C70148
:100EC000B6010E94B13369837A838B839C831D862C
:100ED0002D813E814F8158856E8D7F8D88A199A18E
:100EE0000E94B233EA8DFB8D60837183828393838A
:100EF00029813A814B815C816EA17FA188A599A54A
:100F00000E94B233AAA1BBA16D937D938D939C9354
:100F100013972CA93DA94EA95FA9EF89F88D60818F
:100F20007181828193810E94B233AF89B88D6D93B4
:100F30007D938D939C9313976396CFAC6397629642
:100F4000ECACFDAC0EAD1FAD6297298D4B895C8971
:100F50006D897E8989899A890E9491048091910581
:100F6000811115C0E985FA853196EFCE6396CFAC35
:100F700063976296ECACFDAC0EAD1FAD6297298D08
:100F80004B895C896D897E89C1010E949104E79635
:100F90000FB6F894DEBF0FBECDBFDF91CF911F918A
:100FA0000F91FF90EF90DF90CF90BF90AF909F9008
:100FB0008F907F906F905F904F903F902F9008950B
:100FC0008F929F92AF92BF92CF92DF92EF92FF9259
:100FD0004B015C0180919205823009F447C020E00A
:100FE00030E040EA51E4C501B4010E94C9360E94D4
:100FF00068350E94FF346B017C010E94471620E097
:1010000030E04AE754E4C501B4010E94C9364B01FF
:101010005C0182E38C9DB0018D9D700D112480E0F8
:1010200090E00E942B359B01AC01C501B4010E94E8
:10103000B1330E9468350E94FF34CB010E9496288C
:10104000C114D10499F00E942D1521E0C21AD108D3
:101050008091910581110AC08FEF90E722E08150C5
:1010600090402040E1F700C00000EACFFF90EF90F1
:10107000DF90CF90BF90AF909F908F9008952F9268
:101080003F925F926F927F928F929F92AF92BF92A8
:10109000CF92DF92EF92FF920F931F93CF93DF9344
:1010A00000D000D0CDB7DEB7782ED92E4A015B0133
:1010B000622E80919205823009F4AAC00E944716E0
:1010C0005090A1050E94DB2C882351F09FB7F89423
:1010D000809193058064809393059FBF0E942D1596
:1010E00080919105811194C0C12CE12CF12C8701D4
:1010F000262DB501A401872D9D2D0E94910481E02C
:101100008093A2059FB7F8948091930582608093A5
:1011100093059FBF0E942D1580919105811178C084
:1011200080919205877FB1F78091A205813041F4CB
:101130009FB7F894809193058064809393059FBF37
:101140000E942D1580919105811162C00E94221983
:101150000E946A240E94A22703EA15E084EEE82E8A
:1011600086E0F82E272C3D2CF80161917191819138
:1011700091918F01F70121913191419151917F011D
:1011800029833A834B835C830E942D3529813A81E0
:101190004B815C810E949234F10161937193819340
:1011A00091931F01F5E00F3A1F07F1F6C12CE12CD6
:1011B000F12C8701262DB501A401872D9D2D0E94BC
:1011C00091049FB7F8948091930582608093930572
:1011D0009FBF0E94471680919105811119C05092BE
:1011E000A1050F900F900F900F90DF91CF911F915D
:1011F0000F91FF90EF90DF90CF90BF90AF909F90B6
:101200008F907F906F905F903F902F900C942E2F37
:101210000F900F900F900F90DF91CF911F910F9132
:10122000FF90EF90DF90CF90BF90AF909F908F9006
:101230007F906F905F903F902F90089580919305DD
:1012400084FD1AC09FB7F8948091930580618093C4
:1012500093059FBF0E949A130E94381480919205B3
:10126000847351F09FB7F8948091930580628093C6
:1012700093059FBF0C948116089583B18671909158
:10128000210796FD02C096E18927882359F00E9424
:101290001E099FB7F894809193058066809393050B
:1012A0009FBF089584E0809392050E949A130E9444
:1012B000C72883E00E9421290E942D158091910565
:1012C000811108C00E947D09109292050E9481162A
:1012D0000C94D22808958BE3EFEAF5E0DF011D922C
:1012E0008A95E9F76EEC75E080E00E94A2218111F9
:1012F00003C087E00C94FA2C0895CF92DF92EF920E
:10130000FF920F931F93CF93DF9300D000D0CDB700
:10131000DEB785E9C82E85E0D82E94EEE92E96E05A
:10132000F92E02EC15E0F601619171918191919194
:101330006F01F70121913191419151917F012983F1
:101340003A834B835C830E942D3529813A814B81FE
:101350005C810E949234F80161937193819391931F
:101360008F01F1EACF16F5E0DF06E9F60F900F9056
:101370000F900F90DF91CF911F910F91FF90EF9001
:10138000DF90CF9008952F923F924F925F926F928D
:101390007F928F929F92AF92BF92CF92DF92EF9205
:1013A000FF920F931F93CF93DF93CDB7DEB7AB9729
:1013B0000FB6F894DEBF0FBECDBF98A38F8F8AE320
:1013C000EAEEF5E0DF011D928A95E9F78AE0EFEA9F
:1013D000F5E0ACEEB5E001900D928A95E1F71D8E37
:1013E000212C312CA12CB12C19A2512C1E8E66243B
:1013F0006394712C05E0402E9924939482E0882E0A
:101400008D8DEF8DF8A1E80FF11D0081002309F407
:1014100056C29FEB900F9A3128F00E949A1381E0F8
:101420000C9470138F5F8D8FAE01475E5F4FBE01CE
:10143000635E7F4F8F8D98A10E94E427811105C0C4
:101440000E949A1382E00C947013C98CDA8CEB8C96
:10145000FC8CC701B6010E9497370E94FF34162FFB
:1014600070E080E090E00E942D359B01AC01C70147
:10147000B6010E94B13320E030E048EC52E40E9413
:10148000C9360E942C370E94FF34073421F00D34F6
:1014900009F414C151C1163209F487C0B8F41431EB
:1014A00058F4113108F0B3C0143009F450C008F4F6
:1014B0007CC01A3069F117C31C3151F120F4163188
:1014C00008F4C5C010C31E3119F10DC3103509F45D
:1014D00097C098F4153309F457C038F41B3209F457
:1014E000BFC0113309F4BCC0FEC21C3308F0FBC2FC
:1014F00016531093F20587E0C8C01C3549F020F45C
:101500001A3508F092C0EFC21F3508F497C0EBC23D
:1015100061110AC0BE8DBB2329F00E949A1388E195
:101520000C947013E1E0EE8F1C31A1F040F4143004
:1015300071F01A3009F0A8C08092EB05A5C01533F0
:1015400019F11C3529F11E3109F09EC010C090928E
:10155000EB059AC0662339F06A3009F0C4C224E072
:101560002093EB0508C0F3E0F093EB0504C0611194
:1015700004C04092EB0580E08FC06A3009F0B3C22E
:1015800036E03093EB05F7CF87E08093EB057CC026
:10159000662339F06A3009F0A6C2A9E0A093EB05F2
:1015A000EACF98E09093EB05E6CFBE8DB111B5CFB1
:1015B000E2E0EE8F1230B1F048F4112381F01130E7
:1015C00011F51093EC051093EA051FC0163281F057
:1015D0001035B1F01330B9F41093EC0506C0109239
:1015E000EC0503C0FE8DF093EC059092EA050DC06A
:1015F000643109F078C224E02093EC0581E04CC00E
:101600004092EC0502C01092EA0581E03EC0123122
:1016100029F0133131F01092F00505C09092F005D9
:1016200002C08092F00582E030C01A3519F41092A1
:10163000EF0502C09092EF0583E027C01D3519F435
:101640009092ED0502C01092ED0584E01EC01431A9
:1016500019F49092EE0502C01092EE0585E015C0D7
:101660003E8D31115ACF113331F41092F10586E0DD
:1016700093E09E8F11C06A3009F035C29092F10557
:1016800086E0A3E0AE8F08C080E0662329F00E94C8
:101690009A1387E10C947013F30102C0EE0FFF1F41
:1016A0008A95E2F7CF019F012A213B21232B09F4E0
:1016B00040C00E949A1385E10C9470136111E7CF2A
:1016C000163018F4133048F014C0183008F40BC268
:1016D0001A30E8F01E3151F006C2123039F01E31D6
:1016E00029F011111DC09092F3051AC08092F305E4
:1016F00017C0143029F0153031F09092F50505C06F
:101700008092F50502C01092F50589E00AC01930F3
:1017100019F08092F40502C01092F4058AE001C02D
:1017200088E0930102C0220F331F8A95E2F7C901B6
:10173000BBCFA82AB92A64CE802F992787FD909520
:10174000A92FB92FFC01E654F109E531F10508F0A4
:10175000CAC1EC5CFF4F0C94EF37C092F605D092F3
:10176000F705E092F805F092F90580E07FC0C0929D
:10177000FA05D092FB05E092FC05F092FD0539A137
:10178000316039A381E072C0C092FE05D092FF059E
:10179000E0920006F092010689A1826089A382E0AE
:1017A00065C0C0920206D0920306E0920406F09251
:1017B000050699A1946099A383E058C0109306068A
:1017C00084E054C0C701B6010E94FA346093070652
:1017D000709308068093090690930A0685E046C038
:1017E000C0920B06D0920C06E0920D06F0920E0607
:1017F00086E03CC0C0920F06D0921006E09211061F
:10180000F092120687E032C0C0921306D0921406FE
:10181000E0921506F092160688E028C0C0921806DD
:10182000D0921906E0921A06F0921B06A52DA1602F
:101830005A2E8AE01BC0C0921C06D0921D06E09270
:101840001E06F0921F06B52DB2605B2E8BE00EC017
:10185000C0922006D0922106E0922206F092230642
:10186000E52DE4605E2E8CE001C089E08301082E46
:1018700002C0000F111F0A94E2F7980122213321C0
:10188000232B21F00E949A1389E12AC721E633E035
:1018900002C0359527958A95E2F720FF0DC020E01C
:1018A00030E0A901C701B6010E948B3487FF04C054
:1018B0000E949A1384E014C7202A312AA1CD552012
:1018C00029F03E8D311102C082E08E8F25FE11C0BD
:1018D0008091070690910806A0910906B0910A062A
:1018E00080389649A849B10524F00E949A138BE1EB
:1018F000F7C68091ED05813031F4FE8DF230A1F50F
:1019000020FC32C09DC28091B00581112DC020FE07
:101910001BC08091EE05813039F523E333E34BECB6
:1019200051E46091F6057091F7058091F80590916A
:10193000F9050E94C9366093F6057093F705809308
:10194000F8059093F90510C08091BD059091BE05F2
:10195000A091BF05B091C0058093F6059093F7055F
:10196000A093F805B093F90530FC10C08091B9053B
:101970009091BA05A091BB05B091BC058093130668
:1019800090931406A0931506B09316068091EB056C
:10199000813041F426FC04C00E949A138CE1A0C659
:1019A000E89426F88091F005882341F0813061F0B9
:1019B00019A682E088A791E09FA30BC022E029A787
:1019C00031E038A71FA205C0A1E0A9A718A6B2E080
:1019D000BFA38091EE05813021F0EE8DE330B1F5AB
:1019E0002AC0B8E1EB2EB6E0FB2E00E010E0C52CDB
:1019F000D12CC601002E02C0959587950A94E2F776
:101A000080FF10C023E333E34BEC51E4D7016D9129
:101A10007D918D919C910E94C936F70160837183FD
:101A2000828393830F5F1F4FF4E0EF0EF11C0330AE
:101A30001105F9F6D2CF8091F105813039F424E017
:101A4000521621F00E949A1385E24AC68CE0EEEC11
:101A5000F5E0DE011D9601900D928A95E1F7A7FE53
:101A600017C08091F205873020F00E949A138DE113
:101A700037C69091B505981759F0BE01635F7F4F47
:101A80000E94A221811104C00E949A1387E028C6F7
:101A90003091EB053F8F323021F0383009F4A2C08D
:101AA00007C1511004C00E949A138AE119C6C101EE
:101AB00080759927892B09F46FCF60910B0670917F
:101AC0000C0680910D0690910E060E9497370E9499
:101AD000FF34673050F680910606843141F0823041
:101AE00011F427FE04C00E949A1384E1F9C566230D
:101AF00019F061506F8F03C08091F2058F8FBE0186
:101B00006F5F7F4F8F8D0E94A221882309F4BCCF85
:101B1000409006066090E6057090E7058090E80525
:101B20009090E905DE0111967D01F8E1AF2EF6E017
:101B3000BF2EA2ECCA2EA5E0DA2E00E010E0E52DC3
:101B4000F0E0FEA3EDA38DA19EA1002E02C095950D
:101B500087950A94E2F780FF33C0F4E14F1226C064
:101B6000D60158962D913D914D915C915B976D9169
:101B70007D918D919C910E94B133F501208131813D
:101B8000428153810E94B133D7016D937D938D9330
:101B90009C9313970230A1F4A40193010E94B133E6
:101BA000F70160837183828393830AC0F50180818A
:101BB0009181A281B381F70180839183A283B38352
:101BC0000F5F1F4FF4E0EF0EF11C24E0A20EB11CDA
:101BD00034E0C30ED11C0330110509F0B4CF9FEAE5
:101BE00029220AC1552009F45ECF6090E605709065
:101BF000E7058090E8059090E90508E116E0E2EC41
:101C0000CE2EE5E0DE2E5E018DE0A80EB11CE12CAB
:101C1000F12CA52DB0E0B8A3AF8F8F8D98A10E2C1D
:101C200002C0959587950A94E2F780FF26C0F501DA
:101C30002081318142815381D6016D917D918D91B9
:101C40009C910E94B133F8012081318142815381FE
:101C50000E94B133D8016D937D938D939C9313971C
:101C6000B2E0EB1214C0A40193010E94B133F80159
:101C700060837183828393830AC0F601808D918D86
:101C8000A28DB38DF80180839183A283B383FFEF8C
:101C9000EF1AFF0A0C5F1F4F24E0C20ED11C34E084
:101CA000A30EB11C83E0E816F10409F0B6CFA3C07F
:101CB0009E8D933079F4AF8DA53009F48BC0A73099
:101CC00009F491C0A33009F096C0BE016F5F7F4F49
:101CD00086E084C0552079F34090EF056090E605DA
:101CE0007090E7058090E8059090E90572ECC72EAA
:101CF00075E0D72E08E116E05E01BDE0AB0EB11C29
:101D0000E12CF12CE52DF0E0FEA3EDA38DA19EA129
:101D10000E2C02C0959587950A94E2F780FD0BC0C2
:101D2000F60180819181A281B381F8018083918342
:101D3000A283B3833EC0FF8DF730D9F1411028C094
:101D4000D60158962D913D914D915C915B97F5018F
:101D500060817181828193810E94B233D8012D917B
:101D60003D914D915C910E94B233F8016083718383
:101D700082839383F2E0EF121CC0A40193010E94BE
:101D8000B233D8016D937D938D939C93139711C0BB
:101D9000F6012081318142815381D8016D917D917D
:101DA0008D919C910E94B233F8016083718382838C
:101DB0009383FFEFEF1AFF0A24E0C20ED11C0C5FE1
:101DC0001F4F34E0A30EB11C83E0E816F10409F0C4
:101DD0009DCF71CFBE016F5F7F4F87E00E94A22130
:101DE000811109C051CE8091EC05823020F00E9413
:101DF0009A138EE175C41F8E1091EC05153059F4BD
:101E0000552009F4BFC1AE8DA13009F444C20E942F
:101E10009A138FE165C4BE8DB23009F0B3C11123AE
:101E2000F1F020E030E0A9016091F6057091F7052E
:101E30008091F8059091F9050E948B34811104C0BE
:101E40000E949A1386E14CC4143028F4123058F4DE
:101E5000113029F020C2143009F453C11CC25110B2
:101E60001AC21E8E92C1552009F41DCEFFA1EF2F7C
:101E7000F0E0FEA3EDA338A5232F30E03BA72AA76F
:101E800081E090E03C0108A402C0660C771C0A9433
:101E9000E2F70FA002C0880F991F0A94E2F7682AA0
:101EA000792A852D90E086219721892B21F40E94A3
:101EB0009A1380E215C48DA19EA1880F991F880FE7
:101EC000991FFC01E651FA4FDC01A155BA4F539618
:101ED0002D913D914D915C91569766A577A580A96E
:101EE00091A90E94B1336B017C018AA59BA5880F43
:101EF000991F880F991FFC01E651FA4FDC01A1558B
:101F0000BA4F53962D913D914D915C91569766A590
:101F100077A580A991A90E94B1334B015C0127FEEE
:101F200040C0E89427F82091180630911906409196
:101F30001A0650911B066091C2057091C3058091ED
:101F4000C4059091C5050E948B34811173C3209103
:101F50001C0630911D0640911E0650911F0660918F
:101F6000C6057091C7058091C8059091C9050E946A
:101F70008B3481115FC3209120063091210640915E
:101F80002206509123066091CA057091CB0580917D
:101F9000CC059091CD050E948B34882309F49BC019
:101FA00049C3F9A14F2E512C64207520672821F4D4
:101FB0000E949A1383E294C321EF22228091EE05BE
:101FC000813009F456C00AA51BA5000F111F000F90
:101FD000111F06501A4FD8012D913D914D915C91E2
:101FE000C501B4010E94B1332B013C01ADA0BEA0DC
:101FF000AA0CBB1CAA0CBB1CF501E650FA4F5F01F2
:102000002081318142815381C701B6010E94B133E1
:10201000A30192010E94A1286B017C01D8012D919E
:102020003D914D915C91F501608171818281938137
:102030000E94A1284B015C0160930F06709310066B
:1020400080931106909312069B01AC01C701B60163
:102050000E94B1336B017C01E894F7F82AE037ED78
:1020600043EA5BE3C701B6010E948E3618164CF1B5
:1020700012C18AEF682E85E0782E00E010E0C201E0
:10208000002E02C0959587950A94E2F780FF10C054
:1020900023E333E34BEC51E4D3016D917D918D91BA
:1020A0009C910E94C936F30160837183828393837C
:1020B0000F5F1F4FF4E06F0E711C03301105F9F62E
:1020C00082CF20E030E040E05FE3C701B6010E942C
:1020D0008E36181624F40E949A1381E201C32FE66B
:1020E00032E143E85AE3C501B4010E94C9369B01BD
:1020F000AC01C701B6010E948E3618160CF0CBC099
:10210000EACF552009F4CFCC20911806309119065A
:1021100040911A0650911B066091C2057091C3054B
:102120008091C4059091C5050E948B348111B3C084
:1021300020911C0630911D0640911E0650911F06ED
:102140006091C6057091C7058091C8059091C90539
:102150000E948B3481119FC020912006309121066E
:1021600040912206509123066091CA057091CB05DB
:102170008091CC059091CD050E948B34882309F481
:10218000AACF89C02E8D211186C0C1018E7D9C7F72
:1021900085C0C301B2010E9456372B013C01A50145
:1021A0009401C701B6010E94A1289B01AC01C301A3
:1021B000B20190580E9492342B013C018091EC05B1
:1021C000833021F477FA709477F8709480910F0639
:1021D00090911006A0911106B091120689A39AA3BE
:1021E000ABA3BCA320E030E0A901BC01CD010E945B
:1021F0008B3487FF11C077FA709477F8709489A1B7
:102200009AA1ABA1BCA1B05880930F069093100681
:10221000A0931106B09312060DA11EA1000F111F6D
:10222000000F111F06501A4FA3019201C501B401FE
:102230000E94C9369B01AC01C701B6010E94B133AF
:1022400020E030E040E05FE30E94C936D8016D93A2
:102250007D938D939C9313970AA51BA5000F111FC7
:10226000000F111F06501A4FA3019201C701B601BA
:102270000E94C9369B01AC01C501B4010E94B23372
:1022800020E030E040E05FE30E94C936F80160835F
:10229000718382839383C1018E7D907E892B21F08F
:1022A0000E949A1384E21CC28091ED058093B005D0
:1022B0008091F6059091F705A091F805B091F90588
:1022C0008093BD059093BE05A093BF05B093C00554
:1022D000C0901306D0901406E0901506F0901606F4
:1022E000A70196016091B9057091BA058091BB056F
:1022F0009091BC050E948B348823D9F0C092B90517
:10230000D092BA05E092BB05F092BC0580912107FE
:102310009091220790FF04C08091EA05811109C0C5
:102320008091B805882329F020E0B701A6010E941A
:10233000E113809117068093C1058091F505909176
:10234000B8059817B9F08093B8052091210730910E
:10235000220730FF04C09091EA0591110BC0409113
:10236000B9055091BA056091BB057091BC0520E09C
:102370000E94E1138091F4059091B705981721F020
:102380008093B7050E943D148091EB05813051F494
:1023900060910B0670910C0680910D0690910E06CF
:1023A0000E94E0078091F0058093B3058091EE05CF
:1023B0008093B1053E8D3330F9F48091F10580931F
:1023C000B405813089F48091200690912106A09176
:1023D0002206B09123068093E6059093E705A0932B
:1023E000E805B093E90508C01092E6051092E705EC
:1023F0001092E8051092E9058091F2059091B505DB
:10240000981759F08093B5058CE0FE013D96AEEC2F
:10241000B5E001900D928A95E1F78091EF058093E8
:10242000B2058091EB0590E0FC013297E830F105B0
:1024300008F05FC0E75BFF4F0C94EF37BE016F5FA2
:102440007F4F8F8D0E9486208091B5059F8D8913C7
:1024500050C08CE0FE013196AEECB5E02EC0AE8DE2
:10246000AA2399F0E090B905F090BA050091BB0558
:102470001091BC05C090B80520E040E050E060E855
:102480007FEB88E196E00E949104E090B905F0901E
:10249000BA050091BB051091BC05C090B80520E0BD
:1024A00040E050E060E87FEBCE0101960E9491048D
:1024B0008CE0FE013196A2ECB5E001900D928A9578
:1024C000E1F717C062EC75E086E003C062EC75E0EE
:1024D00087E00E9486200DC08CE0E8E1F6E0AAEDDE
:1024E000B5E0EBCF8CE0EAEDF5E0DF011D928A95D7
:1024F000E9F78091EC058093AF05853009F485C03C
:10250000BE8DB23009F081C08430E8F4823008F02A
:1025100040C0882351F1813009F06EC0E090B905C8
:10252000F090BA050091BB051091BC054091BD0526
:102530005091BE056091BF057091C005C090B8056F
:102540002091B00521C0843009F056C04091BD05EE
:102550005091BE056091BF057091C0052091B005F6
:1025600088E196E00E943F0847C0E090B905F090EE
:10257000BA050091BB051091BC05C090B80520E0DC
:1025800040E050E060E87FEB88E196E00E94910433
:1025900033C0C090BD05D090BE05E090BF05F0905F
:1025A000C00500910F061091100620911106309180
:1025B00012068091B8058F938091BC058F9380910E
:1025C000BB058F938091BA058F938091B9058F9346
:1025D000E9A5EF93F8A5FF938FA0A090B0054AEF6F
:1025E00055E068E176E082EC95E00E94F3040FB6D6
:1025F000F894DEBF0FBECDBF8CE0E8E1F6E0A2ECC0
:10260000B5E001900D928A95E1F78091F3058093F2
:10261000B605882369F00E9447161092A1058091A3
:10262000B605823019F40E941E0902C01092B60548
:1026300080E056C08091EE058130B1F423E333E3AE
:102640004BEC51E460910F067091100680911106D9
:10265000909112060E94C93660930F06709310067F
:10266000809311069093120640900F06509010062A
:10267000609011067090120620E030E040E850E4CF
:10268000C301B2010E94C936A30192010E94C9365A
:102690002B013C01A7019601C701B6010E94C93672
:1026A0009B01AC01C301B2010E94B1332B013C017B
:1026B000A5019401C501B4010E94C9369B01AC017A
:1026C000C301B2010E94B1332B013C0120E030E094
:1026D000A9010E948B3487FF5CCD0E949A1382E28D
:1026E000AB960FB6F894DEBF0FBECDBFDF91CF9192
:1026F0001F910F91FF90EF90DF90CF90BF90AF9020
:102700009F908F907F906F905F904F903F902F9011
:102710000895E0EBF0E080818F7780832B98089517
:102720008091B300882329F08091B0008068809365
:10273000B00008951092B300E0EBF0E080818F7755
:1027400080832B980895239A239A259A0C949A13A0
:1027500083E88093B000E1EBF0E08081887F8260C5
:10276000808308958093B3000895CF92DF92EF9213
:10277000FF926B017C0120E030E04AE754E40E94C4
:102780008E36181634F4C12CD12C8AE7E82E84E456
:10279000F82E2CE53FE842E85EE3C701B6010E944F
:1027A000C93620E030E040E05FE30E94B2330E948F
:1027B00068350E94FF34862FFF90EF90DF90CF9016
:1027C00008951F93CF93DF9300D000D01F92CDB711
:1027D000DEB7182F80919205823009F440C0E09155
:1027E0002107F0912207F0FF02C021110CC02983BC
:1027F0004A835B836C837D830E94CA157D816C81D3
:102800005B814A812981E0912107F0912207F0FF45
:1028100002C021110AC04A835B836C837D830E94BE
:1028200047167D816C815B814A8111110AC00F902E
:102830000F900F900F900F90DF91CF911F910C94FC
:102840009A13113011F42D9801C02D9ACB01BA01C1
:102850000E94B5138093B3000E94A8132B9A0F9087
:102860000F900F900F900F90DF91CF911F910895CF
:10287000439808953B9A0C943814CF93DF931F929A
:10288000CDB7DEB790919205923079F089830E949E
:10289000CA150E9447168981823011F4439A05C0F7
:1028A0000F90DF91CF910C9438140F90DF91CF915E
:1028B00008959091080180910901891708F48058C2
:1028C000891B0895E0ECF0E08081826080831092A3
:1028D000C50080E18093C400E1ECF0E0808180617C
:1028E0008083808188608083808180688083089570
:1028F000E091070191E09E0F903409F490E020915F
:102900000601921305C02091930524FFF8CF089586
:10291000F0E0EC5DF94F8083909307018091C10056
:1029200080628093C10008951F920F920FB60F929C
:1029300011248F939F93EF93FF9380910601E82FCB
:10294000F0E0EC5DF94F90819093C6008F5F80348A
:1029500009F480E08093060190910701891305C076
:102960008091C1008F7D8093C100FF91EF919F9175
:102970008F910F900FBE0F901F90189590910801A6
:1029800080910901891761F0E92FF0E0EC59F94FC6
:1029900080819F5F903809F490E09093080108953A
:1029A0008FEF08951F920F920FB60F9211242F935D
:1029B0003F934F935F936F937F938F939F93AF93C7
:1029C000BF93EF93FF938091C6008132B1F028F45A
:1029D0008831E1F40E941E092AC08F3341F08E37FE
:1029E000A9F49FB7F8948091930582600BC09FB7BC
:1029F000F89480919305816005C09FB7F894809109
:102A000093058860809393059FBF11C0E0910901F1
:102A100091E09E0F903809F490E020910801921700
:102A200031F0F0E0EC59F94F808390930901FF9168
:102A3000EF91BF91AF919F918F917F916F915F9136
:102A40004F913F912F910F900FBE0F901F901895AF
:102A500080910901809308010895CF93C091930557
:102A6000CC2309F48EC08C2F807649F181E08093CD
:102A700092050E948913C6FF17C0C5FF02C08FEFE1
:102A800001C08DEF0E94482D81E00E94672D9FB705
:102A9000F894809193058F7E809393059FBF8091DA
:102AA000930584FFFCCF03C08EEF0E94482D9FB793
:102AB000F894809193058F79809393059FBFC4FF0D
:102AC00006C00E94891381E08093910561C0C0FF18
:102AD0000AC00E94E2309FB7F894809193058E7FE0
:102AE000809393059FBFC3FF15C0809192058031ED
:102AF00049F480E2809392050E9470190E94921915
:102B00001092A1059FB7F89480919305877F8093D9
:102B100093059FBFC1FF1FC080919205883099F433
:102B200080E1809392050E9490130E9492190E9466
:102B300061168091210781FF04C081E08093A10587
:102B400002C01092A1059FB7F894809193058D7FE4
:102B5000809393059FBFC2FF14C00E948F24892BCE
:102B600031F00E94891388E08093920502C0109290
:102B700092059FB7F894809193058B7F809393057E
:102B80009FBF80919205847319F0CF910C94921994
:102B9000CF9108958091A105882341F09FB7F894C3
:102BA000809193058260809393059FBF0895CF9392
:102BB000DF930E948D2D80919205813021F482E077
:102BC0000E94672D21C0109292058AE091E00E9438
:102BD00047321AC08D3069F0DD2389F1D1E08932A6
:102BE00009F4D0E00E94BE148F3F09F444C08A303B
:102BF00089F7EC2FF0E0E65FFE4F10820E942D1562
:102C000080919105882311F0C0E0EBCF80910A01FB
:102C1000811103C00E94FA2CF7CF843229F48AE094
:102C200091E00E946632F6CF80919205813011F4D6
:102C300089E0F0CF8AE091E00E94C309EBCF8132B6
:102C400088F28F3279F28832A1F0CF3428F08BE00D
:102C50000E94FA2CC0E0C6CF2C2F30E0CF5F9FE956
:102C6000980FF901E65FFE4F9A3108F48052808395
:102C7000B9CFD1E0B7CF0E94CA150E942D1580911F
:102C80009105882309F4AECFDF91CF9108950E947A
:102C9000CA1580919205803171F481E08093A1057D
:102CA0000AC080919205803159F40E942D158091BF
:102CB0009105811105C00E948F24892BB1F7F1CFB6
:102CC00008958091210782FF02C0289A01C02898A8
:102CD000809192058471A1F080918A0180939E0178
:102CE00080918B0180939D0180911407880F8450FF
:102CF000819580939C0180916F00826080936F002A
:102D0000089580916F008D7F80936F008091810086
:102D1000887F8160809381001092890180911707DC
:102D20008F3F21F49091930595FF09C090919205F2
:102D3000943029F090E00E94962881E001C080E064
:102D40009091210792FF02C091E08927882311F01A
:102D5000289A0895289808951F920F920FB60F92FF
:102D600011242F933F934F935F936F937F938F9390
:102D70009F93AF93BF93EF93FF938091890181114C
:102D8000FEC19BB180919E01807E9F71892B8BB982
:102D90008BB1837E90919D01892B8BB980919C0191
:102DA00086BD82E085BD81E0809389017894809121
:102DB000B0019091B101892B09F0B3C080918E01CF
:102DC00090918D01981709F4A1C0E0918E0186E0E1
:102DD000E89FF0011124EE54FE4FF093B101E0930F
:102DE000B0018381948190938900809388008081D1
:102DF00091819093AC018093AB01E2818091AD0110
:102E00008E17C1F1E093AD0183E1E89FF001112439
:102E1000EA52FE4FF093AF01E093AE0185859685AF
:102E2000A785B089B695A7959795879580938F01CB
:102E300090939001A0939101B0939201809393019C
:102E400090939401A0939501B0939601809397017C
:102E500090939801A0939901B0939A0180912107D2
:102E60009091220790FF06C08289882319F08189FA
:102E70000E94B213E091AE01F091AF0180918A01FE
:102E80009081892780939E01A091B001B091B101FA
:102E900015962C9181819281A381B481022E04C068
:102EA000B695A795979587950A94D2F780939F0139
:102EB0009093A001A093A101B093A2018581968176
:102EC000A781B085022E04C0B695A79597958795E2
:102ED0000A94D2F78093A3019093A401A093A50133
:102EE000B093A60181859285A385B48504C0B6956B
:102EF000A795979587952A95D2F78093A7019093E8
:102F0000A801A093A901B093AA010BC00E94811649
:102F10009FB7F894809193058460809393059FBF39
:102F20002EC10E94E12C10929D0180919F019091F1
:102F3000A001A091A101B091A20140918F015091F7
:102F400090016091910170919201840F951FA61FCD
:102F5000B71F80938F0190939001A0939101B0933C
:102F60009201E091AE01F091AF01458556856785EC
:102F70007089481759076A077B0768F524E0209392
:102F80009D014585568567857089841B950BA60B29
:102F9000B70B80938F0190939001A0939101B09310
:102FA000920120818091950590919605A0919705B9
:102FB000B091980525FF04C00197A109B10903C08C
:102FC0000196A11DB11D8093950590939605A09340
:102FD0009705B09398058091A3019091A401A091C9
:102FE000A501B091A6014091930150919401609187
:102FF000950170919601840F951FA61FB71F8093AE
:10300000930190939401A0939501B0939601458507
:10301000568567857089481759076A077B0778F5D1
:1030200020919D01286020939D01458556856785E7
:103030007089841B950BA60BB70B8093930190931B
:103040009401A0939501B0939601208180919905F8
:1030500090919A05A0919B05B0919C0526FF04C014
:103060000197A109B10903C00196A11DB11D80936B
:10307000990590939A05A0939B05B0939C05809128
:10308000A7019091A801A091A901B091AA01409136
:103090009701509198016091990170919A01840F64
:1030A000951FA61FB71F8093970190939801A09337
:1030B0009901B0939A0145855685678570894817AF
:1030C00059076A077B0778F520919D0120612093BD
:1030D0009D014585568567857089841B950BA60BD8
:1030E000B70B8093970190939801A0939901B093A7
:1030F0009A01208180919D0590919E05A0919F0548
:10310000B091A00527FF04C00197A109B10903C030
:103110000196A11DB11D80939D0590939E05A093DE
:103120009F05B093A00580919205843039F4809179
:10313000940590919D01892380939D018091AB011D
:103140009091AC0101979093AC018093AB01892BD6
:1031500069F41092B1011092B00180918E018F5FDD
:1031600080938E01863011F410928E0180918B0134
:1031700090919D01892780939D0110928901FF9173
:10318000EF91BF91AF919F918F917F916F915F91DF
:103190004F913F912F910F900FBE0F901F90189558
:1031A0001F920F920FB60F9211248F939F939BB192
:1031B00080918B018C71937E892B8BB915BC9F916B
:1031C0008F910F900FBE0F901F901895FF920F9345
:1031D0001F93CF93DF9310928B0110928A01C0E06E
:1031E000D0E00C2F1C2F2091150730E08C2F0C2ED7
:1031F00002C0359527950A94E2F720FF07C0F090AA
:103200008B010E9431238F2980938B012091160717
:1032100030E002C0359527951A95E2F720FF08C0E7
:1032200010918A01802F0E943B23812B80938A0179
:103230002196C330D105A9F6DF91CF911F910F914F
:10324000FF9008950E9481168BE2EAE5F1E0DF012C
:103250001D928A95E9F783E2EFE8F1E0DF011D9224
:103260008A95E9F7109288011092870110928E01D9
:1032700010928D0181E080938C01109289010E944F
:10328000E6188BB1837E90918B01892B8BB98BB122
:103290008F7190918A01892B8BB908958AB18C61C5
:1032A0008AB9209A8AB1806E8AB9E1E8F0E080811B
:1032B0008F7E8083808188608083E0E8F0E0808179
:1032C0008C7F808380818F708083EEE6F0E0808148
:1032D000887F808314BC15BC8081816080830895C1
:1032E000CF93DF93C0918701D09188012097B9F0E7
:1032F00081E080935B016091710170917201809116
:103300007301909174019B01AC010E94C9366E8BD0
:103310007F8B888F998F1092880110928701DF919F
:10332000CF9108952F923F924F925F926F927F922A
:103330008F929F92AF92BF92CF92DF92EF92FF92C5
:103340000F931F93CF93DF93CDB7DEB7E5970FB6FB
:10335000F894DEBF0FBECDBF90918E0180918C019D
:10336000981709F4FDC58091870190918801892BF8
:1033700009F073C20E948F24FC019093880180930E
:103380008701009709F4ECC580915B01882319F04F
:1033900010925B01D3C080915A018F5F853019F084
:1033A00080935A0102C010925A0100915A0123E100
:1033B000209F800111240A521E4F10938601009312
:1033C00085018581D8018C934681578160857185FF
:1033D00093E0440F551F661F771F9A95D1F71196FA
:1033E0004D935D936D937C931497428553856485CB
:1033F000758523E0440F551F661F771F2A95D1F767
:1034000015964D935D936D937C93189746855785DC
:103410006089718933E0440F551F661F771F3A9505
:10342000D1F719964D935D936D937C931C974289C8
:1034300053896489758983E0440F551F661F771F80
:103440008A95D1F71D964D935D936D937C9350971C
:10345000848152968C9360817181828193810E94D4
:10346000B513F801818B0091870110918801D80173
:1034700052966D917D918D919C9155970E942B351F
:1034800060935C0170935D0180935E0190935F0196
:10349000F80122A533A544A555A50E9492349B01AD
:1034A000AC0160936001709361018093620190931D
:1034B000630160E070E080EA9FE30E9492346093D1
:1034C0006401709365018093660190936701109287
:1034D00068011092690110926A0110926B0180914B
:1034E00092058032E1F46091790170917A018091C6
:1034F0007B0190917C0160937101709372018093C4
:103500007301909374019B01AC010E94C936D801EC
:1035100056966D937D938D939C9359970FC0F801A8
:1035200066897789808D918D0E94563760937101ED
:1035300070937201809373019093740110926D01E6
:1035400010926E0110926F0110927001009187012C
:1035500010918801D80196968D909D90AD90BC9069
:103560009997A501940160E070E080E09FE30E94DC
:1035700092342B013C0180919205F801C2A4D3A49E
:10358000E4A4F5A4803209F04FC0F2E0F0936C019E
:10359000D80156962D913D914D915C9159972D836F
:1035A0003E834F835887C301B2010E94C9369B01F5
:1035B000AC01C701B6010E94B1332B013C0120E0F0
:1035C00030E0A9010E948B3487FF1DC0A501940142
:1035D000C501B4010E94B233A70196010E94C93609
:1035E0009B01AC016D817E818F8198850E94B133F2
:1035F0000E9456376093790170937A0180937B0122
:1036000090937C012AC140926D0150926E016092AC
:103610006F01709270011092790110927A011092EC
:103620007B0110927C0119C110926C01C0927D0146
:10363000D0927E01E0927F01F09280010E949F244F
:103640004B015C016093790170937A0180937B0157
:1036500090937C019B01AC010E94C93669837A83F7
:103660008B839C830091870110918801D8019A96E1
:103670002D913D914D915C919D9729873A874B877C
:103680005C8756962D913D914D915C9159972D8374
:103690003E834F8358879B01AC016D817E818F8172
:1036A00098850E94B1339B01AC01C301B2010E9415
:1036B000C9369B01AC0169857A858B859C850E9402
:1036C000B23320E030E040E05FE30E94C9366B0196
:1036D0007C0120E030E0A9010E948E3618160CF023
:1036E000ACC029853A854B855C85C701B6010E942F
:1036F0008B3487FF8EC0F80182A093A0A4A0B5A050
:1037000029813A814B815C81C501B4010E94B133AA
:103710009B01AC01C301B2010E94C93660938101D3
:10372000709382018093830190938401A701960195
:103730000E948B3487FF3DC0C501B4010E945637FB
:10374000609375017093760180937701909378016F
:10375000A50194016D817E818F8198850E948B34B3
:10376000811104C0F1E0F0936C0177C02D813E819E
:103770004F815885C501B4010E94B1339B01AC0152
:10378000C301B2010E94C9369B01AC0160917D0169
:1037900070917E0180917F01909180010E94B133F0
:1037A00060937D0170937E0180937F0190938001EF
:1037B00054C0C0927D01D0927E01E0927F01F092D0
:1037C0008001C0928101D0928201E0928301F09247
:1037D0008401D80196966D917D918D919C919997D8
:1037E0009B01AC010E94B233A70196010E94C93629
:1037F00029813A814B815C810E94B2330E94563705
:1038000060937501709376018093770190937801AE
:1038100024C0B2E0B0936C0180917101909172016B
:10382000A0917301B091740180937501909376011A
:10383000A0937701B093780110C010927D0110928F
:103840007E0110927F01109280018092750190920A
:103850007601A0927701B092780180918D01F6E017
:10386000F89FF0011124EE54FE4FFE83ED8380910A
:103870005A01828320918701309188013E872D87EC
:10388000D9019A96BC91BCA7F901F3A5FDA7D9016E
:103890009C96BC91BEA7F901F5A5FFA720916401F4
:1038A0003091650140916601509167016CA57DA53D
:1038B0008B2F9F2F0E94B13368A779A78AA79BA758
:1038C00020E030E0A9010E948B3487FF04C018A6D5
:1038D00019A61AA61BA620917D01288F30917E0182
:1038E000398F40917F014A8F509180015B8F809189
:1038F00075018C8F909176019D8FA0917701AE8F8D
:10390000B0917801BF8FE0918101E8A3F09182012D
:10391000F9A3209183012AA3309184013BA3409114
:103920006D014CA350916E015DA380916F018EA338
:10393000909170019FA32091790130917A0140917B
:103940007B0150917C0128AB39AB4AAB5BAB30912A
:103950007101398340917201498720907301309041
:10396000740150916C015F878CA58C8B9DA59D8BFC
:10397000AEA5AE8BBFA5BF8B8EE3C82E83ECD82E31
:103980008EE2E82E89E3F82E188A198A1A8A1B8A91
:1039900026013701EF85EE2321F0E13009F47CC0E8
:1039A000B1C0AD85BE8596962D913D914D915C91AE
:1039B0009997C701B6010E94C9364B015C0120E00E
:1039C00030E040E05FE30E94C9369B01AC016981B1
:1039D0007985C1010E94B2339B01AC01C701B601D8
:1039E0000E94C9369B01AC016C897D898E899F89B3
:1039F0000E94B1338B018DAB9CAB288D398D4A8DE4
:103A00005B8D0E948B3487FF3FC0288D398D4A8D96
:103A10005B8D6CA57DA58EA59FA50E94B1339B01F2
:103A2000AC010E94B2336B017C012C8D3D8D4E8D1B
:103A30005F8D69817985C1010E94B2339B01AC0120
:103A4000C701B6010E9492346B017C0128A139A103
:103A50004AA15BA1688D798D8A8D9B8D0E948B34E4
:103A6000882319F0B1E0BF8702C0E2E0EF87FC8D48
:103A7000F9832D8D29872E8C3F8C088D198D3A8DD9
:103A80003DAB4B8D4CABAFC0A501940169817985ED
:103A9000C1010E94B2337CC0A70196016C8D7D8D5F
:103AA0008E8D9F8D0E94C9369B01AC016C897D89EA
:103AB0008E899F890E94B1338B018DAB9CAB28A16D
:103AC00039A14AA15BA10E948B3487FF8CC028A139
:103AD00039A14AA15BA16C897D898E899F890E9449
:103AE000B1332C8D3D8D4E8D5F8D0E9492346B01D4
:103AF0007C0108A119A15AA15DAB8BA18CAB92E00E
:103B00009F8771C0AD85BE8596962D913D914D9153
:103B10005C919997C701B6010E94C9364B015C01BF
:103B20009B01AC0169817985C1010E948E3618160E
:103B30009CF520E030E040E05FE3C501B4010E9465
:103B4000C9369B01AC0169817985C1010E94B133FD
:103B50009B01AC01C701B6010E94C9369B01AC01B3
:103B60006C897D898E899F890E94B1338B018DABD1
:103B70009CAB2CA13DA14EA15FA10E948E361816D0
:103B80005CF4A501940169817985C1010E94B1337A
:103B9000698379871C0127C02CA13DA14EA15FA19B
:103BA0006C897D898E899F890E94B1339B01AC010C
:103BB0000E94B2336B017C0128A939A94AA95BA9EB
:103BC00069817985C1010E94B2339B01AC01C701B3
:103BD000B6010E9492346B017C010CA11DA1BEA113
:103BE000BDABEFA1ECABA7019601688979898A8901
:103BF0009B890E94B233688B798B8A8B9B8BA30144
:103C000092010E948B3487FD5AC028A539A54AA588
:103C10005BA5B8018DA99CA90E948E3618160CF4DC
:103C200044C089819985D10180937101909372017B
:103C3000A0937301B0937401FF85F0936C014090E1
:103C40006001509061016090620170906301980181
:103C50004DA95CA9C301B2010E94C93669837A8368
:103C60008B839C830E9478346B017C0160915C01A2
:103C700070915D0180915E0190915F010E947834A6
:103C80004B015C01A70196010E94B1330E94FF34F1
:103C900069877A878B879C87E985FA85AD81BE81A4
:103CA000ED93FC933097B1F15AC02EE333EC4EE222
:103CB00059E3C301B2010E94B2332B013C012889B0
:103CC00039894A895B89C301B2010E94B1336B0112
:103CD0007C012CA13DA14EA15FA1B8018DA99CA999
:103CE0000E948E3618167CF089819985D1018093C7
:103CF000710190937201A0937301B09374013F8599
:103D000030936C019CCF0C8B1D8B4DA94E8B5CA905
:103D10005F8B40CE80919205803209F5109271013F
:103D20001092720110927301109274011092680146
:103D30001092690110926A0110926B01C0925C01AD
:103D4000D0925D01E0925E01F0925F01A3019201C9
:103D5000C701B6010E949234AD85BE85EEC02091A8
:103D600068013091690140916A0150916B01688945
:103D700079898A899B890E94B2332B013C01298170
:103D80003A814B815C81C501B4010E94B1339B0132
:103D9000AC01C301B2010E9492344B015C01298144
:103DA0003A814B815C81C701B6010E94B133A50104
:103DB00094010E94C93660936801709369018093F1
:103DC0006A0190936B0120EC31EE44E65EE4C5019C
:103DD000B4010E94C9360E9478340E94FF34603DCD
:103DE000B7E07B078105910520F4ED81FE81158206
:103DF00031C0603AFFE07F078105910510F4E1E0F2
:103E000009C06034FFE17F078105910510F4E2E00D
:103E100001C0E3E0AD81BE811596EC93AD81BE811A
:103E200015962C911597022E04C096958795779537
:103E300067950A94D2F7E985FA8502C0EE0FFF1F55
:103E40002A95E2F7ED93FC9361157105F1E08F0778
:103E5000910538F4AD81BE8114967C936E931397CF
:103E600006C02FEF3FEFED81FE81348323838091E5
:103E70008C0180938D018F5F863019F080938C01C7
:103E800002C010928C0120916D0130916E01409121
:103E90006F0150917001B8018DA99CA90E948E36C6
:103EA0001816C4F4E0918701F0918801C801ADA90A
:103EB000BCA982A793A7A4A7B5A789819A81AB8142
:103EC000BC8180935C0190935D01A0935E01B093EF
:103ED0005F0142CA20E030E0A901B8018DA99CA988
:103EE0000E948E361816ACF5109271011092720174
:103EF000109273011092740110926801109269017E
:103F000010926A0110926B01C0925C01D0925D0127
:103F1000E0925E01F0925F010091870110918801AB
:103F200020916001309161014091620150916301E3
:103F3000C701B6010E949234D8019A966D937D9381
:103F40008D939C939D970E94DC2788E08093920537
:103F500007C010928801109287010E947B24FCC93F
:103F6000E5960FB6F894DEBF0FBECDBFDF91CF91BF
:103F70001F910F91FF90EF90DF90CF90BF90AF9087
:103F80009F908F907F906F905F904F903F902F9079
:103F90000895F999FECF92BD81BD81E08FBB80B5B8
:103FA0000895F894F999FECF92BD81BD81E08FBB51
:103FB00040B54627842F992787FD9095262F30E01E
:103FC00082239323892B39F06F3F19F060BD84E081
:103FD00006C084E104C0442321F060BD84E28FBBAD
:103FE000F99A789408959F92AF92BF92CF92DF9200
:103FF000EF92FF920F931F93CF93DF938C017A017F
:104000006B01C40ED51EEB01912C5C01A61AB70AF8
:10401000CE018A0D9B1DCC15DD0591F0911009C0D4
:10402000692D772767FD7095272F221F2227221FD2
:1040300001C021E06991922E960E0E94D11FE8CF17
:10404000692DC8018E0D9F1DDF91CF911F910F919A
:10405000FF90EF90DF90CF90BF90AF909F900C9427
:10406000D11F9F92AF92BF92CF92DF92EF92FF92B9
:104070000F931F93CF93DF938B017A016C01C40ED2
:10408000D51EEC01912C5B01A81AB90AC5018C0F51
:104090009D1FCC15DD0591F00E94C91F911009C02C
:1040A000292D332727FD3095232F221F2227221F5A
:1040B00001C021E0922E980E8993E8CFC8018E0DA1
:1040C0009F1D0E94C91F21E030E0981611F020E0EA
:1040D00030E0C901DF91CF911F910F91FF90EF90D8
:1040E000DF90CF90BF90AF909F90089521E5829F81
:1040F000C001112440E550E09D5F0C94F31F40E5A2
:1041000050E0BC018EEA93E00C94F31F2DE0829FF7
:10411000C00111244CE050E09E5F0C94F31F69E055
:1041200080E090E00E94D11F4EE450E064EE76E023
:1041300081E090E00C94F31F8AE08093140789E1FA
:10414000809317071092150781E08093160723E0EC
:10415000209318078AE097EDA3EABCE38093190740
:1041600090931A07A0931B07B0931C078FE692E168
:10417000A3E0BBE380931D0790931E07A0931F0746
:10418000B09320072093230780E090E0A8ECB1E4EF
:104190008093240790932507A0932607B0932707C1
:1041A00080E090E0AAEFB4E4809328079093290779
:1041B000A0932A07B0932B0784E690E090932D07F5
:1041C00080932C0780E090E0A0E8BFE380932E0767
:1041D00090932F07A0933007B093310782E391E0CB
:1041E000909322078093210780E090E0A8ECB2E44E
:1041F0008093E4069093E506A093E606B093E70665
:104200008093E8069093E906A093EA06B093EB0644
:104210008093EC069093ED06A093EE06B093EF0624
:1042200080E090E4ACE9B5E48093F0069093F10669
:10423000A093F206B093F3068093F4069093F506EC
:10424000A093F606B093F7068093F8069093F906CC
:10425000A093FA06B093FB0680E09FECA9E1BAE4D4
:104260008093FC069093FD06A093FE06B093FF0694
:104270008093000790930107A0930207B093030770
:1042800080E098ECAFEAB8E48093040790930507C8
:10429000A0930607B093070780E090E0ABE5B3EC8E
:1042A0008093080790930907A0930A07B0930B0720
:1042B00080E090E0A6E9B3EC80930C0790930D07A3
:1042C000A0930E07B0930F0780E090E0A0E2B1EC5E
:1042D0008093100790931107A0931207B0931307D0
:1042E0000C948F201F93CF93DF93182FEB0181E560
:1042F000189FB00111247D5F40E550E0CE010E947F
:104300003120892B39F41882BE01812F0E9476203A
:1043100080E001C081E0DF91CF911F910895CF939C
:10432000DF93EC0140E550E06EEA73E00E9431203B
:10433000892B21F41882CE010E947F2081E0DF9139
:10434000CF9108951F93CF93DF93182FEB018DE04A
:10435000189FB00111247E5F4CE050E0CE010E9416
:104360003120892B59F48CE0FE0111928A95E9F7EE
:10437000BE01812F0E94862080E001C081E0DF9194
:10438000CF911F91089580E090E00E94C91F89306D
:1043900059F44EE450E061E070E084EE96E00E9453
:1043A000312021E0892B09F420E0822F0895CF925B
:1043B000DF92EF92FF92CF93DF93C82F6A017B01C8
:1043C00020E030E0A901C701B6010E948B3487FDCF
:1043D0000BC1C43608F445C02CE92C0F80E0233013
:1043E000B8F530E0823079F0F901EE0FFF1FEE0FE3
:1043F000FF1F833011F1813019F0EC51F94F23C0C8
:10440000E051F94F20C0E901CC0FDD1FCC0FDD1FBB
:10441000C450D94F20E030E040E752E4C701B60174
:104420000E94C93620E030E040E752E40E94C936DD
:10443000688379838A839B83D3C0E85FF84FF7FA58
:10444000F094F7F8F094C082D182E282F382C8C07F
:104450008F5F2A3008F4CAC0843009F4C7C02A50DC
:10446000BECFC701B6010E9497370E94FF348C2F40
:1044700090E08932910508F0B9C0FC01EF5AFF4F76
:104480000C94EF37633008F4B3C060931407A8C0EE
:1044900060931707A5C06093150702C060931607C5
:1044A0000E94E6189DC08091210790912207662303
:1044B00011F0846091C08B7F8FC080912107909113
:1044C0002207662311F0806487C08F7B85C08091AE
:1044D000210790912207662311F080687DC08F77B5
:1044E0007BC060931807C0921907D0921A07E09218
:1044F0001B07F0921C0774C0C0921D07D0921E07C4
:10450000E0921F07F09220076BC0809121079091E5
:104510002207662311F081605FC08E7F5DC08091AD
:10452000210790912207662311F0826055C08D7F8C
:1045300053C08091210790912207662321F084FFC8
:1045400059C0806249C08F7D47C0809121079091FA
:104550002207662311F0886001C0877F90932207AD
:10456000809321070E94D2283BC08091210790911F
:104570002207662311F080612FC08F7C2DC06093CD
:1045800023072EC0C0922407D0922507E092260769
:10459000F092270725C0C0922807D0922907E09201
:1045A0002A07F0922B071CC070E070932D076093D0
:1045B0002C0716C0C0922E07D0922F07E09230072A
:1045C000F09231070DC08091210790912207662358
:1045D00011F0916001C09E7F909322078093210784
:1045E0000E948F2080E007C084E005C083E003C004
:1045F00086E001C08AE0DF91CF91FF90EF90DF90DD
:10460000CF9008951F93CF93DF93CDB7DEB72C974C
:104610000FB6F894DEBF0FBECDBF0E94C32181113B
:1046200007C087E00E94FA2C0E949C200E94952DD2
:1046300010E0BE016F5F7F4F812F0E94A221811188
:1046400003C087E00E94FA2C1F5F183091F72C9668
:104650000FB6F894DEBF0FBECDBFDF91CF911F9193
:104660000895882321F0813021F488E0089584E0C2
:10467000089580E10895882321F0813021F480E4B9
:10468000089580E2089580E80895882321F081301C
:1046900021F484E0089582E0089580E108954F9226
:1046A0005F926F927F928F929F92AF92BF92CF92C2
:1046B000DF92EF92FF920F931F93CF93DF931091AE
:1046C0005302111101C012E1115000915102101753
:1046D00009F4EFC08EE2189FE0011124CB5ADD4FA0
:1046E0008A8C9B8CAC8CBD8C6EA17FA188A599A572
:1046F0009B01AC010E94B2332AA53BA54CA55DA548
:104700000E94C9366B017C019B01AC01B401C5015B
:104710000E948B3487FF02C064017501A601B701B6
:104720004E8B5F8B688F798F111101C012E1772456
:104730007A94710E701619F02EE2622E27C08091C5
:104740005402081351C00E9470194EC0679C80012A
:1047500011240B5A1D4F711002C092E1792E7A94E8
:1047600080915402781202C00E947019F801C28C24
:10477000D38CE48CF58CA701960166897789808DAE
:10478000918D0E948B34811106C0E8018091510205
:104790007812DCCF29C0F80166A177A180A591A588
:1047A0009B01AC010E94B233F80122A533A544A5B8
:1047B00055A50E94C9362E893F89488D598D0E9482
:1047C000B2334B015C01A70196010E948B34F801C2
:1047D00087FF05C0868A978AA08EB18ED6CFC68AFB
:1047E000D78AE08EF18ED1CF60905102FEE26F9EAB
:1047F000800111240B5A1D4F77247394760C82E1AB
:10480000781201C0712C509053028EE2482E75141C
:1048100009F44DC0479CE0011124CB5ADD4FF8014B
:1048200086889788A08CB18CCE88DF88E88CF98C3C
:10483000A7019601C501B4010E948B3487FF23C0F4
:10484000F80166A177A180A591A59B01AC010E940A
:10485000B233F80122A533A544A555A50E94C93657
:104860009B01AC01C501B4010E94B2334B015C0154
:10487000A70196010E948B3487FF05C08E8A9F8A0C
:10488000A88EB98E672C2A8D3B8D4C8D5D8D6E89DF
:104890007F89888D998D0E948B34811101C0672C8E
:1048A0007394F2E17F1201C0712C8E01B0CF60923F
:1048B0005102DF91CF911F910F91FF90EF90DF9008
:1048C000CF90BF90AF909F908F907F906F905F90B0
:1048D0004F9008958CE1E5E3F2E0DF011D928A95A7
:1048E000E9F7109254021092530281E08093520231
:1048F00010925102089590915402809153028917A9
:1049000069F081E0890F823109F480E02091510241
:10491000921302C0809351028093540208958091B3
:10492000540290915302981739F02EE2829FC001F1
:1049300011248B5A9D4F089580E090E00895E091F6
:104940005402EF5FE23109F4E0E080915302E8178E
:1049500061F08EE2E89FF0011124EB5AFD4F668969
:104960007789808D918D0C94563760E070E0CB0193
:10497000089581E02091540290915202291380E021
:1049800008952F923F924F925F926F927F928F92F3
:104990009F92AF92BF92CF92DF92EF92FF920F93CE
:1049A0001F93CF93DF93CDB7DEB7AD970FB6F894D3
:1049B000DEBF0FBECDBF4B8F5C8F6D8F7E8FB22E53
:1049C000209153023EE2239F10011124F101EB5A82
:1049D000FD4F1F01E082F18202831383C482128A99
:1049E000138A148A158A12A613A614A615A6158270
:1049F00049E956E766E97EE746A357A360A771A792
:104A00006C0104EE16E09E01235F3F4F38A32F8F09
:104A100085E392E09AA389A37F01FE0131964F01BD
:104A2000A12CF60161917191819191916F01F80131
:104A300020813181428153810E94C9360E9499367A
:104A4000EF8DF8A16193719381939193F8A3EF8F08
:104A5000E9A1FAA14190519061907190FAA3E9A364
:104A600064197509860997092B013C0197FF07C056
:104A7000442455243201461A570A680A790AF70174
:104A80004682578260867186F10122893389448982
:104A90005589421653066406750610F429013A0139
:104AA000F101428A538A648A758A0E942D35F80181
:104AB00020813181428153810E9492342B013C013B
:104AC000F40161937193819391934F0120E030E061
:104AD000A9010E948B3487FF0AC0F10195818A2DBC
:104AE0009DA70E943B239DA5892BF1018583A301EE
:104AF0009201C301B2010E94C936F10122A533A57A
:104B000044A555A50E94B233F10162A773A784A7FB
:104B100095A7A3940C5F1F4FF4E0EF0EF11C23E068
:104B2000A2127FCF0E9456376B017C01F10162A770
:104B300073A784A795A782899389A489B589892BAE
:104B40008A2B8B2B09F4E5C120E030E0A9016B8DA5
:104B50007C8D8D8D9E8D0E948B3487FD21C0BB2066
:104B600061F02B8D3C8D4D8D5E8DC701B6010E948D
:104B700092346B8F7C8F8D8F9E8F20E030E040E8E9
:104B80005FE36B8D7C8D8D8D9E8D0E948B3487FFB6
:104B90000FC01B8E1C8E90E89D8FEFE3EE8F08C038
:104BA000F9E9FB8F26E72C8F36E93D8F8EE78E8F54
:104BB000A701960160E070E080E89FE30E949234D4
:104BC00069A77AA78BA79CA721E432E03CA32BA37B
:104BD00080EF96E09AA389A3FE013D96FA8FE98FB4
:104BE0009E012F5F3F4F38A32F8FC12CD12C760110
:104BF000EF8DF8A180809180A280B38020E030E02A
:104C0000A901C501B4010E948B34882309F483C033
:104C100029A53AA54BA55CA5C501B4010E94C936DA
:104C20004B015C01EF8DF8A16083718382839383D4
:104C30009B01AC0160E070E080E89FE30E94923449
:104C40002B013C01E89477F8E9A1FAA12081318198
:104C500042815381C301B2010E94C9366DA37EA374
:104C60008FA398A79B01AC016B8D7C8D8D8D9E8D44
:104C70000E948B3487FF08C0FB8DFDA32C8D2EA3D3
:104C80003D8D3FA38E8D88A7F101F6A1FB8FF10129
:104C9000F7A1FC8FF101F0A5FD8FF101F1A5FE8FC9
:104CA000E9A1FAA12485358546855785C301B2015E
:104CB0000E94C9363B018C019B01AC016B8D7C8D40
:104CC0008D8D9E8D0E948B3487FF04C06B8C7C8CF5
:104CD0000D8D1E8DC301D801F10186A397A3A0A756
:104CE000B1A7EBA1FCA12081318142815381C50193
:104CF000B4010E94C9369B01AC01C701B6010E94F4
:104D0000B1336B017C01FDA1FB8F2EA12C8F3FA144
:104D10003D8F88A58E8FEF8DF8A13496F8A3EF8F85
:104D20002BA13CA12C5F3F4F3CA32BA389A19AA1AF
:104D300004969AA389A3298D3A8DE217F30709F007
:104D400057CF909153028091540298130AC0F101F9
:104D5000168A178A108E118E168E178E10A211A227
:104D600049C0A701960160E070E080E89FE30E94DF
:104D7000B13320E030E040E05FE30E94C9360E949A
:104D800056376B017C012091190730911A07409129
:104D90001B0750911C07F10166A177A180A591A581
:104DA0000E94C936A70196010E94C9364B015C01D9
:104DB000A701960160E070E080E89FE30E94B133B4
:104DC0009B01AC01C501B4010E9492347B018C01AE
:104DD00020E030E0A9010E948B3487FF04C0E12C61
:104DE000F12C00E010E0A701B801F101468F578FC8
:104DF00060A371A32B8D3C8D4D8D5E8D6B8D7C8D55
:104E00008D8D9E8D0E94C936162F072FF82EE92E04
:104E1000862F902FAF2DBE2DF10182A393A3A4A3C3
:104E2000B5A3A68CB78CC0A0D1A060904D027090A5
:104E30004E0280904F02909050029301A401612F86
:104E4000702F8F2D9E2D0E948B3487FD0BC09301F8
:104E5000A401B501C6010E948B3487FD11C0530126
:104E600064010EC0212F302F4F2D5E2DB501C601DC
:104E70000E948B3487FD04C0A12EB02ECF2CDE2CD7
:104E8000C501D601F101828F938FA48FB58F8CE07D
:104E9000FE013196A1E4B2E001900D928A95E1F70E
:104EA000812F902FAF2DBE2D80934D0290934E02F7
:104EB000A0934F02B09350028CE0FE013D96A5E313
:104EC000B2E001900D928A95E1F7809152028093B1
:104ED00053028F5F823109F480E080935202AD96D5
:104EE0000FB6F894DEBF0FBECDBFDF91CF911F91FB
:104EF0000F91FF90EF90DF90CF90BF90AF909F9079
:104F00008F907F906F905F904F903F902F900C9478
:104F10004F23AD960FB6F894DEBF0FBECDBFDF9125
:104F2000CF911F910F91FF90EF90DF90CF90BF90A6
:104F3000AF909F908F907F906F905F904F903F9039
:104F40002F9008958091950590919605A0919705D1
:104F5000B09198058093350290933602A093370262
:104F6000B09338028091990590919A05A0919B0584
:104F7000B0919C058093390290933A02A0933B0232
:104F8000B0933C0280919D0590919E05A0919F0554
:104F9000B091A00580933D0290933E02A0933F0202
:104FA000B093400208958091530290915402891762
:104FB00008F48E5E891B08950E9470198091540236
:104FC000809351020C944F236F927F928F929F9205
:104FD000AF92BF92CF92DF92EF92FF920F931F9307
:104FE000CF93DF937C018B016A01FB018081F70184
:104FF000E80FF11D2081EF012D3229F42296218145
:105000006624639407C02B3211F0219602C02296C9
:105010002181612CA12CB12C712C60E070E0CB01BE
:10502000FE0130ED932E920E29E02915C8F0B394BD
:1050300028E02B1588F0A1107A94A5E0B0E09B0140
:10504000AC010E94B637660F771F881F991F690D44
:10505000711D811D911D0BC0A11009C0739407C063
:105060002EEF921207C0A11005C0AA24A394219686
:105070002081D6CFBB2009F449C00E942B354B01BB
:105080005C0120E030E0A9010E948B34882361F1AB
:105090008FEF78166CF42AE037ED43E25CE3C5014C
:1050A000B4010E94C9364B015C0173947394F0CF34
:1050B00078120BC02DEC3CEC4CEC5DE3C501B40167
:1050C0000E94C9364B015C010FC0772069F020E0D7
:1050D00030E040E251E4C501B4010E94C9364B0101
:1050E0005C017A9417149CF3662021F0B7FAB0940F
:1050F000B7F8B094F60180829182A282B382CE1971
:10510000DF09C150F801C08381E001C080E0DF9178
:10511000CF911F910F91FF90EF90DF90CF90BF90B4
:10512000AF909F908F907F906F900895009741F07F
:10513000EFE9FFE03197F1F700C000000197F6CFEB
:1051400008958F929F92AF92BF92CF92DF92EF928B
:10515000FF9269017A019B01AC010E94C9364B01A3
:105160005C01A7019601C701B6010E94C9369B01E7
:10517000AC01C501B4010E94B233FF90EF90DF9003
:10518000CF90BF90AF909F908F900C945637EBE6E6
:10519000F0E08081897E8083E8E6F0E080818E7F88
:1051A0008083089584B1897E84B99091210785B167
:1051B00096FF02C0897E01C0866185B993FF0BC04E
:1051C00080916B00866180936B00809168008160A4
:1051D0008093680008950C94C7281F920F920FB611
:1051E0000F9211242F933F934F935F936F937F936D
:1051F0008F939F93AF93BF93EF93FF93809192050B
:10520000813071F08091930585FD0AC00E941E09CE
:105210009FB7F894809193058066809393059FBF14
:10522000FF91EF91BF91AF919F918F917F916F917E
:105230005F914F913F912F910F900FBE0F901F9054
:1052400018952F923F924F925F926F927F928F921A
:105250009F92AF92BF92CF92DF92EF92FF920F9305
:105260001F93CF93DF93CDB7DEB76C970FB6F8944B
:10527000DEBF0FBECDBF898F809191058111CEC158
:10528000409028075090290760902A0770902B07BC
:1052900008E017E0188F0F8B9E01235F3F4F5901E5
:1052A0008E01005F1F4F212C1D8A812C912C312CE7
:1052B000832D0E944523D8018D938D01832D0E945B
:1052C0003123F50181935F01AF89B88DCD90DD90D9
:1052D000ED90FD90B88FAF8BA7019601622D7D896F
:1052E000C4010E948E3618161CF0C22CDD88740191
:1052F0003394B3E03B1621F02C2CDD8A4701D8CF44
:1053000020E030E040EC5FEBC701B6010E94C936F7
:105310004B015C010E946A24E6E0ED8B3324339458
:10532000F98CEF2CF12CF88EEF8A9501840130581E
:10533000098F1A8F2B8F3C8F9E01205F3F4F3C8B34
:105340002B8B8091210786FD02C0232C03C02224D1
:1053500023942324A09123076A2F70E0DE01119685
:1053600080E090E0D12C40E0582FEF89F88D082E96
:1053700002C0F595E7950A94E2F79F012170332763
:10538000E0FF13C04F5F31100AC0E98CFA8C0B8D1F
:105390001C8DED92FD920D931C9313970BC08D9273
:1053A0009D92AD92BC92139705C01D921D921D92C5
:1053B0001C921397FB0102C0F595E7955A95E2F709
:1053C000E0FF0EC0ED90FD900D911C91139717FB1F
:1053D000109517F91095ED92FD920D931C9313976C
:1053E000232B41F0EDE0F0E0EC0FFD1FE80FF91F7B
:1053F0002081D22A019614968330910509F0B4CF0A
:10540000642F70E080E090E00E942B350E945637B8
:105410009B01AC01D0929405C301B2010E94C93630
:10542000AB01BC01C12CE12CF12C870120E0CE01A5
:1054300001960E94C1240E9492190E94611616E1F1
:1054400083B121108127DE015096FE013D96219106
:10545000922F9D2129F09C91982311F02095D22222
:1054600011962B893C89E217F30789F7D0929405AE
:105470000E9492198091930584FF03C00E942D150C
:10548000CDC08D2D8C71E1F60E9422190E946A24F4
:1054900080912C0790912D070E9496284090240718
:1054A00050902507609026077090270781E03826E6
:1054B0003D8931503D8B311144CF80912307E82E37
:1054C000F12CFE8AED8AC0902E07D0902F07E09035
:1054D0003007F0903107970186013058098F1A8FF5
:1054E0002B8F3C8F85E9A82E85E0B82E94EE292ECF
:1054F00096E0392E9E012F5F3F4F490100E010E0FA
:105500008F89988D002E02C0959587950A94E2F7B1
:1055100080FF3DC08D899E89002E02C0959587959C
:105520000A94E2F780FF23C0D10194964D905D90DC
:105530006D907C909797A3019201C701B6010E94DC
:10554000B233F4016083718382839383D1012D91FF
:105550003D914D915C91C301B2010E94C9360E94F8
:105560009936F501608371838283938323C0898D8B
:105570009A8DAB8DBC8DF40180839183A283B3831C
:10558000D5011D921D921D921C92139713C0F50117
:1055900060817181828193810E942D35D1012D918D
:1055A0003D914D915C910E949234F401608371832E
:1055B000828393830F5F1F4FF4E08F0E911C24E0D2
:1055C000A20EB11C34E0230E311C0330110509F08A
:1055D00097CF0E94A22740912807509129076091F8
:1055E0002A0770912B07C12CE12CF12C870120E0B8
:1055F000CE0101960E94C12488E0809392059FB756
:10560000F894809193058260809393059FBF0E94D8
:105610002D150E94471684E0809392056C960FB674
:10562000F894DEBF0FBECDBFDF91CF911F910F91D8
:10563000FF90EF90DF90CF90BF90AF909F908F90B2
:105640007F906F905F904F903F902F900895CF92F2
:10565000DF92EF92FF920F931F93CF93DF938C0112
:10566000C8E0D7E0F801C190D190E190F1908F01AE
:1056700020E030E0A901C701B6010E948E3618165D
:1056800054F02991399149915991C701B6010E946D
:105690008B3487FF27C080919205803179F49FB7C2
:1056A000F894809193058860809393059FBF0E9432
:1056B0002D15809191058823D1F319C00E941E09F0
:1056C0009FB7F894809193058066809393059FBF60
:1056D000DF91CF911F910F91FF90EF90DF90CF90CE
:1056E0000C942D15F7E0C431DF0709F0BBCFDF9133
:1056F000CF911F910F91FF90EF90DF90CF90089581
:10570000CF93DF93EC018991882319F00E947814DC
:10571000FACFDF91CF910895CF93DF93FC0184916D
:10572000EF012196882321F00E947814FE01F7CF23
:10573000DF91CF910895EF92FF920F931F93CF9334
:10574000DF93CDB7DEB728970FB6F894DEBF0FBE54
:10575000CDBFFE0131967F019E01275F3F4F982FFD
:10576000917091938695E217F307C9F78F01F801BD
:1057700082918F01805D0E9478140E151F05B9F784
:1057800028960FB6F894DEBF0FBECDBFDF91CF9144
:105790001F910F91FF90EF9008951F93CF93DF9388
:1057A00000D01F92CDB7DEB7811109C080E30F9002
:1057B0000F900F90DF91CF911F910C94781490E08F
:1057C0002AE011E0190FE1E0F0E0EC0FFD1FE90F16
:1057D000F11D622F0E94C137905D9083882311F0E4
:1057E000912FEFCF112341F0FE01E10FF11D8081D8
:1057F0000E9478141150F6CF0F900F900F90DF9108
:10580000CF911F9108958F929F92AF92BF92CF92A6
:10581000DF92EF92FF920F931F93CF93DF93CDB759
:10582000DEB72A970FB6F894DEBF0FBECDBF6B016F
:105830007C01142F20E030E0A9010E948B3487FF07
:1058400007C08DE20E947814F7FAF094F7F8F0940C
:10585000012F023060F020E030E048EC52E4C70154
:10586000B6010E94C9366B017C010250F2CF10FFD5
:105870000AC020E030E040E251E4C701B6010E94D6
:10588000C9366B017C0120E030E040E05FE3C701F6
:10589000B6010E94B2330E94FA34E1E0F0E0EC0F6E
:1058A000FD1FE10FF11D2EE22083D12C3AE0832E63
:1058B000912CA12CB12C6115710581059105A9F0E0
:1058C000D11201C0D394EE24E394F12CEC0EFD1E12
:1058D000ED0CF11CA50194010E94CD37605DF7012C
:1058E0006083B901CA01D394E6CF80E3D11648F4AE
:1058F000E1E0F0E0EC0FFD1FED0DF11D8083D3948E
:10590000F5CF8D2DD1120BC0D394D3948F5FE1E0EE
:10591000F0E0EC0FFD1FE80FF11D80E38083DD2038
:1059200041F0FE01ED0DF11D80810E947814DA94A2
:10593000F6CF2A960FB6F894DEBF0FBECDBFDF912B
:10594000CF911F910F91FF90EF90DF90CF90BF907C
:10595000AF909F908F9008952091210720FF08C05D
:105960002BE832E441E25DE30E94C93644E001C025
:1059700043E00C94032C2091210720FF08C02BE862
:1059800032E441E25DE30E94C93641E001C040E0FB
:105990000C94032C43E00C94032C3D988091210738
:1059A00087FF04C04598109232070895459A80E217
:1059B00080933207089586B18072909132078927CB
:1059C00008958091A2058130A1F40E94DB2C8823E8
:1059D00081F01092A2058CE0E5E9F5E0A3EAB5E0DC
:1059E00001900D928A95E1F78091930588608093EC
:1059F00093050895CF93C82F811103C084E698E0E2
:105A000044C08CE598E00E948C2B4C2F50E0FA01AA
:105A10003197E631F10580F5E658FF4F0C94EF37EA
:105A200084E498E002C082E398E00E948C2B2BC0B3
:105A300080E298E0FACF86E198E0F7CF85E098E041
:105A4000F4CF86EF97E0F1CF85ED97E0EECF8CECC9
:105A500097E0EBCF81EC97E0E8CF8EEA97E0E5CFD7
:105A600080EA97E0E2CF8AE897E0DFCF86E797E029
:105A7000DCCF82E697E0D9CF80E597E00E948C2BBF
:105A80008C2F0E94CD2B8DE497E0CF910C948C2B22
:105A9000CF93C82F85E497E00E948C2BCE3F51F026
:105AA000CF3F29F0CD3F51F487E197E005C085E372
:105AB00097E002C082E297E00E948C2B84E197E09D
:105AC0000E948C2B84EF91E0CF910C949628CF9379
:105AD000C82F82E197E00E948C2BC33091F038F4FC
