:100000000C9409040C9426040C9426040C949E274A
:100010000C9464300C9426040C9426040C9426044E
:100020000C9426040C9426040C9426040C94AF150E
:100030000C9426040C9426040C9426040C94260498
:100040000C94C8170C9426040C94D5130C94971395
:100050000C9426040C9426040C9426040C94260478
:100060000C9426040C942604460B98129812500BFC
:100070005D0B6A0B770B98127B0B9812890B981209
:10008000930B9D0BCE0B981298129812A70BB40BE2
:10009000C10BCA11DB11FA11DB11FE11111204128E
:1000A0000A1217211D2120212321282130213A2144
:1000B000AD21AD21AD21422144214D2156215E21AA
:1000C000AD21AD21AD21AD21AD21662170217C2175
:1000D00084218721902199219F21AD2BB02BB52B15
:1000E000B82BBB2BBE2BC12BC42BC72BCA2BCD2BA4
:1000F000D92BD92BD92BD92BD92BD92BD92BD92BE0
:10010000D32BD02BD62B084AD73B3BCE016E84BCD9
:10011000BFFDC12F3D6C74319ABD56833DDA3D0061
:10012000C77F11BED9E4BB4C3E916BAAAABE0000AA
:1001300000803F05A84CCDB2D44EB93836A9020C88
:1001400050B9918688083CA6AAAA2ABE0000008061
:100150003F3E0D0A006F66663A006F6E3A002C6CE7
:100160006173657220002C52583A002C4275663A31
:10017000002C002C57506F733A002C002C4D506F00
:10018000733A003C436865636B003C416C61726D7F
:10019000003C486F6D65003C486F6C64003C5275D4
:1001A0006E003C5175657565003C49646C65005D89
:1001B0000D0A005B302E39672E3230313430383042
:1001C000353A000D0A003D00244E005D0D0A002066
:1001D0004600205400204D3800204D3900204D3578
:1001E00000204D3400204D3300204D3200204D3191
:1001F00000204D300020473934002047393300209B
:10020000473931002047393000204732300020473D
:100210003231002047313900204731380020473142
:1002200037002047005B473830005B4733005B47AF
:1002300032005B4731005B4730005D0D0A005B54C4
:100240004C4F3A005D0D0A002C005B4739323A00F2
:100250005D0D0A002C003A003330003238005B4755
:10026000005D0D0A002C005B5052423A00290D0A35
:1002700000206D61782074726176656C2C206D6D44
:100280000020616363656C2C206D6D2F7365635E68
:100290003200206D617820726174652C206D6D2FA5
:1002A0006D696E002C20737465702F6D6D007A007F
:1002B000790078002028003D0024002028686F6D18
:1002C000696E672070756C6C2D6F66662C206D6D85
:1002D000290D0A002028686F6D696E6720646562C9
:1002E0006F756E63652C206D736563290D0A24326A
:1002F000373D002028686F6D696E67207365656BF8
:100300002C206D6D2F6D696E290D0A2432363D004B
:100310002028686F6D696E6720666565642C206DA6
:100320006D2F6D696E290D0A2432353D00290D0AA5
:100330002432343D002028686F6D696E672064693F
:100340007220696E76657274206D61736B3A00205D
:1003500028686F6D696E67206379636C652C206215
:100360006F6F6C290D0A2432333D002028686172BA
:1003700064206C696D6974732C20626F6F6C290D39
:100380000A2432323D002028736F6674206C696D38
:100390006974732C20626F6F6C290D0A2432313D11
:1003A0000020286175746F2073746172742C206250
:1003B0006F6F6C290D0A2432303D00202872657061
:1003C0006F727420696E636865732C20626F6F6C46
:1003D000290D0A2431343D00202861726320746F96
:1003E0006C6572616E63652C206D6D290D0A243178
:1003F000333D0020286A756E6374696F6E206465F2
:1004000076696174696F6E2C206D6D290D0A243137
:10041000323D00290D0A2431313D002028737461DA
:10042000747573207265706F7274206D61736B3AAE
:1004300000202870726F62652070696E20696E7688
:100440006572742C20626F6F6C290D0A2431303D67
:100450000020286C696D69742070696E7320696E64
:10046000766572742C20626F6F6C290D0A24363DFC
:100470000020287374657020656E61626C65206968
:100480006E766572742C20626F6F6C290D0A2435AC
:100490003D00290D0A24343D002028646972207033
:1004A0006F727420696E76657274206D61736B3A39
:1004B00000290D0A24333D002028737465702070D4
:1004C0006F727420696E76657274206D61736B3A19
:1004D000002028737465702069646C652064656C05
:1004E00061792C206D736563290D0A24323D00204B
:1004F00028737465702070756C73652C2075736536
:1005000063290D0A24313D0024303D002424202895
:1005100076696577204772626C2073657474696EC2
:100520006773290D0A242320287669657720232004
:10053000706172616D6574657273290D0A244720BC
:1005400028766965772070617273657220737461B3
:100550007465290D0A24492028766965772062751B
:10056000696C6420696E666F290D0A244E20287616
:10057000696577207374617274757020626C6F6343
:100580006B73290D0A24783D76616C75652028739C
:10059000617665204772626C2073657474696E675A
:1005A000290D0A244E783D6C696E652028736176AA
:1005B00065207374617274757020626C6F636B294F
:1005C0000D0A24432028636865636B2067636F64AA
:1005D00065206D6F6465290D0A245820286B696CAD
:1005E0006C20616C61726D206C6F636B290D0A2445
:1005F00048202872756E20686F6D696E6720637978
:10060000636C65290D0A7E20286379636C6520730D
:1006100074617274290D0A2120286665656420685A
:100620006F6C64290D0A3F202863757272656E74C1
:1006300020737461747573290D0A6374726C2D785C
:1006400020287265736574204772626C290D0A0058
:100650000D0A4772626C20302E3967205B272427F1
:1006600020666F722068656C705D0D0A005D0D0A72
:100670000044697361626C656400456E61626C651B
:10068000640043617574696F6E3A20556E6C6F63D8
:100690006B656400272448277C2724582720746F23
:1006A00020756E6C6F636B00526573657420746F98
:1006B00020636F6E74696E7565005B000D0A0050F3
:1006C000726F6265206661696C0041626F727420AE
:1006D000647572696E67206379636C650048617246
:1006E000642F736F6674206C696D697400414C41AE
:1006F000524D3A20000D0A00496E76616C69642003
:1007000067636F64652049443A00556E64656669A5
:100710006E65642066656564207261746500556E5F
:10072000737570706F7274656420636F6D6D616E48
:1007300064004D6F64616C2067726F75702076691C
:100740006F6C6174696F6E004C696E65206F7665C1
:1007500072666C6F7700486F6D696E67206E6F749C
:1007600020656E61626C656400416C61726D206C25
:100770006F636B004E6F742069646C650045455073
:10078000524F4D2072656164206661696C2E205560
:1007900073696E672064656661756C747300566179
:1007A0006C7565203C203320757365630053657458
:1007B00074696E672064697361626C656400566178
:1007C0006C7565203C203000496E76616C69642050
:1007D00073746174656D656E7400426164206E753A
:1007E0006D62657220666F726D6174004578706528
:1007F0006374656420636F6D6D616E64206C6574F5
:10080000746572006572726F723A20006F6B0D0A28
:10081000000011241FBECFEFD8E0DEBFCDBF11E036
:10082000A0E0B1E0E4E9FCE602C005900D92A6303C
:10083000B107D9F716E0A6E0B1E001C01D92AD3CCA
:10084000B107E1F70E9428040C9448360C9400008C
:100850000E9465130E94B9210E9446180E945330DD
:100860008EE1EDE2F5E0DF011D928A95E9F781E086
:1008700080932D0578949091BC0694FD80932E056D
:10088000C1E00E942B140E940F090E94DA120E94FC
:100890003D130E9483270E946A2B0E9421230E94FD
:1008A0001A180E9453260E94210910922D051092B9
:1008B0002F058091BC0681FF03C0C0933D0502C097
:1008C00010923D050E94DA14DCCFEF92FF921F9345
:1008D000CF93DF9300D000D0CDB7DEB77C01122FCD
:1008E0008091BC0685FF0BC0C70149835A836B8387
:1008F0007C830E94C4297C816B815A8149818091CB
:100900002E05823021F149835A836B837C830E94B8
:10091000301480912D0581111AC00E9470234981E5
:100920005A816B817C81882339F00E94CD144981E2
:100930005A816B817C81E7CF212FC7010E947823E8
:1009400080912E05811103C088E080932E050F90C1
:100950000F900F900F90DF91CF911F91FF90EF902C
:1009600008952F923F924F925F926F927F928F9253
:100970009F92AF92BF92CF92DF92EF92FF920F932E
:100980001F93CF93DF93CDB7DEB7E7970FB6F894F9
:10099000DEBF0FBECDBF9C8B8B8B1B013A0109873D
:1009A0001A872B873C87AD8A2D961FAD2D972E96E3
:1009B0002FAD2E97298B84E0889EA00111245A83A5
:1009C0004983AB89BC89A40FB51FBF8BAE8B460D85
:1009D000571D598F488FFA0180809180A280B38083
:1009E0002D913D914D915C91C501B4010E94F6316C
:1009F0006A8F7B8F8C8F9D8FF4E01F9F8001112465
:100A00002B893C89200F311F3F8F2E8FA301400F70
:100A1000511F59A348A3DA014D905D906D907C90D1
:100A2000F9012081318142815381C301B2010E94C9
:100A3000F6316AA37BA38CA39DA3A5019401505812
:100A40002D873E874F87588BD301C201B0588D83C5
:100A50009E83AF83B887E981FA81E20DF31D2A8D69
:100A60003B8D4C8D5D8D60817181828193810E946F
:100A7000F5312B013C01F101E00FF11F2AA13BA14F
:100A80004CA15DA160817181828193810E94F531C9
:100A90004B015C01A30192016D857E858F8598894C
:100AA0000E940D3569837A838B839C83A501940111
:100AB0006D817E818F8198850E940D359B01AC01EF
:100AC00069817A818B819C810E94F63169837A8366
:100AD0008B839C83A50194016D857E858F85988984
:100AE0000E940D354B015C01A30192016D817E8155
:100AF0008F8198850E940D359B01AC01C501B40121
:100B00000E94F53129813A814B815C810E946932D2
:100B10002B013C0180914B0520E030E0A90182309F
:100B200079F4C301B2010E94D23487FD19C02BEDC4
:100B30003FE049EC50E4C301B2010E94F5310EC020
:100B4000C301B2010E94CF32181654F02BED3FE0E2
:100B500049EC50E4C301B2010E94F6312B013C0183
:100B60008090B8069090B906A090BA06B090BB06E7
:100B700029853A854B855C85CA01B9010E94F63109
:100B8000A50194010E94F5319B01AC01C501B4019E
:100B90000E940D350E949A354B015C0120E030E047
:100BA00040E05FE3C301B2010E940D3529853A851B
:100BB0004B855C850E940D359F77A50194010E94AD
:100BC000D6320E94AC330E9443337FA36EA3DB0175
:100BD000AB2B09F486C14B01A12CB12CBD89BB23E1
:100BE00061F0C501B4010E946F339B01AC01C701E4
:100BF000B6010E940D356B017C01C501B4010E9454
:100C00006F334B015C019B01AC01C301B2010E9437
:100C1000D63269877A878B879C87F989E4E0FE9FC3
:100C2000C00111242B893C89280F391F3A8B298B4D
:100C3000F101E80FF91FD9012D913D914D915C9182
:100C400060817181828193810E94F531A5019401B7
:100C50000E94D6326CAB7DAB8EAB9FAB29853A85BB
:100C60004B855C85CA01B9010E940D359B01AC0121
:100C700060E070E080E090E40E94F5314B015C019F
:100C80002BEA3AEA4AE25EE369857A858B859C85A0
:100C90000E940D352B013C0120E030E040E850E49B
:100CA000C501B4010E94F6319B01AC01C301B20140
:100CB0000E940D3568A779A78AA79BA720E030E09E
:100CC00040E05FE3C501B4010E940D356CA77DA72C
:100CD0008EA79FA7198201E010E0EEA1FFA10E17D9
:100CE0001F0709F4FEC0B981BC3008F04AC02CA52A
:100CF0003DA54EA55FA56D817E818F8198850E945F
:100D00000D354B015C0128A539A54AA55BA56D856C
:100D10007E858F8598890E940D35A50194010E94DA
:100D2000F631B62EA72E982E892E2CA53DA54EA5C0
:100D30005FA56D857E858F8598890E940D352B0175
:100D40003C0128A539A54AA55BA56D817E818F81CF
:100D500098850E940D359B01AC01C301B2010E9430
:100D6000F5316D877E878F87988BE981EF5FE98307
:100D70008B2D9A2DA92DB82D8D839E83AF83B88797
:100D80006EC0B80180E090E00E946F3329853A85FB
:100D90004B855C850E940D354B015C010E94D3326E
:100DA0006D837E838F839887C501B4010E9490353F
:100DB0004B015C01E88DF98D80819181A281B38125
:100DC0009C01AD01505829833A834B835C83A8A1D1
:100DD000B9A18D919D910D90BC91A02D88AB99AB3F
:100DE000AAABBBAB2D813E814F81588569817A8149
:100DF0008B819C810E940D352B013C01A501940142
:100E000068A979A98AA99BA90E940D359B01AC010B
:100E1000C301B2010E94F6316D877E878F87988B60
:100E2000A501940169817A818B819C810E940D3595
:100E30004B015C012D813E814F81588568A979A9BC
:100E40008AA99BA90E940D359B01AC01C501B40183
:100E50000E94F5316D837E838F83988719822D855B
:100E60003E854F8558896A8D7B8D8C8D9D8D0E9426
:100E7000F631EE89FF8960837183828393832D81AC
:100E80003E814F8158856AA17BA18CA19DA10E94C2
:100E9000F631AE8DBF8D6D937D938D939C9313979B
:100EA0002CA93DA94EA95FA9E989FA8960817181C0
:100EB000828193810E94F631A989BA896D937D93CD
:100EC0008D939C9313972D89B701A6018B899C89DB
:100ED0000E94650480912D05811121C00F5F1F4F75
:100EE000FCCE2D89B701A601C101E7960FB6F89493
:100EF000DEBF0FBECDBFDF91CF911F910F91FF904D
:100F0000EF90DF90CF90BF90AF909F908F907F90A9
:100F10006F905F904F903F902F900C946504E796F0
:100F20000FB6F894DEBF0FBECDBFDF91CF911F91FA
:100F30000F91FF90EF90DF90CF90BF90AF909F9078
:100F40008F907F906F905F904F903F902F9008957B
:100F50008F929F92AF92BF92CF92DF92EF92FF92C9
:100F60004B015C0180912E05823009F447C020E0DE
:100F700030E040EA51E4C501B4010E940D350E9401
:100F8000AC330E9443336B017C010E944A1520E080
:100F900030E04AE754E4C501B4010E940D354B012D
:100FA0005C0182E38C9DB0018D9D700D112480E069
:100FB00090E00E946F339B01AC01C501B4010E9417
:100FC000F5310E94AC330E944333CB010E94472786
:100FD000C114D10499F00E94301421E0C21AD10842
:100FE00080912D0581110AC08FEF90E722E081509A
:100FF00090402040E1F700C00000EACFFF90EF9062
:10100000DF90CF90BF90AF909F908F90089584E035
:1010100080932E050E94D1120E94782783E00E94BF
:10102000D2270E94301480912D05811108C00E94A2
:10103000210910922E050E9484150C94832708958F
:101040004F925F926F927F928F929F92AF92BF92D8
:10105000CF92DF92EF92FF920F931F93CF93DF9384
:1010600000D000D0CDB7DEB74C016A017B01722EF3
:1010700080912E05823009F49EC00E944A1560902E
:101080003D050E94782B882351F09FB7F8948091FA
:101090002F05806480932F059FBF0E94301480919C
:1010A0002D05811188C0272DB701A601C4010E941A
:1010B000650481E080933E059FB7F89480912F05E9
:1010C000826080932F059FBF0E94301480912D0570
:1010D000811171C080912E05877FB1F780913E0507
:1010E000813041F49FB7F89480912F0580648093FC
:1010F0002F059FBF0E94301480912D0581115BC088
:101100000E941A180E9421230E9453260FE315E023
:101110008FE7A82E86E0B82E2401F8016191719125
:10112000819191918F01F5012191319141915191DD
:101130005F0129833A834B835C830E947133298149
:101140003A814B815C810E94D632F20161937193A6
:10115000819391932F01F5E00B341F07F1F6272DB2
:10116000B701A601C4010E9465049FB7F89480915D
:101170002F05826080932F059FBF0E944A158091A2
:101180002D05811118C060923D050F900F900F90B2
:101190000F90DF91CF911F910F91FF90EF90DF9013
:1011A000CF90BF90AF909F908F907F906F905F9007
:1011B0004F900C949D2D0F900F900F900F90DF91FA
:1011C000CF911F910F91FF90EF90DF90CF90BF9044
:1011D000AF909F908F907F906F905F904F90089509
:1011E00080912F0584FD1AC09FB7F89480912F0538
:1011F000806180932F059FBF0E94D1120E943B13F4
:1012000080912E05847351F09FB7F89480912F053B
:10121000806280932F059FBF0C94841508958BE303
:10122000EBE4F5E0DF011D928A95E9F76AE675E0E7
:1012300080E00E947720811103C087E00C94972BF7
:101240000895CF92DF92EF92FF920F931F93CF9367
:10125000DF9300D000D0CDB7DEB781E3C82E85E0A4
:10126000D82E9FE7E92E96E0F92E0EE515E0F6015F
:1012700061917191819191916F01F701219131916A
:10128000419151917F0129833A834B835C830E9472
:10129000713329813A814B815C810E94D632F801F9
:1012A00061937193819391938F01FDE3CF16F5E0E4
:1012B000DF06E9F60F900F900F900F90DF91CF911E
:1012C0001F910F91FF90EF90DF90CF9008952F9294
:1012D0003F924F925F926F927F928F929F92AF92C6
:1012E000BF92CF92DF92EF92FF920F931F93CF9313
:1012F000DF93CDB7DEB7AB970FB6F894DEBF0FBE66
:10130000CDBF98A38F8F89E3E6E8F5E0DF011D925A
:101310008A95E9F78AE0EBE4F5E0A7E8B5E001900B
:101320000D928A95E1F71D8E212C312CA12CB12C28
:1013300019A2512C1E8E66246394712C05E0402E58
:101340009924939482E0882E8D8DEF8DF8A1E80F7B
:10135000F11D0081002309F444C29FEB900F9A31E4
:1013600010F00C948A128F5F8D8FAE01475E5F4F35
:10137000BE01635E7F4F8F8D98A10E9495268823C2
:1013800011F40C948C12C98CDA8CEB8CFC8CC70198
:10139000B6010E94DB350E944333162F70E080E0D7
:1013A00090E00E9471339B01AC01C701B6010E941D
:1013B000F53120E030E048EC52E40E940D350E9407
:1013C00070350E944333073421F00D3409F40FC106
:1013D0004CC1163209F48DC0D0F4143160F41131CF
:1013E00008F0B3C0143009F453C008F482C01A30B6
:1013F000A1F10C9498121C3181F128F4163108F4F3
:10140000C4C00C9498121E3141F10C9498121035FE
:1014100009F498C0A8F4153309F459C040F41B32FC
:1014200009F4BCC0113309F4B9C00C9498121C33F0
:1014300010F00C949812165310938D0587E0C5C0D8
:101440001C3559F028F41A3508F08DC00C94981208
:101450001F3508F491C00C949812611106C0BE8D1E
:10146000B1110C948E12E1E0EE8F1C31A1F040F42A
:10147000143071F01A3009F0A5C080928605A2C020
:10148000153329F11C3539F11E3109F09BC011C00B
:101490009092860597C0662341F06A3011F00C9453
:1014A000981224E02093860508C0F3E0F0938605A7
:1014B00004C0611104C04092860580E08AC06A3091
:1014C00011F00C94981236E030938605F6CF87E041
:1014D0008093860577C0662341F06A3011F00C9442
:1014E0009812A9E0A0938605E8CF98E0909386052E
:1014F000E4CFBE8DB1110C948E12E2E0EE8F12306B
:1015000089F028F4112359F0113081F05DC01632B2
:1015100081F01035B9F0133009F056C007C01092B1
:10152000870552C0FE8DF09387054EC01093870546
:101530004BC0643111F00C94981224E0209387057D
:1015400081E047C0409287053FC0123129F0133136
:1015500031F010928B0505C090928B0502C08092ED
:101560008B0582E032C01A3519F410928A0502C048
:1015700090928A0583E029C01D3519F49092880560
:1015800002C01092880584E020C0143119F49092B2
:10159000890502C01092890585E017C03E8D311182
:1015A000BDC7113331F410928C0586E093E09E8F15
:1015B00010C06A3009F0BCC790928C0586E0A3E0A9
:1015C000AE8F07C080E001C081E0662311F087E1A3
:1015D000BEC7F30102C0EE0FFF1F8A95E2F7CF01ED
:1015E0009F012A213B21232BE9F185E1B0C761113D
:1015F000EECF163018F4133048F014C0183008F449
:1016000097C71A30E8F01E3151F092C7123039F006
:101610001E3129F011111DC090928E051AC08092C2
:101620008E0517C0143029F0153031F090929005D6
:1016300005C08092900502C01092900589E00AC012
:10164000193019F080928F0502C010928F058AE040
:1016500001C088E0930102C0220F331F8A95E2F790
:10166000C901BFCFA82AB92A6FCE802F992787FD3D
:101670009095A92FB92FFC01E654F109E531F10548
:1016800008F056C7EC5CFF4F0C943336C0929105BE
:10169000D0929205E0929305F092940580E07FC08D
:1016A000C0929505D0929605E0929705F092980524
:1016B00039A1316039A381E072C0C0929905D092FE
:1016C0009A05E0929B05F0929C0589A1826089A30E
:1016D00082E065C0C0929D05D0929E05E0929F0574
:1016E000F092A00599A1946099A383E058C010934B
:1016F000A10584E054C0C701B6010E943E33609347
:10170000A2057093A3058093A4059093A50585E099
:1017100046C0C092A605D092A705E092A805F09217
:10172000A90586E03CC0C092AA05D092AB05E09224
:10173000AC05F092AD0587E032C0C092AE05D09204
:10174000AF05E092B005F092B10588E028C0C092E4
:10175000B305D092B405E092B505F092B605A52D7B
:10176000A1605A2E8AE01BC0C092B705D092B8057E
:10177000E092B905F092BA05B52DB2605B2E8BE010
:101780000EC0C092BB05D092BC05E092BD05F092A0
:10179000BE05E52DE4605E2E8CE001C089E083018A
:1017A000082E02C0000F111F0A94E2F798012221AF
:1017B0003321232B09F0B4C621E633E002C035956E
:1017C00027958A95E2F720FF09C020E030E0A901C3
:1017D000C701B6010E94CF3287FDA4C6202A312A54
:1017E000B3CD552029F03E8D311102C082E08E8F9D
:1017F00025FE0EC08091A2059091A305A091A4059D
:10180000B091A50580389649A849B1050CF08CC661
:1018100080918805813031F4FE8DF230A1F520FEF3
:101820008DC631C080914C0581112DC020FE1BC09A
:1018300080918905813039F523E333E34BEC51E4A2
:101840006091910570919205809193059091940516
:101850000E940D35609391057093920580939305D6
:101860009093940510C08091590590915A05A091CC
:101870005B05B0915C058093910590939205A093D0
:101880009305B093940530FC10C08091550590915C
:101890005605A0915705B09158058093AE059093D9
:1018A000AF05A093B005B093B10580918605813056
:1018B00031F426FC02C08CE14AC6E89426F88091F7
:1018C0008B05882341F0813061F019A682E088A75A
:1018D00091E09FA30BC022E029A731E038A71FA207
:1018E00005C0A1E0A9A718A6B2E0BFA38091890511
:1018F000813021F0EE8DE33091F52AC0B3EBEB2E71
:10190000B5E0FB2E00E010E0C52CD12CC601002E66
:1019100002C0959587950A94E2F780FF10C023E3F3
:1019200033E34BEC51E4D7016D917D918D919C9106
:101930000E940D35F70160837183828393830F5F6B
:101940001F4FF4E0EF0EF11C03301105F9F6D2CF72
:1019500080918C05813019F424E05212E7C58CE0A7
:10196000EAE6F5E0DE011D9601900D928A95E1F719
:10197000A7FC09C0309186053F8F3230B9F038306E
:1019800009F4AFC014C180918D05873010F08DE14E
:10199000DEC590915105981769F3BE01635F7F4FD3
:1019A0000E9477208111E6CF87E0D1C5511002C097
:1019B0008AE1CDC5C10180759927892B09F47BCFB8
:1019C0006091A6057091A7058091A8059091A90541
:1019D0000E94DB350E9443336730C8F68091A10531
:1019E000843129F0823009F0A3C527FCA1C58FEA14
:1019F0002822662319F061506F8F03C090918D05E6
:101A00009F8FBE016F5F7F4F8F8D0E94772088234D
:101A100059F24090A10560908205709083058090F6
:101A2000840590908505DE0111967D01F3EBCF2EA4
:101A3000F5E0DF2EAEE5AA2EA5E0BA2E00E010E01C
:101A4000E52DF0E0FEA3EDA38DA19EA1002E02C026
:101A5000959587950A94E2F780FF33C0F4E14F1221
:101A600026C0D50158962D913D914D915C915B9783
:101A70006D917D918D919C910E94F531F6012081AF
:101A80003181428153810E94F531D7016D937D935D
:101A90008D939C9313970230A1F4A40193010E94AB
:101AA000F531F70160837183828393830AC0F60165
:101AB00080819181A281B381F70180839183A28388
:101AC000B3830F5F1F4FF4E0EF0EF11C24E0C20E52
:101AD000D11C34E0A30EB11C0330110509F0B4CFC2
:101AE00008C1552009F464CF609082057090830589
:101AF000809084059090850503EB15E0EEE5CE2EF1
:101B0000E5E0DE2E5E018DE0A80EB11CE12CF12C8B
:101B1000A52DB0E0B8A3AF8F8F8D98A10E2C02C079
:101B2000959587950A94E2F780FF26C0F5012081FC
:101B3000318142815381D6016D917D918D919C912E
:101B40000E94F531F80120813181428153810E9448
:101B5000F531D8016D937D938D939C931397B2E0EB
:101B6000EB1214C0A40193010E94F531F8016083C7
:101B70007183828393830AC0F601808D918DA28D3B
:101B8000B38DF80180839183A283B383FFEFEF1AB3
:101B9000FF0A0C5F1F4F24E0C20ED11C34E0A30EDD
:101BA000B11C83E0E816F10409F0B6CFA1C09E8D08
:101BB000933079F4AF8DA53009F48BC0A73009F4C8
:101BC00092C0A33009F094C0BE016F5F7F4F86E0E2
:101BD00084C0552079F340908A056090820570900A
:101BE000830580908405909085057EE5C72E75E07D
:101BF000D72E03EB15E05E01BDE0AB0EB11CE12C6E
:101C0000F12CE52DF0E0FEA3EDA38DA19EA10E2CFD
:101C100002C0959587950A94E2F780FD0BC0F60106
:101C200080819181A281B381F80180839183A28315
:101C3000B3833EC0FF8DF730D9F1411028C0D601E3
:101C400058962D913D914D915C915B97F501608186
:101C50007181828193810E94F631D8012D913D914D
:101C60004D915C910E94F631F8016083718382830B
:101C70009383F2E0EF121CC0A40193010E94F6319D
:101C8000D8016D937D938D939C93139711C0F601AA
:101C90002081318142815381D8016D917D918D9157
:101CA0009C910E94F631F801608371838283938353
:101CB000FFEFEF1AFF0A24E0C20ED11C0C5F1F4F8A
:101CC00034E0A30EB11C83E0E816F10409F09DCFC7
:101CD00071CFBE016F5F7F4F87E00E94772088231E
:101CE00009F462CE05C080918705823008F022C4D5
:101CF0001F8E10918705153041F4552009F4B3C1AA
:101D00009E8D913009F018C48BC2AE8DA23009F0BF
:101D1000AAC11123D9F020E030E0A901609191051A
:101D20007091920580919305909194050E94CF3215
:101D3000882309F403C4143028F4123058F4113005
:101D400029F06EC2143009F44DC16AC2511068C244
:101D50001E8E8CC1552009F42BCEFFA1EF2FF0E091
:101D6000FEA3EDA338A5232F30E03BA72AA781E0EF
:101D700090E03C0108A402C0660C771C0A94E2F7CC
:101D80000FA002C0880F991F0A94E2F7682A792AE7
:101D9000852D90E086219721892B09F4D1C3CF01AD
:101DA000880F991F880F991FFC01EA57FA4FDC0131
:101DB000A55BBA4F53962D913D914D915C915697ED
:101DC00065A576A587A590A90E94F5316B017C01D8
:101DD0008AA59BA5880F991F880F991FFC01EA57B8
:101DE000FA4FDC01A55BBA4F53962D913D914D9171
:101DF0005C91569765A576A587A590A90E94F531B7
:101E00004B015C0127FE40C0E89427F82091B30500
:101E10003091B4054091B5055091B60560915E05CD
:101E200070915F0580916005909161050E94CF32AD
:101E3000811120C12091B7053091B8054091B905B5
:101E40005091BA05609162057091630580916405B7
:101E5000909165050E94CF3281110CC12091BB0584
:101E60003091BC054091BD055091BE05609166055D
:101E70007091670580916805909169050E94CF3245
:101E80008111F8C081E263C3F9A14F2E512C642067
:101E90007520672809F456C321EF22228091890515
:101EA000813009F45AC00AA51BA5000F111F000FAD
:101EB000111F06571A4FD8011B962D913D914D9138
:101EC0005C911E97C501B4010E94F5312B013C01C4
:101ED000ADA0BEA0AA0CBB1CAA0CBB1CF501E6570A
:101EE000FA4F5F012385348545855685C701B601C4
:101EF0000E94F531A30192010E9452276B017C01DF
:101F0000D8011B962D913D914D915C911E97F50145
:101F100063857485858596850E9452274B015C01F7
:101F20006093AA057093AB058093AC059093AD05C3
:101F30009B01AC01C701B6010E94F5316B017C0128
:101F4000E894F7F82AE037ED43EA5BE3C701B6010E
:101F50000E94D23418164CF163C185E9682E85E0E1
:101F6000782E00E010E0C201002E02C09595879502
:101F70000A94E2F780FF10C023E333E34BEC51E413
:101F8000D3016D917D918D919C910E940D35F3014E
:101F900060837183828393830F5F1F4FF4E06F0E22
:101FA000711C03301105F9F67ECF20E030E040E0EF
:101FB0005FE3C701B6010E94D23418160CF462CF59
:101FC0002FE632E143E85AE3C501B4010E940D3522
:101FD0009B01AC01C701B6010E94D23418160CF463
:101FE00051CF1EC1552009F4E3CC2091B3053091A7
:101FF000B4054091B5055091B60560915E057091AC
:102000005F0580916005909161050E94CF3281113A
:1020100007C12091B7053091B8054091B90550919D
:10202000BA05609162057091630580916405909195
:1020300065050E94CF328111F3C02091BB0530911C
:10204000BC054091BD055091BE056091660570913B
:10205000670580916805909169050E94CF328823B9
:1020600009F410CFDDC02E8D2111DAC0C1018E7DA3
:102070009C7FD9C0809189058130B1F423E333E39B
:102080004BEC51E46091AA057091AB058091AC05D1
:102090009091AD050E940D356093AA057093AB0534
:1020A0008093AC059093AD054090AA055090AB0588
:1020B0006090AC057090AD0520E030E040E850E461
:1020C000C301B2010E940D35A30192010E940D359A
:1020D0002B013C01A7019601C701B6010E940D35F5
:1020E0009B01AC01C301B2010E94F5312B013C01FF
:1020F000A5019401C501B4010E940D359B01AC01FD
:10210000C301B2010E94F5312B013C0120E030E017
:10211000A9010E94CF3287FD19C2C301B2010E94FA
:102120009A352B013C01A5019401C701B6010E941B
:1021300052279B01AC01C301B20190580E94D632D4
:102140002B013C0180918705833021F477FA70944C
:1021500077F870948091AA059091AB05A091AC0599
:10216000B091AD0589A39AA3ABA3BCA320E030E056
:10217000A901BC01CD010E94CF3287FF11C077FABF
:10218000709477F8709489A19AA1ABA1BCA1B058C2
:102190008093AA059093AB05A093AC05B093AD05D1
:1021A0000DA11EA1000F111F000F111F06571A4F7E
:1021B000A3019201C501B4010E940D359B01AC0140
:1021C000C701B6010E94F53120E030E040E05FE356
:1021D0000E940D35D8011B966D937D938D939C9332
:1021E0001E970AA51BA5000F111F000F111F0657F0
:1021F0001A4FA3019201C701B6010E940D359B0140
:10220000AC01C501B4010E94F63120E030E040E0AD
:102210005FE30E940D35F801638774878587968791
:10222000C1018E7D907E892B09F08EC18091880539
:1022300080934C058091910590919205A091930512
:10224000B09194058093590590935A05A0935B052E
:10225000B0935C05C090AE05D090AF05E090B0059E
:10226000F090B105A7019601609155057091560552
:1022700080915705909158050E94CF32882381F0B4
:10228000C0925505D0925605E0925705F092580538
:1022900080915405882321F0B701A6010E94DF1226
:1022A0008091B20580935D058091900590915405D1
:1022B000981761F08093540540915505509156054B
:1022C00060915705709158050E94DF1280918F052B
:1022D00090915305981721F0809353050E94401365
:1022E00080918605813051F46091A6057091A70513
:1022F0008091A8059091A9050E94A80780918B055F
:1023000080934F058091890580934D053E8D333034
:10231000F9F480918C0580935005813089F4809187
:10232000BB059091BC05A091BD05B091BE05809301
:10233000820590938305A0938405B093850508C01A
:1023400010928205109283051092840510928505E3
:1023500080918D0590915105981759F08093510502
:102360008CE0FE013D96AAE6B5E001900D928A95BB
:10237000E1F780918A0580934E058091860590E073
:10238000FC013297E830F10508F04BC0E75BFF4FE6
:102390000C943336BE016F5F7F4F8F8D0E94621F9A
:1023A000809151059F8D89133CC08CE0FE013196D0
:1023B000AAE6B5E01AC0AE8DAA2349F020E040E0BD
:1023C00050E060E87FEB83EB95E00E94650420E03D
:1023D00040E050E060E87FEBCE0101960E9465048A
:1023E0008CE0FE013196AEE5B5E001900D928A9544
:1023F000E1F717C06EE575E086E003C06EE575E0B5
:1024000087E00E94621F0DC08CE0E3EBF5E0A6E7D9
:10241000B5E0EBCF8CE0E6E7F5E0DF011D928A95B1
:10242000E9F78091870580934B05853009F45DC0FD
:10243000BE8DB23009F059C0843090F4823058F526
:102440008823F9F0813009F047C040915905509137
:102450005A0560915B0570915C0520914C0516C092
:102460008430D1F54091590550915A0560915B0532
:1024700070915C0520914C0583EB95E00E9420084B
:102480002BC020E040E050E060E87FEB83EB95E07C
:102490000E94650421C0C0905905D0905A05E09073
:1024A0005B05F0905C050091AA051091AB052091A9
:1024B000AC053091AD05E9A5EF93F8A5FF938FA08A
:1024C000A0904C0545E955E063EB75E08EE595E09D
:1024D0000E94B1040F900F908CE0E3EBF5E0AEE5C5
:1024E000B5E001900D928A95E1F780918E05809379
:1024F0005205882369F00E944A1510923D0580918B
:102500005205823019F40E94F00802C01092520560
:1025100080E01DC081E01BC082E019C088E117C0C7
:1025200089E115C084E013C08BE111C085E20FC0C2
:1025300084E10DC08EE10BC08FE109C086E107C0C8
:1025400080E205C083E203C084E201C082E2AB9670
:102550000FB6F894DEBF0FBECDBFDF91CF911F91B4
:102560000F91FF90EF90DF90CF90BF90AF909F9032
:102570008F907F906F905F904F903F902F90089535
:10258000E0EBF0E080818F7780832B980895809135
:10259000B300882329F08091B00080688093B00058
:1025A00008951092B300E0EBF0E080818F77808394
:1025B0002B980895239A239A259A0C94D112CF929E
:1025C000DF92EF92FF92CF93DF931F92CDB7DEB7EA
:1025D0006A017B0190912E05923009F444C08983F1
:1025E0000E94CD140E944A158981811109C00F9063
:1025F000DF91CF91FF90EF90DF90CF900C94D112AC
:10260000813011F42D9801C02D9A83E88093B00099
:102610008091B100887F82608093B10020E030E03B
:102620004AE754E4C701B6010E94D234181634F4C4
:10263000C12CD12C8AE7E82E84E4F82E2CE53FE863
:1026400042E85EE3C701B6010E940D3520E030E0AC
:1026500040E05FE30E94F6310E94AC330E944333B6
:102660006093B3002B9A0F90DF91CF91FF90EF9082
:10267000DF90CF900895439808953B9A0C943B13B4
:10268000CF93DF931F92CDB7DEB790912E05923096
:1026900079F089830E94CD140E944A158981823085
:1026A00011F4439A05C00F90DF91CF910C943B1326
:1026B0000F90DF91CF9108959091080180910901C9
:1026C000891708F48058891B0895E0ECF0E08081B8
:1026D000826080831092C50080E18093C400E1ECA9
:1026E000F0E0808180618083808188608083808148
:1026F000806880830895E091070191E09E0F9034F7
:1027000009F490E020910601921305C020912F0555
:1027100024FFF8CF0895F0E0E154FA4F80839093BE
:1027200007018091C10080628093C10008951F92CB
:102730000F920FB60F9211248F939F93EF93FF93F5
:1027400080910601E82FF0E0E154FA4F90819093D8
:10275000C6008F5F803409F480E080930601909179
:102760000701891305C08091C1008F7D8093C1004E
:10277000FF91EF919F918F910F900FBE0F901F903F
:1027800018959091080180910901891761F0E92F4E
:10279000F0E0E150FA4F80819F5F903809F490E0BB
:1027A0009093080108958FEF08951F920F920FB62E
:1027B0000F9211242F933F934F935F936F937F93C7
:1027C0008F939F93AF93BF93EF93FF938091C60036
:1027D0008132B1F028F48831E1F40E94F0082AC077
:1027E0008F3341F08E37A9F49FB7F89480912F056D
:1027F00082600BC09FB7F89480912F05816005C05F
:102800009FB7F89480912F05886080932F059FBF14
:1028100011C0E091090191E09E0F903809F490E019
:1028200020910801921731F0F0E0E150FA4F8083D7
:1028300090930901FF91EF91BF91AF919F918F917B
:102840007F916F915F914F913F912F910F900FBEAC
:102850000F901F90189580910901809308010895A9
:10286000CF93C0912F05CC2309F48EC08C2F807696
:1028700049F181E080932E050E94C012C6FF17C067
:10288000C5FF02C08FEF01C08DEF0E94E52B81E0F4
:102890000E94042C9FB7F89480912F058F7E80931F
:1028A0002F059FBF80912F0584FFFCCF03C08EEFC3
:1028B0000E94E52B9FB7F89480912F058F79809324
:1028C0002F059FBFC4FF06C00E94C01281E0809305
:1028D0002D0561C0C0FF0AC00E94432F9FB7F89426
:1028E00080912F058E7F80932F059FBFC3FF15C05A
:1028F00080912E05803149F480E280932E050E945C
:1029000068180E948A1810923D059FB7F89480912C
:102910002F05877F80932F059FBFC1FF1FC0809128
:102920002E05883099F480E180932E050E94C7120D
:102930000E948A180E9464158091BC0681FF04C021
:1029400081E080933D0502C010923D059FB7F89449
:1029500080912F058D7F80932F059FBFC2FF14C0EC
:102960000E944623892B31F00E94C01288E0809398
:102970002E0502C010922E059FB7F89480912F0566
:102980008B7F80932F059FBF80912E05847319F054
:10299000CF910C948A18CF91089580913D0588239A
:1029A00041F09FB7F89480912F05826080932F05A6
:1029B0009FBF0895CF93DF930E942A2C80912E050C
:1029C000813021F482E00E94042C21C010922E0557
:1029D0008AE091E00E94A0301AC08D3069F0DD23BA
:1029E00089F1D1E0893209F4D0E00E94C1138F3F10
:1029F00009F444C08A3089F7EC2FF0E0E65FFE4F1F
:102A000010820E94301480912D05882311F0C0E0BF
:102A1000EBCF80910A01811103C00E94972BF7CF61
:102A2000843229F48AE091E00E94BF30F6CF809191
:102A30002E05813011F489E0F0CF8AE091E00E9408
:102A40006709EBCF813288F28F3279F28832A1F0B8
:102A5000CF3428F08BE00E94972BC0E0C6CF2C2FFC
:102A600030E0CF5F9FE9980FF901E65FFE4F9A31A2
:102A700008F480528083B9CFD1E0B7CF0E94CD1443
:102A80000E94301480912D05882309F4AECFDF9188
:102A9000CF9108950E94CD1480912E05803171F45C
:102AA00081E080933D050AC080912E05803159F464
:102AB0000E94301480912D05811105C00E9446238B
:102AC000892BB1F7F1CF08958091BC0682FF02C037
:102AD000289A01C0289880912E058471A1F08091D8
:102AE0008A0180939E0180918B0180939D0180914A
:102AF000AF06880F8450819580939C0180916F0070
:102B0000826080936F00089580916F008D7F809325
:102B10006F0080918100887F816080938100109296
:102B200089018091B2068F3F21F490912F0595FF86
:102B300009C090912E05943029F090E00E9447271B
:102B400081E001C080E09091BC0692FF02C091E05C
:102B50008927882311F0289A0895289808951F92AC
:102B60000F920FB60F9211242F933F934F935F93C1
:102B70006F937F938F939F93AF93BF93CF93DF9385
:102B8000EF93FF93809189018111EFC19BB18091F7
:102B90009E01807E9F71892B8BB98BB1837E909132
:102BA0009D01892B8BB980919C0186BD82E085BDFA
:102BB00081E08093890178948091B0019091B10176
:102BC000892B09F0A4C080918E0190918D019817F6
:102BD00009F492C0E0918E0186E0E89FF001112493
:102BE000EE54FE4FF093B101E093B00183819481E4
:102BF0009093890080938800808191819093AC01AB
:102C00008093AB01A2818091AD018A1771F1A093ED
:102C1000AD0181E1A89FD0011124AA52BE4FB0930B
:102C2000AF01A093AE011D968D919D910D90BC9129
:102C3000A02DB695A7959795879580938F01909332
:102C40009001A0939101B09392018093930190938E
:102C50009401A0939501B09396018093970190936E
:102C60009801A0939901B0939A01C091AE01D091BF
:102C7000AF0180918A019881892780939E012581E7
:102C800089819A81AB81BC81022E04C0B695A7953B
:102C9000979587950A94D2F780939F019093A0010E
:102CA000A093A101B093A2018D819E81AF81B885CF
:102CB000022E04C0B695A795979587950A94D2F7EA
:102CC0008093A3019093A401A093A501B093A601C2
:102CD00089859A85AB85BC8504C0B695A7959795DF
:102CE00087952A95D2F78093A7019093A801A09386
:102CF000A901B093AA010BC00E9484159FB7F89454
:102D000080912F05846080932F059FBF2EC10E9464
:102D10007E2B10929D0180919F019091A001A09126
:102D2000A101B091A20140918F0150919001609159
:102D3000910170919201840F951FA61FB71F809378
:102D40008F0190939001A0939101B0939201E09133
:102D5000AE01F091AF0145855685678570894817AA
:102D600059076A077B0768F524E020939D01458594
:102D7000568567857089841B950BA60BB70B8093CE
:102D80008F0190939001A0939101B09392012081C3
:102D90008091310590913205A0913305B0913405B1
:102DA00025FF04C00197A109B10903C00196A11D27
:102DB000B11D8093310590933205A0933305B093F4
:102DC00034058091A3019091A401A091A501B09137
:102DD000A6014091930150919401609195017091E9
:102DE0009601840F951FA61FB71F809393019093A0
:102DF0009401A0939501B09396014585568567850A
:102E00007089481759076A077B0778F520919D015B
:102E1000286020939D014585568567857089841BB0
:102E2000950BA60BB70B8093930190939401A093FD
:102E30009501B093960120818091350590913605DA
:102E4000A0913705B091380526FF04C00197A1096C
:102E5000B10903C00196A11DB11D80933505909362
:102E60003605A0933705B09338058091A70190915E
:102E7000A801A091A901B091AA0140919701509198
:102E800098016091990170919A01840F951FA61F76
:102E9000B71F8093970190939801A0939901B093E5
:102EA0009A014585568567857089481759076A07CD
:102EB0007B0778F520919D01206120939D01458538
:102EC000568567857089841B950BA60BB70B80937D
:102ED000970190939801A0939901B0939A01208152
:102EE0008091390590913A05A0913B05B0913C0540
:102EF00027FF04C00197A109B10903C00196A11DD4
:102F0000B11D8093390590933A05A0933B05B0938A
:102F10003C0580912E05843039F4809130059091E4
:102F20009D01892380939D018091AB019091AC011B
:102F300001979093AC018093AB01892B69F41092B7
:102F4000B1011092B00180918E018F5F80938E014C
:102F5000863011F410928E0180918B0190919D0129
:102F6000892780939D0110928901FF91EF91DF9154
:102F7000CF91BF91AF919F918F917F916F915F9111
:102F80004F913F912F910F900FBE0F901F9018956A
:102F90001F920F920FB60F9211248F939F939BB1A4
:102FA00080918B018C71937E892B8BB915BC9F917D
:102FB0008F910F900FBE0F901F901895FF920F9357
:102FC0001F93CF93DF9310928B0110928A01C0E080
:102FD000D0E00C2F1C2F2091B00630E08C2F0C2E4F
:102FE00002C0359527950A94E2F720FF07C0F090BC
:102FF0008B010E94E8218F2980938B012091B106DB
:1030000030E002C0359527951A95E2F720FF08C0F9
:1030100010918A01802F0E94F221812B80938A01D6
:103020002196C330D105A9F6DF91CF911F910F9161
:10303000FF9008950E9484158BE2EAE5F1E0DF013C
:103040001D928A95E9F783E2EFE8F1E0DF011D9236
:103050008A95E9F7109288011092870110928E01EB
:1030600010928D0181E080938C01109289010E9461
:10307000DE178BB1837E90918B01892B8BB98BB13D
:103080008F7190918A01892B8BB908958AB18C61D7
:103090008AB9209A8AB1806E8AB9E1E8F0E080812D
:1030A0008F7E8083808188608083E0E8F0E080818B
:1030B0008C7F808380818F708083EEE6F0E080815A
:1030C000887F808314BC15BC8081816080830895D3
:1030D000CF93DF93C0918701D09188012097B9F0F9
:1030E00081E080935B016091710170917201809128
:1030F0007301909174019B01AC010E940D35698BA5
:103100007A8B8B8B9C8B1092880110928701DF91B8
:10311000CF9108952F923F924F925F926F927F923C
:103120008F929F92AF92BF92CF92DF92EF92FF92D7
:103130000F931F93CF93DF93CDB7DEB7E5970FB60D
:10314000F894DEBF0FBECDBF90918E0180918C01AF
:10315000981709F4E1C58091870190918801892B26
:1031600009F057C20E9446231C0190938801809366
:103170008701009709F4D0C580915B0110912E055D
:10318000882319F010925B01BDC080915A018F5FB6
:10319000853019F080935A0102C010925A01E091D3
:1031A0005A0121E12E9FF0011124EA52FE4FF093C3
:1031B0008601E0938501D1018C91808311964D9118
:1031C0005D916D917C91149793E0440F551F661F9C
:1031D000771F9A95D1F74183528363837483159641
:1031E0004D915D916D917C91189723E0440F551F8F
:1031F000661F771F2A95D1F74583568367837087AB
:1032000019964D915D916D917C911C9733E0440F1F
:10321000551F661F771F3A95D1F7418752876387FD
:1032200074871D966D917D918D919C9150976B0146
:103230007C0143E0CC0CDD1CEE1CFF1C4A95D1F751
:10324000C586D686E786F08A0E946F3360935C015C
:1032500070935D0180935E0190935F01F10125A160
:1032600036A147A150A50E94D6329B01AC016093C4
:10327000600170936101809362019093630160E04B
:1032800070E080EA9FE30E94D632609364017093FD
:103290006501809366019093670110926801109216
:1032A000690110926A0110926B011032E1F4609191
:1032B000790170917A0180917B0190917C016093FA
:1032C00071017093720180937301909374019B015B
:1032D000AC010E940D35D10151966D937D938D9374
:1032E0009C9354970FC0F1016189728983899489F5
:1032F0000E949A35609371017093720180937301FB
:103300009093740110926D0110926E0110926F01F2
:1033100010927001D10191968D909D90AD90BC90CE
:103320009497A501940160E070E080E09FE30E9423
:10333000D6322B013C01F101C5A0D6A0E7A0F0A434
:10334000103209F04DC0F2E0F0936C01D1015196BA
:103350002D913D914D915C9154972D833E834F83E8
:1033600058870E940D359B01AC01C701B6010E9430
:10337000F5312B013C0120E030E0A9010E94CF3261
:1033800087FF1DC0A5019401C501B4010E94F6315B
:10339000A70196010E940D359B01AC016D817E81D4
:1033A0008F8198850E94F5310E949A35609379014A
:1033B00070937A0180937B0190937C012AC14092A3
:1033C0006D0150926E0160926F01709270011092C7
:1033D000790110927A0110927B0110927C0119C13F
:1033E00010926C01C0927D01D0927E01E0927F012B
:1033F000F09280010E9456234B015C016093790199
:1034000070937A0180937B0190937C019B01AC01C6
:103410000E940D3569837A838B839C830091870199
:1034200010918801D80195962D913D914D915C9117
:10343000989729873A874B875C8751962D913D91C4
:103440004D915C9154972D833E834F8358879B0108
:10345000AC016D817E818F8198850E94F5319B0141
:10346000AC01C301B2010E940D359B01AC0169851D
:103470007A858B859C850E94F63120E030E040E023
:103480005FE30E940D356B017C0120E030E0A90173
:103490000E94D23418160CF0ACC029853A854B85B1
:1034A0005C85C701B6010E94CF3287FF8EC0F8014C
:1034B000858C968CA78CB0A029813A814B815C8148
:1034C000C501B4010E94F5319B01AC01C301B201F9
:1034D0000E940D3560938101709382018093830176
:1034E00090938401A70196010E94CF3287FF3DC0CF
:1034F000C501B4010E949A356093750170937601FD
:103500008093770190937801A50194016D817E816C
:103510008F8198850E94CF32811104C0F1E0F09331
:103520006C0177C02D813E814F815885C501B40162
:103530000E94F5319B01AC01C301B2010E940D351F
:103540009B01AC0160917D0170917E0180917F01B2
:10355000909180010E94F53160937D0170937E010E
:1035600080937F019093800154C0C0927D01D092DE
:103570007E01E0927F01F0928001C0928101D092A1
:103580008201E0928301F0928401D80191966D91BD
:103590007D918D919C9194979B01AC010E94F63195
:1035A000A70196010E940D3529813A814B815C81EA
:1035B0000E94F6310E949A356093750170937601EE
:1035C000809377019093780124C0B2E0B0936C01AE
:1035D0008091710190917201A0917301B091740179
:1035E0008093750190937601A0937701B093780151
:1035F00010C010927D0110927E0110927F011092F6
:1036000080018092750190927601A0927701B0922C
:10361000780180918D01F6E0F89FF0011124EE54BD
:10362000FE4FFE83ED8380915A01828320918701B2
:10363000309188013E872D87D9019596BC91BCA712
:10364000F901F6A1FDA7D9019796BC91BEA7F90192
:10365000F0A5FFA7209164013091650140916601BA
:10366000509167016CA57DA58B2F9F2F0E94F5318E
:1036700068A779A78AA79BA720E030E0A9010E944C
:10368000CF3287FF04C018A619A61AA61BA6209140
:103690007D01288F30917E01398F40917F014A8FC3
:1036A000509180015B8F809175018C8F9091760194
:1036B0009D8FA0917701AE8FB0917801BF8FE0917F
:1036C0008101E8A3F0918201F9A3209183012AA34B
:1036D000309184013BA340916D014CA350916E0148
:1036E0005DA380916F018EA3909170019FA32091A3
:1036F000790130917A0140917B0150917C0128AB96
:1037000039AB4AAB5BAB30917101398340917201A7
:103710004987209073013090740150916C015F874C
:103720008CA58C8B9DA59D8BAEA5AE8BBFA5BF8BAD
:103730008EE3C82E83ECD82E8EE2E82E89E3F82E95
:10374000188A198A1A8A1B8A26013701EF85EE2307
:1037500021F0E13009F47CC0B1C0AD85BE85919601
:103760002D913D914D915C919497C701B6010E94B6
:103770000D354B015C0120E030E040E05FE30E944A
:103780000D359B01AC0169817985C1010E94F6313B
:103790009B01AC01C701B6010E940D359B01AC0134
:1037A0006C897D898E899F890E94F5318B018DAB53
:1037B0009CAB288D398D4A8D5B8D0E94CF3287FF5F
:1037C0003FC0288D398D4A8D5B8D6CA57DA58EA55A
:1037D0009FA50E94F5319B01AC010E94F6316B015F
:1037E0007C012C8D3D8D4E8D5F8D69817985C10168
:1037F0000E94F6319B01AC01C701B6010E94D6328E
:103800006B017C0128A139A14AA15BA1688D798D4A
:103810008A8D9B8D0E94CF32882319F0B1E0BF873B
:1038200002C0E2E0EF87FC8DF9832D8D29872E8C75
:103830003F8C088D198D3A8D3DAB4B8D4CABAFC095
:10384000A501940169817985C1010E94F6317CC08E
:10385000A70196016C8D7D8D8E8D9F8D0E940D35FB
:103860009B01AC016C897D898E899F890E94F5310D
:103870008B018DAB9CAB28A139A14AA15BA10E9411
:10388000CF3287FF8CC028A139A14AA15BA16C89E6
:103890007D898E899F890E94F5312C8D3D8D4E8DBD
:1038A0005F8D0E94D6326B017C0108A119A15AA13B
:1038B0005DAB8BA18CAB92E09F8771C0AD85BE855F
:1038C00091962D913D914D915C919497C701B601D0
:1038D0000E940D354B015C019B01AC01698179852A
:1038E000C1010E94D23418169CF520E030E040E07F
:1038F0005FE3C501B4010E940D359B01AC016981F4
:103900007985C1010E94F5319B01AC01C701B60167
:103910000E940D359B01AC016C897D898E899F8940
:103920000E94F5318B018DAB9CAB2CA13DA14EA12A
:103930005FA10E94D23418165CF4A501940169813C
:103940007985C1010E94F531698379871C0127C0FF
:103950002CA13DA14EA15FA16C897D898E899F8993
:103960000E94F5319B01AC010E94F6316B017C0194
:1039700028A939A94AA95BA969817985C1010E9451
:10398000F6319B01AC01C701B6010E94D6326B0132
:103990007C010CA11DA1BEA1BDABEFA1ECABA701A9
:1039A0009601688979898A899B890E94F631688B9A
:1039B000798B8A8B9B8BA30192010E94CF3287FD6A
:1039C0005AC028A539A54AA55BA5B8018DA99CA90F
:1039D0000E94D23418160CF444C089819985D10113
:1039E0008093710190937201A0937301B09374015D
:1039F000FF85F0936C0140906001509061016090F0
:103A000062017090630198014DA95CA9C301B201E4
:103A10000E940D3569837A838B839C830E94BC321C
:103A20006B017C0160915C0170915D0180915E0190
:103A300090915F010E94BC324B015C01A70196018D
:103A40000E94F5310E94433369877A878B879C8770
:103A5000E985FA85AD81BE81ED93FC933097B1F194
:103A60005AC02EE333EC4EE259E3C301B2010E9487
:103A7000F6312B013C01288939894A895B89C301C8
:103A8000B2010E94F5316B017C012CA13DA14EA138
:103A90005FA1B8018DA99CA90E94D23418167CF0B0
:103AA00089819985D1018093710190937201A093CE
:103AB0007301B09374013F8530936C019CCF0C8BE4
:103AC0001D8B4DA94E8B5CA95F8B40CE80912E053E
:103AD000803209F5109271011092720110927301F7
:103AE00010927401109268011092690110926A019B
:103AF00010926B01C0925C01D0925D01E0925E0178
:103B0000F0925F01A3019201C701B6010E94D63273
:103B1000AD85BE85EEC0209168013091690140916C
:103B20006A0150916B01688979898A899B890E9411
:103B3000F6312B013C0129813A814B815C81C50121
:103B4000B4010E94F5319B01AC01C301B2010E9496
:103B5000D6324B015C0129813A814B815C81C701DE
:103B6000B6010E94F531A50194010E940D356093C4
:103B700068017093690180936A0190936B0120EC56
:103B800031EE44E65EE4C501B4010E940D350E94A9
:103B9000BC320E944333603DB7E07B07810591054D
:103BA00020F4ED81FE81158231C0603AFFE07F078D
:103BB0008105910510F4E1E009C06034FFE17F0761
:103BC0008105910510F4E2E001C0E3E0AD81BE8122
:103BD0001596EC93AD81BE8115962C911597022E0A
:103BE00004C096958795779567950A94D2F7E985ED
:103BF000FA8502C0EE0FFF1F2A95E2F7ED93FC93C2
:103C000061157105F1E08F07910538F4AD81BE8132
:103C100014967C936E93139706C02FEF3FEFED81C0
:103C2000FE813483238380918C0180938D018F5F8B
:103C3000863019F080938C0102C010928C01209183
:103C40006D0130916E0140916F0150917001B8018A
:103C50008DA99CA90E94D2341816C4F4E091870162
:103C6000F0918801C801ADA9BCA985A396A3A7A31B
:103C7000B0A789819A81AB81BC8180935C019093CC
:103C80005D01A0935E01B0935F015ECA20E030E069
:103C9000A901B8018DA99CA90E94D2341816ACF5CF
:103CA00010927101109272011092730110927401BE
:103CB000109268011092690110926A0110926B01D2
:103CC000C0925C01D0925D01E0925E01F0925F01D2
:103CD000009187011091880120916001309161016C
:103CE0004091620150916301C701B6010E94D63232
:103CF000D80195966D937D938D939C9398970E9490
:103D00008D2688E080932E0507C0109288011092BE
:103D100087010E94322318CAE5960FB6F894DEBFD9
:103D20000FBECDBFDF91CF911F910F91FF90EF900C
:103D3000DF90CF90BF90AF909F908F907F906F90CB
:103D40005F904F903F902F900895F999FECF92BDCC
:103D500081BD81E08FBB80B50895F894F999FECFBD
:103D600092BD81BD81E08FBB40B54627842F992746
:103D700087FD9095262F30E082239323892B39F0FD
:103D80006F3F19F060BD84E006C084E104C04423A5
:103D900021F060BD84E28FBBF99A789408959F92D8
:103DA000AF92BF92CF92DF92EF92FF920F931F9349
:103DB000CF93DF938C017A016B01C40ED51EEB010A
:103DC000912C5C01A61AB70ACE018A0D9B1DCC1559
:103DD000DD0591F0911009C0692D772767FD709579
:103DE000272F221F2227221F01C021E06991922E36
:103DF000960E0E94AD1EE8CF692DC8018E0D9F1D45
:103E0000DF91CF911F910F91FF90EF90DF90CF90B6
:103E1000BF90AF909F900C94AD1E9F92AF92BF92B7
:103E2000CF92DF92EF92FF920F931F93CF93DF9386
:103E30008B017A016C01C40ED51EEC01912C5B0143
:103E4000A81AB90AC5018C0F9D1FCC15DD0591F08C
:103E50000E94A51E911009C0292D332727FD3095FA
:103E6000232F221F2227221F01C021E0922E980E0D
:103E70008993E8CFC8018E0D9F1D0E94A51E21E0E9
:103E800030E0981611F020E030E0C901DF91CF91C9
:103E90001F910F91FF90EF90DF90CF90BF90AF9068
:103EA0009F90089521E5829FC001112440E550E0D4
:103EB0009D5F0C94CF1E40E550E0BC018EEA93E07C
:103EC0000C94CF1E2DE0829FC00111244CE050E0E5
:103ED0009E5F0C94CF1E69E080E090E00E94AD1ED2
:103EE0004DE450E06FE776E081E090E00C94CF1E67
:103EF0008AE08093AF0689E18093B2061092B00603
:103F000081E08093B10623E02093B3068AE097ED29
:103F1000A3EABCE38093B4069093B506A093B606DB
:103F2000B093B7068FE692E1A3E0BBE38093B806B7
:103F30009093B906A093BA06B093BB062093BD0632
:103F400080E090E0A8ECB1E48093BE069093BF06B9
:103F5000A093C006B093C10680E090E0AAEFB4E45D
:103F60008093C2069093C306A093C406B093C5067F
:103F700084E690E09093C7068093C60680E090E0C8
:103F8000A0E8BFE38093C8069093C906A093CA0631
:103F9000B093CB0682E38093BC0680E090E0A8EC6F
:103FA000B2E480937F0690938006A0938106B0933D
:103FB00082068093830690938406A0938506B0932F
:103FC00086068093870690938806A0938906B0930F
:103FD0008A0680E090E4ACE9B5E480938B06909388
:103FE0008C06A0938D06B0938E0680938F069093D7
:103FF0009006A0939106B0939206809393069093B7
:104000009406A0939506B093960680E098ECAFEAEC
:10401000B8E48093970690939806A0939906B0937E
:104020009A0680939B0690939C06A0939D06B0935E
:104030009E0680939F069093A006A093A106B0933E
:10404000A20680E090E8A9EDB3EC8093A3069093DC
:10405000A406A093A506B093A60680E090E4A5E18F
:10406000B4EC8093A7069093A806A093A906B093FA
:10407000AA0680E090E0A0E2B1EC8093AB069093BA
:10408000AC06A093AD06B093AE060C946B1F1F93C5
:10409000CF93DF93182FEB0181E5189FB001112416
:1040A0007D5F40E550E0CE010E940D1F892B39F461
:1040B0001882BE01812F0E94521F80E001C081E062
:1040C000DF91CF911F910895CF93DF93EC0140E5ED
:1040D00050E06EEA73E00E940D1F892B21F41882D4
:1040E000CE010E945B1F81E0DF91CF9108951F9365
:1040F000CF93DF93182FEB018DE0189FB0011124AF
:104100007E5F4CE050E0CE010E940D1F892B59F4D8
:104110008CE0FE0111928A95E9F7BE01812F0E9481
:10412000621F80E001C081E0DF91CF911F9108956F
:1041300080E090E00E94A51E893059F44DE450E0E3
:1041400061E070E08FE796E00E940D1F21E0892B6F
:1041500009F420E0822F0895CF92DF92EF92FF9230
:10416000CF93DF93C82F6A017B0120E030E0A901E3
:10417000C701B6010E94CF3287FDEDC0C43608F4F6
:1041800045C02CE92C0F80E02330B8F530E08230B8
:1041900079F0F901EE0FFF1FEE0FFF1F833011F1D1
:1041A000813019F0E158F94F23C0E557F94F20C08D
:1041B000E901CC0FDD1FCC0FDD1FC956D94F20E020
:1041C00030E040E752E4C701B6010E940D3520E01F
:1041D00030E040E752E40E940D35688379838A839A
:1041E0009B83B5C0ED55F94FF7FAF094F7F8F094CA
:1041F000C082D182E282F382AAC08F5F2A3008F4A3
:10420000ACC0843009F4A9C02A50BECFC701B601A2
:104210000E94DB350E9443338C2F90E08C31910556
:1042200008F09BC0FC01EF5AFF4F0C94333663300B
:1042300008F495C06093AF068AC06093B20687C049
:104240006093B00602C06093B1060E94DE177FC083
:104250008091BC06662311F0846007C08B7F05C087
:104260008091BC06662321F080648093BC066FC0F9
:104270008F7BFBCF8091BC06662311F08068F5CF61
:104280008F77F3CF6093B306C092B406D092B50691
:10429000E092B606F092B7065AC0C092B806D09225
:1042A000B906E092BA06F092BB0651C08091BC06F6
:1042B000662311F08160D9CF8E7FD7CF8091BC0665
:1042C000662311F08260D1CF8D7FCFCF8091BC0665
:1042D000662321F084FF45C08062C7CF8F7DC5CFA4
:1042E0008091BC06662311F0886001C0877F8093AF
:1042F000BC060E9483272BC08091BC06662311F068
:104300008061B3CF8F7CB1CF6093BD0620C0C092D7
:10431000BE06D092BF06E092C006F092C10617C05A
:10432000C092C206D092C306E092C406F092C506BF
:104330000EC070E07093C7066093C60608C0C092B6
:10434000C806D092C906E092CA06F092CB060E9437
:104350006B1F80E007C084E005C083E003C086E0F7
:1043600001C08AE0DF91CF91FF90EF90DF90CF9076
:1043700008951F93CF93DF93CDB7DEB72C970FB679
:10438000F894DEBF0FBECDBF0E949820811107C0F8
:1043900087E00E94972B0E94781F0E94322C10E029
:1043A000BE016F5F7F4F812F0E947720811103C074
:1043B00087E00E94972B1F5F183091F72C960FB65D
:1043C000F894DEBF0FBECDBFDF91CF911F9108954E
:1043D000882321F0813021F488E0089584E0089555
:1043E00080E10895882321F0813021F480E408954C
:1043F00080E2089580E80895882321F0813021F437
:1044000084E0089582E0089580E108954F925F92DC
:104410006F927F928F929F92AF92BF92CF92DF92D4
:10442000EF92FF920F931F93CF93DF931091490266
:10443000111101C012E1115000914702101709F447
:10444000EFC089E2189FE0011124C55BDD4F8D8824
:104450009E88AF88B88C69A17AA18BA19CA19B0191
:10446000AC010E94F6312DA13EA14FA158A50E949A
:104470000D356B017C019B01AC01B401C5010E94AB
:10448000CF3287FF02C064017501A601B701498BD5
:104490005A8B6B8B7C8B111101C012E177247A94BB
:1044A000710E701619F029E2622E27C080914A021F
:1044B000081351C00E9468184EC0679C80011124E7
:1044C000055B1D4F711002C092E1792E7A948091A4
:1044D0004A02781202C00E946818F801C588D6887E
:1044E000E788F08CA7019601618972898389948994
:1044F0000E94CF32811106C0E801809147027812F4
:10450000DCCF29C0F80161A172A183A194A19B0114
:10451000AC010E94F631F80125A136A147A150A5B2
:104520000E940D3529893A894B895C890E94F631B0
:104530004B015C01A70196010E94CF32F80187FF71
:1045400005C0818A928AA38AB48AD6CFC18AD28AC8
:10455000E38AF48AD1CF60904702F9E26F9E80012E
:104560001124055B1D4F77247394760C82E1781239
:1045700001C0712C5090490289E2482E751409F44B
:104580004DC0479CE0011124C55BDD4FF8018188D7
:104590009288A388B488C988DA88EB88FC88A70148
:1045A0009601C501B4010E94CF3287FF23C0F801F4
:1045B00061A172A183A194A19B01AC010E94F6317B
:1045C000F80125A136A147A150A50E940D359B01F8
:1045D000AC01C501B4010E94F6314B015C01A70199
:1045E00096010E94CF3287FF05C0898A9A8AAB8ADA
:1045F000BC8A672C2D893E894F89588D69897A89B3
:104600008B899C890E94CF32811101C0672C7394E1
:10461000F2E17F1201C0712C8E01B0CF609247028F
:10462000DF91CF911F910F91FF90EF90DF90CF908E
:10463000BF90AF909F908F907F906F905F904F90C2
:1046400008958CE1EBE2F2E0DF011D928A95E9F733
:1046500010924A021092490281E08093480210921F
:104660004702089590914A0280914902891769F0A2
:1046700081E0890F823109F480E020914702921392
:1046800002C08093470280934A02089580914A02B3
:1046900090914902981739F029E2829FC0011124B4
:1046A000855B9D4F089580E090E00895E0914A0277
:1046B000EF5FE23109F4E0E080914902E81761F030
:1046C00089E2E89FF0011124E55BFD4F6189728961
:1046D000838994890C949A3560E070E0CB01089549
:1046E00081E020914A0290914802291380E00895C8
:1046F0002F923F924F925F926F927F928F929F92F2
:10470000AF92BF92CF92DF92EF92FF920F931F93DF
:10471000CF93DF93CDB7DEB7AD970FB6F894DEBF7A
:104720000FBECDBF142F052F6B8F7C8F822E209153
:10473000490239E2239F10011124F101E55BFD4F8D
:104740001F01158616861786108A15A216A217A2B3
:1047500010A6108249E956E766E97EE741A352A315
:1047600063A374A35C018FE7E82E86E0F82E9E0118
:10477000235F3F4F3E8F2D8F8BE292E098A38F8F68
:104780006F01FE013196FAA3E9A3912CF501619125
:104790007191819191915F01F70120813181428175
:1047A00053810E940D350E94DD34ED8DFE8D6193A5
:1047B000719381939193FE8FED8FEF8DF8A14190CE
:1047C000519061907190F8A3EF8F64197509860973
:1047D00097092B013C0197FF07C04424552432015F
:1047E000461A570A680A790AF601418252826382A0
:1047F0007482F10125853685478550894216530616
:104800006406750610F429013A01F10145865686C1
:104810006786708A0E947133F7012081318142815D
:1048200053810E94D6322B013C01E9A1FAA1619388
:10483000719381939193FAA3E9A320E030E0A90159
:104840000E94CF3287FF0AC0F1019081892D9DA778
:104850000E94F2219DA5892BF1018083A301920181
:10486000C301B2010E940D35F10125A136A147A176
:1048700050A50E94F631F10165A376A387A390A706
:104880009394F4E0EF0EF11C24E0C20ED11C33E04F
:1048900093127CCF0E949A356B017C01F10165A3D4
:1048A00076A387A390A785859685A785B089892B50
:1048B0008A2B8B2B09F4DEC120E030E0A901612FA7
:1048C000702F8B8D9C8D0E94CF3287FD21C0882058
:1048D00061F0212F302F4B8D5C8DC701B6010E94F6
:1048E000D632162F072F8B8F9C8F20E030E040E8C8
:1048F0005FE3612F702F8B8D9C8D0E94CF3287FFDD
:104900000DC010E000E030E83B8F8FE38C8F06C0D5
:1049100019E906E7F6E9FB8F2EE72C8FA701960130
:1049200060E070E080E89FE30E94D63269A77AA732
:104930008BA79CA7E7E3F2E0FAA3E9A32BE836E014
:1049400038A32F8FCE010D969A8F898FFE01319655
:10495000FE8FED8FC12CD12C7601ED8DFE8D8080E8
:104960009180A280B38020E030E0A901C501B401AC
:104970000E94CF32882309F47FC029A53AA54BA510
:104980005CA5C501B4010E940D354B015C01ED8DA4
:10499000FE8D60837183828393839B01AC0160E011
:1049A00070E080E89FE30E94D6322B013C01E8943E
:1049B00077F8EF8DF8A12081318142815381C301C5
:1049C000B2010E940D356BA37CA38DA39EA39B0116
:1049D000AC01612F702F8B8D9C8D0E94CF3287FF91
:1049E00006C01BA30CA3FB8DFDA32C8D2EA3F101F0
:1049F000F1A1FB8FF101F2A1FC8FF101F3A1FFA363
:104A0000F101F4A1F8A7EF8DF8A12485358546853D
:104A10005785C301B2010E940D353B018C019B01FA
:104A2000AC016B8D7C8D8FA198A50E94CF3287FF42
:104A300004C06B8C7C8C0FA118A5C301D801F101B7
:104A400081A392A3A3A3B4A3E9A1FAA120813181F8
:104A500042815381C501B4010E940D359B01AC0117
:104A6000C701B6010E94F5316B017C011BA10CA1AD
:104A7000FDA1FB8F2EA12C8F8D8D9E8D04969E8F78
:104A80008D8FE9A1FAA13496FAA3E9A32F8D38A15D
:104A90002C5F3F4F38A32F8FE98DFA8D8E179F071C
:104AA00009F05BCF9091490280914A0298130AC0A5
:104AB000F101118A128A138A148A118E128E138EB2
:104AC000148E49C0A701960160E070E080E89FE382
:104AD0000E94F53120E030E040E05FE30E940D35B8
:104AE0000E949A356B017C012091B4063091B50685
:104AF0004091B6065091B706F10161A172A183A160
:104B000094A10E940D35A70196010E940D354B011D
:104B10005C01A701960160E070E080E89FE30E94DD
:104B2000F5319B01AC01C501B4010E94D6326B0185
:104B30007C0120E030E0A9010E94CF3287FF04C051
:104B4000C12CD12CE12CF12CA601B701F101418F30
:104B5000528F638F748F212F302F4B8D5C8D612F7F
:104B6000702F8B8D9C8D0E940D35162F072FF82EE0
:104B7000E92E862F902FAF2DBE2DF101858F968FB8
:104B8000A78FB0A3A18CB28CC38CD48C609043024D
:104B90007090440280904502909046029301A401D7
:104BA000612F702F8F2D9E2D0E94CF3287FD0BC05D
:104BB0009301A401B501C6010E94CF3287FD11C047
:104BC000530164010EC0212F302F4F2D5E2DB501F2
:104BD000C6010E94CF3287FD04C0A12EB02ECF2C7B
:104BE000DE2CC501D601F101858B968BA78BB08F8A
:104BF0008CE0FE013196A7E3B2E001900D928A9518
:104C0000E1F7812F902FAF2DBE2D8093430290931B
:104C10004402A0934502B09346028CE0FE013D960B
:104C2000ABE2B2E001900D928A95E1F780914802E3
:104C3000809349028F5F823109F480E080934802BB
:104C4000AD960FB6F894DEBF0FBECDBFDF91CF910A
:104C50001F910F91FF90EF90DF90CF90BF90AF909A
:104C60009F908F907F906F905F904F903F902F908C
:104C70000C940622AD960FB6F894DEBF0FBECDBFE2
:104C8000DF91CF911F910F91FF90EF90DF90CF9028
:104C9000BF90AF909F908F907F906F905F904F905C
:104CA0003F902F9008958091310590913205A09109
:104CB0003305B091340580932B0290932C02A0937E
:104CC0002D02B0932E028091350590913605A0916A
:104CD0003705B091380580932F0290933002A0934E
:104CE0003102B09332028091390590913A05A0913A
:104CF0003B05B0913C058093330290933402A0931E
:104D00003502B093360208958091490290914A028B
:104D1000891708F48E5E891B08950E946818809197
:104D20004A02809347020C9406226F927F928F92E0
:104D30009F92AF92BF92CF92DF92EF92FF920F932A
:104D40001F93CF93DF937C018B016A01FB0180816C
:104D5000F701E80FF11D2081EF012D3229F4229691
:104D600021816624639407C02B3211F0219602C082
:104D700022962181612CA12CB12C712C60E070E075
:104D8000CB01FE0130ED932E920E29E02915C8F0DB
:104D9000B39428E02B1588F0A1107A94A5E0B0E038
:104DA0009B01AC010E94FA35660F771F881F991F7F
:104DB000690D711D811D911D0BC0A11009C0739457
:104DC00007C02EEF921207C0A11005C0AA24A39419
:104DD00021962081D6CFBB2009F449C00E946F33B1
:104DE0004B015C0120E030E0A9010E94CF32882312
:104DF00061F18FEF78166CF42AE037ED43E25CE363
:104E0000C501B4010E940D354B015C01739473948C
:104E1000F0CF78120BC02DEC3CEC4CEC5DE3C501FF
:104E2000B4010E940D354B015C010FC0772069F081
:104E300020E030E040E251E4C501B4010E940D35AC
:104E40004B015C017A9417149CF3662021F0B7FAA9
:104E5000B094B7F8B094F60180829182A282B382B6
:104E6000CE19DF09C150F801C08381E001C080E0A4
:104E7000DF91CF911F910F91FF90EF90DF90CF9036
:104E8000BF90AF909F908F907F906F900895009704
:104E900041F0EFE9FFE03197F1F700C00000019722
:104EA000F6CF08958F929F92AF92BF92CF92DF92EA
:104EB000EF92FF9269017A019B01AC010E940D35CE
:104EC0004B015C01A7019601C701B6010E940D3597
:104ED0009B01AC01C501B4010E94F631FF90EF9037
:104EE000DF90CF90BF90AF909F908F900C949A35A9
:104EF000EBE6F0E08081897E8083E8E6F0E0808167
:104F00008E7F8083089584B1897E84B99091BC0698
:104F100085B196FF02C0897E01C0866185B993FF85
:104F20000BC080916B00866180936B00809168005C
:104F300081608093680008950C9478271F920F92E7
:104F40000FB60F9211242F933F934F935F936F935C
:104F50007F938F939F93AF93BF93EF93FF93809132
:104F60002E05813071F080912F0585FD0AC00E94C9
:104F7000F0089FB7F89480912F05806680932F05E5
:104F80009FBFFF91EF91BF91AF919F918F917F91C3
:104F90006F915F914F913F912F910F900FBE0F90A6
:104FA0001F9018952F923F924F925F926F927F922F
:104FB0008F929F92AF92BF92CF92DF92EF92FF9229
:104FC0000F931F93CF93DF93CDB7DEB76C970FB6D8
:104FD000F894DEBF0FBECDBF898F80912D05811162
:104FE000BAC14090C2065090C3066090C40670904B
:104FF000C50623EA36E0388F2F8BAE01435F5F4F43
:105000005A018E01005F1F4F212C1D8A812C912C8B
:10501000312C832D0E94FC21D8018D938D01832D8D
:105020000E94E821F50181935F01AF89B88DCD9091
:10503000DD90ED90FD90B88FAF8BA7019601622DAA
:105040007D89C4010E94D23418161CF0C22CDD8860
:1050500074013394B3E03B1621F02C2CDD8A470118
:10506000D8CF20E030E040EC5FEBC701B6010E94F2
:105070000D356B017C010E94212336E0332E01E0C7
:10508000F98DEF2FF0E0F88FEF8B46015701B7FA5B
:10509000B094B7F8B0949E01205F3F4F3C8B2B8BB0
:1050A0008091BC0686FD02C0202E03C022242394DA
:1050B00020268091BD06682F70E0FE01319680E0C9
:1050C00090E010E01D8A282F4F89588D082E02C0CD
:1050D000559547950A94E2F7DA01A170BB2740FF86
:1050E0000FC03D893F5F3D8B011105C080829182D9
:1050F000A282B38209C0C082D182E282F38204C05C
:105100001082118212821382AB0102C0559547951D
:105110002A95E2F740FF09C0208131814281538105
:1051200050582083318342835383AB2B41F0ADE051
:10513000B0E0AC0FBD1FA80FB91F2C91122B019628
:1051400034968330910509F0BECF5D89652F70E0FC
:1051500080E090E00E946F330E949A359B01AC0181
:1051600010933005C301B2010E940D35AB01BC01A3
:1051700020E0CE0101960E9478230E948A180E94A6
:10518000641526E1722E83B121108725DE01509629
:10519000FE013D962191922F912329F09C91982315
:1051A00011F02095122311962B893C89E217F30701
:1051B00089F7109330050E948A1880912F0584FF8B
:1051C00003C00E943014C7C0812F8C71E1F60E9489
:1051D0001A180E9421238091C6069091C7060E944A
:1051E00047274090BE065090BF066090C006709062
:1051F000C10681E008273A94311052CF8091BD0654
:10520000482F50E05E8B4D8BC090C806D090C906E9
:10521000E090CA06F090CB06D701C601B058898F3E
:105220009A8FAB8FBC8F81E3A82E85E0B82E9FE7C5
:10523000292E96E0392EDE0111964D0100E010E096
:105240008F89988D002E02C0959587950A94E2F774
:1052500080FF3DC08D899E89002E02C0959587955F
:105260000A94E2F780FF23C0F10144A055A066A094
:1052700077A0A3019201C701B6010E94F631D401C3
:105280006D937D938D939C931397F10120813181D0
:1052900042815381C301B2010E940D350E94DD3469
:1052A000D5016D937D938D939C93139724C0298D85
:1052B0003A8D4B8D5C8DD4012D933D934D935C9332
:1052C0001397F501108211821282138214C0D50146
:1052D0006D917D918D919C910E947133F10120819E
:1052E0003181428153810E94D632D4016D937D93E6
:1052F0008D939C9313970F5F1F4FB4E08B0E911CFF
:10530000E4E0AE0EB11CF4E02F0E311C03301105A9
:1053100009F096CF0E9453264091C2065091C306D1
:105320006091C4067091C50620E0CE0101960E94EE
:10533000782388E080932E059FB7F89480912F05FD
:10534000826080932F059FBF0E9430140E944A15EF
:1053500084E080932E056C960FB6F894DEBF0FBEE6
:10536000CDBFDF91CF911F910F91FF90EF90DF9014
:10537000CF90BF90AF909F908F907F906F905F90F5
:105380004F903F902F900895CF92DF92EF92FF922F
:105390000F931F93CF93DF938C01C3EAD6E0F801FC
:1053A000C190D190E190F1908F0120E030E0A9010F
:1053B000C701B6010E94D234181654F029913991D0
:1053C00049915991C701B6010E94CF3287FF27C08A
:1053D00080912E05803179F49FB7F89480912F0544
:1053E000886080932F059FBF0E94301480912D0507
:1053F0008823D1F319C00E94F0089FB7F8948091D8
:105400002F05806680932F059FBFDF91CF911F915D
:105410000F91FF90EF90DF90CF900C943014F6E056
:10542000CF3ADF0709F0BBCFDF91CF911F910F91EA
:10543000FF90EF90DF90CF900895CF93DF93EC0132
:105440008991882319F00E947B13FACFDF91CF91C5
:105450000895CF93DF93FC018491EF012196882377
:1054600021F00E947B13FE01F7CFDF91CF910895C9
:10547000EF92FF920F931F93CF93DF93CDB7DEB7D9
:1054800028970FB6F894DEBF0FBECDBFFE01319650
:105490007F019E01275F3F4F982F917091938695D2
:1054A000E217F307C9F78F01F80182918F01805D40
:1054B0000E947B130E151F05B9F728960FB6F894B6
:1054C000DEBF0FBECDBFDF91CF911F910F91FF9037
:1054D000EF9008951F93CF93DF9300D01F92CDB725
:1054E000DEB7811109C080E30F900F900F90DF911C
:1054F000CF911F910C947B1390E02AE011E0190FDB
:10550000E1E0F0E0EC0FFD1FE90FF11D622F0E94BA
:105510000536905D9083882311F0912FEFCF1123F2
:1055200041F0FE01E10FF11D80810E947B131150BB
:10553000F6CF0F900F900F90DF91CF911F910895AC
:105540008F929F92AF92BF92CF92DF92EF92FF9293
:105550000F931F93CF93DF93CDB7DEB72A970FB684
:10556000F894DEBF0FBECDBF6B017C01142F20E08D
:1055700030E0A9010E94CF3287FF07C08DE20E9470
:105580007B13F7FAF094F7F8F094012F023060F0F3
:1055900020E030E048EC52E4C701B6010E940D352E
:1055A0006B017C010250F2CF10FF0AC020E030E016
:1055B00040E251E4C701B6010E940D356B017C0148
:1055C00020E030E040E05FE3C701B6010E94F63121
:1055D0000E943E33E1E0F0E0EC0FFD1FE10FF11D12
:1055E0002EE22083D12C3AE0832E912CA12CB12CD9
:1055F0006115710581059105A9F0D11201C0D394FF
:10560000EE24E394F12CEC0EFD1EED0CF11CA50133
:1056100094010E941136605DF7016083B901CA01EF
:10562000D394E6CF80E3D11648F4E1E0F0E0EC0F4C
:10563000FD1FED0DF11D8083D394F5CF8D2DD1127B
:105640000BC0D394D3948F5FE1E0F0E0EC0FFD1F2B
:10565000E80FF11D80E38083DD2041F0FE01ED0DB8
:10566000F11D80810E947B13DA94F6CF2A960FB643
:10567000F894DEBF0FBECDBFDF91CF911F910F9188
:10568000FF90EF90DF90CF90BF90AF909F908F9062
:1056900008952091BC0620FF08C02BE832E441E2C7
:1056A0005DE30E940D3544E001C043E00C94A02A64
:1056B0002091BC0620FF08C02BE832E441E25DE304
:1056C0000E940D3541E001C040E00C94A02A43E067
:1056D0000C94A02A3D988091BC0687FF04C0459891
:1056E0001092CC060895459A80E28093CC060895E6
:1056F00086B180729091CC068927089580913E05ED
:105700008130A1F40E94782B882381F010923E050D
:105710008CE0E1E3F5E0AFE3B5E001900D928A950E
:10572000E1F780912F05886080932F050895CF932E
:10573000C82F811103C08CE098E044C084E098E059
:105740000E94292A4C2F50E0FA013197E631F105E9
:1057500080F5E359FF4F0C9433368CEE97E002C08E
:105760008AED97E00E94292A2BC088EC97E0FACFB7
:105770008EEB97E0F7CF8DEA97E0F4CF8EE997E0D4
:10578000F1CF8DE797E0EECF84E797E0EBCF89E6A6
:1057900097E0E8CF86E597E0E5CF88E497E0E2CFB1
:1057A00082E397E0DFCF8EE197E0DCCF8AE097E0FD
:1057B000D9CF88EF96E00E94292A8C2F0E946A2A6E
:1057C00085EF96E0CF910C94292ACF93C82F8DEEC8
:1057D00096E00E94292ACE3F51F0CF3F29F0CD3FDD
:1057E00051F48FEB96E005C08DED96E002C08AEC97
:1057F00096E00E94292A8CEB96E00E94292A84EFE9
:1058000091E0CF910C944727CF93C82F8AEB96E075
:105810000E94292AC33091F038F4C13061F0C230BF
:10582000A1F484E996E00FC0C43059F0C53069F4A2
:1058300081E796E008C088EA96E005C082E896E035
:1058400002C08AE796E00E94292A8DE696E0CF9171
:105850000C94292A80E596E00C94292A8CE095E0A6
:105860000C94292AFF920F931F93CF93DF9388E024
:1058700095E00E94292A8091AF060E946A2A8FEE45
:1058800094E00E94292A8091B2060E946A2A81ED42
:1058900094E00E94292A8091B0060E946A2A88EB2F
:1058A00094E00E94292A8091B0060E94382A81EB58
:1058B00094E00E94292A8091B1060E946A2A89E90F
:1058C00094E00E94292A8091B1060E94382A82E938
:1058D00094E00E94292A8091BC0682FB882780F9E7
:1058E0000E946A2A81E794E00E94292A8091BC06DE
:1058F00086FB882780F90E946A2A81E594E00E944D
:10590000292A8091BC06881F8827881F0E946A2A3E
:1059100081E394E00E94292A8091B3060E946A2ABA
:105920008BE194E00E94292A8091B3060E94382AD4
:1059300083E194E00E94292A6091B4067091B50633
:105940008091B6069091B7060E94672B83EF93E093
:105950000E94292A6091B8067091B9068091BA0612
:105960009091BB060E94672B88ED93E00E94292A44
:105970008091BC0681700E946A2A8BEB93E00E94A2
:10598000292A8091BC06869581700E946A2A81EA44
:1059900093E00E94292A8091BC0685FB882780F924
:1059A0000E946A2A86E893E00E94292A8091BC0618
:1059B00083FB882780F90E946A2A8BE693E00E9485
:1059C000292A8091BC06829581700E946A2A8FE400
:1059D00093E00E94292A8091BD060E946A2A85E3ED
:1059E00093E00E94292A8091BD060E94382A8DE208
:1059F00093E00E94292A6091BE067091BF068091B3
:105A0000C0069091C1060E94672B80E193E00E943E
:105A1000292A6091C2067091C3068091C4069091B4
:105A2000C5060E94672B83EF92E00E94292A80918D
:105A3000C6060E946A2A84ED92E00E94292A60919B
:105A4000C8067091C9068091CA069091CB060E9443
:105A5000672B8BEB92E00E94292A84E6F82E10E057
:105A6000CFE7D6E000E089EB92E00E94292A802F60
:105A70008F0D0E946A2A87EB92E00E94292A123039
:105A800071F01330B9F0113029F0688179818A8181
:105A90009B8117C06C857D858E859F8512C020E017
:105AA00030E041E655E4688D798D8A8D9B8D0E94AA
:105AB000D63207C08CA19DA1AEA1BFA1BC01CD0172
:105AC00090580E94672B84EB92E00E94292A0130B3
:105AD00029F0023031F082EB92E005C080EB92E0D9
