:100000000C94E1030C94FE030C94FE030C94C3289F
:100010000C9425320C94FE030C94FE030C94FE0306
:100020000C94FE030C94FE030C94FE030C941C161B
:100030000C94FE030C94FE030C94FE030C94FE033C
:100040000C942F180C94FE030C944B140C940D1468
:100050000C94FE030C94FE030C94FE030C94FE031C
:100060000C94FE030C94FE03084AD73B3BCE016E72
:1000700084BCBFFDC12F3D6C74319ABD56833DDAFF
:100080003D00C77F11BED9E4BB4C3E916BAAAABE0E
:10009000000000803F05A84CCDB2D44EB93836A937
:1000A000020C50B9918688083CA6AAAA2ABE000074
:1000B00000803F003E0D0A006F66663A006F6E3AA0
:1000C000002C6C6173657220007A00790078002C36
:1000D0006C696D6974733A002C52583A002C427561
:1000E000663A002C002C57506F733A002C002C4DB0
:1000F000506F733A003C436865636B003C416C6130
:10010000726D003C486F6D65003C486F6C64003C4C
:1001100052756E003C5175657565003C49646C65AF
:10012000005D0D0A005B302E39675F3230313830A8
:100130003232335F363136333863353A000D0A00D8
:100140003D00244E005D0D0A002053002046002093
:100150005400204D3800204D3900204D3500204DF1
:100160003400204D3300204D3200204D3100204D11
:1001700030002047393400204739330020473931D7
:10018000002047393000204732300020473231000C
:1001900020473139002047313800204731370020CF
:1001A00047005B473830005B4733005B4732005BFA
:1001B0004731005B4730005D0D0A005B544C4F3AFD
:1001C000005D0D0A002C005B4739323A005D0D0AD4
:1001D000002C003A003330003238005B47005D0DE0
:1001E0000A002C005B5052423A00290D0A00206D93
:1001F00061782074726176656C2C206D6D002061D1
:100200006363656C2C206D6D2F7365635E32002017
:100210006D617820726174652C206D6D2F6D696E33
:10022000002C20737465702F6D6D007A0079007852
:10023000002028003D00240020287475726E204C98
:1002400061736572206D6F6465206F6E2C20626F24
:100250006F6C290D0A002434303D002028686F6D32
:10026000696E672070756C6C2D6F66662C206D6DE5
:10027000290D0A002028686F6D696E672064656229
:100280006F756E63652C206D736563290D0A2432CA
:10029000373D002028686F6D696E67207365656B58
:1002A0002C206D6D2F6D696E290D0A2432363D00AC
:1002B0002028686F6D696E6720666565642C206D07
:1002C0006D2F6D696E290D0A2432353D00290D0A06
:1002D0002432343D002028686F6D696E67206469A0
:1002E0007220696E76657274206D61736B3A0020BE
:1002F00028686F6D696E67206379636C652C206276
:100300006F6F6C290D0A2432333D0020286861721A
:1003100064206C696D6974732C20626F6F6C290D99
:100320000A2432323D002028736F6674206C696D98
:100330006974732C20626F6F6C290D0A2432313D71
:100340000020286175746F2073746172742C2062B0
:100350006F6F6C290D0A2432303D002028726570C1
:100360006F727420696E636865732C20626F6F6CA6
:10037000290D0A2431343D00202861726320746FF6
:100380006C6572616E63652C206D6D290D0A2431D8
:10039000333D0020286A756E6374696F6E20646552
:1003A00076696174696F6E2C206D6D290D0A243198
:1003B000323D00290D0A2431313D0020287374613B
:1003C000747573207265706F7274206D61736B3A0F
:1003D00000202870726F62652070696E20696E76E9
:1003E0006572742C20626F6F6C290D0A2431303DC8
:1003F0000020286C696D69742070696E7320696EC5
:10040000766572742C20626F6F6C290D0A24363D5C
:100410000020287374657020656E61626C652069C8
:100420006E766572742C20626F6F6C290D0A24350C
:100430003D00290D0A24343D002028646972207093
:100440006F727420696E76657274206D61736B3A99
:1004500000290D0A24333D00202873746570207034
:100460006F727420696E76657274206D61736B3A79
:10047000002028737465702069646C652064656C65
:1004800061792C206D736563290D0A24323D0020AB
:1004900028737465702070756C73652C2075736596
:1004A00063290D0A24313D0024303D0024242028F6
:1004B00076696577204772626C2073657474696E23
:1004C0006773290D0A242320287669657720232065
:1004D000706172616D6574657273290D0A2447201D
:1004E0002876696577207061727365722073746114
:1004F0007465290D0A24492028766965772062757C
:10050000696C6420696E666F290D0A244E20287676
:10051000696577207374617274757020626C6F63A3
:100520006B73290D0A24783D76616C7565202873FC
:10053000617665204772626C2073657474696E67BA
:10054000290D0A244E783D6C696E6520287361760A
:1005500065207374617274757020626C6F636B29AF
:100560000D0A24432028636865636B2067636F640A
:1005700065206D6F6465290D0A245820286B696C0D
:100580006C20616C61726D206C6F636B290D0A24A5
:1005900048202872756E20686F6D696E67206379D8
:1005A000636C65290D0A7E20286379636C6520736E
:1005B00074617274290D0A212028666565642068BB
:1005C0006F6C64290D0A3F202863757272656E7422
:1005D00020737461747573290D0A6374726C2D78BD
:1005E00020287265736574204772626C290D0A00B9
:1005F0000D0A4772626C20302E39675F3230313815
:10060000303232335F36313633386335205B27245E
:100610002720666F722068656C705D0D0A005D0DA5
:100620000A0044697361626C656400456E61626CC6
:1006300065640043617574696F6E3A20556E6C6F26
:10064000636B656400272448277C2724582720747F
:100650006F20756E6C6F636B0052657365742074E8
:100660006F20636F6E74696E7565005B000D0A0024
:1006700050726F6265206661696C0041626F7274CE
:1006800020647572696E67206379636C65004861E8
:1006900072642F736F6674206C696D697400414CCD
:1006A00041524D3A20000D0A00496E76616C696432
:1006B0002067636F64652049443A00556E6465663F
:1006C000696E6564206665656420726174650055B5
:1006D0006E737570706F7274656420636F6D6D6199
:1006E0006E64004D6F64616C2067726F7570207668
:1006F000696F6C6174696F6E004C696E65206F760E
:100700006572666C6F7700486F6D696E67206E6FFB
:100710007420656E61626C656400416C61726D206D
:100720006C6F636B004E6F742069646C65004545A7
:1007300050524F4D2072656164206661696C2E20B5
:100740005573696E672064656661756C74730056D5
:10075000616C7565203C20332075736563005365BB
:100760007474696E672064697361626C65640056B5
:10077000616C7565203C203000496E76616C69645F
:100780002073746174656D656E7400426164206EDF
:10079000756D62657220666F726D61740045787068
:1007A000656374656420636F6D6D616E64206C6554
:1007B00074746572006572726F723A20006F6B0D0F
:1007C0000A0011241FBECFEFD8E0DEBFCDBF11E07D
:1007D000A0E0B1E0E8E2F1E702C005900D92A030A0
:1007E000B107D9F727E0A0E0B1E001C01D92AB321C
:1007F000B207E1F70E9400040C9492380C940000B8
:100800000E94DB130E9491220E94AB180E941432B6
:10081000E9E8F5E08EE1DF011D928A95E9F781E0D4
:100820008093890578949091190794FD80938A05A7
:10083000C1E00E94A1140E943F090E943B130E9444
:10084000BC130E94A8280E94B22C0E9426240E9459
:100850007F180E9486270E945109109289051092E4
:100860008B058091190781FF05C0C09399050E94EF
:100870004E15DFCF10929905FACF4F925F926F928B
:100880007F928F929F92AF92BF92CF92DF92EF9220
:10089000FF920F931F93CF93DF93EC014A015B010B
:1008A000D22E270138018091190785FF03C0CE01A0
:1008B0000E94022B80918A058230E1F00E94A614EA
:1008C00080918905811116C00E947524882319F032
:1008D0000E944115F3CF830172012D2DB501A401B2
:1008E000CE010E947D2480918A05811103C088E099
:1008F00080938A05DF91CF911F910F91FF90EF9028
:10090000DF90CF90BF90AF909F908F907F906F902F
:100910005F904F9008952F923F924F925F926F9207
:100920007F928F929F92AF92BF92CF92DF92EF927F
:10093000FF920F931F93CF93DF93CDB7DEB7E59769
:100940000FB6F894DEBF0FBECDBF9E878D87788B24
:100950006F873A0109831A832B833C83C98ADA8A19
:10096000EB8AFC8AAF8A24E0829E40011124880D24
:10097000991D998F888FCA01880D991D9B8F8A8F29
:10098000DC012D903D904D905C90E88DF98D20819B
:10099000318142815381C201B1010E94E43368A3D5
:1009A00079A38AA39BA32B96AFAC2B97F4E0AF9EC1
:1009B000500111242D853E852A0D3B1D3D8F2C8F26
:1009C000C3018A0D9B1D9F8F8E8FDC01CD90DD9022
:1009D000ED90FC90F9012081318142815381C70162
:1009E000B6010E94E4336CA37DA38EA39FA33201C2
:1009F000210177FA709477F87094D701C601B05846
:100A00008D839E83AF83B887AF85B8898A0E9B1E7E
:100A100028A139A14AA15BA1F40160817181828181
:100A200093810E94E3336B017C01EF85F889EA0D25
:100A3000FB1D2CA13DA14EA15FA16081718182812E
:100A400093810E94E3334B015C01A7019601C3012E
:100A5000B2010E943B3769877A878B879C87A50103
:100A600094016D817E818F8198850E943B379B0127
:100A7000AC0169857A858B859C850E94E433698702
:100A80007A878B879C87A5019401C301B2010E94DC
:100A90003B374B015C01A70196016D817E818F81FF
:100AA00098850E943B379B01AC01C501B4010E94AF
:100AB000E33329853A854B855C850E9463346B015D
:100AC0007C018091A70520E030E0A901823009F087
:100AD000FCC0C701B6010E94FB3687FD0AC02BEDA2
:100AE0003FE049EC50E4C701B6010E94E3336B01DB
:100AF0007C018090150790901607A0901707B09082
:100B0000180729813A814B815C81CA01B9010E9491
:100B1000E433A50194010E94E333A50194010E94EE
:100B20003B370E94DA374B015C0120E030E040E0C7
:100B30005FE3C701B6010E943B3729813A814B81AF
:100B40005C810E943B379F77A50194010E94E334AA
:100B50000E94C8350E945C3579A768A761157105A8
:100B600009F488C090E080E00E948B354B015C0165
:100B70003F89332361F0AC019B0169897A898B89B4
:100B80009C890E943B37698B7A8B8B8B9C8BA50150
:100B90009401C701B6010E94E33469877A878B8785
:100BA0009C872C968FAD2C97A4E08A9FC0011124BE
:100BB000ED85FE85E80FF91FFE8BED8B2F853889BB
:100BC000820F931F2081318142815381DC016D911D
:100BD0007D918D919C910E94E333A50194010E9427
:100BE000E3346AAB7BAB8CAB9DAB29853A854B85F7
:100BF0005C85CA01B9010E943B379B01AC0160E0F2
:100C000070E080E090E40E94E3336B017C012BEA0A
:100C10003AEA4AE25EE369857A858B859C850E9483
:100C20003B374B015C0120E030E040E850E4C70175
:100C3000B6010E94E4339B01AC01C501B4010E94DE
:100C40003B376AA77BA78CA79DA720E030E040E058
:100C50005FE3C701B6010E943B376EA77FA788AB51
:100C600099AB198222242394312CE8A5F9A52E16DC
:100C70003F06D9F56196CFAC61976096ECACFDACC0
:100C80000EAD1FAD60972F8949895A896B897C8980
:100C90008F8598890E943D04E5960FB6F894DEBFD3
:100CA0000FBECDBFDF91CF911F910F91FF90EF90BD
:100CB000DF90CF90BF90AF909F908F907F906F907C
:100CC0005F904F903F902F900895C701B6010E940A
:100CD000D93418160CF40DCF2BED3FE049EC50E45D
:100CE000C701B6010E94E43302CFB981BC3008F0DD
:100CF0008DC02AA53BA54CA55DA5C301B2010E94EC
:100D00003B376B017C012EA53FA548A959A96D81F0
:100D10007E818F8198850E943B379B01AC01C70182
:100D2000B6010E94E4336B017C012EA53FA548A9C2
:100D300059A9C301B2010E943B374B015C012AA5AE
:100D40003BA54CA55DA56D817E818F8198850E9414
:100D50003B379B01AC01C501B4010E94E3332B0179
:100D60003C01E981EF5FE983C601D7018D839E8352
:100D7000AF83B88728A139A14AA15BA1C301B20101
:100D80000E94E433E88DF98D6083718382839383BD
:100D90002CA13DA14EA15FA16D817E818F8198859F
:100DA0000E94E433AC8DBD8D6D937D938D939C93A8
:100DB00013972AA93BA94CA95DA9ED89FE896081F9
:100DC0007181828193810E94E433AD89BE896D93E4
:100DD0007D938D939C9313976196CFAC61976096AA
:100DE000ECACFDAC0EAD1FAD60972F8949895A89D7
:100DF0006B897C898D859E850E943D048091890543
:100E000081114ACFBFEF2B1A3B0A2FCFB10190E0DF
:100E100080E00E948B3529853A854B855C850E9450
:100E20003B376B017C010E94DE3469837A838B83BC
:100E30009C83C701B6010E94CC374B015C01AA8D8F
:100E4000BB8DCD90DD90ED90FC90F7FAF094F7F823
:100E5000F094AE8DBF8D8D919D910D90BC91A02D84
:100E60008D839E83AF83B88729813A814B815C81D2
:100E7000C701B6010E943B372B013C01A50194013B
:100E80006D817E818F8198850E943B379B01AC01EB
:100E9000C301B2010E94E4332B013C01A50194017E
:100EA000C701B6010E943B376B017C0129813A8161
:100EB0004B815C816D817E818F8198850E943B375B
:100EC0009B01AC01C701B6010E94E3336D837E83B1
:100ED0008F83988719824ECF8F929F92AF92BF9245
:100EE000CF92DF92EF92FF92CF93DF936B017C0161
:100EF00080918A05823091F120E030E040EA51E4AF
:100F0000C7010E943B370E94C8350E945C354B01E7
:100F1000EB010E94B81520E030E04AE754E4C70135
:100F2000B6010E943B376B017C0182E3889DB001D2
:100F3000899D700D112490E080E00E948B359B010B
:100F4000AC01C701B6010E94E3330E94C8350E947C
:100F50005C35CB010E946D28209759F4DF91CF9129
:100F6000FF90EF90DF90CF90BF90AF909F908F90C9
:100F700008950E94A6142197809189058111EECFD2
:100F80002FEF80E792E0215080409040E1F700C0D1
:100F90000000E2CF2F923F924F925F926F927F922A
:100FA0008F929F92AF92BF92CF92DF92EF92FF9279
:100FB0000F931F93CF93DF9300D000D01F92CDB734
:100FC000DEB79D838C834A015B01D22E80918A0516
:100FD000823009F4AFC00E94B815809199058B83C7
:100FE0000E94C02C882351F09FB7F89480918B0504
:100FF000806480938B059FBF0E94A6148091890511
:10100000811198C0C12CE12CF12C87012D2DB50147
:10101000A4018C819D810E943D0481E080939A050A
:101020009FB7F89480918B05826080938B059FBF5A
:101030000E94A6148091890581117CC080918A0547
:10104000877FB1F780919A05813041F49FB7F8947A
:1010500080918B05806480938B059FBF0E94A614AE
:1010600080918905811166C00E947F180E94262404
:101070000E948627EBE9F5E0FA83E9838CED282EC0
:1010800086E0382E0C811D817801FCE0EF0EF11C0A
:10109000E981FA816191719181919191FA83E9835A
:1010A000F10141905190619071901F010E948D3526
:1010B000A30192010E94E334F8016193719381933B
:1010C00091938F01EE15FF0519F7C12CE12CF12C3E
:1010D00087012D2DB501A4018C819D810E943D04C5
:1010E0009FB7F89480918B05826080938B059FBF9A
:1010F0000E94B8158091890581111CC0FB81F09375
:1011000099050F900F900F900F900F90DF91CF9156
:101110001F910F91FF90EF90DF90CF90BF90AF9015
:101120009F908F907F906F905F904F903F902F9007
:101130000C94292F0F900F900F900F900F90DF912C
:10114000CF911F910F91FF90EF90DF90CF90BF90C4
:10115000AF909F908F907F906F905F904F903F9057
:101160002F90089580918B0584FD1AC09FB7F89445
:1011700080918B05806180938B059FBF0E94321305
:101180000E94BA1380918A05847351F09FB7F89436
:1011900080918B05806280938B059FBF0C94F11525
:1011A000089583B19091190796FF0DC0867169F07B
:1011B0000E94B2089FB7F89480918B058066809357
:1011C0008B059FBF08958095F1CF84E080938A05B9
:1011D0000E9432130E949D2883E00E94F7280E94FB
:1011E000A61480918905811108C00E9451091092AE
:1011F0008A050E94F1150C94A8280895CF93209198
:10120000100630911106409112065091130660911C
:10121000BA057091BB058091BC059091BD050E94F7
:10122000D934811128C020911406309115064091BF
:101230001606509117066091BE057091BF0580910A
:10124000C0059091C1050E94D934811114C0C1E03C
:10125000209118063091190640911A0650911B06EC
:101260006091C2057091C3058091C4059091C50538
:101270000E94D9348111C0E08C2FCF910895E7EA04
:10128000F5E08BE3DF011D928A95E9F766EC75E0E6
:1012900080E00E940F21811103C087E00C943D2D56
:1012A00008958F929F92AF92BF92EF92FF920F9309
:1012B0001F93CF93DF938DE8E82E85E0F82ECCEDD9
:1012C000D6E00AEB15E0F70161917191819191915E
:1012D0007F0189909990A990B9900E948D35A501C0
:1012E00094010E94E334F801619371938193919387
:1012F0008F01F6E0C83EDF0731F7DF91CF911F91F4
:101300000F91FF90EF90BF90AF909F908F900895B6
:101310002F923F924F925F926F927F928F929F9205
:10132000AF92BF92CF92DF92EF92FF920F931F93F3
:10133000CF93DF93CDB7DEB7AF970FB6F894DEBF8C
:101340000FBECDBF98A38F8FE2EEF5E08AE3DF01F9
:101350001D928A95E9F78AE0E7EAF5E0A4EEB5E0A8
:1013600001900D928A95E1F71D8E312C212CB12C24
:10137000A12C812C912C1E8E44244394512C772433
:10138000739482E0682E8D8DEF8DF8A1E80FF11D2A
:10139000008101111BC0992029F0BE8DB11102C03E
:1013A000E2E0EE8F25FE70C28091FF05909100066D
:1013B000A0910106B091020680389649A849B1056E
:1013C0000CF462C20E9432138BE107C09FEB900FB6
:1013D0009A31E0F00E94321381E0AF960FB6F89494
:1013E000DEBF0FBECDBFDF91CF911F910F91FF9058
:1013F000EF90DF90CF90BF90AF909F908F907F90B5
:101400006F905F904F903F902F9008958F5F8D8FDA
:10141000AE01475E5F4FBE01635E7F4F8F8D98A127
:101420000E94BB27811104C00E94321382E0D5CFF5
:10143000C98CDA8CEB8CFC8CC701B6010E941E387B
:101440000E945C35162F70E090E080E00E948D35A0
:101450009B01AC01C701B6010E94E33320E030E0FC
:1014600048EC52E40E943B370E94A8370E945C354A
:10147000073421F10D3409F41EC1EAEBE00FE53128
:1014800008F02CC00E2E000CFF0BE75BF54F0C9400
:101490007238970B6E0A6E0AB10BBD0BC90BD50BD8
:1014A0006E0AD90B6E0AE70B6E0AF10BFB0B290CC7
:1014B0006E0A6E0A6E0A050C110C1D0C163209F428
:1014C00093C050F5143170F4113108F0CEC01430CF
:1014D00009F458C008F488C01A3091F00E94321301
:1014E00084E17BCF1C3161F048F41631B8F7143138
:1014F00009F0CFC07092E60515E047C01E3171F7C4
:1015000061110C94DF12BE8DBB2311F40C940313F4
:101510000E94321388E161CF103509F4A2C0D8F4DB
:10152000153309F45DC080F41B3211F01133B1F6AC
:101530009E8D9111EDCF113309F0AEC01092E905E7
:1015400066E0A3E0AE8F32C01C3340F61653109312
:10155000EA0517E01AC01C3599F250F41A3508F460
:10156000BDCF1A3509F08FC01092E70513E00DC00A
:101570001F3508F0B3CF1D3509F088C07092E5051E
:1015800014E003C07092E30510E0662309F48DC0F7
:101590000E94321387E121CFE1E0EE8F6092E305F4
:1015A000F3CF81E08E8F95E09093E305C20102C0F6
:1015B000880F991F6A95E2F79C012A213B21232B72
:1015C00009F4B2C00E94321385E107CF6A3009F0F6
:1015D00085CFA6E0A093E30560E0E8CFB1E0BE8F41
:1015E000E7E0E093E305D0CF8E8D811191CF1230EB
:1015F00041F150F41123B1F01130E1F01092E20505
:1016000011E082E08E8FC1CF133019F11632B1F79D
:10161000643109F063CFF4E0F093E40561E022E087
:101620002E8FC4CF1092E4057092E20511E092E093
:101630009E8FABCF1093E4051093E205A2E0AE8F2E
:10164000A4CF1093E4057092E205B2E0BE8F11E0E2
:101650009CCF1093E4057092E20511E0E2E0EE8F7A
:1016600094CF35E03093E405F2CF123131F01331ED
:1016700039F01092E80512E088CF7092E805FBCFB0
:101680006092E805F8CF7092E70570CF1092E505FB
:1016900077CF1092E60530CF6A3009F01FCF7092F5
:1016A000E90566E0B3E0BE8F81CF612F7FCF60E0B8
:1016B000E1E0EE8F7BCF61116BCF163088F41330F1
:1016C000D0F0143011F1153019F17092ED0589E068
:1016D000920102C0220F331F8A95E2F7C9016DCF34
:1016E000183008F4FBCE1A30B0F01E3109F0F6CEF7
:1016F0006092EB0508C01230D9F31E31C9F3111105
:1017000002C07092EB0588E0E3CF6092ED05DFCF79
:101710001092ED05DCCF193021F06092EC058AE0E3
:10172000D7CF1092EC05FBCFA82AB92A2CCEC092B5
:10173000EE05D092EF05E092F005F092F10580E021
:101740008201082E02C0000F111F0A94E2F79801CF
:1017500022213321232B09F47EC00E94321389E118
:101760003CCEC092F205D092F305E092F405F092DF
:10177000F505689480F881E0E3CFC092F605D09239
:10178000F705E092F805F092F905689481F882E097
:10179000D7CFC092FA05D092FB05E092FC05F092FB
:1017A000FD05689482F883E0CBCF1093FE0584E0BA
:1017B000C7CFC701B6010E9455356093FF057093EE
:1017C0000006809301069093020685E0B9CFC0928F
:1017D0000306D0920406E0920506F092060686E023
:1017E000AFCFC0920706D0920806E0920906F092A9
:1017F0000A0687E0A5CFC0920B06D0920C06E092B5
:101800000D06F0920E0688E09BCFC0921006D09293
:101810001106E0921206F0921306689490F88AE09E
:101820008FCFC0921406D0921506E0921606F09261
:101830001706689491F88BE083CFC0921806D09277
:101840001906E0921A06F0921B06689492F88CE052
:1018500077CF89E075CFA1E6B3E002C0B595A79533
:101860008A95E2F7A0FF0DC020E030E0A901C70192
:10187000B6010E94D93487FF04C00E94321384E06D
:10188000ACCD202A312A7FCD8091E505813049F405
:101890002E8D223031F520FC24C00E94321386E1C7
:1018A0009CCD8091A80581111CC020FE36C080917E
:1018B000E6058130B1F423E333E34BEC51E460916E
:1018C000EE057091EF058091F0059091F1050E9471
:1018D0003B376093EE057093EF058093F00590938E
:1018E000F10530FC10C08091B1059091B205A09136
:1018F000B305B091B40580930B0690930C06A093AA
:101900000D06B0930E068091E3058130C9F426FCE4
:1019100015C00E9432138CE160CD8091B505909185
:10192000B605A091B705B091B8058093EE059093E8
:10193000EF05A093F005B093F105D3CFE89426F816
:101940008091E805882349F0813009F448C01BA63E
:1019500092E09EA3A1E0ADA305C032E03BA781E0E9
:101960008EA31DA28091E605813059F512EEE12E7D
:1019700015E0F12E10E000E0C92CD12CC601002E9C
:1019800002C0959587950A94E2F780FF12C023E381
:1019900033E34BEC51E4D7019E966D917D918D918F
:1019A0009C91D1970E943B37F70166A777A780AB40
:1019B00091AB0F5F1F4FF4E0EF0EF11C03301105E8
:1019C000E9F62E8D233089F48091E905813069F4A0
:1019D00034E0931651F00E94321385E2FECCB1E060
:1019E000BBA71EA2E2E0EDA3BDCF8CE0E6ECF5E0E4
:1019F000DE011D9601900D928A95E1F7A7FE17C0B2
:101A00008091EA05873020F00E9432138DE1E5CC09
:101A10009091AD05891759F0BE01635F7F4F0E9419
:101A20000F21811104C00E94321387E0D6CC10919F
:101A3000E305123009F458C0183009F4FEC08E8D49
:101A4000833009F43FC09920E9F10091E7058091C6
:101A5000DE059091DF05A091E005B091E1058F8F43
:101A600098A3A9A3BAA3E7EAAE2EE5E0BE2EF2EE54
:101A7000CF2EF5E0DF2EF12CE12CA92DB0E0BCA398
:101A8000ABA38BA19CA10E2C02C0959587950A94BF
:101A9000E2F780FD3DC1F50183899489A589B68966
:101AA000F60186A797A7A0ABB1ABFFEFEF1AFF0A2D
:101AB00024E0A20EB11C34E0C30ED11C83E0E81672
:101AC000F104F9F6153009F473C1173009F475C142
:101AD000BE016F5F7F4F86E0133009F00CC10E949A
:101AE0000F21811108C19FCF911004C00E943213B1
:101AF0008AE173CCC10180759927892B09F409CF3C
:101B00006091030670910406809105069091060687
:101B10000E941E380E945C35673008F075CF8091B6
:101B2000FE05843129F0823009F0D8CC27FCD6CCD0
:101B30008FEA2822662309F474C061506F8FDE019A
:101B400011966D01BD018F8D0E940F21882309F42C
:101B50006ACFB091FE05BBA38091DE059091DF05B1
:101B6000A091E005B091E1058FA398A7A9A7BAA716
:101B700010E000E0F12CE12CA92CB12CC5010E2CB9
:101B800002C0959587950A94E2F780FF30C0F8016E
:101B9000EE51FA4F46A457A460A871A89BA19431B6
:101BA00009F043C0F801E955FA4F23A534A545A52E
:101BB00056A563897489858996890E94E333A301B8
:101BC00092010E94E333F601E00FF11F60837183FD
:101BD00082839383A2E0EA120AC02FA138A549A507
:101BE0005AA50E94E33369877A878B879C87BFEF6A
:101BF000EB1AFB0A0C5F1F4FE3E0EE16F10409F04D
:101C0000BDCF1091E405153009F0E0C0992009F42A
:101C100000C39E8D913009F403C10E9432138FE1FD
:101C2000DCCB9091EA059F8F8ACFF601E00FF11F80
:101C30004082518262827382DACF992009F456CFB2
:101C40004090DE055090DF056090E0057090E10562
:101C5000A7EACA2EA5E0DA2EB2EEEB2EB5E0FB2EF7
:101C60005E01FDE0AF0EB11C10E000E0292D30E078
:101C700038A32F8F8F8D98A1002E02C09595879540
:101C80000A94E2F780FF39C0D5012D913D914D9125
:101C90005C91F60163897489858996890E94E33392
:101CA000D7019E962D913D914D915C91D1970E94C7
:101CB000E333F70166A777A780AB91AB023061F4FD
:101CC000A30192010E94E3336093180670931906F2
:101CD00080931A0690931B060F5F1F4FF4E0CF0E00
:101CE000D11C24E0E20EF11C34E0A30EB11C033041
:101CF000110509F0BFCF1F8E84CFF60183A594A5EF
:101D0000A5A5B6A5F70186A797A7A0ABB1ABE4CF71
:101D1000173009F4CACED6019E964D905D906D9015
:101D20007C90D197011133C0F701EE0FFF1FEE0F2A
:101D3000FF1F2DE030E02C0F3D1FE20FF31FD501F8
:101D40009B962D913D914D915C919E976081718103
:101D5000828193810E94E433A30192010E94E433C3
:101D6000F60166A777A780AB91ABF2E0EF129DCEAC
:101D70002F8D38A149A15AA10E94E433609318061F
:101D80007093190680931A0690931B068ECEA301BA
:101D90009201D50153966D917D918D919C915697AD
:101DA0000E94E433F60166A777A780AB91AB7DCEA6
:101DB000BE016F5F7F4F87E092CE8091E405823055
:101DC00008F499CF0E9432138EE107CBAE8DA2307A
:101DD00009F01FC211110EC0911022C02EED222257
:101DE0002CEF32221E8E232809F418C20E943213CF
:101DF00084E2F3CA20E030E0A9016091EE05709121
:101E0000EF058091F0059091F1050E94D934882367
:101E100009F443CD143048F4123088F41130E1F263
:101E20003EED232230EE3322DECF1430C9F7992065
:101E300009F45CCE0E94FE08882391F362C09920C9
:101E400009F454CEFDA1EF2FF0E0FCA3EBA33EA1DB
:101E5000232F30E038A72FA381E090E08C010DA064
:101E600002C0000F111F0A94E2F70EA002C0880FF3
:101E7000991F0A94E2F7082B192B892D90E08023F3
:101E80009123892B21F40E94321380E2A6CA8BA1F0
:101E90009CA1880F991F880F991FFC01EE51FA4FE2
:101EA00089559A4FDC0153962D913D914D915C914E
:101EB000569766A577A580A991A90E94E3336B0187
:101EC0007C018FA198A5880F991F880F991FFC018D
:101ED000EE51FA4F89559A4FDC0153962D913D9161
:101EE0004D915C91569766A577A580A991A90E940E
:101EF000E3332B013C0127FEE2C00E94FE08882349
:101F000021F00E94321381E268CA8091E605813097
:101F1000B1F423E333E34BEC51E460910706709195
:101F200008068091090690910A060E943B3760934B
:101F30000706709308068093090690930A0680901E
:101F4000070690900806A0900906B0900A0620E0C7
:101F500030E040E850E4C501B4010E943B37A501E0
:101F600094010E943B374B015C01A7019601C70118
:101F7000B6010E943B379B01AC01C501B4010E9430
:101F8000E3334B015C01A3019201C301B2010E9442
:101F90003B379B01AC01C501B4010E94E3334B0107
:101FA0005C0120E030E0A9010E94D93487FF04C021
:101FB0000E94321382E211CAC501B4010E94DA37CD
:101FC0004B015C01A3019201C701B6010E94772871
:101FD0009B01AC01C501B40190580E94E3344B0150
:101FE0005C018091E405833021F4B7FAB094B7F82E
:101FF000B0948091070690910806A0910906B091CF
:102000000A068CA79DA7AEA7BFA720E030E0A901D4
:10201000BC01CD010E94D93487FF11C0B7FAB0943A
:10202000B7F8B0948CA59DA5AEA5BFA5B058809378
:10203000070690930806A0930906B0930A06E89451
:1020400027F80BA11CA1000F111F000F111F0E502C
:102050001A4FA3019201C501B4010E943B379B01B5
:10206000AC01C701B6010E94E33320E030E040E05C
:102070005FE30E943B37D8016D937D938D939C93D2
:1020800013970FA118A5000F111F000F111F0E505D
:102090001A4FA7019601C501B4010E943B37A30165
:1020A00092010E94E43320E030E040E05FE30E94D0
:1020B0003B37F8016083718382839383B1CE912C87
:1020C00008211921012B21F40E94321383E285C9D2
:1020D000F1EF2F228091E605813059F510E000E004
:1020E000C401002E02C0959587950A94E2F780FFFF
:1020F0001BC0C801880F991F880F991F9C012E5182
:102100003A4F590123E333E34BEC51E4D5015096A8
:102110006D917D918D919C9153970E943B37F50174
:10212000608B718B828B938B0F5F1F4F0330110578
:10213000B9F60FA118A5000F111F000F111F0E50A7
:102140001A4FD8012D913D914D915C91C301B2017F
:102150000E94E3332B013C01ABA0BCA0AA0CBB1C2A
:10216000AA0CBB1CF501EE50FA4F5F0120813181B2
:1021700042815381C701B6010E94E333A30192015A
:102180000E9477286B017C01D8012D913D914D91E2
:102190005C91F50160817181828193810E94772831
:1021A0004B015C018092070690920806A0920906F6
:1021B000B0920A06AC019B01C701B6010E94E3334D
:1021C0006B017C01E894F7F82AE037ED43EA5BE322
:1021D000C701B6010E94FB3618160CF021CE20E094
:1021E00030E040E05FE3C701B6010E94FB361816FD
:1021F0000CF487CE2FE632E143E85AE3C501B4017F
:102200000E943B37A70196010E94D93487FF08CE70
:1022100078CEFE8DFF2309F4E1CD02CE8091E50555
:102220008093A8058091EE059091EF05A091F005AF
:10223000B091F1058093B5059093B605A093B705CD
:10224000B093B805C0900B06D0900C06E0900D0638
:10225000F0900E06A70196016091B1057091B2054C
:102260008091B3059091B4050E94D9348823D9F0A8
:10227000C092B105D092B205E092B305F092B405D8
:102280008091190790911A0790FF04C08091E20590
:10229000811109C08091B005882329F020E0B701A1
:1022A000A6010E94791380910F068093B905809151
:1022B000ED059091B0059817B9F08093B005209185
:1022C000190730911A0730FF04C09091E20591116F
:1022D0000BC04091B1055091B2056091B30570916A
:1022E000B40520E00E9479138091EC059091AF0530
:1022F000981721F08093AF050E94BF138091E305EA
:10230000813051F4609103067091040680910506B6
:10231000909106060E946C078091E8058093AB05BA
:102320008091E6058093A9058E8D8330B9F4809164
:10233000E9058093AC05813009F037C0809118061B
:1023400090911906A0911A06B0911B068093DE05A4
:102350009093DF05A093E005B093E1058091EA0535
:102360009091AD05981759F08093AD058CE0FE0172
:102370003D96A6ECB5E001900D928A95E1F780912B
:10238000E7058093AA05E091E305E250E83050F5B7
:10239000F0E0E353FE4E0C947238DE112612551213
:1023A00026125B12F2115F1265121092DE05109276
:1023B000DF051092E0051092E105D0CFBE016F5FFE
:1023C0007F4F8F8D0E9431208091AD059F8D8913A5
:1023D00009C08CE0FE013196A6ECB5E001900D92AB
:1023E0008A95E1F78091E4058093A7058530C1F0D7
:1023F000BE8DB230A9F4843008F06FC0823008F08E
:10240000A7C0882309F47BC0813009F48CC08CE01C
:10241000E0E1F6E0AAEBB5E001900D928A95E1F7D4
:102420008091EB058093AE05882311F40C94ED099F
:102430000E94B815109299058091AE05823009F07E
:10244000BBC00E94B20880E00C94ED09AE8DAA23B7
:1024500099F0E090B105F090B2050091B3051091AC
:10246000B405C090B00520E040E050E060E87FEBAC
:1024700080E196E00E943D04E090B105F090B20545
:102480000091B3051091B405C090B00520E040E084
:1024900050E060E87FEBCE0101960E943D048CE0A5
:1024A000FE013196AAEBB5E099CF6AEB75E086E0C4
:1024B0000E94312097CF6AEB75E087E0F9CF8CE07E
:1024C000E0E1F6E0A2EDB5E089CFE2EDF5E08CE0E9
:1024D000DF011D928A95E9F785CF843009F097CF07
:1024E0004091B5055091B6056091B7057091B8055A
:1024F0002091A80580E196E00E94CA0788CFE0906D
:10250000B105F090B2050091B3051091B405C090EB
:10251000B00520E040E050E060E87FEB80E196E02D
:102520000E943D0474CFE090B105F090B205009197
:10253000B3051091B4054091B5055091B605609171
:10254000B7057091B805C090B0052091A805E6CFF9
:10255000C090B505D090B605E090B705F090B805ED
:1025600000910706109108062091090630910A068D
:102570008091B0058F938091B4058F938091B305BE
:102580008F938091B2058F938091B1058F93EBA5C6
:10259000EF93FEA1FF938DA0A090A80542EF55E018
:1025A00060E176E08AEB95E00E948B040FB6F89428
:1025B000DEBF0FBECDBF2BCF1092AE0544CF1E3174
:1025C00011F40C94E60A88F41A3011F40C94CE0A33
:1025D0001C3111F00C94C80A6A3011F00C946E0A88
:1025E00034E03093E3050C94EC0A153311F40C94A9
:1025F000F00A1C3511F00C94C80A6A3011F00C94E2
:102600006E0A39E0EECF1E3111F40C94D10A70F449
:102610001A3011F40C94CC0A1C3109F048C8F1E0CE
:10262000FE8F23E02093E3050C94D60A153311F4B2
:102630000C94EE0A1C3509F03AC8F1E0FE8F28E050
:10264000F1CFE0EBF0E080818F7780832B980895C5
:102650008091B300882329F08091B0008068809336
:10266000B00008951092B300E0EBF0E080818F7726
:1026700080832B980895239A239A259A0C943213D9
:1026800083E88093B000E1EBF0E08081887F826096
:10269000808308958093B3000895CF92DF92EF92E4
:1026A000FF926B017C0120E030E04AEF54E40E948D
:1026B000FB36181634F4C12CD12C8AEFE82E84E4B2
:1026C000F82E2CE53FE842E05EE3C701B6010E9428
:1026D0003B3720E030E040E05FE30E94E4330E94BB
:1026E000C8350E945C35862FFF90EF90DF90CF9029
:1026F0000895CF92DF92EF92FF92CF93DF93C82F8E
:102700006A017B01D22F80918A05823051F180913C
:10271000190790911A0790FF02C0211102C00E9470
:1027200041158091190790911A0790FF02C0D111AD
:1027300002C00E94B815C11108C0DF91CF91FF906F
:10274000EF90DF90CF900C943213C13089F42D9824
:10275000C701B6010E944D138093B3000E9440133D
:102760002B9ADF91CF91FF90EF90DF90CF9008955B
:102770002D9AEECF439808953B9A0C94BA13CF93B9
:10278000C82F80918A05823039F00E9441150E943D
:10279000B815C23019F4439ACF910895CF910C9493
:1027A000BA139091020180910301891710F0891BDF
:1027B00008958058FCCFE0ECF0E080818260808357
:1027C0001092C50080E18093C400E1ECF0E08081CC
:1027D000806180838081886080838081806880833D
:1027E0000895E091010191E09E0F903409F490E08A
:1027F00020910001291761F0F0E0E45EF94F808339
:10280000909301018091C10080628093C10004C057
:1028100020918B0524FFECCF08951F920F920FB6E5
:102820000F9211248F939F93EF93FF938091000158
:10283000E82FF0E0E45EF94F90819093C6008F5F3F
:10284000803409F480E08093000190910101981395
:1028500005C08091C1008F7D8093C100FF91EF91F1
:102860009F918F910F900FBE0F901F901895909190
:10287000020180910301891761F0E92FF0E0E45A29
:10288000F94F80819F5F903809F490E090930201A6
:1028900008958FEF08951F920F920FB60F92112493
:1028A0002F933F934F935F936F937F938F939F9358
:1028B000AF93BF93EF93FF938091C6008132C1F134
:1028C000A0F48831D9F1E091030191E09E0F903896
:1028D00009F490E0209102012917C9F0F0E0E45AD0
:1028E000F94F80839093030112C08F3341F08E37EC
:1028F00051F79FB7F89480918B05826005C09FB710
:10290000F89480918B05816080938B059FBFFF9128
:10291000EF91BF91AF919F918F917F916F915F9157
:102920004F913F912F910F900FBE0F901F901895D0
:102930009FB7F89480918B058860E6CF0E94B2081B
:10294000E6CF80910301809302010895CF93C09157
:102950008B05CC2309F487C08C2F807619F181E098
:1029600080938A050E942113C6FF25C08FEFC5FF03
:102970008DEF0E94452D81E00E94642D9FB7F89451
:1029800080918B058F7E80938B059FBF80918B05F7
:1029900084FFFCCF9FB7F89480918B058F7980934B
:1029A0008B059FBFC4FF0BC00E94211381E0809361
:1029B0008905CF9108958EEF0E94452DEBCFC0FF82
:1029C0000AC00E94E2309FB7F89480918B058E7FF9
:1029D00080938B059FBFC3FF15C080918A0580310E
:1029E00049F480E280938A050E94CD180E94EF1876
:1029F000109299059FB7F89480918B05877F8093FB
:102A00008B059FBFC1FF1CC080918A05883081F46F
:102A100080E180938A050E9428130E94EF180E948B
:102A2000D0158091190781FF26C081E08093990518
:102A30009FB7F89480918B058D7F80938B059FBF06
:102A4000C2FF11C00E944B24892BC1F00E942113A8
:102A500088E080938A059FB7F89480918B058B7FDF
:102A600080938B059FBF80918A05847309F4A1CF61
:102A7000CF910C94EF1810929905DACF10928A0535
:102A8000EACF80919905882341F09FB7F89480910F
:102A90008B05826080938B059FBF0895CF93DF9352
:102AA0000E948A2D80918A05813029F482E00E945B
:102AB000642DC0E043C010928A0584E091E00E943A
:102AC0006132F7CF8A3011F08D3099F5EC2FF0E0BC
:102AD000EC5FFE4F10820E94A614D0918905D1119F
:102AE000E8CF80910401811112C00E943D2DC0E009
:102AF0000E9437148F3F31F70E9441150E94A6149F
:102B0000809189058823A1F3DF91CF9108958432C4
:102B100029F484E091E00E948132E7CF80918A0518
:102B2000813011F489E0E1CF84E091E00E948809CE
:102B3000DCCFDD2329F0D1E08932D1F6D0E0D8CF47
:102B40008132B0F28F32A1F2883281F0CF3410F0AE
:102B50008BE0CBCFEC2FF0E0EC5FFE4FCF5F9FE937
:102B6000980F9A3108F480528083C2CFD1E0C0CF51
:102B70000E94411580918A05803119F481E080938B
:102B800099050E944B24892B21F480918A0580317C
:102B900031F40E94A61480918905882391F3089549
:102BA0008091190782FF1BC0289A80918A05847141
:102BB000A9F0809182018093960180918301809396
:102BC000950180910C078250990B880F8195809315
:102BD000940180916F00826080936F00089528981F
:102BE000E4CF80916F008D7F80936F008091810092
:102BF000887F8160809381001092810180910F070E
:102C00008F3F21F490918B0595FF12C090918A051A
:102C1000943071F090E00E946D2881E09091190746
:102C200092FF02C091E08927882321F0289A089515
:102C300080E0F4CF289808951F920F920FB60F925C
:102C400011240F931F932F933F934F935F936F9391
:102C50007F938F939F93AF93BF93EF93FF93809155
:102C600081018111DDC19BB180919601807E9F71B0
:102C7000892B8BB98BB1837E90919501892B8BB970
:102C80008091940186BD82E085BD81E080938101C1
:102C900078948091A8019091A901892B09F0A7C08F
:102CA0008091860190918501981709F4AFC1E09158
:102CB000860186E0E89FF0011124E655FE4FF0936F
:102CC000A901E093A8018381948190938900809366
:102CD0008800808191819093A4018093A301E28177
:102CE0008091A5018E17C1F1E093A50183E1E89FD2
:102CF000F0011124E253FE4FF093A701E093A601E7
:102D000085859685A785B089B695A795979587956A
:102D10008093870190938801A0938901B0938A01E1
:102D200080938B0190938C01A0938D01B0938E01C1
:102D300080938F0190939001A0939101B0939201A1
:102D40008091190790911A0790FF06C08289882305
:102D500019F081890E944A13E091A601F091A70120
:102D6000808190918201892780939601A091A8018A
:102D7000B091A90115962C9181819281A381B48192
:102D8000022E04C0B695A795979587950A94D2F719
:102D90008093970190939801A0939901B0939A0121
:102DA00085819681A781B085022E04C0B695A7952E
:102DB000979587950A94D2F780939B0190939C01F5
:102DC000A0939D01B0939E0181859285A385B485D2
:102DD00004C0B695A795979587952A95D2F78093C5
:102DE0009F019093A001A093A101B093A2010E9422
:102DF000C62C109295018091870190918801A09135
:102E00008901B0918A014091970150919801609198
:102E1000990170919A01840F951FA61FB71F809387
:102E2000870190938801A0938901B0938A01E09172
:102E3000A601F091A70145855685678570894817D9
:102E400059076A077B0728F524E020939501841B26
:102E5000950BA60BB70B8093870190938801A093E5
:102E60008901B0938A0180918D0590918E05A09182
:102E70008F05B0919005208125FFE5C00197A1093C
:102E8000B10980938D0590938E05A0938F05B09323
:102E9000900580918B0190918C01A0918D01B09152
:102EA0008E0100919B0110919C0120919D01309118
:102EB0009E01800F911FA21FB31F80938B019093DF
:102EC0008C01A0938D01B0938E01481759076A07B2
:102ED0007B0738F520919501286020939501841B8C
:102EE000950BA60BB70B80938B0190938C01A0934D
:102EF0008D01B0938E018091910590919205A091E2
:102F00009305B0919405208126FFA1C00197A109E6
:102F1000B1098093910590939205A0939305B09386
:102F2000940580918F0190919001A0919101B091B1
:102F3000920100919F011091A0012091A101309177
:102F4000A201800F911FA21FB31F80938F01909346
:102F50009001A0939101B0939201481759076A0715
:102F60007B0738F520919501206120939501841B02
:102F7000950BA60BB70B80938F0190939001A093B4
:102F80009101B09392018091950590919605A09141
:102F90009705B0919805208127FF5DC00197A10991
:102FA000B1098093950590939605A0939705B093EA
:102FB000980580918A05843039F480918C05909130
:102FC00095018923809395018091A3019091A4019B
:102FD00001979093A4018093A301892B69F4109227
:102FE000A9011092A801809186018F5F80938601CC
:102FF000863011F4109286018091950190918301A1
:10300000892780939501109281010AC00E94F115D1
:103010009FB7F89480918B05846080938B059FBF48
:10302000FF91EF91BF91AF919F918F917F916F91A0
:103030005F914F913F912F911F910F910F900FBE74
:103040000F901F9018950196A11DB11D1ACF0196E2
:10305000A11DB11D5ECF0196A11DB11DA2CF1F9272
:103060000F920FB60F9211248F939F939BB1809173
:1030700083018C71937E892B8BB915BC9F918F91A5
:103080000F900FBE0F901F9018950F931F93CF9323
:10309000DF931092830110928201D0E0C0E01C2FD8
:1030A0000C2F80910D0790E00C2E02C0959587950E
:1030B0000A94E2F780FF08C0812F0E94C0229091FD
:1030C0008301892B8093830180910E0790E002C0D9
:1030D000959587950A95E2F780FF08C0812F0E9499
:1030E000CA2290918201892B809382012196C3305C
:1030F000D105A9F6DF91CF911F910F9108950E94FC
:10310000F115E4E5F1E08BE2DF011D928A95E9F724
:10311000E7E8F1E083E2DF011D928A95E9F710927A
:10312000800110927F01109286011092850181E04A
:1031300080938401109281010E9445188BB1837E97
:1031400090918301892B8BB98BB18F719091820102
:10315000892B8BB908958AB18C618AB9209A8AB17A
:10316000806E8AB9E1E8F0E080818F7E8083808183
:1031700088608083E0E8F0E080818C7F80838081BC
:103180008F708083EEE6F0E08081887F808314BCBE
:1031900015BC8081816080830895CF93DF93C091B7
:1031A0007F01D09180012097B9F081E08093550193
:1031B00060916B0170916C0180916D0190916E0135
:1031C0009B01AC010E943B376E8B7F8B888F998F60
:1031D0001092800110927F01DF91CF9108952F927C
:1031E0003F924F925F926F927F928F929F92AF9297
:1031F000BF92CF92DF92EF92FF920F931F93CF93E4
:10320000DF93CDB7DEB7E6970FB6F894DEBF0FBEFB
:10321000CDBF9091860180918401981709F49FC4D5
:1032200080917F0190918001892B09F07DC00E94DF
:103230004B24FC019093800180937F01892B09F43A
:103240008EC480915501882309F46EC110925501F6
:1032500010926701109268011092690110926A0140
:1032600020917F01309180013A832983D90196967C
:10327000CD90DD90ED90FC909997A701960160E0CC
:1032800070E080E09FE30E94E3344B015C01E98140
:10329000FA8142A453A464A475A480918A05803263
:1032A00009F036C2F2E0F0936601A981BA81569620
:1032B0002D913D914D915C91599729833A834B8390
:1032C0005C83A501940169817A818B819C810E9434
:1032D0003B379B01AC01C301B2010E94E3334B01B8
:1032E0005C0120E030E0A9010E94D93487FFFFC1D2
:1032F000A7019601C701B6010E94E433A301920120
:103300000E943B379B01AC0169817A818B819C8152
:103310000E94E3330E94DA37609373017093740163
:10332000809375019093760180918501282F30E07C
:103330003A87298746E0429FF001439FF00D112410
:10334000E655FE4F80915401828380917F019091D8
:1033500080019E878D87DC019A96BC91BCA7FC01F9
:10336000F3A5FDA7DC019C96BC91BEA7FC01F5A5C9
:10337000FFA720915E0130915F0140916001509163
:1033800061016CA57DA58B2F9F2F0E94E33368A759
:1033900079A78AA79BA720E030E0A9010E94D93431
:1033A00087FF04C018A619A61AA61BA620916F01B4
:1033B0002C8F309170013D8F409171014E8F509153
:1033C00072015F8F80917B0188A390917C0199A30A
:1033D000A0917D01AAA3B0917E01BBA3E0917701EA
:1033E000E88FF0917801F98F209179012A8F30913F
:1033F0007A013B8F409166014F87509167015CA332
:10340000809168018DA3909169019EA3A0916A01AA
:10341000AFA32091730130917401409175015091D7
:10342000760129AB3AAB4BAB5CAB30906B01209093
:103430006C0130916D01398340916E014D8328A15B
:1034400039A14AA15B2FBF018A8D9B8D0E94D9347F
:10345000811170C252E058AB9CA59C8BADA5AD8B81
:10346000BEA5BE8BEFA5EF8B8EE3C82E83ECD82EC6
:103470008EE2E82E89E3F82E188A198A1A8A1B8AA6
:10348000260137013F85332309F45EC2313009F448
:103490008CC3AD85BE8596962D913D914D915C91E5
:1034A0009997C701B6010E943B374B015C01AC0103
:1034B0009B01632D722D89819D810E94FB36181618
:1034C0000CF0ACC320E030E040E05FE3C501B401A4
:1034D0000E943B379B01AC01632D722D89819D8138
:1034E0000E94E333A70196010E943B379B01AC0188
:1034F0006C897D898E899F890E94E3338B018EAB15
:103500009DAB9B01AC016CA17DA18EA19FA10E94EE
:10351000D93487FF83C3A5019401632D722D89815E
:103520009D810E94E3333CC3809154018F5F8530BD
:1035300009F4C9C0809354012091540153E1529F72
:10354000A00111248A0102531E4F8581D8018C935A
:1035500086819781A085B185AC01BD0193E0440FC0
:10356000551F661F771F9A95D1F7D80111964D9375
:103570005D936D937C93149782859385A485B5851F
:10358000AC01BD0123E0440F551F661F771F2A952C
:10359000D1F7D80115964D935D936D937C93189751
:1035A00086859785A089B189AC01BD0133E0440FC0
:1035B000551F661F771F3A95D1F7D80119964D937D
:1035C0005D936D937C931C9782899389A489B589B7
:1035D000AC01BD01A3E0440F551F661F771FAA95DC
:1035E000D1F7D8011D964D935D936D937C935097C1
:1035F000848152968C9360817181828193810E9433
:103600004D13F801818B20917F01309180013A8325
:103610002983D90152966D917D918D919C915597F9
:103620000E948B3560935601709357018093580127
:1036300090935901E981FA8122A533A544A555A5A6
:103640000E94E3349B01AC0120935A0130935B014B
:1036500040935C0150935D0160E070E080EA9FE37D
:103660000E94E33460935E0170935F018093600178
:1036700090936101109262011092630110926401B3
:103680001092650180918A05803201F56091730185
:1036900070917401809175019091760160936B0136
:1036A00070936C0180936D0190936E019B01AC014E
:1036B0000E943B37A981BA8156966D937D938D9375
:1036C0009C935997C5CD1092540136CFE981FA8168
:1036D00066897789808D918D0E94DA3760936B01BE
:1036E00070936C0180936D0190936E01B1CD8092C7
:1036F000670190926801A0926901B0926A011092EC
:1037000073011092740110927501109276010CCE23
:10371000109266014092770150927801609279018F
:1037200070927A010E945B242B013C01409273014C
:10373000509274016092750170927601AC019B0108
:103740000E943B376D837E838F839887E0917F0152
:10375000F0918001FE87ED8722A533A544A555A5EC
:1037600029873A874B875C8726893789408D518D19
:1037700029833A834B835C839B01AC0169817A8105
:103780008B819C810E94E333A50194010E943B3709
:1037900029853A854B855C850E94E43320E030E042
:1037A00040E05FE30E943B376B017C0120E030E0AA
:1037B000A9010E94FB3618160CF0ABC0A7019601B8
:1037C00069857A858B859C850E94FB3618160CF0DE
:1037D0008CC0ED85FE8542A053A064A075A02D810C
:1037E0003E814F815885C301B2010E94E333A50198
:1037F00094010E943B3760937B0170937C0180931E
:103800007D0190937E01A70196010E94D93487FF24
:103810003BC0C301B2010E94DA3760936F0170931D
:1038200070018093710190937201A30192016981EB
:103830007A818B819C810E94D934811104C0F1E08E
:10384000F093660171CD29813A814B815C81C3017E
:10385000B2010E94E333A50194010E943B379B0112
:10386000AC0160917701709178018091790190911C
:103870007A010E94E333609377017093780180931B
:10388000790190937A0150CDC0927701D09278015E
:10389000E0927901F0927A01C0927B01D0927C0192
:1038A000E0927D01F0927E01AD85BE8596966D9188
:1038B0007D918D919C9199979B01AC010E94E4337D
:1038C000A70196010E943B372D813E814F8158858B
:1038D0000E94E4330E94DA3760936F0170937001A5
:1038E00080937101909372011FCD80916B01909133
:1038F0006C01A0916D01B0916E01E2E0E093660170
:1039000080936F0190937001A0937101B093720145
:103910000BCD1092770110927801109279011092DC
:103920007A0140926F015092700160927101709221
:103930007201FACC81E088AB8FCD0C8B1D8BFEA978
:10394000FE8B2DA92F8B9ECDAD85BE8596962D9194
:103950003D914D915C919997C701B6010E943B370B
:103960004B015C0120E030E040E05FE30E943B3728
:10397000232D322D49815D810E94E433A7019601F8
:103980000E943B379B01AC016C897D898E899F89A0
:103990000E94E3338B018EAB9DAB9B01AC01688D24
:1039A000798D8A8D9B8D0E94FB3618160CF0F0C025
:1039B000288D398D4A8D5B8D6CA57DA58EA59FA523
:1039C0000E94E3339B01AC010E94E4336B017C0154
:1039D0002C8D3D8D4E8D5F8D632D722D89819D8146
:1039E0000E94E4339B01AC01C701B6010E94E3349D
:1039F0006B017C013C8C2D8CBE8DB983EF8DED83EA
:103A0000F8A9FF87088D198D2A8D2EAB3B8D3DAB14
:103A1000A7019601688979898A899B890E94E43384
:103A2000688B798B8A8B9B8B9B01AC01C301B201A4
:103A30000E94FB3618160CF01AC1288939894A8968
:103A40005B89C301B2010E94E3336B017C019801E1
:103A50004EA95DA96CA17DA18EA19FA10E94D93420
:103A600087FD6BCFFF85F0936601832D922DA98191
:103A7000BD8180936B0190936C01A0936D01B09315
:103A80006E0140905A0150905B0160905C01709013
:103A90005D0198014EA95DA9C301B2010E943B37A7
:103AA00069837A838B839C830E94C2346B017C017F
:103AB0006091560170915701809158019091590180
:103AC0000E94C2344B015C01A70196010E94E333BE
:103AD0000E945C356D837E838F83988786E049855D
:103AE0005A85849FF001859FF00D1124E655FE4F05
:103AF000AD81BE81B183A083AB2B09F0D2C0809190
:103B00008A05803209F0CDC010926B0110926C01D1
:103B100010926D0110926E01109262011092630179
:103B20001092640110926501C0925601D092570123
:103B3000E0925801F0925901A3019201C701B60128
:103B40000E94E334AD85BE859A966D937D938D93E7
:103B50009C939D970E94B32788E080938A05E69600
:103B60000FB6F894DEBF0FBECDBFDF91CF911F918E
:103B70000F91FF90EF90DF90CF90BF90AF909F900C
:103B80008F907F906F905F904F903F902F9008950F
:103B9000A5019401632D722D89819D810E94E433DA
:103BA000362E272E89839D8333CFA70196016C8DF6
:103BB0007D8D8E8D9F8D0E943B379B01AC016C8962
:103BC0007D898E899F890E94E3338B018EAB9DABEB
:103BD0009B01AC0168A179A18AA19BA10E94FB363F
:103BE00018160CF015CF28A139A14AA15BA16C8948
:103BF0007D898E899F890E94E3332C8D3D8D4E8D6A
:103C00005F8D0E94E3346B017C0108A119A14AA1D8
:103C10004EAB5BA15DAB82E08F87FACE2CA13DA1BC
:103C20004EA15FA16C897D898E899F890E94E333B3
:103C30009B01AC010E94E4336B017C0129A93AA9E4
:103C40004BA95CA9632D722D89819D810E94E4336B
:103C50009B01AC01C701B6010E94E3346B017C01FA
:103C60000CA11DA1BEA1BEABEFA1EDABD1CE28A58D
:103C700039A54AA55BA5B8018EA99DA90E94FB366E
:103C800018165CF42EE333EC4EE259E3C301B201A3
:103C90000E94E4332B013C01D0CE2F852093660196
:103CA000E4CE209162013091630140916401509112
:103CB0006501688979898A899B890E94E4332B018F
:103CC0003C0129813A814B815C81C501B4010E948C
:103CD000E3339B01AC01C301B2010E94E3344B0109
:103CE0005C0129813A814B815C81C701B6010E9448
:103CF000E333A50194010E943B3760936201709306
:103D00006301809364019093650120EC31EE44E6F9
:103D10005EE4C501B4010E943B370E94C2340E9498
:103D20005C35603DB7E07B078105910508F048C030
:103D300046E029853A85429FF001439FF00D11240A
:103D4000E655FE4F158246E029853A85429FF001EF
:103D5000439FF00D1124E655FE4F748363838091D9
:103D60008401809385018F5F863009F482C080933F
:103D7000840198014EA95DA9609167017091680165
:103D80008091690190916A010E94D93487FF74C0C3
:103D9000E0917F01F0918001C801AEA9BDA982A781
:103DA00093A7A4A7B5A729813A814B815C81209371
:103DB000560130935701409358015093590129CA35
:103DC000603A5FE0750781059105A0F526E0A985B9
:103DD000BA852A9FF0012B9FF00D1124E655FE4F66
:103DE00031E0358346E029853A85429FF001439FC3
:103DF000F00D1124E655FE4F2581022E04C0969544
:103E00008795779567950A94D2F7AD81BE8102C0F8
:103E1000AA0FBB1F2A95E2F7B183A0836115710534
:103E2000B1E08B07910508F48ECF8FEF9FEF94835D
:103E3000838395CF60344FE174078105910560F469
:103E400026E0A985BA852A9FF0012B9FF00D112449
:103E5000E655FE4F32E0C5CFA6E049855A85A49FBE
:103E6000F001A59FF00D1124E655FE4FB3E0B58398
:103E7000B9CF109284017DCF20E030E0A901B801D4
:103E80008EA99DA90E94FB3618166CF510926B0145
:103E900010926C0110926D0110926E0110926201ED
:103EA000109263011092640110926501C092560154
:103EB000D0925701E0925801F092590140917F0150
:103EC000509180015A83498320915A0130915B01BE
:103ED00040915C0150915D01C701B6010E94E3343D
:103EE000A981BA8131CE1092800110927F010E9487
:103EF00037248FC9F999FECF92BD81BD81E08FBB78
:103F000080B50895F894F999FECF92BD81BD81E006
:103F10008FBB20B5862F8227082E000C990B50E00E
:103F200086239523892B49F084E16F3F11F060BD12
:103F300084E08FBBF99A789408952617E1F360BD69
:103F400084E2F7CF9F92AF92BF92CF92DF92EF922F
:103F5000FF920F931F93CF93DF935C018A017B0144
:103F6000E40EF51EEB01912C6C01C61AD70ACE01A6
:103F70008C0D9D1DCE15DF0589F4692DC501800FBF
:103F8000911FDF91CF911F910F91FF90EF90DF90E4
:103F9000CF90BF90AF909F900C94821F21E0911022
:103FA00007C0292D990C330B232F221F2227221FF4
:103FB0006991962E920E0E94821FD9CF9F92AF9246
:103FC000BF92CF92DF92EF92FF920F931F93CF9306
:103FD000DF935B018A017C01E40EF51EEC01912C5C
:103FE0006B01C81AD90AC6018C0F9D1FCE15DF05BB
:103FF000C1F4C501800F911F0E947A1F21E030E0BB
:10400000891511F030E020E0C901DF91CF911F91B7
:104010000F91FF90EF90DF90CF90BF90AF909F9067
:1040200008950E947A1F21E0911007C0292D990C54
:10403000330B232F221F2227221F982E920E8993A3
:10404000D2CF21E5829FC001112440E550E09D5F61
:104050000C94A21F40E550E0BC018EEA93E00C9462
:10406000A21F2DE0829FC00111244CE050E09E5F12
:104070000C94A21F69E090E080E00E94821F4EE451
:1040800050E06CED76E081E090E00C94A21FECED46
:10409000F6E08AE080AB8FEF83AB11AA82E082ABBF
:1040A0008FE184AB8AE097EDA3EABCE385AB96ABE6
:1040B000A7ABB0AF8FE692E1A3E0BBE381AF92AFD5
:1040C000A3AFB4AF17AE80E090E0A8ECB1E480936A
:1040D0001C0790931D07A0931E07B0931F0780E055
:1040E00090E0AAEFB4E48093200790932107A09377
:1040F0002207B093230784E690E0909325078093EE
:10410000240780E090E0A0E8BFE380932607909327
:104110002707A0932807B093290782E391E096AF81
:1041200085AF80E090E0A8ECB2E480839183A28325
:10413000B38384839583A683B78380879187A2877F
:10414000B38780E090E4ACE9B5E484879587A687DF
:10415000B787808B918BA28BB38B848B958BA68B2F
:10416000B78B80E09FECA9E1BAE4808F918FA28F9A
:10417000B38F848F958FA68FB78F80E098ECAFEACE
:10418000B8E480A391A3A2A3B3A386E696ECA0E033
:10419000B4EC84A395A3A6A3B7A38DEC9CE8A3ECF1
:1041A000B3EC80A791A7A2A7B3A780E090E0A0E21C
:1041B000B2EC84A795A7A6A7B7A70C943A201F93A3
:1041C000CF93DF93182FEB0181E5189FB0011124E5
:1041D0007D5F40E550E0CE010E94DE1F892B51F447
:1041E0001882BE01812F0E94212080E0DF91CF91B3
:1041F0001F91089581E0FACFCF93DF93EC0140E562
:1042000050E06EEA73E00E94DE1F892B21F41882D1
:10421000CE010E942A2081E0DF91CF9108951F9363
:10422000CF93DF93182FEB018DE0189FB00111247D
:104230007E5F4CE050E0CE010E94DE1F892B71F4BE
:104240008CE0FE0111928A95E9F7BE01812F0E9450
:10425000312080E0DF91CF911F91089581E0FACF66
:1042600090E080E00E947A1F893059F44EE450E0DB
:1042700061E070E08CED96E00E94DE1F21E0892B6A
:1042800009F420E0822F0895CF92DF92EF92FF92FF
:10429000CF93DF93C82F6A017B0120E030E0A901B2
:1042A000CB01B6010E94D93487FD35C1C43608F46C
:1042B0004AC0C45620E0C330E8F58C2F90E0880F48
:1042C000991F880F991F223079F0FC01233059F192
:1042D000213039F0E452F94FC082D182E282F38278
:1042E00018C0E851F94FF8CFEC01CC50D94F20E07D
:1042F00030E040E752E4C701B6010E943B3720E0BE
:1043000030E040E752E40E943B37688379838A8338
:104310009B830E943A2080E0DF91CF91FF90EF9045
:10432000DF90CF900895E050F94FF7FAF094F7F846
:10433000F094D2CF2F5FCA3008F4EFC0243009F4D4
:10434000ECC0CA50B8CFC701B6010E941E380E9407
:104350005C35C93208F0E1C0EC2FF0E0EE54FE4DC0
:104360000C947238DB21E221E521EA21ED21FB21C9
:1043700005228D228D228D220F2211221A22232224
:104380002D228D228D228D228D228D2237224322B5
:1043900053225D2260226922722278228D228D2290
:1043A0008D228D228D228D228D228D228D228D2295
:1043B0008D228D22812286E0633008F4ADCF609398
:1043C0000C07A7CF60930F07A4CF60930D070E943F
:1043D00045189FCF60930E07FACF809119079091EF
:1043E0001A07662331F0846090931A0780931907A7
:1043F00090CF8B7FF9CF8091190790911A07662390
:1044000011F08064F1CF8F7BEFCF809119079091ED
:104410001A07662311F08068E7CF8F77E5CF6093A6
:104420001007C0921107D0921207E0921307F09282
:1044300014076FCFC0921507D0921607E0921707A6
:10444000F092180766CF8091190790911A0766239A
:1044500011F08160C9CF8E7FC7CF809119079091ED
:104460001A07662311F08260BFCF8D7FBDCF809188
:10447000190790911A07662321F084FF50C08062CB
:10448000B3CF8F7DB1CF8091190790911A07662322
:1044900041F0886090931A07809319070E94A8281A
:1044A00038CF877FF7CF8091190790911A0766233D
:1044B00011F0806199CF8F7C97CF60931B0729CF34
:1044C000C0921C07D0921D07E0921E07F0921F07B2
:1044D00020CFC0922007D0922107E0922207F092CD
:1044E000230717CF70E0709325076093240711CF3F
:1044F000C0922607D0922707E0922807F09229075A
:1045000008CF8091190790911A07662311F09160E6
:104510006BCF9E7F69CF84E0FFCE83E0FDCE8AE043
:10452000FBCE1F93CF93DF93CDB7DEB72C970FB69B
:10453000F894DEBF0FBECDBF0E943021811107C0AD
:1045400087E00E943D2D0E9447200E94922D10E09E
:10455000BE016F5F7F4F812F0E940F21811103C029
:1045600087E00E943D2D1F5F183091F72C960FB603
:10457000F894DEBF0FBECDBFDF91CF911F9108959C
:10458000882321F0813021F080E1089584E00895AE
:1045900088E00895882321F0813021F080E8089593
:1045A00080E2089580E40895882321F0813021F08D
:1045B00080E1089582E0089584E008952F923F926B
:1045C0004F925F926F927F928F929F92AF92BF9223
:1045D000CF92DF92EF92FF920F931F93CF93DF93CF
:1045E00000914B02011101C002E1015010914902FA
:1045F000101709F4BAC0E02EF12C2EE2029FE00160
:104600001124C35BDD4F8A8C9B8CAC8CBD8C6EA15E
:104610007FA188A599A59B01AC010E94E4332AA53E
:104620003BA54CA55DA50E943B376B01D82FC92F38
:104630009B01482F592FB401C5010E94D93487FF2F
:1046400003C06401DA2DCB2D8EE28E9DF0018F9D8B
:10465000F00D1124E35BFD4FC601AD2FBC2F868BFF
:10466000978BA08FB18FC02F011101C0C2E1C15043
:104670001C1709F45FC03EE2039F80011124035B15
:104680001D4FDEE2809149028C1709F459C0EC2ECF
:10469000F12CCD9FC0011124FC01E35BFD4F6F01A4
:1046A000C11101C0C2E1C15080914C028C1302C003
:1046B0000E94CD18DE9DC001DF9D900D11249C014C
:1046C000235B3D4F7901F901828C938CA48CB58CCE
:1046D000A501940166897789808D918D0E94D934D6
:1046E000882331F1F70166A177A180A591A59B01EF
:1046F000AC010E94E433F70122A533A544A555A5DA
:104700000E943B37F80126893789408D518D0E94E0
:10471000E4332B013C01AC019B01C501B4010E94B3
:10472000FB36F7011816A4F5468A578A608E718EFB
:104730008601A8CF80914C02811302C00E94CD183F
:10474000D0914902FEE2DF9F80011124035B1D4FDF
:10475000C1E0CD0FC23109F4C0E020904B028EE2DF
:10476000382E2C121AC0D0934902DF91CF911F919D
:104770000F91FF90EF90DF90CF90BF90AF909F9000
:104780008F907F906F905F904F903F902F90089503
:10479000868A978AA08EB18ECBCFCC2ED12CC39D8A
:1047A000C00111249C01235B3D4F7901F80146882B
:1047B0005788608C718CF90186889788A08CB18CA1
:1047C000A5019401C301B2010E94D93487FF24C01E
:1047D000F80166A177A180A591A59B01AC010E947B
:1047E000E433F80122A533A544A555A50E943B3723
:1047F000A30192010E94E4332B013C01AC019B0117
:10480000C501B4010E94FB36181634F4F701468A3C
:10481000578A608E718EDC2F3C9CF0013D9CF00D20
:104820001124E35BFD4F228D338D448D558D6689B8
:104830007789808D918D0E94D934811101C0DC2F40
:10484000CF5FC23109F4C0E087018BCFEDE2F2E027
:104850008CE1DF011D928A95E9F710924C021092CB
:104860004B0281E080934A02109249020895909190
:104870004C0280914B02891769F081E0890F8231E7
:1048800009F480E020914902921302C0809349020A
:1048900080934C02089580914C0290914B0298179E
:1048A00039F02EE2829FC0011124835B9D4F089551
:1048B00090E080E00895E0914C02EF5FE23109F46E
:1048C000E0E080914B028E1761F08EE2E89FF001EC
:1048D0001124E35BFD4F66897789808D918D0C945F
:1048E000DA3760E070E0CB01089581E020914C025E
:1048F00090914A02291380E008952F923F924F929F
:104900005F926F927F928F929F92AF92BF92CF925F
:10491000DF92EF92FF920F931F93CF93DF93CDB768
:10492000DEB7E5970FB6F894DEBF0FBECDBF498F57
:104930005A8F6B8F7C8F2DAB20914B02422F50E012
:1049400058A34F8F5EE2259F90011124F901E35B8C
:10495000FD4FE082F18202831383C482128A138A9C
:10496000148A158A12A613A614A615A6158249E95B
:1049700056E766E97EE746A357A360A771A76C01D7
:104980008CED96E09CA38BA3AE01435F5F4F5EA3CB
:104990004DA38DE292E09CA78BA7A9014D5A5D4FD4
:1049A0005EA74DA7CE0101969AA389A398AB8FA7C6
:1049B0002DE232E038A72FA34CED56E05E8F4D8FED
:1049C000F12C8F01CF0142969AAB89AB3596FCABA7
:1049D000EBAB1801FAE22F0E311CF60161917191D7
:1049E000819191916F01ED8DFE8D81909190A190BB
:1049F000B190FE8FED8FA50194010E943B370E947C
:104A00000837EDA1FEA16193719381939193FEA369
:104A1000EDA3EFA1F8A54190519061907190F8A796
:104A2000EFA364197509860997092B013C0197FFCB
:104A300007C0442455243201461A570A680A790AE5
:104A4000EDA5FEA54192519261927192FEA7EDA74C
:104A5000E9A9FAA9208131814281538124153505C4
:104A60004605570510F4A3019201E9A9FAA920838C
:104A70003183428353830E948D35A50194010E94A6
:104A8000E3344B015C01EFA5F8A981929192A192C8
:104A9000B192F8ABEFA720E030E0A9010E94D93431
:104AA00087FF08C08F2D0E94CA22EBA9FCA9908124
:104AB000892B8083A5019401C501B4010E943B3775
:104AC000F10120813181428153810E94E433F1015F
:104AD0006083718382839383F394F3E0FF127DCF2D
:104AE0000E94DA374B015C01F10180829182A2823F
:104AF000B382F80182899389A489B589892B8A2B8D
:104B00008B2B09F4EAC120E030E0A901698D7A8D90
:104B10008B8D9C8D0E94D93487FD7DC1FDA9FF231B
:104B200061F0298D3A8D4B8D5C8DC501B4010E94D9
:104B3000E334698F7A8F8B8F9C8F20E030E040E8E0
:104B40005FE3698D7A8D8B8D9C8D0E94D93487FFB0
:104B500006C0198E1A8E20E82B8F3FE33C8FA501EB
:104B6000940160E070E080E89FE30E94E3346FA36B
:104B700078A789A79AA7E9A1FAA13C96FEA3EDA37D
:104B8000812C912C54012EE24F8D58A1249FC001FD
:104B9000259F900D1124FC01ED58FD4FFE8FED8FE8
:104BA000E9A1FAA1C190D190E190F190FAA3E9A313
:104BB00020E030E0A901C701B6010E94D934882362
:104BC00009F46BC02FA138A549A55AA5C701B601A4
:104BD0000E943B372B013C01E9A1FAA134974082A6
:104BE000518262827382AC019B0160E070E080E8D8
:104BF0009FE30E94E3346B017C01E894F7F8EBA19A
:104C0000FCA12485358546855785C701B6010E94DC
:104C10003B371B018C01298D3A8D4B8D5C8D0E9499
:104C2000FB36181624F0298E3A8E0B8F1C8FED8DD3
:104C3000FE8D2080318002811381EBA1FCA1208DAB
:104C4000318D428D538DC701B6010E943B376B01F8
:104C50007C019B01AC01B101C8010E94D93487FDE0
:104C600002C016018701C101D801ED8DFE8D808340
:104C70009183A283B383EBA5FCA524853585468566
:104C80005785C301B2010E943B379B01AC01C501AE
:104C9000B4010E94E3334B015C012BA53CA52C5FC2
:104CA0003F4F3CA72BA74BA15CA14C5F5F4F5CA380
:104CB0004BA38DA19EA1E9A1FAA18E179F0709F030
:104CC0006FCF90914B0280914C029813ADC08EE251
:104CD0002F8D38A1829FF001839FF00D1124E35B9B
:104CE000FD4F168A178A108E118E168E178E10A2FF
:104CF00011A2298D3A8D4B8D5C8D698D7A8D8B8DAE
:104D00009C8D0E943B377B018C018EE24F8D58A118
:104D1000849FF001859FF00D1124E35BFD4FC701D7
:104D2000D80182A393A3A4A3B5A3A68CB78CC0A0DB
:104D300081A0609045027090460290904702D0900A
:104D400048029301492D5D2DB701C8010E94D93455
:104D500087FF03C03701902ED12E9301492D5D2D81
:104D6000B5018C2D982D0E94D93487FD03C05301C5
:104D7000C92C8D2C8EE22F8D38A1829FF001839F4C
:104D8000F00D1124E35BFD4FC501AC2DB82D828FD2
:104D9000938FA48FB58F8CE0FE013196A9E3B2E02A
:104DA00001900D928A95E1F7C701D80180934502E1
:104DB00090934602A0934702B09348028CE0FE0114
:104DC0003D96ADE2B2E001900D928A95E1F78091B7
:104DD0004A0280934B028F5F823109F480E0809316
:104DE0004A02E5960FB6F894DEBF0FBECDBFDF9145
:104DF000CF911F910F91FF90EF90DF90CF90BF90D8
:104E0000AF909F908F907F906F905F904F903F906A
:104E10002F900C94DE2249E9498F56E75A8F86E994
:104E20008B8F9EE79C8F9BCEA501940160E070E084
:104E300080E89FE30E94E33320E030E040E05FE35E
:104E40000E943B370E94DA376B017C018EE24F8D66
:104E500058A1849FF001859FF00D1124E35BFD4F65
:104E600020911107309112074091130750911407B8
:104E700066A177A180A591A50E943B37A701960165
:104E80000E943B374B015C01A701960160E070E096
:104E900080E89FE30E94E3339B01AC01C501B401AC
:104EA0000E94E3346B017C0120E030E0A9010E9404
:104EB000D93487FF03C0C12CD12C76018EE22F8D0F
:104EC00038A1829FF001839FF00D1124E35BFD4F19
:104ED000C68ED78EE0A2F1A20CCFE5960FB6F8945D
:104EE000DEBF0FBECDBFDF91CF911F910F91FF901D
:104EF000EF90DF90CF90BF90AF909F908F907F907A
:104F00006F905F904F903F902F900895EDE2F2E008
:104F1000A9E8B5E014964D915D916D917C9117973C
:104F2000408351836283738318964D915D916D9197
:104F30007C911B9744835583668377831C968D9160
:104F40009D910D90BC91A02D80879187A287B387FA
:104F5000089580914B0290914C02891710F0891BA3
:104F600008958E5EFCCF0E94CD1880914C028093F4
:104F700049020C94DE224F925F926F927F92AF9221
:104F8000BF92CF92DF92EF92FF920F931F93CF9336
:104F9000DF936C017B015A01DB01EC91E80FF92FE3
:104FA000F11D8081EF018D3229F52296818101E08A
:104FB000512CF0E010E020E030E0A9013E01E0EDEE
:104FC000E80FEA3018F5FF5FF930E0F451101150A6
:104FD000A5E0B0E00E9478389B01AC01220F331F9E
:104FE000441F551F2E0F311D411D511D2196D30108
:104FF0008C91E4CF8B3219F0219600E0D9CF229624
:105000008181FBCF5110F2CF1F5FF0CFEE3F29F42B
:10501000511003C055245394E9CFFF23F9F0CA017E
:10502000B9010E948B352B013C0120E030E0A90141
:105030000E94D93481112DC0002309F447C077FAAA
:10504000709477F87094F501408251826282738285
:10505000CC19DD09C150F701C083F1E08F2FDF913A
:10506000CF911F910F91FF90EF90DF90CF90BF9065
:10507000AF907F906F905F904F9008952AE037ED4A
:1050800043E25CE3C301B2010E943B372B013C01C8
:105090001E5F1F3F9CF31F3F59F42DEC3CEC4CEC82
:1050A0005DE3C301B2010E943B372B013C01C4CF39
:1050B000112311F220E030E040E251E4C301B201DB
:1050C0000E943B372B013C011150F2CFD5014D928C
:1050D0005D926D927C921397BBCF019708F408956F
:1050E000EFE9FFE03197F1F700C00000F6CF8F92B3
:1050F0009F92AF92BF92CF92DF92EF92FF9269019F
:105100007A019B01AC010E943B374B015C01A70176
:105110009601C701B6010E943B379B01AC01C50156
:10512000B4010E94E433FF90EF90DF90CF90BF90E6
:10513000AF909F908F900C94DA37EBE6F0E080818F
:10514000897E8083E8E6F0E080818E7F8083089509
:1051500084B1897E84B99091190785B196FF0FC0FB
:10516000897E85B993FF0DC080916B008661809325
:105170006B0080916800816080936800089586616B
:10518000F0CF0C949D281F920F920FB60F9211240E
:105190002F933F934F935F936F937F938F939F933F
:1051A000AF93BF93EF93FF9380918A05813071F0A5
:1051B00080918B0585FD0AC00E94B2089FB7F894C4
:1051C00080918B05806680938B059FBFFF91EF9147
:1051D000BF91AF919F918F917F916F915F914F910F
:1051E0003F912F910F900FBE0F901F9018952F9207
:1051F0003F924F925F926F927F928F929F92AF9267
:10520000BF92CF92DF92EF92FF920F931F93CF93B3
:10521000DF93CDB7DEB7A4970FB6F894DEBF0FBE0D
:10522000CDBF282E809189058111FAC0E09020071A
:10523000F09021070091220710912307EB8AFC8A46
:105240000D8B1E8B30E0A32E37E0B32E8E01035F53
:105250001F4F68019E01205F3F4F790110E0312C04
:10526000812C912C00E0812F0E94D422D7018D93B4
:105270007D01812F0E94C022F60181936F01D5012B
:105280004D905D906D907D905D01232D382D492DC1
:10529000502FC301B2010E94D93487FF04C0342CBF
:1052A000852C962C072D1F5F1330E9F620E030E0A7
:1052B00040EC5FEB632D782D892D902F0E943B37BA
:1052C0004B015C010E94262426E0522EDD24D3945B
:1052D00044244394E22DF0E0FC8FEB8F9501840190
:1052E00030580D8F1E8F2F8F38A32DE030E02C0FFC
:1052F0003D1F2D5F3F4F388F2F8B809119076D2CED
:1053000086FDA7C0A0911B078A2F90E09CA38BA3CA
:10531000DE0111961D01FD01712C60E090E080E03E
:10532000A9A33AA2782F4B8D5C8D082E02C055950B
:1053300047950A94E2F79A012170332740FF90C005
:105340006F5FD11088C0ED8CFE8C0F8D18A1E082AC
:10535000F182028313834BA15CA102C0559547954E
:105360007A95E2F740FF0CC0E080F1800281138162
:1053700017FB109517F91095E082F18202831383D1
:10538000232B49F02DE030E02C0F3D1F280F391F53
:10539000D9012C91722A019634968330910511F629
:1053A00070E090E080E00E948B350E94DA377092C6
:1053B0008C052B893C894D895E890E943B37AB0166
:1053C000BC01C12CE12CF12C870120E0CE0101961B
:1053D0000E947D240E94EF180E94D01593B1662090
:1053E00011F0B6E19B27DE015096FE013D968191BA
:1053F000282F272129F02C91292311F0809578223C
:105400001196EF88F88CEE15FF0589F770928C05E0
:105410000E94EF1880918B0584FF27C00E94A6147C
:10542000A4960FB6F894DEBF0FBECDBFDF91CF912B
:105430001F910F91FF90EF90DF90CF90BF90AF90B2
:105440009F908F907F906F905F904F903F902F90A4
:105450000895642457CF80829182A282B3827BCF49
:10546000108211821282138276CF872D8C7109F0FF
:10547000B5CF0E947F180E94262480912407909126
:1054800025070E946D28E0901C07F0901D070091F1
:105490001E0710911F07EB8AFC8A0D8B1E8BD424EC
:1054A0005A9451102ACF80911B07082F10E01C8BB3
:1054B0000B8B8090260790902707A0902807B0902C
:1054C0002907D501C401B0588F8B988FA98FBA8F47
:1054D00089E8C82E85E0D82E9CEDE92E96E0F92EBD
:1054E00010E000E08B8D9C8D002E02C09595879575
:1054F0000A94E2F780FF72C08B899C89002E02C05B
:10550000959587950A94E2F780FF57C0D701949646
:105510004D905D906D907C909797A5019401C3018B
:10552000B2010E94E433F10160837183828393832B
:10553000D7012D913D914D915C91C301B2010E9423
:105540003B370E940837F60164837583868397830F
:105550000F5F1F4FF4E02F0E311C24E0C20ED11C50
:1055600034E0E30EF11C0330110509F0BBCF0E94BB
:105570008627409120075091210760912207709162
:105580002307C12CE12CF12C870120E089A19AA1ED
:105590000E947D2488E080938A059FB7F8948091CB
:1055A0008B05826080938B059FBF0E94A6140E948A
:1055B000B81584E080938A0533CF8F89988DA98DA3
:1055C000BA8DF10180839183A283B383D6011496AF
:1055D0001D921D921D921C921797BACFF6016481FD
:1055E0007581868197810E948D35D7012D913D91DE
:1055F0004D915C910E94E334F10160837183828359
:105600009383A6CFAF92BF92CF92DF92EF92FF9299
:105610000F931F93CF93DF93EC0100E017E05C0141
:105620008CE0A80EB11CC990D990E990F99020E0C7
:1056300030E0A901C701B6010E94FB36181664F0DC
:10564000F80121913191419151918F01C701B6012A
:105650000E94D93487FF33C080918A058031C9F414
:105660009FB7F89480918B05886080938B059FBFCE
:105670000E94A614809189058823D1F3DF91CF91F0
:105680001F910F91FF90EF90DF90CF90BF90AF9060
:1056900008950E94B2089FB7F89480918B058066A8
:1056A00080938B059FBFDF91CF911F910F91FF904A
:1056B000EF90DF90CF90BF90AF900C94A614CA15D6
:1056C000DB0509F0B0CFDACFCF93DF93EC018991FE
:1056D000811103C0DF91CF9108950E94F113F7CF9C
:1056E000CF93DF93EC01FE0184912196811103C0D9
:1056F000DF91CF9108950E94F113F5CFEF92FF92C1
:105700000F931F93CF93DF93CDB7DEB728970FB6D4
:10571000F894DEBF0FBECDBF9E012F5F3F4F7901D2
:10572000285F3F4FF701982F917091938695E2176C
:10573000F307C9F78F01F80182918F01805D0E9404
:10574000F1130E151F05B9F728960FB6F894DEBFB2
:105750000FBECDBFDF91CF911F910F91FF90EF90C2
:105760000895EF92FF920F931F93CF93DF9300D092
:105770001F92CDB7DEB781110CC080E30F900F9060
:105780000F90DF91CF911F910F91FF90EF900C94AC
:10579000F11300E09E012F5F3F4F79012AE0F701EE
:1057A000E00FF11D622F0E944438905D90830F5FDF
:1057B0008111F5CF0E0D1F2D111DE016F10651F4CC
:1057C0000F900F900F90DF91CF911F910F91FF904D
:1057D000EF900895F80182918F010E94F113EDCFAF
:1057E0008F929F92AF92BF92CF92DF92EF92FF92F1
:1057F0000F931F93CF93DF93CDB7DEB72A970FB6E2
:10580000F894DEBF0FBECDBF6B017C01142F20E0EA
:1058100030E0A9010E94D93487FF07C08DE20E94C1
:10582000F113F7FAF094F7F8F094012F023008F032
:1058300054C010FF0AC020E030E040E251E4C7014C
:10584000B6010E943B376B017C0120E030E040E074
:105850005FE3C701B6010E94E4330E9455359E0103
:105860002F5F3F4F7901F901E10FF11D2EE22083F7
:1058700000E02AE0822E912CA12CB12C611571053B
:1058800081059105B1F5F701E00FF11D80E30117E6
:1058900008F440C0011308C0E1E0E00FEE0DFF2D59
:1058A000F11D0E5F80E380830E0D1F2D111DE0168C
:1058B000F10699F52A960FB6F894DEBF0FBECDBF5C
:1058C000DF91CF911F910F91FF90EF90DF90CF90DC
:1058D000BF90AF909F908F90089520E030E048EC0B
:1058E00052E4C701B6010E943B376B017C010250B4
:1058F0009DCF011301C00F5F6701C00ED11CA50130
:1059000094010E945038605DF6016083B901CA01BC
:105910000F5FB4CF0F5F8193BACFF80182918F01EF
:105920000E94F113C4CF2091190743E020FF07C064
:105930002BE832E441E25DE30E943B3744E00C9403
:10594000F02B2091190740E020FF07C02BE832E43C
:1059500041E25DE30E943B3741E00C94F02B43E0D1
:105960000C94F02B3D988091190787FF04C045984F
:1059700010922A070895459A80E280932A07089595
:1059800086B1807290912A078927089580919A059F
:105990008130A1F40E94C02C882381F010929A05D6
:1059A0008CE0EDE8F5E0ABE9B5E001900D928A9569
:1059B000E1F780918B05886080938B050895CF93E4
:1059C000C82F85EB97E00E94702BEFEFEC0FE631CC
:1059D00008F04BC0F0E0E151F34D0C947238052D06
:1059E0000E2D112D142D172D1A2D1D2D202D232D8B
:1059F000262D292D352D352D352D352D352D352DB2
:105A0000352D352D2F2D2C2D322D8DE997E00E942F
:105A1000702B86EA96E0CF910C94702B8BE897E080
:105A2000F6CF89E797E0F3CF8FE697E0F0CF8EE5EA
:105A300097E0EDCF8FE497E0EACF8EE297E0E7CFF3
:105A400085E297E0E4CF8AE197E0E1CF87E097E055
:105A5000DECF89EF96E0DBCF83EE96E0D8CF8FECF8
:105A600096E0D5CF8BEB96E0D2CF89EA96E00E9404
:105A7000702B8C2F0E94B12BCCCF811104C08DEBE9
:105A800097E00C94702B0C94DF2CCF93C82F8EE9E9
:105A900096E00E94702BCE3FA1F0CF3F29F0CD3F82
:105AA00039F480E796E002C08EE896E00E94702B01
:105AB0008DE696E00E94702B84EF91E0CF910C94DC
:105AC0006D288BE796E0F2CFCF93C82F8BE696E058
:105AD0000E94702BC330C1F058F4C13091F085E4BE
