:100000000C944D040C946A040C946A040C943329E7
:100010000C947E320C946A040C946A040C946A0466
:100020000C946A040C946A040C946A040C94971659
:100030000C946A040C946A040C946A040C946A0488
:100040000C94BB180C946A040C9471140C94331423
:100050000C946A040C946A040C946A040C946A0468
:100060000C946A040C946A04A50B6D0D6D0DAF0B16
:10007000BC0BC90BD60B6D0DDA0B6D0DE80B6D0DBE
:10008000F20BFC0B2D0C6D0D6D0D6D0D060C130C94
:10009000200C0A121B124E121B1252126512581219
:1000A0005E122C223222352238223D224722512252
:1000B000E022E022E0225B225D2266226F2279228A
:1000C000E022E022E022E022E02283228F229F220F
:1000D000A922AC22B522BE22C422E022E022E022E4
:1000E000E022E022E022E022E022E022E022E02200
:1000F000E022CD22462D492D4E2D512D542D572D28
:100100005A2D5D2D602D632D662D722D722D722D51
:10011000722D722D722D722D722D6C2D692D6F2DF9
:10012000084AD73B3BCE016E84BCBFFDC12F3D6C5E
:1001300074319ABD56833DDA3D00C77F11BED9E4C4
:10014000BB4C3E916BAAAABE000000803F05A84CA4
:10015000CDB2D44EB93836A9020C50B99186880870
:100160003CA6AAAA2ABE000000803F003E0D0A005D
:100170006F66663A006F6E3A002C6C617365722090
:10018000007A00790078002C6C696D6974733A000C
:100190002C52583A002C4275663A002C002C5750CD
:1001A0006F733A002C002C4D506F733A003C43683B
:1001B00065636B003C416C61726D003C486F6D651E
:1001C000003C486F6C64003C52756E003C51756594
:1001D0007565003C49646C65005D0D0A005B302E5E
:1001E00039675F32303138313131365F613433371E
:1001F0003738313A000D0A003D00244E005D0D0AEB
:1002000000205300204600205400204D3800204D8F
:100210003900204D3500204D3400204D3300204D55
:100220003200204D3100204D30002047393400206D
:100230004739330020473931002047393000204703
:100240003230002047323100204731390020473119
:10025000380020473137002047005B473830005BCB
:100260004733005B4732005B4731005B4730005D3E
:100270000D0A005B544C4F3A005D0D0A002C005BE8
:100280004739323A005D0D0A002C003A0033300045
:100290003238005B47005D0D0A002C005B50524273
:1002A0003A00290D0A00206D61782074726176652C
:1002B0006C2C206D6D0020616363656C2C206D6D6E
:1002C0002F7365635E3200206D6178207261746502
:1002D0002C206D6D2F6D696E002C20737465702F4E
:1002E0006D6D007A00790078002028003D00240020
:1002F00020287475726E204C61736572206D6F6476
:1003000065206F6E2C20626F6F6C290D0A002434FB
:10031000303D002028686F6D696E672070756C6CC9
:100320002D6F66662C206D6D290D0A002028686FE0
:100330006D696E67206465626F756E63652C206DF4
:10034000736563290D0A2432373D002028686F6DDC
:10035000696E67207365656B2C206D6D2F6D696EFE
:10036000290D0A2432363D002028686F6D696E67BA
:1003700020666565642C206D6D2F6D696E290D0AF0
:100380002432353D00290D0A2432343D00202868EE
:100390006F6D696E672064697220696E766572742C
:1003A000206D61736B3A002028686F6D696E67205D
:1003B0006379636C652C20626F6F6C290D0A24329F
:1003C000333D00202868617264206C696D69747324
:1003D0002C20626F6F6C290D0A2432323D002028D8
:1003E000736F6674206C696D6974732C20626F6F13
:1003F0006C290D0A2432313D0020286175746F206C
:1004000073746172742C20626F6F6C290D0A243230
:10041000303D0020287265706F727420696E6368C9
:1004200065732C20626F6F6C290D0A2431343D00F6
:10043000202861726320746F6C6572616E63652C35
:10044000206D6D290D0A2431333D0020286A756E18
:100450006374696F6E20646576696174696F6E2C70
:10046000206D6D290D0A2431323D00290D0A2431F9
:10047000313D002028737461747573207265706F4C
:100480007274206D61736B3A00202870726F626520
:100490002070696E20696E766572742C20626F6FB1
:1004A0006C290D0A2431303D0020286C696D697477
:1004B0002070696E7320696E766572742C20626F8D
:1004C0006F6C290D0A24363D002028737465702056
:1004D000656E61626C6520696E766572742C20624F
:1004E0006F6F6C290D0A24353D00290D0A24343D17
:1004F00000202864697220706F727420696E7665BE
:100500007274206D61736B3A00290D0A24333D002B
:1005100020287374657020706F727420696E766520
:100520007274206D61736B3A0020287374657020BB
:1005300069646C652064656C61792C206D736563FA
:10054000290D0A24323D00202873746570207075CF
:100550006C73652C2075736563290D0A24313D0089
:1005600024303D0024242028766965772047726274
:100570006C2073657474696E6773290D0A242320D7
:100580002876696577202320706172616D657465D6
:100590007273290D0A2447202876696577207061D7
:1005A00072736572207374617465290D0A24492081
:1005B0002876696577206275696C6420696E666F5C
:1005C000290D0A244E20287669657720737461729C
:1005D00074757020626C6F636B73290D0A24783D0B
:1005E00076616C7565202873617665204772626C50
:1005F0002073657474696E67290D0A244E783D6C0A
:10060000696E6520287361766520737461727475F4
:100610007020626C6F636B290D0A24432028636885
:1006200065636B2067636F6465206D6F6465290D7A
:100630000A245820286B696C6C20616C61726D20F3
:100640006C6F636B290D0A2448202872756E206830
:100650006F6D696E67206379636C65290D0A7E2072
:10066000286379636C65207374617274290D0A21A3
:1006700020286665656420686F6C64290D0A3F2038
:100680002863757272656E74207374617475732952
:100690000D0A6374726C2D7820287265736574205E
:1006A0004772626C290D0A000D0A4772626C203095
:1006B0002E39675F32303138313131365F61343352
:1006C00037373831205B27242720666F7220686512
:1006D0006C705D0D0A005D0D0A004732345F4156B3
:1006E0004F494445440044697361626C6564004548
:1006F0006E61626C65640043617574696F6E3A2067
:10070000556E6C6F636B656400272448277C272433
:10071000582720746F20756E6C6F636B0052657381
:10072000657420746F20636F6E74696E7565005B0D
:10073000000D0A00525820427566666572204F7699
:10074000657272756E0050726F6265206661696CC9
:100750000041626F727420647572696E67206379FC
:10076000636C6500486172642F736F6674206C69F6
:100770006D697400414C41524D3A20000D0A004908
:100780006E76616C69642067636F64652049443AE2
:1007900000556E646566696E6564206665656420F3
:1007A0007261746500556E737570706F72746564F4
:1007B00020636F6D6D616E64004D6F64616C2067C6
:1007C000726F75702076696F6C6174696F6E004C22
:1007D000696E65206F766572666C6F7700486F6D25
:1007E000696E67206E6F7420656E61626C6564006F
:1007F000416C61726D206C6F636B004E6F74206989
:10080000646C6500454550524F4D2072656164200F
:100810006661696C2E205573696E67206465666138
:10082000756C74730056616C7565203C20332075BF
:100830007365630053657474696E672064697361DE
:10084000626C65640056616C7565203C203000491F
:100850006E76616C69642073746174656D656E7425
:1008600000426164206E756D62657220666F726D04
:10087000617400457870656374656420636F6D6DA5
:10088000616E64206C6574746572006572726F725B
:100890003A20000D0A006F6B3A0011241FBECFEF03
:1008A000D8E0DEBFCDBF11E0A0E0B1E0EAECF1E7B7
:1008B00002C005900D92A431B107D9F727E0A4E159
:1008C000B1E001C01D92A334B207E1F70E946C04AD
:1008D0000C94E3380C9400000E9401140E94EC2256
:1008E0000E9437190E946D328EE1EDE9F5E0DF01DB
:1008F0001D928A95E9F781E080939D057894909107
:10090000310794FD80939E05C1E00E94CD140E94A2
:1009100096090E9474130E94E2130E9418290E94F3
:10092000082D0E9486240E940B190E94FA270E941B
:10093000A80910929D0510929F058091310781FFB3
:1009400003C0C093AD0502C01092AD050E94A7156B
:10095000DCCF4F925F926F927F928F929F92AF9275
:10096000BF92CF92DF92EF92FF920F931F93CF939C
:10097000DF93EC014A015B01D22E270138018091FF
:10098000310785FF03C0CE010E945A2B80919E053E
:100990008230E1F00E94D21480919D05811116C031
:1009A0000E94D524882319F00E949A15F3CF830161
:1009B00072012D2DB501A401CE010E94DD2480918C
:1009C0009E05811103C088E080939E05DF91CF9141
:1009D0001F910F91FF90EF90DF90CF90BF90AF905D
:1009E0009F908F907F906F905F904F9008952F927F
:1009F0003F924F925F926F927F928F929F92AF92AF
:100A0000BF92CF92DF92EF92FF920F931F93CF93FB
:100A1000DF93CDB7DEB7E5970FB6F894DEBF0FBE14
:100A2000CDBF9E878D87788B6F873A0109831A83A4
:100A30002B833C83C98ADA8AEB8AFC8AAF8A24E05A
:100A4000829E40011124880D991D998F888FCA01BB
:100A5000880D991D9B8F8A8FDC012D903D904D90C4
:100A60005C90E88DF98D2081318142815381C201F2
:100A7000B1010E9435346C8F7D8F8E8F9F8F2B96A6
:100A8000AFAC2B97F4E0AF9E500111242D853E852D
:100A90002A0D3B1D39A328A3C3018A0D9B1D9BA3CF
:100AA0008AA3DC01CD90DD90ED90FC90F9012081CE
:100AB000318142815381C701B6010E9435346CA354
:100AC0007DA38EA39FA33201210177FA709477F85A
:100AD0007094D701C601B0588D839E83AF83B887C9
:100AE000EF85F889E80DF91D2C8D3D8D4E8D5F8DBC
:100AF00060817181828193810E9434346B017C0119
:100B0000EF85F889EA0DFB1D2CA13DA14EA15FA147
:100B100060817181828193810E9434344B015C0138
:100B2000A7019601C301B2010E948C3769877A87B9
:100B30008B879C87A50194016D817E818F8198852B
:100B40000E948C379B01AC0169857A858B859C85D9
:100B50000E94353469877A878B879C87A501940129
:100B6000C301B2010E948C374B015C01A7019601C1
:100B70006D817E818F8198850E948C379B01AC01AD
:100B8000C501B4010E94343429853A854B855C85C2
:100B90000E94B4346B017C018091BB0520E030E001
:100BA000A901823079F4C701B6010E944C3787FD54
:100BB00019C02BED3FE049EC50E4C701B6010E949B
:100BC00034340EC0C701B6010E942A35181654F0FD
:100BD0002BED3FE049EC50E4C701B6010E943534EB
:100BE0006B017C0180902D0790902E07A0902F071D
:100BF000B090300729813A814B815C81CA01B901EB
:100C00000E943534A50194010E943434A501940159
:100C10000E948C370E942B384B015C0120E030E0B1
:100C200040E05FE3C701B6010E948C3729813A8119
:100C30004B815C810E948C379F77A50194010E94B3
:100C400034350E9419360E94AD3579A768A7DB01BB
:100C5000AB2B09F485C14B01A12CB12CBF89BB235F
:100C600081F0C501B4010E94DC359B01AC016989AA
:100C70007A898B899C890E948C37698B7A8B8B8BC4
:100C80009C8BC501B4010E94DC354B015C019B01CA
:100C9000AC01C701B6010E94343569877A878B871A
:100CA0009C872C968FAD2C97E4E08E9FC001112479
:100CB0002D853E85280F391F3E8B2D8BEF85F889BA
:100CC000E80FF91FD9012D913D914D915C91608103
:100CD0007181828193810E943434A50194010E9424
:100CE00034356AAB7BAB8CAB9DAB29853A854B85A4
:100CF0005C85CA01B9010E948C379B01AC0160E0A0
:100D000070E080E090E40E9434346B017C012BEAB7
:100D10003AEA4AE25EE369857A858B859C850E9482
:100D20008C374B015C0120E030E040E850E4C70123
:100D3000B6010E9435349B01AC01C501B4010E948B
:100D40008C376AA77BA78CA79DA720E030E040E006
:100D50005FE3C701B6010E948C376EA77FA788ABFF
:100D600099AB198222242394312CE8A5F9A52E16DB
:100D70003F0609F4F5C0B981BC3008F040C02EA58B
:100D80003FA548A959A96D817E818F8198850E94D0
:100D90008C376B017C012AA53BA54CA55DA5C30141
:100DA000B2010E948C37A70196010E9435346B0175
:100DB0007C012EA53FA548A959A9C301B2010E94F3
:100DC0008C374B015C012AA53BA54CA55DA56D8127
:100DD0007E818F8198850E948C379B01AC01C50173
:100DE000B4010E9434342B013C01E981EF5FE983B7
:100DF000C601D7018D839E83AF83B88765C0B101DB
:100E000080E090E00E94DC3529853A854B855C8541
:100E10000E948C376B017C010E942F356D837E838D
:100E20008F839887C701B6010E941D384B015C0172
:100E3000AA8DBB8DCD90DD90ED90FC90F7FAF094EB
:100E4000F7F8F094AAA1BBA18D919D910D90BC9152
:100E5000A02D89839A83AB83BC83A70196016D8102
:100E60007E818F8198850E948C372B013C012981DE
:100E70003A814B815C81C501B4010E948C379B0192
:100E8000AC01C301B2010E9435342B013C01A70122
:100E90009601C501B4010E948C376B017C01298148
:100EA0003A814B815C816D817E818F8198850E9422
:100EB0008C379B01AC01C701B6010E9434346D83AD
:100EC0007E838F83988719822C8D3D8D4E8D5F8D0B
:100ED000C301B2010E943534E88DF98D60837183BE
:100EE000828393832CA13DA14EA15FA16D817E8160
:100EF0008F8198850E943534A8A1B9A16D937D9307
:100F00008D939C9313972AA93BA94CA95DA9ED89C0
:100F1000FE8960817181828193810E943534AD891F
:100F2000BE896D937D938D939C9313976196CFACFF
:100F300061976096ECACFDAC0EAD1FAD60972F894C
:100F400049895A896B897C898D859E850E94A9046F
:100F500080919D05811116C0BFEF2B1A3B0A05CF6A
:100F60006196CFAC61976096ECACFDAC0EAD1FAD59
:100F700060972F8949895A896B897C898F859889DF
:100F80000E94A904E5960FB6F894DEBF0FBECDBF50
:100F9000DF91CF911F910F91FF90EF90DF90CF9055
:100FA000BF90AF909F908F907F906F905F904F9089
:100FB0003F902F9008958F929F92AF92BF92CF92C1
:100FC000DF92EF92FF9220919E05223009F447C0F4
:100FD0004B015C0120E030E040EA51E40E948C3794
:100FE0000E9419360E94AD356B017C010E943216B9
:100FF00020E030E04AE754E4C501B4010E948C3798
:101000004B015C0182E38C9DB0018D9D700D11241C
:1010100080E090E00E94DC359B01AC01C501B40189
:101020000E9434340E9419360E94AD35CB010E94D3
:10103000DC28C114D10499F00E94D21421E0C21A14
:10104000D10880919D0581110AC08FEF90E722E0C1
:10105000815090402040E1F700C00000EACFFF90AF
:10106000EF90DF90CF90BF90AF909F908F900895BA
:101070002F923F924F925F926F927F928F929F92A8
:10108000AF92BF92CF92DF92EF92FF920F931F9396
:10109000CF93DF9330919E05323009F4A6C0322EF3
:1010A0004A015B01C92FD82F0E9432162090AD054E
:1010B0000E94162D882351F09FB7F89480919F05C8
:1010C000806480939F059FBF0E94D21480919D05EC
:1010D00081118BC0C12CE12CF12C8701232DB5018E
:1010E000A4018D2F9C2F0E94A90481E08093AE055E
:1010F0009FB7F89480919F05826080939F059FBF62
:101100000E94D21480919D0581116FC080919E052F
:10111000877FB1F78091AE05813041F49FB7F89495
:1011200080919F05806480939F059FBF0E94D21489
:1011300080919D05811159C00E940B190E9486243F
:101140000E94FA278FEA682E85E0782E04EF16E0D9
:101150004D2E5C2EF30161917191819191913F012E
:10116000F801C190D190E190F1908F010E94DE359D
:10117000A70196010E943435F20161937193819326
:1011800091932F01F7E000301F0721F7C12CE12CCC
:10119000F12C8701232DB501A4018D2F9C2F0E94D6
:1011A000A9049FB7F89480919F05826080939F0562
:1011B0009FBF0E94321680919D05811116C020921A
:1011C000AD05DF91CF911F910F91FF90EF90DF90D0
:1011D000CF90BF90AF909F908F907F906F905F90D7
:1011E0004F903F902F900C94972FDF91CF911F91AC
:1011F0000F91FF90EF90DF90CF90BF90AF909F90B6
:101200008F907F906F905F904F903F902F900895B8
:1012100080919F0584FD1AC09FB7F89480919F0527
:10122000806180939F059FBF0E946B130E94E01313
:1012300080919E05847351F09FB7F89480919F052B
:10124000806280939F059FBF0C946C16089583B1B4
:1012500086719091310796FD02C096E18927882317
:1012600059F00E9408099FB7F89480919F05806605
:1012700080939F059FBF089584E080939E050E9400
:101280006B130E940D2983E00E9467290E94D214EB
:1012900080919D05811108C00E94A80910929E05A9
:1012A0000E946C160C9418290895CF93209124065F
:1012B0003091250640912606509127066091CE0573
:1012C0007091CF058091D0059091D1050E942A356B
:1012D000811128C0209128063091290640912A06C4
:1012E00050912B066091D2057091D3058091D40561
:1012F0009091D5050E942A35811114C0C1E020913A
:101300002C0630912D0640912E0650912F066091AB
:10131000D6057091D7058091D8059091D9050E9486
:101320002A358111C0E08C2FCF9108958BE3EBEB30
:10133000F5E0DF011D928A95E9F76AED75E080E03E
:101340000E949021811103C087E00C947E2D0895A6
:101350008F929F92AF92BF92EF92FF920F931F9343
:10136000CF93DF93C1EAD5E084EFE82E86E0F82E34
:101370000EEC15E06991799189919991F70181902D
:101380009190A190B1907F010E94DE35A50194015A
:101390000E943435F80161937193819391938F0189
:1013A000F5E0CD3ADF0731F7DF91CF911F910F9133
:1013B000FF90EF90BF90AF909F908F9008952F92E5
:1013C0003F924F925F926F927F928F929F92AF92D5
:1013D000BF92CF92DF92EF92FF920F931F93CF9322
:1013E000DF93CDB7DEB7AB970FB6F894DEBF0FBE75
:1013F000CDBF98A38F8F8AE3E6EFF5E0DF011D9262
:101400008A95E9F78AE0EBEBF5E0A8EFB5E001900B
:101410000D928A95E1F71D8E212C312C812C912C77
:1014200019A2F12C1E8EAA24A394B12CEE24E394CD
:1014300002E0D02E84E0C82E8D8DEF8DF8A1E80F4C
:10144000F11D0081002309F432C29FEB900F9A3105
:1014500028F00E946B1381E00C9441138F5F8D8FF5
:10146000AE01475E5F4FBE01635E7F4F8F8D98A1D7
:101470000E941C28811105C00E946B1382E00C940D
:101480004113498C5A8C6B8C7C8CC301B2010E9435
:101490006F380E94AD35162F70E080E090E00E941A
:1014A000DE359B01AC01C301B2010E94343420E05F
:1014B00030E048EC52E40E948C370E94F9370E94D9
:1014C000AD35073421F00D3409F4EDC02EC11632CC
:1014D00009F456C0B0F4143150F4113108F082C050
:1014E0001430E1F108F44CC01A3061F1F6C21C313D
:1014F00049F120F4163108F495C0EFC21E3111F104
:10150000ECC2103509F466C090F41533A1F138F43B
:101510001B3209F490C0113309F48DC0DEC21C33B4
:1015200008F0DBC216531093FE0587E098C01C3507
:1015300049F020F41A3508F063C0CFC21F3508F413
:1015400068C0CBC261118EC0BE8DBB2311F40C9458
:1015500024130E946B1388E10C944113E092F70569
:101560000DC01F3110F40C940E13153311F00C94B0
:101570003813A1E0AE8FB7E0B093F70580E06FC0FD
:101580003E8D3111E6CF82E08E8F1230B1F048F4FB
:10159000112381F0113011F51093F8051093F60521
:1015A0001FC0163281F01035A9F01330B9F4109332
:1015B000F80506C01092F80503C09E8D9093F805BB
:1015C000E092F6050DC0643109F087C2C092F805BB
:1015D00081E058C0A5E0A093F80502C01092F6057E
:1015E00081E03DC0123129F0133131F01092FC0539
:1015F00005C0E092FC0502C0D092FC0582E02FC03D
:101600001A3519F41092FB0502C0E092FB0583E045
:1016100026C01D3519F4E092F90502C01092F905B3
:1016200084E01DC0143119F4E092FA0502C0109252
:10163000FA0585E014C0BE8DB1118BCF113331F4A2
:101640001092FD0586E0E3E0EE8F1CC06A3009F0E1
:1016500044C2E092FD0586E0F3E0FE8F13C06623EE
:1016600089F023C01E3109F4D2C708F0DFC71A3051
:1016700009F4D8C71C31C9F46A3009F02EC2C092EF
:10168000F70580E0D50102C0AA0FBB1F8A95E2F7DB
:10169000CD01940128233923232B09F443C00E9450
:1016A0006B1385E1EEC7662321F00E946B1387E17F
:1016B000E8C7163018F4133048F014C0183008F496
:1016C0000CC21A30E8F01E3151F007C2123039F066
:1016D0001E3129F011111DC0E092FF051AC0D092F1
:1016E000FF0517C0143029F0153031F0E0920106E3
:1016F00005C0D092010602C01092010689E00AC01E
:10170000193019F0D092000602C0109200068AE04B
:1017100001C088E0F50102C0EE0FFF1F8A95E2F7D5
:10172000CF01B7CF882A992A87CE802F000F990B37
:10173000AA0BBB0BFC01E654F109E531F10508F0F9
:10174000CCC1EC5CFF4F0C94C3384092020650921F
:101750000306609204067092050680E07FC0409206
:101760000606509207066092080670920906F9A1D3
:10177000F160F9A381E072C040920A0650920B0614
:1017800060920C0670920D0629A1226029A382E0C6
:1017900065C040920E0650920F066092100670923D
:1017A000110639A1346039A383E058C010931206A2
:1017B00084E054C0C301B2010E94A63560931306B1
:1017C00070931406809315069093160685E046C024
:1017D00040921706509218066092190670921A06E7
:1017E00086E03CC040921B0650921C0660921D068B
:1017F00070921E0687E032C040921F06509220066B
:10180000609221067092220688E028C04092240649
:101810005092250660922606709227068F2D8160D1
:10182000F82E8AE01BC0409228065092290660924A
:101830002A0670922B069F2D9260F92E8BE00EC027
:1018400040922C0650922D0660922E0670922F0622
:10185000AF2DA460FA2E8CE001C089E08501082E2E
:1018600002C0000F111F0A94E2F7910120233123D7
:10187000232B21F00E946B1389E103C7E1E6F3E01B
:1018800002C0F595E7958A95E2F7E0FF0DC020E0EC
:1018900030E0A901C301B2010E942A3587FF04C0CC
:1018A0000E946B1384E0EDC6202A312AC5CDFF20AB
:1018B00029F0FE8DF11102C022E02E8F25FE11C00D
:1018C0008091130690911406A0911506B09116060A
:1018D00080389649A849B10524F00E946B138BE12A
:1018E000D0C68091F905813031F48E8D8230A1F51A
:1018F00020FC32C0AAC28091BC0581112DC020FEFF
:101900001BC08091FA05813039F523E333E34BECBA
:1019100051E4609102067091030680910406909153
:1019200005060E948C37609302067093030680932D
:1019300004069093050610C08091C9059091CA05D0
:10194000A091CB05B091CC0580930206909303063D
:10195000A0930406B093050630FC10C08091C50525
:101960009091C605A091C705B091C80580931F0648
:1019700090932006A0932106B09322068091F7054C
:10198000813041F426FC04C00E946B138CE179C6BF
:10199000E89426F88091FC05882371F0813031F4B9
:1019A00091E099A718A6A2E0AFA30BC019A6B2E0D8
:1019B000B8A7E1E0EFA305C0F2E0F9A721E028A76E
:1019C0001FA28091FA05813021F03E8D3330C1F5A0
:1019D0002CC0B6EFCB2EB5E0DB2E00E010E0AF2C34
:1019E000B12CC501002E02C0959587950A94E2F7A7
:1019F00080FF12C023E333E34BEC51E4D6019E9603
:101A00006D917D918D919C91D1970E948C37F601BB
:101A100066A777A780AB91AB0F5F1F4FF4E0CF0EA7
:101A2000D11C03301105E9F6D0CF8091FD0581303E
:101A300039F424E0F21621F00E946B1385E221C6EE
:101A40008CE0EAEDF5E0DE011D9601900D928A959D
:101A5000E1F787FE17C08091FE05873020F00E94D5
:101A60006B138DE10EC69091C105891759F0BE0127
:101A7000635F7F4F0E949021811104C00E946B130D
:101A800087E0FFC53091F7053F8F323021F03830C5
:101A900009F4A4C00CC1F11004C00E946B138AE1C8
:101AA000F0C5C10180759927892B09F46DCF60912C
:101AB0001706709118068091190690911A060E94D7
:101AC0006F380E94AD35673050F680911206843130
:101AD00041F0823011F427FE04C00E946B1384E1B0
:101AE000D0C5662319F061506F8F03C08091FE0549
:101AF0008F8FBE016F5F7F4F8F8D0E949021882353
:101B000009F4BCCFE09012064090F2055090F30526
:101B10006090F4057090F5058E010F5F1F4FF6EF92
:101B20008F2EF5E09F2EABEBAA2EA5E0BA2EC12C8E
:101B3000D12CAF2DB0E0BEA3ADA38DA19EA10C2CE6
:101B400002C0959587950A94E2F780FF34C0B4E10E
:101B5000EB1227C0F50123A534A545A556A5638939
:101B60007489858996890E943434D4019E962D917A
:101B70003D914D915C91D1970E943434F80160837E
:101B8000718382839383F2E0CF1215C0A301920187
:101B90000E943434D8016D937D938D939C93139759
:101BA0000AC0F40186A597A5A0A9B1A9F801808370
:101BB0009183A283B383FFEFCF1ADF0A0C5F1F4F1D
:101BC00024E0820E911C34E0A30EB11C83E0C81601
:101BD000D10409F0B2CF9FEA292213C1FF2009F4F2
:101BE0005CCF4090F2055090F3056090F405709042
:101BF000F50506EF15E0EBEBAE2EE5E0BE2E4E014F
:101C00009DE0890E911CC12CD12CAF2DB0E0B8A362
:101C1000AF8F8F8D98A10C2C02C0959587950A9453
:101C2000E2F780FF29C0F401208131814281538194
:101C3000D50153966D917D918D919C9156970E94FF
:101C40003434F80126A537A540A951A90E9434349F
:101C5000D8019E966D937D938D939C93D197B2E01E
:101C6000CB1214C0A30192010E943434F80166A77C
:101C700077A780AB91AB0AC0F50183A594A5A5A574
:101C8000B6A5F80186A797A7A0ABB1ABFFEFCF1A17
:101C9000DF0A0C5F1F4F24E0A20EB11C34E0830E5C
:101CA000911C83E0C816D10409F0B3CFA9C09E8D62
:101CB000933079F4AF8DA53009F491C0A73009F4C1
:101CC00097C0A33009F09CC0BE016F5F7F4F86E0D4
:101CD0008AC0FF2079F3E090FB054090F205509018
:101CE000F3056090F4057090F5057BEBA72E75E089
:101CF000B72E06EF15E04E01BDE08B0E911CC12CF6
:101D0000D12CEF2DF0E0FEA3EDA38DA19EA10C2C14
:101D100002C0959587950A94E2F780FD0BC0F50106
:101D200083899489A589B689F80186A797A7A0AB6E
:101D3000B1AB44C0FF8DF73009F440C0E1102BC0B7
:101D4000D5019B962D913D914D915C919E97F4010B
:101D500060817181828193810E943534D8019E9681
:101D60002D913D914D915C91D1970E943534F801B0
:101D700066A777A780AB91ABF2E0CF121FC0A3019B
:101D800092010E943534D8019E966D937D938D9378
:101D90009C93D19713C0F5012389348945895689CD
:101DA000D8019E966D917D918D919C91D1970E94C5
:101DB0003534F80166A777A780AB91ABFFEFCF1A58
:101DC000DF0A24E0A20EB11C0C5F1F4F34E0830E2B
:101DD000911C83E0C816D10409F097CF6BCFBE01E8
:101DE0006F5F7F4F87E00E949021811109C046CE2E
:101DF0008091F805823020F00E946B138EE141C47F
:101E00001F8E1091F805153059F4FF2009F426C2F1
:101E1000AE8DA13009F42AC20E946B138FE131C448
:101E2000BE8DB23009F01AC21123F1F020E030E08B
:101E3000A9016091020670910306809104069091B9
:101E400005060E942A35811104C00E946B1386E1A9
:101E500018C4143028F4123058F4113029F006C296
:101E6000143009F4F3C102C2FF2009F4FAC1FEC123
:101E7000FF2009F412CEFFA1EF2FF0E0FEA3EDA3A7
:101E800038A5232F30E03BA72AA781E090E08C0102
:101E90000FA002C0000F111F0A94E2F708A402C0AD
:101EA000880F991F0A94E2F7082B192B8F2D90E0C9
:101EB00080239123892B21F40E946B1380E2E1C3DC
:101EC0008DA19EA1880F991F880F991FFC01EA50D0
:101ED000FA4FDC01A554BA4F53962D913D914D9187
:101EE0005C91569766A577A580A991A90E94343484
:101EF0006B017C018AA59BA5880F991F880F991FEC
:101F0000FC01EA50FA4FDC01A554BA4F53962D91CB
:101F10003D914D915C91569766A577A580A991A9B1
:101F20000E9434342B013C0127FEE2C0E89427F8DC
:101F30000E945509882321F00E946B1381E2A1C3FE
:101F40008091FA058130B1F423E333E34BEC51E4A3
:101F500060911B0670911C0680911D0690911E06D3
:101F60000E948C3760931B0670931C0680931D069D
:101F700090931E0680901B0690901C06A0901D0654
:101F8000B0901E0620E030E040E850E4C501B40106
:101F90000E948C37A50194010E948C374B015C0193
:101FA000A7019601C701B6010E948C379B01AC01C5
:101FB000C501B4010E9434344B015C01A3019201BC
:101FC000C301B2010E948C379B01AC01C501B40171
:101FD0000E9434344B015C0120E030E0A9010E94F2
:101FE0002A3587FF04C00E946B1382E24AC3C501F1
:101FF000B4010E942B384B015C01A3019201C7017F
:10200000B6010E94E7289B01AC01C501B4019058BC
:102010000E9434354B015C018091F805833021F436
:10202000B7FAB094B7F8B09480911B0690911C0653
:10203000A0911D06B0911E0689A39AA3ABA3BCA3D1
:1020400020E030E0A901BC01CD010E942A3587FFC4
:1020500011C0B7FAB094B7F8B09489A19AA1ABA116
:10206000BCA1B05880931B0690931C06A0931D063C
:10207000B0931E060DA11EA1000F111F000F111F0E
:102080000A5F194FA3019201C501B4010E948C3768
:102090009B01AC01C701B6010E94343420E030E05E
:1020A00040E05FE30E948C37D8016D937D938D9360
:1020B0009C9313970AA51BA5000F111F000F111F5A
:1020C0000A5F194FA7019601C501B4010E948C3720
:1020D000A30192010E94353420E030E040E05FE34C
:1020E0000E948C37F8016083718382839383BEC022
:1020F000F9A18F2E912C08211921012B21F40E9486
:102100006B1383E2BEC221EF22228091FA05813057
:1021100009F456C00AA51BA5000F111F000F111FBF
:102120000A5F194FD8012D913D914D915C91C301EA
:10213000B2010E9434342B013C018DA19EA1880F75
:10214000991F880F991FFC01EA5FF94F5F012081F9
:10215000318142815381C701B6010E943434A30109
:1021600092010E94E7286B017C01D8012D913D91DD
:102170004D915C91F50160817181828193810E9412
:10218000E7284B015C0160931B0670931C0680934B
:102190001D0690931E069B01AC01C701B6010E946B
:1021A00034346B017C01E894F7F82AE037ED43EA18
:1021B0005BE3C701B6010E944C3718165CF156C0AC
:1021C00086EFA82E85E0B82E00E010E0C401002EB6
:1021D00002C0959587950A94E2F780FF12C023E329
:1021E00033E34BEC51E4D50150966D917D918D9187
:1021F0009C9153970E948C37F501608B718B828B79
:10220000938B0F5F1F4FF4E0AF0EB11C033011052D
:10221000E9F680CF20E030E040E05FE3C701B6019F
:102220000E944C3718160CF487CE2FE632E143E8B3
:102230005AE3C501B4010E948C379B01AC01C70170
:10224000B6010E944C3718168CF476CEFF2009F4A4
:1022500024CC0E945509882349F06ECE2E8D211181
:1022600005C0C1018E7D9C7F1E8E03C0C1018E7D85
:10227000907E892B21F00E946B1384E202C2809130
:10228000F9058093BC058091020690910306A09108
:102290000406B09105068093C9059093CA05A093E2
:1022A000CB05B093CC05C0901F06D0902006E090DF
:1022B0002106F0902206A70196016091C505709154
:1022C000C6058091C7059091C8050E942A358823CC
:1022D000D9F0C092C505D092C605E092C705F0922C
:1022E000C805809131079091320790FF04C080911A
:1022F000F605811109C08091C405882329F020E0EA
:10230000B701A6010E949C13809123068093CD05FE
:10231000809101069091C4059817B9F08093C40587
:10232000209131073091320730FF04C09091F605BB
:1023300091110BC04091C5055091C6056091C7052C
:102340007091C80520E00E949C1380910006909136
:10235000C305981721F08093C3050E94E51380916F
:10236000F705813051F4609117067091180680913D
:10237000190690911A060E94DB078091FC05809354
:10238000BF058091FA058093BD053E8D3330F9F489
:102390008091FD058093C005813089F480912C06E1
:1023A00090912D06A0912E06B0912F068093F205F4
:1023B0009093F305A093F405B093F50508C010922F
:1023C000F2051092F3051092F4051092F505809134
:1023D000FE059091C105981759F08093C1058CE0D6
:1023E000FE013D96AAEDB5E001900D928A95E1F7C8
:1023F0008091FB058093BE05E091F7058E2F90E05C
:10240000FC013297E830F10508F05FC0E75BFF4F51
:102410000C94C338BE016F5F7F4F8F8D0E94B22036
:102420008091C1059F8D981350C08CE0FE013196BC
:10243000AAEDB5E02EC0AE8DAA2399F0E090C505B7
:10244000F090C6050091C7051091C805C090C4055D
:1024500020E040E050E060E87FEB84E296E00E94FC
:10246000A904E090C505F090C6050091C70510913C
:10247000C805C090C40520E040E050E060E87FEB74
:10248000CE0101960E94A9048CE0FE013196AEECCB
:10249000B5E001900D928A95E1F717C06EEC75E0FA
:1024A00086E003C06EEC75E087E00E94B2200DC0AC
:1024B0008CE0E4E2F6E0A6EEB5E0EBCF8CE0E6EEF1
:1024C000F5E0DF011D928A95E9F78091F805809388
:1024D000BB05853009F485C0BE8DB23009F081C0DE
:1024E0008430E8F4823008F040C0882351F1813014
:1024F00009F06EC0E090C505F090C6050091C705D3
:102500001091C8054091C9055091CA056091CB054D
:102510007091CC05C090C4052091BC0521C08430C9
:1025200009F056C04091C9055091CA056091CB058C
:102530007091CC052091BC0584E296E00E94380899
:1025400047C0E090C505F090C6050091C705109101
:10255000C805C090C40520E040E050E060E87FEB93
:1025600084E296E00E94A90433C0C090C905D090CF
:10257000CA05E090CB05F090CC0500911B061091A8
:102580001C0620911D0630911E068091C4058F9374
:102590008091C8058F938091C7058F938091C60560
:1025A0008F938091C5058F93E9A5EF93F8A5FF93CD
:1025B0008FA0A090BC0546E056E064E276E08EEC89
:1025C00095E00E94F7040FB6F894DEBF0FBECDBFB2
:1025D0008CE0E4E2F6E0AEECB5E001900D928A9575
:1025E000E1F78091FF058093C205882309F449C073
:1025F0000E9432161092AD058091C205823019F406
:102600000E94080902C01092C20580E03AC06A30F8
:1026100009F063CA96E09093F70533C81A30F1F4D5
:10262000E1E0EE8FD092F7050C94BE0A153311F459
:102630000C94BB0A1C3509F038C86A3009F04DCA41
:1026400029E02093F7051DC81E3111F00C94B10A42
:1026500031E03E8F85E08093F70513C81C3121F4EB
:10266000F1E0FE8F23E0EDCF80E021E02E8F0AC85D
:102670001C35D1F7E1E0EE8FF8E0F093F7050C940C
:10268000410BAB960FB6F894DEBF0FBECDBFDF9106
:10269000CF911F910F91FF90EF90DF90CF90BF905F
:1026A000AF909F908F907F906F905F904F903F90F2
:1026B0002F900895E0EBF0E080818F7780832B9856
:1026C00008958091B300882329F08091B00080683C
:1026D0008093B00008951092B300E0EBF0E08081A9
:1026E0008F7780832B980895239A239A259A0C94A8
:1026F0006B1383E88093B000E1EBF0E08081887F8A
:102700008260808308958093B3000895BC0180E0C7
:1027100090E00E94DC3520E030E040E051E40E948F
:1027200035340E94AD35687F7770CB0123E09695F4
:1027300087952A95E1F70895CF92DF92EF92FF9265
:10274000CF93DF9390919E05923099F1D22F6A0139
:102750007B01C82F809131079091320790FF02C012
:10276000211102C00E949A15809131079091320781
:1027700090FF02C0D11102C00E943216C11108C0E0
:10278000DF91CF91FF90EF90DF90CF900C946B137F
:10279000C13011F42D9801C02D9AC701B6010E94D5
:1027A000AD35CB010E9486138093B3000E9479134C
:1027B0002B9ADF91CF91FF90EF90DF90CF9008950B
:1027C000439808953B9A0C94E013CF9390919E0503
:1027D000923061F0C82F0E949A150E943216C230C2
:1027E00011F4439A03C0CF910C94E013CF91089554
:1027F0009091160180911701891708F48058891B60
:102800000895E0ECF0E08081826080831092C50042
:1028100080E18093C400E1ECF0E0808180618083FE
:102820008081886080838081806880830895E091C2
:10283000150191E09E0F943431F490E004C0209192
:102840009F0524FD0FC0209114012917C1F3F0E06A
:10285000E05DF94F8083909315018091C100806203
:102860008093C10008951F920F920FB60F9211240A
:102870008F939F93EF93FF9380911401E82FF0E0E3
:10288000E05DF94F90819093C6008F5F843409F426
:1028900080E08093140190911501891305C0809107
:1028A000C1008F7D8093C100FF91EF919F918F9127
:1028B0000F900FBE0F901F90189590911601809168
:1028C0001701981761F0E92FF0E0EC58F94F80817B
:1028D0009F5F903809F490E09093160108958FEF70
:1028E00008951F920F920FB60F9211242F933F93CA
:1028F0004F935F936F937F938F939F93AF93BF9308
:10290000EF93FF938091C6008132B1F028F48831B3
:10291000C9F40E94080930C08F3341F08E3791F41A
:102920009FB7F89480919F05826023C09FB7F89469
:1029300080919F0581601DC09FB7F89480919F058D
:10294000886017C0E091170191E09E0F903809F45C
:1029500090E020911601921739F0F0E0EC58F94F11
:1029600080839093170108C09FB7F89480919F05CA
:10297000806880939F059FBFFF91EF91BF91AF91BA
:102980009F918F917F916F915F914F913F912F9187
:102990000F900FBE0F901F90189580911701809394
:1029A00016010895CF93C0919F05CC2309F49BC0D5
:1029B0008C2F807649F181E080939E050E945A1306
:1029C000C6FF17C0C5FF02C08FEF01C08DEF0E9488
:1029D000942D81E00E94B92D9FB7F89480919F05B6
:1029E0008F7E80939F059FBF80919F0584FFFCCFC2
:1029F00003C08EEF0E94942D9FB7F89480919F059D
:102A00008F7980939F059FBFC4FF06C00E945A1311
:102A100081E080939D056EC0C0FF0AC00E943A31DC
:102A20009FB7F89480919F058E7F80939F059FBFED
:102A3000C3FF15C080919E05803149F480E28093E8
:102A40009E050E9459190E947B191092AD059FB7EF
:102A5000F89480919F05877F80939F059FBFC1FF5A
:102A60001FC080919E05883099F480E180939E0577
:102A70000E9461130E947B190E944C1680913107BD
:102A800081FF04C081E08093AD0502C01092AD05C6
:102A90009FB7F89480919F058D7F80939F059FBF7E
:102AA000C2FF14C00E94AB24892B31F00E945A133C
:102AB00088E080939E0502C010929E059FB7F8940F
:102AC00080919F058B7F80939F059FBFC7FF0BC0A1
:102AD0008CEF0E94942D9FB7F89480919F058F777B
:102AE00080939F059FBF80919E05847319F0CF91BD
:102AF0000C947B19CF9108950E94D21480919D056A
:102B0000811117C080911801882389F0843229F43B
:102B100088E191E00E94DA320AC080919E058130FE
:102B200011F489E004C088E191E00E94DF090C946F
:102B30007E2D08958091AD05882341F09FB7F894CC
:102B400080919F05826080939F059FBF0895FF92AB
:102B50000F931F93CF93DF930E94F32D80919E05D7
:102B6000813049F482E00E94B92DC0E0F12C00E0F0
:102B7000D0E017E411C010929E0588E191E00E9418
:102B8000BA32F3CF8A3069F08D3059F0DD23D1F0BD
:102B9000D1E0893209F453C00E945D148F3F91F750
:102BA00052C0EC2FF0E0E85EFE4F10820E947C15D0
:102BB000FF2009F442C088E191E00E94E32DC0E0CB
:102BC000F12C3CC0813240F38F3231F38832C9F1AD
:102BD000CF3428F08BE00E947E2DC0E0DDCF2C2F7B
:102BE00030E0982F9F7D9734D9F4002389F0F901C4
:102BF000E85EFE4F108286E00E94B92D88E191E0E8
:102C00000E94E32D0E947C15C0E0FF24F39401C0D4
:102C100001E0EC2FF0E0E85EFE4F1083CF5FBCCF09
:102C2000E1E0EC0F9FE9980FD901A85EBE4F9A3101
:102C300008F480528C93CE2FAFCFC0E000E0D0E0FC
:102C4000ABCFD1E0A9CF0E949A150E94D2148091F7
:102C50009D05882309F4A0CFDF91CF911F910F919B
:102C6000FF9008950E949A1580919E05803171F41D
:102C700081E08093AD050AC080919E05803159F4B2
:102C80000E94D21480919D05811105C00E94AB2441
:102C9000892BB1F7F1CF08958091310782FF02C0EF
:102CA000289A01C0289880919E058471A1F0809196
:102CB00096018093AA01809197018093A901809148
:102CC0002407880F845081958093A80180916F001C
:102CD000826080936F00089580916F008D7F809354
:102CE0006F0080918100887F8160809381001092C5
:102CF0009501809127078F3F21F490919F0595FFC3
:102D000009C090919E05943029F090E00E94DC2843
:102D100081E001C080E09091310792FF02C091E014
:102D20008927882311F0289A0895289808951F92DA
:102D30000F920FB60F9211242F933F934F935F93EF
:102D40006F937F938F939F93AF93BF93EF93FF9373
:102D5000809195018111FEC18BB19091AA01907E65
:102D60008F71892B8BB98BB1837E9091A901892BAF
:102D70008BB98091A80186BD82E085BD81E08093FA
:102D8000950178948091BC019091BD01892B09F047
:102D9000B3C080919A0190919901981709F4A1C04C
:102DA000E0919A0186E0E89FF0011124E254FE4F81
:102DB000F093BD01E093BC018381948190938900DD
:102DC00080938800808191819093B8018093B701AE
:102DD000E2818091B9018E17C1F1E093B90183E1DD
:102DE000E89FF0011124EE51FE4FF093BB01E093F8
:102DF000BA0185859685A785B089B695A7959795DB
:102E0000879580939B0190939C01A0939D01B09323
:102E10009E0180939F019093A001A093A101B09384
:102E2000A2018093A3019093A401A093A501B09364
:102E3000A601809131079091320790FF06C08289E8
:102E4000882319F081890E948313E091BA01F091DF
:102E5000BB0190818091960189278093AA01A0915E
:102E6000BC01B091BD0115962C9181819281A38105
:102E7000B481022E04C0B695A795979587950A94BC
:102E8000D2F78093AB019093AC01A093AD01B093C6
:102E9000AE0185819681A781B085022E04C0B695CA
:102EA000A795979587950A94D2F78093AF01909351
:102EB000B001A093B101B093B20181859285A38541
:102EC000B48504C0B695A795979587952A95D2F7AE
:102ED0008093B3019093B401A093B501B093B60170
:102EE0000BC00E946C169FB7F89480919F05846078
:102EF00080939F059FBF2EC10E941C2D1092A90197
:102F000040919B0150919C0160919D0170919E01A7
:102F10008091AB019091AC01A091AD01B091AE0157
:102F2000840F951FA61FB71F80939B0190939C0150
:102F3000A0939D01B0939E01E091BA01F091BB0175
:102F40004585568567857089481759076A077B0745
:102F500068F524E02093A901458556856785708929
:102F6000841B950BA60BB70B80939B0190939C0140
:102F7000A0939D01B0939E0120818091A105909125
:102F8000A205A091A305B091A40525FF04C0019757
:102F9000A109B10903C00196A11DB11D8093A1052E
:102FA0009093A205A093A305B093A40540919F011F
:102FB0005091A0016091A1017091A2018091AF0197
:102FC0009091B001A091B101B091B201840F951F11
:102FD000A61FB71F80939F019093A001A093A1010A
:102FE000B093A201458556856785708948175907B2
:102FF0006A077B0778F52091A90128602093A90131
:103000004585568567857089841B950BA60BB70B84
:1030100080939F019093A001A093A101B093A2017E
:1030200020818091A5059091A605A091A705B0915A
:10303000A80526FF04C00197A109B10903C00196A4
:10304000A11DB11D8093A5059093A605A093A7058A
:10305000B093A8054091A3015091A4016091A501EE
:103060007091A6018091B3019091B401A091B50136
:10307000B091B601840F951FA61FB71F8093A301BF
:103080009093A401A093A501B093A6014585568510
:1030900067857089481759076A077B0778F520917B
:1030A000A90120612093A90145855685678570890E
:1030B000841B950BA60BB70B8093A3019093A401DF
:1030C000A093A501B093A60120818091A9059091BC
:1030D000AA05A091AB05B091AC0527FF04C00197EC
:1030E000A109B10903C00196A11DB11D8093A905D5
:1030F0009093AA05A093AB05B093AC0580919E0573
:10310000843039F49091A9018091A005892380939E
:10311000A9018091B7019091B80101979093B801EE
:103120008093B701892B69F41092BD011092BC0104
:1031300080919A018F5F80939A01863011F41092EA
:103140009A019091A9018091970189278093A90103
:1031500010929501FF91EF91BF91AF919F918F9147
:103160007F916F915F914F913F912F910F900FBE83
:103170000F901F9018951F920F920FB60F92112467
:103180008F939F938BB1909197019C71837E892B34
:103190008BB915BC9F918F910F900FBE0F901F9010
:1031A00018950F931F93CF93DF931092970110926E
:1031B0009601C0E0D0E01C2F0C2F8091250790E0F5
:1031C0000C2E02C0959587950A94E2F780FF08C0FF
:1031D000812F0E941B2390919701892B8093970147
:1031E0008091260790E002C0959587950A95E2F7B1
:1031F00080FF08C0812F0E94252390919601892B82
:10320000809396012196C330D105A9F6DF91CF9125
:103210001F910F9108950E946C168BE2E8E6F1E091
:10322000DF011D928A95E9F783E2EBE9F1E0DF0126
:103230001D928A95E9F710929401109293011092D1
:103240009A011092990181E0809398011092950162
:103250000E94D1188BB1837E90919701892B8BB9F5
:103260008BB18F7190919601892B8BB908958AB19A
:103270008C618AB9209A8AB1806E8AB9E1E8F0E05F
:1032800080818F7E8083808188608083E0E8F0E0A9
:1032900080818C7F808380818F708083EEE6F0E078
:1032A0008081887F808314BC15BC8081816080838D
:1032B0000895CF93DF93C0919301D091940120970B
:1032C000B9F081E08093690160917F017091800184
:1032D00080918101909182019B01AC010E948C3709
:1032E0006E8B7F8B888F998F10929401109293012F
:1032F000DF91CF9108952F923F924F925F926F92FC
:103300007F928F929F92AF92BF92CF92DF92EF9275
:10331000FF920F931F93CF93DF93CDB7DEB7E7975D
:103320000FB6F894DEBF0FBECDBF90919A01809189
:103330009801981709F442C68091930190919401E5
:10334000892B09F083C20E94AB24FC019093940165
:1033500080939301892B09F431C6809169018823F8
:1033600019F010926901E5C0809168018F5F853086
:1033700019F08093680102C01092680120916801E1
:103380002983858153E1529FA00111248A010E51A6
:103390001E4FD8018C9386819781A085B185AC01A1
:1033A000BD0193E0440F551F661F771F9A95D1F713
:1033B000D80111964D935D936D937C9314978285FC
:1033C0009385A485B585AC01BD0123E0440F551F4D
:1033D000661F771F2A95D1F7D80115964D935D93F7
:1033E0006D937C93189786859785A089B189AC01E8
:1033F000BD0133E0440F551F661F771F3A95D1F783
:10340000D80119964D935D936D937C931C97828997
:103410009389A489B589AC01BD01A3E0440F551F70
:10342000661F771FAA95D1F7D8011D964D935D931E
:103430006D937C935097848152968C9360817181B7
:10344000828193810E94AD35CB010E948613F801E1
:10345000818B20919301309194013A832983D90182
:1034600052966D917D918D919C9155970E94DC357E
:1034700060936A0170936B0180936C0190936D016E
:10348000E981FA8122A533A544A555A50E943435CA
:103490009B01AC0160936E0170936F01809370018A
:1034A0009093710160E070E080EA9FE30E94343500
:1034B000609372017093730180937401909375010E
:1034C0001092760110927701109278011092790192
:1034D00080919E058032E9F46091870170918801A6
:1034E0008091890190918A0160937F01709380019E
:1034F00080938101909382019B01AC010E948C37E3
:10350000A981BA8156966D937D938D939C9359971B
:1035100010C0E981FA8166897789808D918D0E943A
:103520002B3860937F017093800180938101909389
:10353000820110927B0110927C0110927D01109209
:103540007E0120919301309194013A832983D9011E
:1035500096968D909D90AD90BC909997A501940101
:1035600060E070E080E09FE30E9434352B013C0175
:1035700080919E05E981FA81C2A4D3A4E4A4F5A4B4
:10358000803209F050C0F2E0F0937A01A981BA814B
:1035900056962D913D914D915C91599729833A838F
:1035A0004B835C83C301B2010E948C379B01AC0149
:1035B000C701B6010E9434342B013C0120E030E009
:1035C000A9010E942A3587FF1DC0A5019401C501EC
:1035D000B4010E943534A70196010E948C379B01EB
:1035E000AC0169817A818B819C810E9434340E9474
:1035F0002B386093870170938801809389019093A1
:103600008A0124C140927B0150927C0160927D012D
:1036100070927E01109287011092880110928901A8
:1036200010928A0113C110927A01C0928B01D0923C
:103630008C01E0928D01F0928E010E94BB244B011F
:103640005C01609387017093880180938901909356
:103650008A019B01AC010E948C376D837E838F832E
:103660009887E0919301F0919401FF87EE8722A55E
:1036700033A544A555A529873A874B875C872689BA
:103680003789408D518D29833A834B835C839B011D
:10369000AC0169817A818B819C810E943434A301C1
:1036A00092010E948C3729853A854B855C850E9462
:1036B000353420E030E040E05FE30E948C376B015E
:1036C0007C0120E030E0A9010E944C3718160CF074
:1036D000ADC0A701960169857A858B859C850E947E
:1036E0004C3718160CF08EC0EE85FF8582A093A093
:1036F000A4A0B5A02D813E814F815885C501B4019C
:103700000E943434A30192010E948C379B01AC01CA
:1037100060938F0170939001809391019093920137
:10372000C701B6010E944C371816DCF5C501B4017B
:103730000E942B38609383017093840180938501EC
:1037400090938601A501940169817A818B819C8186
:103750000E942A35811104C0F1E0F0937A0176C00D
:1037600029813A814B815C81C501B4010E943434C6
:10377000A30192010E948C379B01AC0160918B01E7
:1037800070918C0180918D0190918E010E94343452
:1037900060938B0170938C0180938D0190938E01C7
:1037A00055C0C0928B01D0928C01E0928D01F092B5
:1037B0008E01C0928F01D0929001E0929101F0921F
:1037C0009201AE85BF8596966D917D918D919C916C
:1037D00099979B01AC010E943534A70196010E9484
:1037E0008C372D813E814F8158850E9435340E944F
:1037F0002B386093830170938401809385019093AB
:10380000860124C0B2E0B0937A0180917F0190914B
:103810008001A0918101B0918201809383019093F6
:103820008401A0938501B093860110C010928B0192
:1038300010928C0110928D0110928E018092830162
:1038400090928401A0928501B092860180919901A5
:10385000082F10E026E0209FF001219FF00D112499
:10386000E254FE4F80916801828340919301509110
:1038700094015F874E87DA019A96BC91B9A7FA0145
:10388000F3A5FAA7DA019C96BC91BBA7FA01F5A5AE
:10389000FCA7209172013091730140917401509105
:1038A000750169A57AA58B2F9F2F0E9434346DA3D3
:1038B0007EA38FA398A720E030E0A9010E942A35BB
:1038C00087FF04C01DA21EA21FA218A620918B0173
:1038D0002D8B30918C013E8B40918D014F8B5091FF
:1038E0008E01588F80918301898F909184019A8FE6
:1038F000A0918501AB8FB0918601BC8FE0918F01C3
:10390000ED8FF0919001FE8F209191012F8F3091DA
:10391000920138A340917A014C8B50917F015983D9
:10392000809180018D83909181019987A09182017E
:10393000AD87B0917B01B9A3E0917C01EAA3F0913E
:103940007D01FBA320917E012CA3809187019091A2
:103950008801A0918901B0918A018AAB9BABACAB85
:10396000BDAB2D8D3E8D4F8D58A16D897E898F8980
:10397000988D0E942A35811103C092E09DA702C054
:10398000A1E0ADA7B9A5BFABEAA5EEAB2BA43CA4C3
:103990008EE3C82E83ECD82E8EE2E82E89E3F82E33
:1039A000188A198A1A8A1B8A46015701FC89FF2343
:1039B00021F0F13009F471C0A6C0AE85BF8596969E
:1039C0002D913D914D915C919997C701B6010E944F
:1039D0008C372B013C0120E030E040E05FE30E94A7
:1039E0008C3729813D8149855D850E943534A70149
:1039F00096010E948C379B01AC016FA97EA9C10181
:103A00000E9434346FAB7EAB1C012D893E894F89F7
:103A1000588D0E942A3587FF33C02D893E894F89F2
:103A2000588D69A57AA58BA59CA50E9434349B016D
:103A3000AC010E9435346B017C0129813D814985AF
:103A40005D85698D7A8D8B8D9C8D0E9435349B01AF
:103A5000AC01C701B6010E9434356B017C01B98D00
:103A6000B983EA8DED83FB8DF9872C8D2D873DA5DC
:103A70003C8B4D894FAB5E895EAB2F88388CBEC0C6
:103A8000A301920169817D8189859D850E943534DC
:103A900069837D8389879D87B1C0298D3A8D4B8D40
:103AA0005C8DC701B6010E948C379B01AC016FA9E8
:103AB0007EA9C1010E9434342B013C019B01AC0161
:103AC0006D8D7E8D8F8D98A10E944C3718160CF04D
:103AD00092C02D8D3E8D4F8D58A16FA97EA9C10139
:103AE0000E943434298D3A8D4B8D5C8D0E94343583
:103AF0006B017C018D8D8FAB9E8D9EAB2F8C38A082
:103B0000A2E0AC8B7BC0EE85FF8526A137A140A546
:103B100051A5C701B6010E948C372B013C019B01C6
:103B2000AC0169817D8189859D850E944C3718167D
:103B3000D4F520E030E040E05FE3C301B2010E9431
:103B40008C379B01AC0169817D8189859D850E94AF
:103B50003434A70196010E948C379B01AC016FA9F8
:103B60007EA9C1010E9434346EA77FA788AB99ABB0
:103B700029A13AA14BA15CA10E944C3718169CF4D4
:103B8000A301920169817D8189859D850E943434DC
:103B900069837D8389879D87FEA5FFAB2FA52EAB0B
:103BA00028A839A82BC029A13AA14BA15CA16FA9D3
:103BB0007EA9C1010E9434349B01AC010E943534BE
:103BC0006B017C012AA93BA94CA95DA969817D8172
:103BD00089859D850E9435349B01AC01C701B601E2
:103BE0000E9434356B017C0139A13FAB4AA14EAB39
:103BF0002BA03CA003C04FAA5EAA1301A701960107
:103C0000688979898A899B890E943534688B798B88
:103C10008A8B9B8B9B01AC01C501B4010E944C3780
:103C200018160CF461C02DA13EA14FA158A56FA993
:103C30007EA9C1010E944C3718160CF44BC05C8958
:103C400050937A0189819D81A985BD8580937F01EB
:103C500090938001A0938101B093820140906E0106
:103C600050906F016090700170907101A3019201FA
:103C70006FA97EA9C1010E948C3769837A838B83E7
:103C80009C830E9413356B017C0160916A017091E5
:103C90006B0180916C0190916D010E9413354B0175
:103CA0005C01A70196010E9434340E94AD356D83FA
:103CB0007E838F83988786E0809FF001819FF00D3F
:103CC0001124E254FE4FAD81BE81B183A083AB2BA2
:103CD00029F14FC02EE333EC4EE259E3C501B401A4
:103CE0000E9435344B015C01288939894A895B89F6
:103CF000C501B4010E9434346B017C0129A13AA1B1
:103D00004BA15CA16FA97EA9C1010E944C37181676
:103D10000CF44CCEFC89F0937A0194CF80919E05EF
:103D2000803239F510927F0110928001109281014A
:103D30001092820110927601109277011092780110
:103D400010927901C0926A01D0926B01E0926C01ED
:103D5000F0926D01A3019201C701B6010E943435B2
:103D6000AE85BF859A966D937D938D939C939D9719
:103D700018C12091760130917701409178015091DE
:103D80007901688979898A899B890E9435342B0158
:103D90003C0129813A814B815C81C501B4010E94BB
:103DA00034349B01AC01C301B2010E9434354B0194
:103DB0005C0129813A814B815C81C701B6010E9477
:103DC0003434A50194010E948C376093760170937E
:103DD0007701809378019093790120EC31EE44E6ED
:103DE0005EE4C501B4010E948C370E9413350E9425
:103DF000AD35603DB7E07B078105910550F426E0C5
:103E0000209FF001219FF00D1124E254FE4F1582F6
:103E10004CC0603A3FE073078105910558F446E0D5
:103E2000409FF001419FF00D1124E254FE4F51E0FC
:103E300055831BC06034AFE17A078105910558F4C2
:103E4000B6E0B09FF001B19FF00D1124E254FE4F97
:103E500022E025830AC036E0309FF001319FF00D4B
:103E60001124E254FE4F43E0458356E0509FF00199
:103E7000519FF00D1124E254FE4F2581022E04C003
:103E800096958795779567950A94D2F7AD81BE810F
:103E900002C0AA0FBB1F2A95E2F7B183A083611568
:103EA0007105B1E08B07910558F426E0209FF001E1
:103EB000219FF00D1124E254FE4F7483638304C0EC
:103EC0004FEF5FEF54834383809198018093990172
:103ED0008F5F863019F08093980102C0109298018C
:103EE00020917B0130917C0140917D0150917E01B8
:103EF0006FA97EA9C1010E944C371816C4F4E09145
:103F00009301F09194018FA99EA9D10182A793A753
:103F1000A4A7B5A789819A81AB81BC8180936A01EE
:103F200090936B01A0936C01B0936D01FEC920E0EA
:103F300030E0A9016FA97EA9C1010E944C37181673
:103F4000B4F510927F0110928001109281011092BD
:103F500082011092760110927701109278011092EE
:103F60007901C0926A01D0926B01E0926C01F092EB
:103F70006D01A0919301B0919401BA83A98320911E
:103F80006E0130916F014091700150917101C70134
:103F9000B6010E943435E981FA8162A773A784A72C
:103FA00095A70E94142888E080939E0507C0109270
:103FB0009401109293010E949724B7C9E7960FB617
:103FC000F894DEBF0FBECDBFDF91CF911F910F914F
:103FD000FF90EF90DF90CF90BF90AF909F908F9029
:103FE0007F906F905F904F903F902F900895F99938
:103FF000FECF92BD81BD81E08FBB80B50895F8945E
:10400000F999FECF92BD81BD81E08FBB80B5862737
:10401000482F082E000C550B262F30E02423352383
:10402000232B39F06F3F19F060BD84E006C084E1B6
:1040300004C0882321F060BD84E28FBBF99A789494
:1040400008959F92AF92BF92CF92DF92EF92FF922C
:104050000F931F93CF93DF935C018A017B01E40EE2
:10406000F51EEB01912C6C01C61AD70ACE018C0DFE
:104070009D1DCE15DF0589F0911008C0292D990CE2
:10408000330B232F221F2227221F01C021E0699119
:10409000922E960E0E94FF1FE9CF692DC501800F59
:1040A000911FDF91CF911F910F91FF90EF90DF90C3
:1040B000CF90BF90AF909F900C94FF1F9F92AF92B4
:1040C000BF92CF92DF92EF92FF920F931F93CF9305
:1040D000DF935B018A017C01E40EF51EEC01912C5B
:1040E0006B01C81AD90AC6018C0F9D1FCE15DF05BA
:1040F00089F00E94F71F911008C0292D990C330BED
:10410000232F221F2227221F01C021E0982E920E6A
:104110008993E9CFC501800F911F0E94F71F21E00D
:1041200030E0981611F020E030E0C901DF91CF9126
:104130001F910F91FF90EF90DF90CF90BF90AF90C5
:104140009F90089521E5829FC001112440E550E031
:104150009D5F0C94212040E550E0BC018EEA93E085
:104160000C9421202DE0829FC00111244CE050E0EE
:104170009E5F0C94212069E080E090E00E94FF1F88
:104180004EE450E064EF76E081E090E00C94212072
:10419000E4EFF6E08AE080AB8FEF83AB11AA82E018
:1041A00082AB8FE184AB8AE097EDA3EABCE385ABF9
:1041B00096ABA7ABB0AF8FE692E1A3E0BBE381AFD4
:1041C00092AFA3AFB4AF17AE80E090E0A8ECB1E43B
:1041D0008093340790933507A0933607B093370741
:1041E00080E090E0AAEFB4E4809338079093390719
:1041F000A0933A07B0933B0784E690E090933D0785
:1042000080933C0780E090E0A0E8BFE380933E0706
:1042100090933F07A0934007B093410782E391E05A
:1042200096AF85AF80E090E0A8ECB2E48083918304
:10423000A283B38384839583A683B7838087918782
:10424000A287B38780E090E4ACE9B5E484879587E2
:10425000A687B787808B918BA28BB38B848B958B32
:10426000A68BB78B80E09FECA9E1BAE4808F918F99
:10427000A28FB38F848F958FA68FB78F80E098EC35
:10428000AFEAB8E480A391A3A2A3B3A386E696EC19
:10429000A0E0B4EC84A395A3A6A3B7A38DEC9CE8FF
:1042A000A3ECB3EC80A791A7A2A7B3A780E090E00E
:1042B000A0E2B2EC84A795A7A6A7B7A70C94BB2051
:1042C0001F93CF93DF93182FEB0181E5189FB00167
:1042D00011247D5F40E550E0CE010E945E20892BD5
:1042E00039F41882BE01812F0E94A22080E001C013
:1042F00081E0DF91CF911F910895CF93DF93EC017F
:1043000040E550E06EEA73E00E945E20892B21F4C4
:104310001882CE010E94AB2081E0DF91CF910895F9
:104320001F93CF93DF93182FEB018DE0189FB001FF
:1043300011247E5F4CE050E0CE010E945E20892B6C
:1043400059F48CE0FE0111928A95E9F7BE01812FA4
:104350000E94B22080E001C081E0DF91CF911F91E7
:10436000089580E090E00E94F71F893059F44EE4F0
:1043700050E061E070E084EF96E00E945E2021E072
:10438000892B09F420E0822F0895CF92DF92EF92DB
:10439000FF92CF93DF93C82F6A017B0120E030E0CA
:1043A000A901C701B6010E942A3587FD07C1C4369D
:1043B00008F441C08CE98C0F20E0833098F590E040
:1043C000880F991F880F991F223059F0FC01233064
:1043D000F1F0213019F0EC50F94F1FC0E050F94FC7
:1043E0001CC0EC01C45FD84F20E030E040E752E44D
:1043F000C701B6010E948C3720E030E040E752E46C
:104400000E948C37688379838A839B83D3C0E85E5C
:10441000F84FF7FAF094F7F8F094C082D182E28274
:10442000F382C8C02F5F8A3008F4CAC0243009F470
:10443000C7C08A50C2CFC701B6010E946F380E9420
:10444000AD358C2F90E08932910508F0B9C0FC01A0
:10445000EF5AFF4F0C94C338633008F4B3C0609335
:104460002407A8C060932707A5C06093250702C052
:10447000609326070E94D1189DC0809131079091CA
:104480003207662311F0846091C08B7F8FC08091CA
:10449000310790913207662311F0806487C08F7BCB
:1044A00085C08091310790913207662311F08068B2
:1044B0007DC08F777BC060932807C0922907D09278
:1044C0002A07E0922B07F0922C0774C0C0922D07A8
:1044D000D0922E07E0922F07F09230076BC08091A8
:1044E000310790913207662311F081605FC08E7FA3
:1044F0005DC08091310790913207662311F0826090
:1045000055C08D7F53C0809131079091320766234B
:1045100021F084FF59C0806249C08F7D47C08091DF
:10452000310790913207662311F0886001C0877FC0
:1045300090933207809331070E9418293BC08091E5
:10454000310790913207662311F080612FC08F7C74
:104550002DC0609333072EC0C0923407D092350728
:10456000E0923607F092370725C0C0923807D09204
:104570003907E0923A07F0923B071CC070E0709355
:104580003D0760933C0716C0C0923E07D0923F079C
:10459000E0924007F09241070DC080913107909161
:1045A0003207662311F0916001C09E7F909332071D
:1045B000809331070E94BB2080E007C084E005C0E3
:1045C00083E003C086E001C08AE0DF91CF91FF90D5
:1045D000EF90DF90CF9008951F93CF93DF93CDB7E7
:1045E000DEB72C970FB6F894DEBF0FBECDBF0E948A
:1045F000B121811107C087E00E947E2D0E94C82052
:104600000E94FB2D10E0BE016F5F7F4F812F0E9443
:104610009021811103C087E00E947E2D1F5F18301A
:1046200091F72C960FB6F894DEBF0FBECDBFDF9189
:10463000CF911F910895882321F0813021F080E1EE
:10464000089584E0089588E00895882321F081305A
:1046500021F080E8089580E2089580E40895882399
:1046600021F0813021F080E1089582E0089584E016
:1046700008952F923F924F925F926F927F928F9206
:104680009F92AF92BF92CF92DF92EF92FF920F93E1
:104690001F93CF93DF93C0915F02C11101C0C2E1AC
:1046A000C150D0915D02DC1709F41DC1EC2EF12C34
:1046B0002EE2C29F800111240F591D4FF801A28CD8
:1046C000B38CC48CD58C66A177A180A591A59B01E4
:1046D000AC010E943534F80122A533A544A555A5A7
:1046E0000E948C374B018C019B01AC01B501C601C6
:1046F0000E942A3587FD02C0540168018EE28E9D1A
:10470000F0018F9DF00D1124EF59FD4FC501D60129
:10471000868B978BA08FB18FC11101C0C2E1C150B0
:10472000DC1761F02EE22E9DC0012F9D900D11240B
:104730009C012F593D4F7901DEE233C08091600228
:10474000D81360C00E9459195DC0AC2EB12CDA9DFF
:10475000C001DB9D900D1124FC01EF59FD4F6F014D
:10476000C11101C0C2E1C150809160028C1302C02E
:104770000E945919DA9D8001DB9D100D11240F59FB
:104780001D4FF801828C938CA48CB58CA5019401EB
:1047900066897789808D918D0E942A35811106C0A6
:1047A000760180915D02C813D0CF2CC0F80166A1BC
:1047B00077A180A591A59B01AC010E943534F80139
:1047C00022A533A544A555A50E948C37F70126895B
:1047D0003789408D518D0E9435342B013C019B015E
:1047E000AC01C501B4010E944C37F80118162CF435
:1047F000468A578A608E718ED3CF868A978AA08E1A
:10480000B18ECECFD0915D02FEE2DF9F80011124F8
:104810000F591D4FC1E0CD0FC23109F4C0E0209007
:104820005F028EE2382EC21509F45BC0CC2ED12C6B
:104830003C9CC0013D9C900D11249C012F593D4F83
:104840007901F80146885788608C718CF901868857
:104850009788A08CB18CA5019401C301B2010E947C
:104860002A3587FF24C0F80166A177A180A591A50C
:104870009B01AC010E943534F80122A533A544A563
:1048800055A50E948C37A30192010E9435342B015B
:104890003C019B01AC01C501B4010E944C371816C4
:1048A00034F4F701468A578A608E718EDC2F3C9C67
:1048B000F0013D9CF00D1124EF59FD4F228D338DF9
:1048C000448D558D66897789808D918D0E942A351A
:1048D000811101C0DC2FCF5FC23109F4C0E0870134
:1048E000A2CFD0935D02DF91CF911F910F91FF90E6
:1048F000EF90DF90CF90BF90AF909F908F907F9080
:104900006F905F904F903F902F9008958CE1E1E47D
:10491000F2E0DF011D928A95E9F710926002109291
:104920005F0281E080935E0210925D020895909193
:10493000600280915F02891769F081E0890F8231FE
:1049400009F480E020915D02921302C080935D0221
:104950008093600208958091600290915F029817A1
:1049600039F02EE2829FC00111248F599D4F089586
:1049700080E090E00895E0916002EF5FE23109F499
:10498000E0E080915F028E1761F08EE2E89FF00117
:104990001124EF59FD4F66897789808D918D0C9494
:1049A0002B3860E070E0CB01089581E02091600237
:1049B00090915E02291380E008952F923F924F92CA
:1049C0005F926F927F928F929F92AF92BF92CF929F
:1049D000DF92EF92FF920F931F93CF93DF93CDB7A8
:1049E000DEB7E7970FB6F894DEBF0FBECDBF4B8F93
:1049F0005C8F6D8F7E8F2FAB20915F02422F50E036
:104A00005AA349A3EEE22E9FA0011124FA01EF5907
:104A1000FD4FE082F18202831383C482128A138ADB
:104A2000148A158A12A613A614A615A6158249E99A
:104A300056E766E97EE746A357A360A771A798AB40
:104A40008FA744EF56E05EA34DA36E015DE0C50E57
:104A5000D11C81E492E09CA78BA73EE2239FC0017A
:104A60001124AC0149595D4F58A34F8FCE010196D7
:104A70009CA38BA39AAB89AB21E432E038A72FA388
:104A800044EF56E05EA74DA7F12C8F01CF0142966F
:104A90009CAB8BAB3596FEABEDAB1801FAE22F0E5B
:104AA000311CEFA5F8A96191719181919191F8ABB9
:104AB000EFA7EDA5FEA581909190A190B190FEA7E2
:104AC000EDA7A50194010E948C370E945937F60189
:104AD00061937193819391936F01EFA1F8A5419038
:104AE000519061907190F8A7EFA364197509860938
:104AF00097092B013C0197FF07C04424552432013C
:104B0000461A570A680A790AEF8DF8A14192519224
:104B100061927192F8A3EF8FEBA9FCA920813181FA
:104B200042815381241535054605570510F4A3012C
:104B30009201EBA9FCA920833183428353830E9415
:104B4000DE35A50194010E9434354B015C01E9A9D1
:104B5000FAA96193719381939193FAABE9AB20E049
:104B600030E0A9010E942A3587FF08C08F2D0E94DE
:104B70002523EDA9FEA99081892B8083A5019401AD
:104B8000C501B4010E948C37F1012081318142813D
:104B900053810E943534F101608371838283938352
:104BA000F394F3E0FF127DCF0E942B384B015C01A0
:104BB000F1016083718382839383F80182899389F1
:104BC000A489B589892B8A2B8B2B09F4FAC120E0A3
:104BD00030E0A9016B8D7C8D8D8D9E8D0E942A35D4
:104BE00087FD22C0FFA9FF2361F02B8D3C8D4D8DE9
:104BF0005E8DC501B4010E9434356B8F7C8F8D8F23
:104C00009E8F20E030E040E85FE36B8D7C8D8D8DE2
:104C10009E8D0E942A3587FF0FC01B8E1C8E20E8B8
:104C20002D8F3FE33E8F08C049E94B8F56E75C8FDD
:104C300086E98D8F9EE79E8FA501940160E070E06C
:104C400080E89FE30E9434356FA378A789A79AA7CD
:104C5000FE013D96FA8FE98F812C912C54012EE2B2
:104C600049A15AA1249FC001259F900D1124FC0148
:104C7000E957FD4FF8A3EF8FEBA1FCA1C080D180D5
:104C8000E280F38020E030E0A901C701B6010E9474
:104C90002A35882309F46AC0A70196016FA178A577
:104CA00089A59AA50E948C372B013C01EBA1FCA1A0
:104CB00060837183828393839B01AC0160E070E029
:104CC00080E89FE30E9434356B017C01E894F7F89B
:104CD000EDA1FEA12485358546855785C701B6011E
:104CE0000E948C371B018C012B8D3C8D4D8D5E8D70
:104CF0000E944C37181624F02B8E3C8E0D8F1E8F81
:104D0000EF8DF8A10081118122803380EDA1FEA1F9
:104D1000208D318D428D538DC701B6010E948C3795
:104D20007B016C019B01AC01B801C1010E942A35D5
:104D300087FD02C087011601C801D101EF8DF8A1DE
:104D400080839183A283B383EBA5FCA5248535855D
:104D500046855785C301B2010E948C379B01AC0187
:104D6000C501B4010E9434344B015C012BA13CA16C
:104D70002C5F3F4F3CA32BA34BA55CA54C5F5F4F23
:104D80005CA74BA78DA19EA104969EA38DA3E98D40
:104D9000FA8DE217F30709F06FCF90915F028091CF
:104DA0006002981313C08EE229A13AA1829FF001FC
:104DB000839FF00D1124EF59FD4F168A178A108E2C
:104DC000118E168E178E10A211A25BC0A501940140
:104DD00060E070E080E89FE30E94343420E030E03F
:104DE00040E05FE30E948C370E942B386B017C010E
:104DF0008EE249A15AA1849FF001859FF00D1124F4
:104E0000EF59FD4F2091290730912A0740912B0738
:104E100050912C0766A177A180A591A50E948C379F
:104E2000A70196010E948C374B015C01A7019601F6
:104E300060E070E080E89FE30E9434349B01AC01A5
:104E4000C501B4010E9434357B018C0120E030E0C3
:104E5000A9010E942A3587FF04C0E12CF12C00E053
:104E600010E08EE229A13AA1829FF001839FF00D0C
:104E70001124EF59FD4FA701B801468F578F60A34A
:104E800071A32B8D3C8D4D8D5E8D6B8D7C8D8D8DAD
:104E90009E8D0E948C377B018C018EE249A15AA124
:104EA000849FF001859FF00D1124EF59FD4FC7013C
:104EB000D80182A393A3A4A3B5A3A68CB78CC0A04A
:104EC000D1A06090590270905A0280905B0290903D
:104ED0005C029301A401B701C8010E942A3587FD35
:104EE00005C0B62DA72DF82DE92D04C0BE2DAF2D80
:104EF000F02FE12F9501A6016B2F7A2F8F2F9E2F78
:104F00000E944C3718166CF09301A401B701C80138
:104F10000E942A3587FD03C05301640102C0570176
:104F200068018EE229A13AA1829FF001839FF00DD2
:104F30001124EF59FD4FC501D601828F938FA48FA5
:104F4000B58F8CE0FE013196ADE4B2E001900D9298
:104F50008A95E1F7C701D8018093590290935A02CC
:104F6000A0935B02B0935C028CE0FE013D96A1E44D
:104F7000B2E001900D928A95E1F780915E028093F4
:104F80005F028F5F823109F480E080935E02E796D2
:104F90000FB6F894DEBF0FBECDBFDF91CF911F914A
:104FA0000F91FF90EF90DF90CF90BF90AF909F90C8
:104FB0008F907F906F905F904F903F902F900C94C8
:104FC0003923E7960FB6F894DEBF0FBECDBFDF9151
:104FD000CF911F910F91FF90EF90DF90CF90BF90F6
:104FE000AF909F908F907F906F905F904F903F9089
:104FF0002F900895A1EAB5E0E1E4F2E04D915D91D2
:105000006D917D91419351936193719382E0ED3461
:10501000F807A1F7089580915F02909160028917C7
:1050200008F48E5E891B08950E94591980916002D0
:1050300080935D020C9439234F925F926F927F921E
:10504000AF92BF92CF92DF92EF92FF920F931F9396
:10505000CF93DF937C01FB015A01C081D0E0DC01DA
:10506000AC0FBD1F8C918D3231F4ED01229611965B
:105070008C9101E00BC08B3221F02196CE0DDF1D0B
:1050800004C0ED01229611968C9100E0512C612C08
:1050900010E020E030E0A9016E0160ED762E780E80
:1050A00089E08715D8F06394A8E0A61598F0511010
:1050B0001150A5E0B0E00E94C938DC01CB01880F97
:1050C000991FAA1FBB1F9C01AD01270D311D411D5A
:1050D000511D0BC0511009C01F5F07C0BEEF7B12EE
:1050E00008C0511006C0552453942196D6018C91C6
:1050F000D3CF662009F450C06F01CA01B9010E94E4
:10510000DC352B013C0120E030E0A9010E942A356A
:10511000882349F11F3F64F42AE037ED43E25CE362
:10512000C301B2010E948C372B013C011E5FF2CFFC
:105130001F3F59F42DEC3CEC4CEC5DE3C301B20194
:105140000E948C372B013C010EC0112361F020E03E
:1051500030E040E251E4C301B2010E948C372B01E0
:105160003C011150F2CF002351F077FA709477F898
:105170007094F501408251826282738206C0D5012B
:105180004D925D926D927C921397CE19DF09C150BA
:10519000F601C08381E001C080E0DF91CF911F91D3
:1051A0000F91FF90EF90DF90CF90BF90AF907F90E6
:1051B0006F905F904F900895009741F0EFE9FFE006
:1051C0003197F1F700C000000197F6CF08958F9254
:1051D0009F92AF92BF92CF92DF92EF92FF926901BE
:1051E0007A019B01AC010E948C374B015C01A70145
:1051F0009601C701B6010E948C379B01AC01C50125
:10520000B4010E943534FF90EF90DF90CF90BF90B3
:10521000AF909F908F900C942B38EBE6F0E080815C
:10522000897E8083E8E6F0E080818E7F8083089528
:1052300084B1897E84B99091310785B196FF02C00F
:10524000897E01C0866185B993FF0BC080916B0098
:10525000866180936B008091680081608093680014
:1052600008950C940D291F920F920FB60F921124DE
:105270002F933F934F935F936F937F938F939F935E
:10528000AF93BF93EF93FF9380919E05813071F0B0
:1052900080919F0585FD0AC00E9408099FB7F89478
:1052A00080919F05806680939F059FBFFF91EF913E
:1052B000BF91AF919F918F917F916F915F914F912E
:1052C0003F912F910F900FBE0F901F9018952F9226
:1052D0003F924F925F926F927F928F929F92AF9286
:1052E000BF92CF92DF92EF92FF920F931F93CF93D3
:1052F000DF93CDB7DEB76E970FB6F894DEBF0FBE63
:10530000CDBF90919D059111BCC1082F80913807A8
:1053100090913907A0913A07B0913B078D8B9E8BF6
:10532000AF8BB88F38E1A32E37E0B32EDE011D9688
:105330006D01FE0170967F01212C312C812C912C66
:1053400010E0812F0E942F23D7018D937D01812FA3
:105350000E941B23F60181936F01D5014D905D9052
:105360006D907D905D019101A401C301B2010E9485
:105370002A3587FF02C0120143011F5F133009F76E
:1053800020E030E040EC5FEBB101C4010E948C37BB
:105390002B013C010E94862426E0922EBB24B3946C
:1053A00088248394E02FF0E0FA8FE98F9301820143
:1053B00030580B8F1C8F2D8F3E8F1E0110E1210E58
:1053C000311C80913107AB2C86FDA824E090330777
:1053D000F12C9E012F5F3F4F3C8B2B8BF901DE019F
:1053E0001D9680E090E0D12C60E0782F298D3A8DD9
:1053F000082E02C0359527950A94E2F7A90141705D
:10540000552720FF11C06F5FB11009C00B8D1C8D97
:105410002D8D3E8D008311832283338309C040820A
:1054200051826282738204C01082118212821382BE
:10543000970102C0359527957A95E2F720FF09C0BC
:1054400000811181228133813058008311832283AE
:105450003383452B11F02C91D22A01961196349664
:105460008330910511F670E080E090E00E94DC3519
:105470000E942B389B01AC01D092A0056D897E89DA
:105480008F89988D0E948C37AB01BC01C12CE12C17
:10549000F12C870120E0CE0101960E94DD240E94BC
:1054A0007B190E944C1693B1AA2011F016E19127A6
:1054B000DE015096FE013D968191282F2D2129F085
:1054C0002C91292311F08095D8221196E215F3052D
:1054D00099F7D092A0050E947B1980919F0584FFC7
:1054E00003C00E94D214CDC08D2D8C71E1F60E94B4
:1054F0000B190E94862480913C0790913D070E94E1
:10550000DC288091340790913507A0913607B0913F
:1055100037078D8B9E8BAF8BB88FB8249A949110E0
:1055200050CF20903307312C80903E0790903F075A
:10553000A0904007B09041079501840130580D8B31
:105540001E8B2F8B388F8DE9C82E85E0D82E94EFD7
:10555000E92E96E0F92E00E010E0898D9A8D002E5C
:1055600002C0959587950A94E2F780FF3FC0C1017C
:10557000002E02C0959587950A94E2F780FF24C01B
:10558000D70194964D905D906D907C909797A30174
:105590009201C501B4010E943534EB89FC89608316
:1055A000718382839383D7012D913D914D915C91BD
:1055B000C301B2010E948C370E945937F6016483FF
:1055C00075838683978326C08D899E89AF89B88D20
:1055D000EB89FC8980839183A283B383D6011496DF
:1055E0001D921D921D921C92179714C0F6016481A2
:1055F0007581868197810E94DE35D7012D913D917D
:105600004D915C910E943435EB89FC8960837183F4
:10561000828393830F5F1F4F2B893C892C5F3F4F01
:105620003C8B2B8B34E0C30ED11C84E0E80EF11CC4
:105630000330110509F091CF0E94FA2740913807F5
:105640005091390760913A0770913B07C12CE12CCA
:10565000F12C870120E0CE0101960E94DD2488E034
:1056600080939E059FB7F89480919F0582608093F8
:105670009F059FBF0E94D2140E94321684E080933F
:105680009E056E960FB6F894DEBF0FBECDBFDF91BC
:10569000CF911F910F91FF90EF90DF90CF90BF902F
:1056A000AF909F908F907F906F905F904F903F90C2
:1056B0002F900895AF92BF92CF92DF92EF92FF9218
:1056C0000F931F93CF93DF93EC0108E117E05C0188
:1056D0008CE0A80EB11CC990D990E990F99020E017
:1056E00030E0A901C701B6010E944C37181664F0DA
:1056F000F80121913191419151918F01C701B6017A
:105700000E942A3587FF29C080919E05803179F457
:105710009FB7F89480919F05886080939F059FBFF5
:105720000E94D21480919D058823D1F31AC00E9453
:1057300008099FB7F89480919F05806680939F0524
:105740009FBFDF91CF911F910F91FF90EF90DF905E
:10575000CF90BF90AF900C94D214CA15DB0509F01E
:10576000BACFDF91CF911F910F91FF90EF90DF9013
:10577000CF90BF90AF900895CF93DF93EC018991C4
:10578000882319F00E941714FACFDF91CF91089562
:10579000CF93DF93FC018491EF012196882321F0C0
:1057A0000E941714FE01F7CFDF91CF910895EF9279
:1057B000FF920F931F93CF93DF93CDB7DEB7289758
:1057C0000FB6F894DEBF0FBECDBF9E012F5F3F4FD7
:1057D00079018E01075F1F4FF901982F9170919306
:1057E00086950E171F07C9F7F80182918F01805D1A
:1057F0000E9417140E151F05B9F728960FB6F894D6
:10580000DEBF0FBECDBFDF91CF911F910F91FF90F3
:10581000EF9008951F93CF93DF9300D01F92CDB7E1
:10582000DEB7811109C080E30F900F900F90DF91D8
:10583000CF911F910C94171490E02AE011E0190FFA
:10584000E1E0F0E0EC0FFD1FE90FF11D622F0E9477
:105850009538905D9083912F8111F0CF112341F005
:10586000FE01E10FF11D80810E9417141150F6CF47
:105870000F900F900F90DF91CF911F9108958F920D
:105880009F92AF92BF92CF92DF92EF92FF920F93CF
:105890001F93CF93DF93CDB7DEB72A970FB6F89457
:1058A000DEBF0FBECDBF6B017C01042F20E030E0D6
:1058B000A9010E942A3587FF07C08DE20E941714B4
:1058C000F7FAF094F7F8F094102F123060F020E01F
:1058D00030E048EC52E4C701B6010E948C376B01FE
:1058E0007C011250F2CF00FF0AC020E030E040E21D
:1058F00051E4C701B6010E948C376B017C0120E0A6
:1059000030E040E05FE3C701B6010E9435340E94F9
:10591000A635E1E0F0E0EC0FFD1FE00FF11D2EE2F7
:10592000208310E03AE0832E912CA12CB12C61153C
:10593000710581059105A9F0101301C01F5FEE24C8
:10594000E394F12CEC0EFD1EE10EF11CA501940177
:105950000E94A138605DF7016083B901CA011F5F31
:10596000E6CF80E3101748F4E1E0F0E0EC0FFD1F14
:10597000E10FF11D80831F5FF5CF10130BC081E095
:10598000810FE1E0F0E0EC0FFD1FE80FF11D1E5F5D
:1059900080E38083112341F0FE01E10FF11D80813E
:1059A0000E9417141150F6CF2A960FB6F894DEBF56
:1059B0000FBECDBFDF91CF911F910F91FF90EF9060
:1059C000DF90CF90BF90AF909F908F9008952091DF
:1059D000310720FF08C02BE832E441E25DE30E947A
:1059E0008C3744E001C043E00C943F2C20913107F8
:1059F00020FF08C02BE832E441E25DE30E948C37CF
:105A000041E001C040E00C943F2C43E00C943F2C5B
:105A10003D988091310787FF04C045981092420756
:105A20000895459A80E280934207089586B1807276
:105A300090914207892708958091AE058130A1F4A5
:105A40000E94162D882381F01092AE058CE0E1EAC9
:105A5000F5E0AFEAB5E001900D928A95E1F780910B
:105A60009F05886080939F050895CF93C82F8BE88A
:105A700098E00E94C82B8C2F90E0FC013197E63112
:105A8000F10580F5E658FF4F0C94C33883E798E0A2
:105A900002C081E698E00E94C82B2BC08FE498E0FA
:105AA000FACF85E498E0F7CF84E398E0F4CF85E27D
:105AB00098E0F1CF84E098E0EECF8BEF97E0EBCF6A
:105AC00080EF97E0E8CF8DED97E0E5CF8FEC97E0A2
:105AD000E2CF89EB97E0DFCF85EA97E0DCCF81E981
