:100000000C9447040C9464040C9464040C943629F6
:100010000C947D320C9464040C9464040C94640479
:100020000C9464040C9464040C9464040C949A1668
:100030000C9464040C9464040C9464040C946404A0
:100040000C94BE180C9464040C946B140C942D1432
:100050000C9464040C9464040C9464040C94640480
:100060000C9464040C9464049F0B670D670DA90B3A
:10007000B60BC30BD00B670DD40B670DE20B670DEE
:10008000EC0BF60B270C670D670D670D000C0D0CC4
:100090001A0C04121512481215124C125F12521249
:1000A00058122F22352238223B2240224A22542243
:1000B000E322E322E3225E226022692272227C2272
:1000C000E322E322E322E322E32286229222A222F7
:1000D000AC22AF22B822C122C722E322E322E322CC
:1000E000E322E322E322E322E322E322E322E322E8
:1000F000E322D022492D4C2D512D542D572D5A2D10
:100100005D2D602D632D662D692D752D752D752D39
:10011000752D752D752D752D752D6F2D6C2D722DE1
:10012000084AD73B3BCE016E84BCBFFDC12F3D6C5E
:1001300074319ABD56833DDA3D00C77F11BED9E4C4
:10014000BB4C3E916BAAAABE000000803F05A84CA4
:10015000CDB2D44EB93836A9020C50B99186880870
:100160003CA6AAAA2ABE000000803F003E0D0A005D
:100170006F66663A006F6E3A002C6C617365722090
:10018000007A00790078002C6C696D6974733A000C
:100190002C52583A002C4275663A002C002C5750CD
:1001A0006F733A002C002C4D506F733A003C43683B
:1001B00065636B003C416C61726D003C486F6D651E
:1001C000003C486F6C64003C52756E003C51756594
:1001D0007565003C49646C65005D0D0A005B302E5E
:1001E00039675F32303138313131365F3633396219
:1001F0003836653A000D0A003D00244E005D0D0AB8
:1002000000205300204600205400204D3800204D8F
:100210003900204D3500204D3400204D3300204D55
:100220003200204D3100204D30002047393400206D
:100230004739330020473931002047393000204703
:100240003230002047323100204731390020473119
:10025000380020473137002047005B473830005BCB
:100260004733005B4732005B4731005B4730005D3E
:100270000D0A005B544C4F3A005D0D0A002C005BE8
:100280004739323A005D0D0A002C003A0033300045
:100290003238005B47005D0D0A002C005B50524273
:1002A0003A00290D0A00206D61782074726176652C
:1002B0006C2C206D6D0020616363656C2C206D6D6E
:1002C0002F7365635E3200206D6178207261746502
:1002D0002C206D6D2F6D696E002C20737465702F4E
:1002E0006D6D007A00790078002028003D00240020
:1002F00020287475726E204C61736572206D6F6476
:1003000065206F6E2C20626F6F6C290D0A002434FB
:10031000303D002028686F6D696E672070756C6CC9
:100320002D6F66662C206D6D290D0A002028686FE0
:100330006D696E67206465626F756E63652C206DF4
:10034000736563290D0A2432373D002028686F6DDC
:10035000696E67207365656B2C206D6D2F6D696EFE
:10036000290D0A2432363D002028686F6D696E67BA
:1003700020666565642C206D6D2F6D696E290D0AF0
:100380002432353D00290D0A2432343D00202868EE
:100390006F6D696E672064697220696E766572742C
:1003A000206D61736B3A002028686F6D696E67205D
:1003B0006379636C652C20626F6F6C290D0A24329F
:1003C000333D00202868617264206C696D69747324
:1003D0002C20626F6F6C290D0A2432323D002028D8
:1003E000736F6674206C696D6974732C20626F6F13
:1003F0006C290D0A2432313D0020286175746F206C
:1004000073746172742C20626F6F6C290D0A243230
:10041000303D0020287265706F727420696E6368C9
:1004200065732C20626F6F6C290D0A2431343D00F6
:10043000202861726320746F6C6572616E63652C35
:10044000206D6D290D0A2431333D0020286A756E18
:100450006374696F6E20646576696174696F6E2C70
:10046000206D6D290D0A2431323D00290D0A2431F9
:10047000313D002028737461747573207265706F4C
:100480007274206D61736B3A00202870726F626520
:100490002070696E20696E766572742C20626F6FB1
:1004A0006C290D0A2431303D0020286C696D697477
:1004B0002070696E7320696E766572742C20626F8D
:1004C0006F6C290D0A24363D002028737465702056
:1004D000656E61626C6520696E766572742C20624F
:1004E0006F6F6C290D0A24353D00290D0A24343D17
:1004F00000202864697220706F727420696E7665BE
:100500007274206D61736B3A00290D0A24333D002B
:1005100020287374657020706F727420696E766520
:100520007274206D61736B3A0020287374657020BB
:1005300069646C652064656C61792C206D736563FA
:10054000290D0A24323D00202873746570207075CF
:100550006C73652C2075736563290D0A24313D0089
:1005600024303D0024242028766965772047726274
:100570006C2073657474696E6773290D0A242320D7
:100580002876696577202320706172616D657465D6
:100590007273290D0A2447202876696577207061D7
:1005A00072736572207374617465290D0A24492081
:1005B0002876696577206275696C6420696E666F5C
:1005C000290D0A244E20287669657720737461729C
:1005D00074757020626C6F636B73290D0A24783D0B
:1005E00076616C7565202873617665204772626C50
:1005F0002073657474696E67290D0A244E783D6C0A
:10060000696E6520287361766520737461727475F4
:100610007020626C6F636B290D0A24432028636885
:1006200065636B2067636F6465206D6F6465290D7A
:100630000A245820286B696C6C20616C61726D20F3
:100640006C6F636B290D0A2448202872756E206830
:100650006F6D696E67206379636C65290D0A7E2072
:10066000286379636C65207374617274290D0A21A3
:1006700020286665656420686F6C64290D0A3F2038
:100680002863757272656E74207374617475732952
:100690000D0A6374726C2D7820287265736574205E
:1006A0004772626C290D0A000D0A4772626C203095
:1006B0002E39675F32303138313131365F36333978
:1006C00062383665205B27242720666F72206865B4
:1006D0006C705D0D0A005D0D0A0044697361626C07
:1006E000656400456E61626C6564004361757469A0
:1006F0006F6E3A20556E6C6F636B656400272448FB
:10070000277C2724582720746F20756E6C6F636BCD
:1007100000526573657420746F20636F6E74696E28
:100720007565005B000D0A005258204275666665CB
:1007300072204F76657272756E0050726F6265201E
:100740006661696C0041626F727420647572696ED3
:1007500067206379636C6500486172642F736F660C
:1007600074206C696D697400414C41524D3A20000F
:100770000D0A00496E76616C69642067636F646579
:100780002049443A00556E646566696E656420666A
:10079000656564207261746500556E737570706F65
:1007A0007274656420636F6D6D616E64004D6F647B
:1007B000616C2067726F75702076696F6C61746907
:1007C0006F6E004C696E65206F766572666C6F7730
:1007D00000486F6D696E67206E6F7420656E616290
:1007E0006C656400416C61726D206C6F636B004ED0
:1007F0006F742069646C6500454550524F4D2072FE
:10080000656164206661696C2E205573696E67208E
:1008100064656661756C74730056616C7565203C27
:10082000203320757365630053657474696E6720A7
:1008300064697361626C65640056616C7565203C27
:10084000203000496E76616C696420737461746550
:100850006D656E7400426164206E756D6265722014
:10086000666F726D617400457870656374656420AD
:10087000636F6D6D616E64206C6574746572006584
:1008800072726F723A20000D0A006F6B3A001124E9
:100890001FBECFEFD8E0DEBFCDBF11E0A0E0B1E0DA
:1008A000ECEEF1E702C005900D92A031B107D9F747
:1008B00027E0A0E1B1E001C01D92AF3DB207E1F732
:1008C0000E9466040C94F4380C9400000E94FB1300
:1008D0000E94EF220E943A190E946C328EE1E9E3F5
:1008E000F6E0DF011D928A95E9F781E080933906F1
:1008F00078949091CD0794FD80933A06C1E00E94D0
:10090000C7140E9490090E946E130E94DC130E947B
:100910001B290E940B2D0E9489240E940E190E94FF
:10092000FD270E94A2091092390610923B06809181
:10093000CD0781FF03C0C093490602C0109249064B
:100940000E94A115DCCF4F925F926F927F928F929F
:100950009F92AF92BF92CF92DF92EF92FF920F934E
:100960001F93CF93DF93EC014A015B01D22E270145
:1009700038018091CD0785FF03C0CE010E945D2B19
:1009800080913A068230E1F00E94CC1480913906C1
:10099000811116C00E94D824882319F00E94941552
:1009A000F3CF830172012D2DB501A401CE010E9468
:1009B000E02480913A06811103C088E080933A06D2
:1009C000DF91CF911F910F91FF90EF90DF90CF902B
:1009D000BF90AF909F908F907F906F905F904F905F
:1009E00008952F923F924F925F926F927F928F92D3
:1009F0009F92AF92BF92CF92DF92EF92FF920F93AE
:100A00001F93CF93DF93CDB7DEB7E5970FB6F8947A
:100A1000DEBF0FBECDBF9E878D87788B6F873A0173
:100A200009831A832B833C83C98ADA8AEB8AFC8A7E
:100A3000AF8A24E0829E40011124880D991D998F70
:100A4000888FCA01880D991D9B8F8A8FDC012D909C
:100A50003D904D905C90E88DF98D208131814281EF
:100A60005381C201B1010E9434346C8F7D8F8E8F0F
:100A70009F8F2B96AFAC2B97F4E0AF9E50011124C3
:100A80002D853E852A0D3B1D39A328A3C3018A0D60
:100A90009B1D9BA38AA3DC01CD90DD90ED90FC9083
:100AA000F9012081318142815381C701B6010E9441
:100AB00034346CA37DA38EA39FA33201210177FA66
:100AC000709477F87094D701C601B0588D839E83D7
:100AD000AF83B887EF85F889E80DF91D2C8D3D8D22
:100AE0004E8D5F8D60817181828193810E9433344C
:100AF0006B017C01EF85F889EA0DFB1D2CA13DA15E
:100B00004EA15FA160817181828193810E94333403
:100B10004B015C01A7019601C301B2010E948B3712
:100B200069877A878B879C87A50194016D817E8177
:100B30008F8198850E948B379B01AC0169857A85EE
:100B40008B859C850E94343469877A878B879C8744
:100B5000A5019401C301B2010E948B374B015C01D6
:100B6000A70196016D817E818F8198850E948B37C8
:100B70009B01AC01C501B4010E94333429853A853B
:100B80004B855C850E94B3346B017C0180915706D4
:100B900020E030E0A901823079F4C701B6010E945B
:100BA0004B3787FD19C02BED3FE049EC50E4C701FE
:100BB000B6010E9433340EC0C701B6010E94293528
:100BC000181654F02BED3FE049EC50E4C701B60194
:100BD0000E9434346B017C018090C9079090CA0751
:100BE000A090CB07B090CC0729813A814B815C81E2
:100BF000CA01B9010E943434A50194010E94333422
:100C0000A50194010E948B370E942A384B015C0198
:100C100020E030E040E05FE3C701B6010E948B377F
:100C200029813A814B815C810E948B379F77A50196
:100C300094010E9433350E9418360E94AC3579A782
:100C400068A7DB01AB2B09F485C14B01A12CB12CAA
:100C5000BF89BB2381F0C501B4010E94DB359B0134
:100C6000AC0169897A898B899C890E948B37698B51
:100C70007A8B8B8B9C8BC501B4010E94DB354B01B9
:100C80005C019B01AC01C701B6010E943335698745
:100C90007A878B879C872C968FAD2C97E4E08E9F6C
:100CA000C00111242D853E85280F391F3E8B2D8BC9
:100CB000EF85F889E80FF91FD9012D913D914D91EC
:100CC0005C9160817181828193810E943334A5019E
:100CD00094010E9433356AAB7BAB8CAB9DAB29850D
:100CE0003A854B855C85CA01B9010E948B379B010F
:100CF000AC0160E070E080E090E40E9433346B016E
:100D00007C012BEA3AEA4AE25EE369857A858B85C3
:100D10009C850E948B374B015C0120E030E040E86D
:100D200050E4C701B6010E9434349B01AC01C501F7
:100D3000B4010E948B376AA77BA78CA79DA720E0F0
:100D400030E040E05FE3C701B6010E948B376EA739
:100D50007FA788AB99AB198222242394312CE8A574
:100D6000F9A52E163F0609F4F5C0B981BC3008F08C
:100D700040C02EA53FA548A959A96D817E818F81CC
:100D800098850E948B376B017C012AA53BA54CA559
:100D90005DA5C301B2010E948B37A70196010E9495
:100DA00034346B017C012EA53FA548A959A9C30184
:100DB000B2010E948B374B015C012AA53BA54CA5D3
:100DC0005DA56D817E818F8198850E948B379B0107
:100DD000AC01C501B4010E9433342B013C01E9810F
:100DE000EF5FE983C601D7018D839E83AF83B88708
:100DF00065C0B10180E090E00E94DB3529853A852D
:100E00004B855C850E948B376B017C010E942E35DF
:100E10006D837E838F839887C701B6010E941C383B
:100E20004B015C01AA8DBB8DCD90DD90ED90FC90C7
:100E3000F7FAF094F7F8F094AAA1BBA18D919D91D7
:100E40000D90BC91A02D89839A83AB83BC83A701AD
:100E500096016D817E818F8198850E948B372B0151
:100E60003C0129813A814B815C81C501B4010E941A
:100E70008B379B01AC01C301B2010E9434342B01BA
:100E80003C01A7019601C501B4010E948B376B019B
:100E90007C0129813A814B815C816D817E818F81CA
:100EA00098850E948B379B01AC01C701B6010E9457
:100EB00033346D837E838F83988719822C8D3D8D8B
:100EC0004E8D5F8DC301B2010E943434E88DF98DDF
:100ED00060837183828393832CA13DA14EA15FA186
:100EE0006D817E818F8198850E943434A8A1B9A13B
:100EF0006D937D938D939C9313972AA93BA94CA93D
:100F00005DA9ED89FE8960817181828193810E9452
:100F10003434AD89BE896D937D938D939C931397E3
:100F20006196CFAC61976096ECACFDAC0EAD1FAD99
:100F300060972F8949895A896B897C898D859E851F
:100F40000E94A30480913906811116C0BFEF2B1AAD
:100F50003B0A05CF6196CFAC61976096ECACFDACD7
:100F60000EAD1FAD60972F8949895A896B897C899D
:100F70008F8598890E94A304E5960FB6F894DEBF8A
:100F80000FBECDBFDF91CF911F910F91FF90EF90DA
:100F9000DF90CF90BF90AF909F908F907F906F9099
:100FA0005F904F903F902F9008958F929F92AF92B5
:100FB000BF92CF92DF92EF92FF9220913A062230B9
:100FC00009F447C04B015C0120E030E040EA51E405
:100FD0000E948B370E9418360E94AC356B017C0151
:100FE0000E94351620E030E04AE754E4C501B40120
:100FF0000E948B374B015C0182E38C9DB0018D9D7B
:10100000700D112480E090E00E94DB359B01AC0163
:10101000C501B4010E9433340E9418360E94AC35D9
:10102000CB010E94DF28C114D10499F00E94CC1496
:1010300021E0C21AD1088091390681110AC08FEFD0
:1010400090E722E0815090402040E1F700C000008E
:10105000EACFFF90EF90DF90CF90BF90AF909F903E
:101060008F9008952F923F924F925F926F927F924E
:101070008F929F92AF92BF92CF92DF92EF92FF92A8
:101080000F931F93CF93DF9330913A06323009F4D8
:10109000A6C0322E4A015B01C92FD82F0E943516F7
:1010A000209049060E94192D882351F09FB7F8948B
:1010B00080913B06806480933B069FBF0E94CC14C6
:1010C0008091390681118BC0C12CE12CF12C870154
:1010D000232DB501A4018D2F9C2F0E94A30481E034
:1010E00080934A069FB7F89480913B068260809374
:1010F0003B069FBF0E94CC148091390681116FC0BE
:1011000080913A06877FB1F780914A06813041F499
:101110009FB7F89480913B06806480933B069FBF05
:101120000E94CC1480913906811159C00E940E1979
:101130000E9489240E94FD278BE4682E86E0782E89
:1011400000E917E04D2E5C2EF301619171918191C0
:1011500091913F01F801C190D190E190F1908F0100
:101160000E94DD35A70196010E943335F20161939B
:101170007193819391932F01F7E00C391F0721F7A9
:10118000C12CE12CF12C8701232DB501A4018D2F59
:101190009C2F0E94A3049FB7F89480913B06826025
:1011A00080933B069FBF0E943516809139068111BE
:1011B00016C020924906DF91CF911F910F91FF90A9
:1011C000EF90DF90CF90BF90AF909F908F907F90E7
:1011D0006F905F904F903F902F900C94962FDF91DF
:1011E000CF911F910F91FF90EF90DF90CF90BF9024
:1011F000AF909F908F907F906F905F904F903F90B7
:101200002F90089580913B0684FD1AC09FB7F894F3
:1012100080913B06806180933B069FBF0E946513CF
:101220000E94DA1380913A06847351F09FB7F894C4
:1012300080913B06806280933B069FBF0C946F16A3
:10124000089583B186719091CD0796FD02C096E115
:101250008927882359F00E9402099FB7F89480914A
:101260003B06806680933B069FBF089584E0809391
:101270003A060E9465130E94102983E00E946A29A1
:101280000E94CC1480913906811108C00E94A209E5
:1012900010923A060E946F160C941B290895CF9362
:1012A0002091C0063091C1064091C2065091C306FC
:1012B00060916A0670916B0680916C0690916D0644
:1012C0000E942935811128C02091C4063091C5069D
:1012D0004091C6065091C70660916E0670916F06E8
:1012E00080917006909171060E942935811114C079
:1012F000C1E02091C8063091C9064091CA065091BC
:10130000CB0660917206709173068091740690917D
:1013100075060E9429358111C0E08C2FCF91089568
:101320008BE3E7E5F6E0DF011D928A95E9F766E7D2
:1013300076E080E00E949321811103C087E00C9445
:10134000812D08958F929F92AF92BF92EF92FF925C
:101350000F931F93CF93DF93CDE3D6E080E9E82E80
:1013600087E0F82E0AE616E06991799189919991C2
:10137000F70181909190A190B1907F010E94DD359D
:10138000A50194010E943335F80161937193819313
:1013900091938F01F6E0C934DF0731F7DF91CF91E8
:1013A0001F910F91FF90EF90BF90AF909F908F9003
:1013B00008952F923F924F925F926F927F928F92F9
:1013C0009F92AF92BF92CF92DF92EF92FF920F93D4
:1013D0001F93CF93DF93CDB7DEB7AB970FB6F894DB
:1013E000DEBF0FBECDBF98A38F8F8AE3E2E9F6E0A0
:1013F000DF011D928A95E9F78AE0E7E5F6E0A4E9C6
:10140000B6E001900D928A95E1F71D8E212C312CCA
:10141000812C912C19A2F12C1E8EAA24A394B12CFC
:10142000EE24E39402E0D02E84E0C82E8D8DEF8D63
:10143000F8A1E80FF11D0081002309F432C29FEBEF
:10144000900F9A3128F00E94651381E00C943B13B1
:101450008F5F8D8FAE01475E5F4FBE01635E7F4F32
:101460008F8D98A10E941F28811105C00E946513CD
:1014700082E00C943B13498C5A8C6B8C7C8CC3019E
:10148000B2010E946E380E94AC35162F70E080E0E9
:1014900090E00E94DD359B01AC01C301B2010E94C6
:1014A000333420E030E048EC52E40E948B370E9455
:1014B000F8370E94AC35073421F00D3409F4EDC043
:1014C0002EC1163209F456C0B0F4143150F4113163
:1014D00008F082C01430E1F108F44CC01A3061F118
:1014E000F6C21C3149F120F4163108F495C0EFC260
:1014F0001E3111F1ECC2103509F466C090F41533B9
:10150000A1F138F41B3209F490C0113309F48DC0F5
:10151000DEC21C3308F0DBC2165310939A0687E034
:1015200098C01C3549F020F41A3508F063C0CFC2CA
:101530001F3508F468C0CBC261118EC0BE8DBB23BD
:1015400011F40C941E130E94651388E10C943B1354
:10155000E09293060DC01F3110F40C94081315335C
:1015600011F00C943213A1E0AE8FB7E0B093930664
:1015700080E06FC03E8D3111E6CF82E08E8F123059
:10158000B1F048F4112381F0113011F51093940655
:10159000109392061FC0163281F01035A9F0133057
:1015A000B9F41093940606C01092940603C09E8D61
:1015B00090939406E09292060DC0643109F087C2C0
:1015C000C092940681E058C0A5E0A093940602C0A2
:1015D0001092920681E03DC0123129F0133131F0B2
:1015E0001092980605C0E092980602C0D092980624
:1015F00082E02FC01A3519F41092970602C0E092CB
:10160000970683E026C01D3519F4E092950602C0C6
:101610001092950684E01DC0143119F4E0929606EC
:1016200002C01092960685E014C0BE8DB1118BCF1A
:10163000113331F41092990686E0E3E0EE8F1CC07E
:101640006A3009F044C2E092990686E0F3E0FE8F2A
:1016500013C0662389F023C01E3109F4D2C708F0F5
:10166000DFC71A3009F4D8C71C31C9F46A3009F051
:101670002EC2C092930680E0D50102C0AA0FBB1F04
:101680008A95E2F7CD01940128233923232B09F40D
:1016900043C00E94651385E1EEC7662321F00E94D6
:1016A000651387E1E8C7163018F4133048F014C00A
:1016B000183008F40CC21A30E8F01E3151F007C29D
:1016C000123039F01E3129F011111DC0E0929B0635
:1016D0001AC0D0929B0617C0143029F0153031F093
:1016E000E0929D0605C0D0929D0602C010929D0614
:1016F00089E00AC0193019F0D0929C0602C01092FD
:101700009C068AE001C088E0F50102C0EE0FFF1FD1
:101710008A95E2F7CF01B7CF882A992A87CE802F02
:10172000000F990BAA0BBB0BFC01E654F109E53144
:10173000F10508F0CCC1EC5CFF4F0C94C23840922C
:101740009E0650929F066092A0067092A10680E0CD
:101750007FC04092A2065092A3066092A4067092A7
:10176000A506F9A1F160F9A381E072C04092A60636
:101770005092A7066092A8067092A90629A122603D
:1017800029A382E065C04092AA065092AB066092FF
:10179000AC067092AD0639A1346039A383E058C01D
:1017A0001093AE0684E054C0C301B2010E94A53577
:1017B0006093AF067093B0068093B1069093B20623
:1017C00085E046C04092B3065092B4066092B506DA
:1017D0007092B60686E03CC04092B7065092B806BA
:1017E0006092B9067092BA0687E032C04092BB069A
:1017F0005092BC066092BD067092BE0688E028C07A
:101800004092C0065092C1066092C2067092C30612
:101810008F2D8160F82E8AE01BC04092C406509242
:10182000C5066092C6067092C7069F2D9260F92E7B
:101830008BE00EC04092C8065092C9066092CA065C
:101840007092CB06AF2DA460FA2E8CE001C089E027
:101850008501082E02C0000F111F0A94E2F79101C2
:1018600020233123232B21F00E94651389E103C734
:10187000E1E6F3E002C0F595E7958A95E2F7E0FF2F
:101880000DC020E030E0A901C301B2010E9429355A
:1018900087FF04C00E94651384E0EDC6202A312A28
:1018A000C5CDFF2029F0FE8DF11102C022E02E8F60
:1018B00025FE11C08091AF069091B006A091B106AF
:1018C000B091B20680389649A849B10524F00E942B
:1018D00065138BE1D0C680919506813031F48E8DF1
:1018E0008230A1F520FC32C0AAC280915806811135
:1018F0002DC020FE1BC080919606813039F523E370
:1019000033E34BEC51E460919E0670919F06809109
:10191000A0069091A1060E948B3760939E0670935B
:101920009F068093A0069093A10610C08091650643
:1019300090916606A0916706B091680680939E0616
:1019400090939F06A093A006B093A10630FC10C010
:101950008091610690916206A0916306B091640641
:101960008093BB069093BC06A093BD06B093BE06C1
:1019700080919306813041F426FC04C00E946513D7
:101980008CE179C6E89426F880919806882371F056
:10199000813031F491E099A718A6A2E0AFA30BC063
:1019A00019A6B2E0B8A7E1E0EFA305C0F2E0F9A7FD
:1019B00021E028A71FA280919606813021F03E8D5C
:1019C0003330C1F52CC0B2E9CB2EB6E0DB2E00E0FF
:1019D00010E0AF2CB12CC501002E02C09595879563
:1019E0000A94E2F780FF12C023E333E34BEC51E4A7
:1019F000D6019E966D917D918D919C91D1970E947B
:101A00008B37F60166A777A780AB91AB0F5F1F4FAF
:101A1000F4E0CF0ED11C03301105E9F6D0CF809150
:101A20009906813039F424E0F21621F00E94651302
:101A300085E221C68CE0E6E7F6E0DE011D96019026
:101A40000D928A95E1F787FE17C080919A0687303C
:101A500020F00E9465138DE10EC690915D068917F6
:101A600059F0BE01635F7F4F0E949321811104C032
:101A70000E94651387E0FFC5309193063F8F323097
:101A800021F0383009F4A4C00CC1F11004C00E9448
:101A900065138AE1F0C5C10180759927892B09F486
:101AA0006DCF6091B3067091B4068091B5069091A8
:101AB000B6060E946E380E94AC35673050F68091B1
:101AC000AE06843141F0823011F427FE04C00E943A
:101AD000651384E1D0C5662319F061506F8F03C090
:101AE00080919A068F8FBE016F5F7F4F8F8D0E940E
:101AF0009321882309F4BCCFE090AE0640908E0677
:101B000050908F0660909006709091068E010F5F46
:101B10001F4FF2E98F2EF6E09F2EA7E5AA2EA6E032
:101B2000BA2EC12CD12CAF2DB0E0BEA3ADA38DA198
:101B30009EA10C2C02C0959587950A94E2F780FF30
:101B400034C0B4E1EB1227C0F50123A534A545A5A7
:101B500056A563897489858996890E943334D40196
:101B60009E962D913D914D915C91D1970E94333479
:101B7000F8016083718382839383F2E0CF1215C0F2
:101B8000A30192010E943334D8016D937D938D930C
:101B90009C9313970AC0F40186A597A5A0A9B1A9A3
:101BA000F80180839183A283B383FFEFCF1ADF0A0A
:101BB0000C5F1F4F24E0820E911C34E0A30EB11C79
:101BC00083E0C816D10409F0B2CF9FEA292213C1DD
:101BD000FF2009F45CCF40908E0650908F066090F5
:101BE00090067090910602E916E0E7E5AE2EE6E079
:101BF000BE2E4E019DE0890E911CC12CD12CAF2D23
:101C0000B0E0B8A3AF8F8F8D98A10C2C02C0959532
:101C100087950A94E2F780FF29C0F4012081318181
:101C200042815381D50153966D917D918D919C9107
:101C300056970E943334F80126A537A540A951A92B
:101C40000E943334D8019E966D937D938D939C931F
:101C5000D197B2E0CB1214C0A30192010E94333499
:101C6000F80166A777A780AB91AB0AC0F50183A501
:101C700094A5A5A5B6A5F80186A797A7A0ABB1AB7B
:101C8000FFEFCF1ADF0A0C5F1F4F24E0A20EB11C3A
:101C900034E0830E911C83E0C816D10409F0B3CF61
:101CA000A9C09E8D933079F4AF8DA53009F491C011
:101CB000A73009F497C0A33009F09CC0BE016F5F44
:101CC0007F4F86E08AC0FF2079F3E090970640902E
:101CD0008E0650908F06609090067090910677E582
:101CE000A72E76E0B72E02E916E04E01BDE08B0E7E
:101CF000911CC12CD12CEF2DF0E0FEA3EDA38DA102
:101D00009EA10C2C02C0959587950A94E2F780FD60
:101D10000BC0F50183899489A589B689F80186A746
:101D200097A7A0ABB1AB44C0FF8DF73009F440C01A
:101D3000E1102BC0D5019B962D913D914D915C9169
:101D40009E97F40160817181828193810E94343475
:101D5000D8019E962D913D914D915C91D1970E9415
:101D60003434F80166A777A780AB91ABF2E0CF12CD
:101D70001FC0A30192010E943434D8019E966D9336
:101D80007D938D939C93D19713C0F501238934895A
:101D900045895689D8019E966D917D918D919C9132
:101DA000D1970E943434F80166A777A780AB91AB36
:101DB000FFEFCF1ADF0A24E0A20EB11C0C5F1F4F09
:101DC00034E0830E911C83E0C816D10409F097CF4C
:101DD0006BCFBE016F5F7F4F87E00E94932181111F
:101DE00009C046CE80919406823020F00E9465138F
:101DF0008EE141C41F8E10919406153059F4FF20D6
:101E000009F426C2AE8DA13009F42AC20E946513DE
:101E10008FE131C4BE8DB23009F01AC21123F1F046
:101E200020E030E0A90160919E0670919F068091AC
:101E3000A0069091A1060E942935811104C00E943C
:101E4000651386E118C4143028F4123058F41130A8
:101E500029F006C2143009F4F3C102C2FF2009F4CC
:101E6000FAC1FEC1FF2009F412CEFFA1EF2FF0E06E
:101E7000FEA3EDA338A5232F30E03BA72AA781E0DE
:101E800090E08C010FA002C0000F111F0A94E2F72E
:101E900008A402C0880F991F0A94E2F7082B192B97
:101EA0008F2D90E080239123892B21F40E946513CC
:101EB00080E2E1C38DA19EA1880F991F880F991F11
:101EC000FC01EE56F94FDC01A95AB94F53962D91FA
:101ED0003D914D915C91569766A577A580A991A9F2
:101EE0000E9433346B017C018AA59BA5880F991F42
:101EF000880F991FFC01EE56F94FDC01A95AB94F22
:101F000053962D913D914D915C91569766A577A57D
:101F100080A991A90E9433342B013C0127FEE2C025
:101F2000E89427F80E944F09882321F00E94651346
:101F300081E2A1C3809196068130B1F423E333E3BB
:101F40004BEC51E46091B7067091B8068091B906E8
:101F50009091BA060E948B376093B7067093B806CB
:101F60008093B9069093BA068090B7069090B80611
:101F7000A090B906B090BA0620E030E040E850E406
:101F8000C501B4010E948B37A50194010E948B37D3
:101F90004B015C01A7019601C701B6010E948B3776
:101FA0009B01AC01C501B4010E9433344B015C01BB
:101FB000A3019201C301B2010E948B379B01AC01C6
:101FC000C501B4010E9433344B015C0120E030E0D4
:101FD000A9010E94293587FF04C00E94651382E28F
:101FE0004AC3C501B4010E942A384B015C01A30118
:101FF0009201C701B6010E94EA289B01AC01C5010C
:10200000B40190580E9433354B015C0180919406D5
:10201000833021F4B7FAB094B7F8B0948091B70642
:102020009091B806A091B906B091BA0689A39AA377
:10203000ABA3BCA320E030E0A901BC01CD010E940C
:10204000293587FF11C0B7FAB094B7F8B09489A1C9
:102050009AA1ABA1BCA1B0588093B7069093B806E3
:10206000A093B906B093BA060DA11EA1000F111FCF
:10207000000F111F0E55194FA3019201C501B401A4
:102080000E948B379B01AC01C701B6010E9433341B
:1020900020E030E040E05FE30E948B37D8016D9391
:1020A0007D938D939C9313970AA51BA5000F111F79
:1020B000000F111F0E55194FA7019601C501B4015C
:1020C0000E948B37A30192010E94343420E030E05B
:1020D00040E05FE30E948B37F80160837183828365
:1020E0009383BEC0F9A18F2E912C08211921012BB9
:1020F00021F40E94651383E2BEC221EF2222809167
:102100009606813009F456C00AA51BA5000F111FC1
:10211000000F111F0E55194FD8012D913D914D9172
:102120005C91C301B2010E9433342B013C018DA1AB
:102130009EA1880F991F880F991FFC01EE55F94F3A
:102140005F012081318142815381C701B6010E9424
:102150003334A30192010E94EA286B017C01D8016B
:102160002D913D914D915C91F5016081718182814C
:1021700093810E94EA284B015C016093B70670933B
:10218000B8068093B9069093BA069B01AC01C701CB
:10219000B6010E9433346B017C01E894F7F82AE021
:1021A00037ED43EA5BE3C701B6010E944B371816CF
:1021B0005CF156C082E9A82E86E0B82E00E010E05F
:1021C000C401002E02C0959587950A94E2F780FF1E
:1021D00012C023E333E34BEC51E4D50150966D91EB
:1021E0007D918D919C9153970E948B37F501608B67
:1021F000718B828B938B0F5F1F4FF4E0AF0EB11C7E
:1022000003301105E9F680CF20E030E040E05FE3E5
:10221000C701B6010E944B3718160CF487CE2FE683
:1022200032E143E85AE3C501B4010E948B379B01B8
:10223000AC01C701B6010E944B3718168CF476CE5C
:10224000FF2009F424CC0E944F09882349F06ECE68
:102250002E8D211105C0C1018E7D9C7F1E8E03C075
:10226000C1018E7D907E892B21F00E94651384E24E
:1022700002C2809195068093580680919E069091A7
:102280009F06A091A006B091A10680936506909349
:102290006606A0936706B0936806C090BB06D09010
:1022A000BC06E090BD06F090BE06A70196016091C5
:1022B00061067091620680916306909164060E94A7
:1022C00029358823D9F0C0926106D0926206E09247
:1022D0006306F09264068091CD079091CE0790FF3F
:1022E00004C080919206811109C080916006882304
:1022F00029F020E0B701A6010E9496138091BF0645
:102300008093690680919D06909160069817B9F0B8
:10231000809360062091CD073091CE0730FF04C036
:102320009091920691110BC0409161065091620606
:10233000609163067091640620E00E94961380917C
:102340009C0690915F06981721F080935F060E948B
:10235000DF1380919306813051F46091B306709140
:10236000B4068091B5069091B6060E94D50780917B
:10237000980680935B0680919606809359063E8D61
:102380003330F9F48091990680935C06813089F4AA
:102390008091C8069091C906A091CA06B091CB065B
:1023A00080938E0690938F06A0939006B09391062B
:1023B00008C010928E0610928F061092900610920E
:1023C000910680919A0690915D06981759F0809336
:1023D0005D068CE0FE013D96A6E7B6E001900D9209
:1023E0008A95E1F78091970680935A06E0919306CB
:1023F0008E2F90E0FC013297E830F10508F05FC0C5
:10240000E75BFF4F0C94C238BE016F5F7F4F8F8D2B
:102410000E94B52080915D069F8D981350C08CE07E
:10242000FE013196A6E7B6E02EC0AE8DAA2399F044
:10243000E0906106F09062060091630610916406D8
:10244000C090600620E040E050E060E87FEB80EC68
:1024500096E00E94A304E0906106F090620600916D
:10246000630610916406C090600620E040E050E0F2
:1024700060E87FEBCE0101960E94A3048CE0FE0190
:102480003196AAE6B6E001900D928A95E1F717C061
:102490006AE676E086E003C06AE676E087E00E94BE
:1024A000B5200DC08CE0E0ECF6E0A2E8B6E0EBCFA2
:1024B0008CE0E2E8F6E0DF011D928A95E9F7809171
:1024C000940680935706853009F485C0BE8DB230DE
:1024D00009F081C08430E8F4823008F040C08823DD
:1024E00051F1813009F06EC0E0906106F090620613
:1024F000009163061091640640916506509166064E
:102500006091670670916806C09060062091580639
:1025100021C0843009F056C040916506509166068E
:1025200060916706709168062091580680EC96E0ED
:102530000E94320847C0E0906106F0906206009168
:10254000630610916406C090600620E040E050E011
:1025500060E87FEB80EC96E00E94A30433C0C0905B
:102560006506D0906606E0906706F09068060091D8
:10257000B7061091B8062091B9063091BA0680913D
:1025800060068F93809164068F93809163068F938A
:10259000809162068F93809161068F93E9A5EF93F6
:1025A000F8A5FF938FA0A090580642EA56E060EC91
:1025B00076E08AE696E00E94F1040FB6F894DEBF5A
:1025C0000FBECDBF8CE0E0ECF6E0AAE6B6E00190ED
:1025D0000D928A95E1F780919B0680935E06882391
:1025E00009F449C00E9435161092490680915E0692
:1025F000823019F40E94020902C010925E0680E047
:102600003AC06A3009F063CA96E09093930633C8E3
:102610001A30F1F4E1E0EE8FD09293060C94B80AF0
:10262000153311F40C94B50A1C3509F038C86A301A
:1026300009F04DCA29E0209393061DC81E3111F000
:102640000C94AB0A31E03E8F85E08093930613C86B
:102650001C3121F4F1E0FE8F23E0EDCF80E021E09A
:102660002E8F0AC81C35D1F7E1E0EE8FF8E0F09329
:1026700093060C943B0BAB960FB6F894DEBF0FBEDF
:10268000CDBFDF91CF911F910F91FF90EF90DF9021
:10269000CF90BF90AF909F908F907F906F905F9002
:1026A0004F903F902F900895E0EBF0E080818F777E
:1026B00080832B9808958091B300882329F080911E
:1026C000B00080688093B00008951092B300E0EBF2
:1026D000F0E080818F7780832B980895239A239A46
:1026E000259A0C94651383E88093B000E1EBF0E049
:1026F0008081887F8260808308958093B3000895ED
:10270000BC0180E090E00E94DB3520E030E040E05A
:1027100051E40E9434340E94AC35687F7770CB015D
:1027200023E0969587952A95E1F70895CF92DF9259
:10273000EF92FF92CF93DF9390913A06923099F106
:10274000D22F6A017B01C82F8091CD079091CE07CF
:1027500090FF02C0211102C00E9494158091CD0704
:102760009091CE0790FF02C0D11102C00E94351691
:10277000C11108C0DF91CF91FF90EF90DF90CF9013
:102780000C946513C13011F42D9801C02D9AC70126
:10279000B6010E94AC35CB010E9480138093B30038
:1027A0000E9473132B9ADF91CF91FF90EF90DF90EF
:1027B000CF900895439808953B9A0C94DA13CF93E1
:1027C00090913A06923061F0C82F0E9494150E94B1
:1027D0003516C23011F4439A03C0CF910C94DA132A
:1027E000CF9108959091120180911301891708F4F7
:1027F0008058891B0895E0ECF0E08081826080833E
:102800001092C50080E18093C400E1ECF0E080818B
:1028100080618083808188608083808180688083FC
:102820000895E091110191E09E0F943431F490E00D
:1028300004C020913B0624FD0FC0209110012917F0
:10284000C1F3F0E0E453F94F80839093110180913C
:10285000C10080628093C10008951F920F920FB64D
:102860000F9211248F939F93EF93FF938091100108
:10287000E82FF0E0E453F94F90819093C6008F5F0A
:10288000843409F480E08093100190911101891340
:1028900005C08091C1008F7D8093C100FF91EF91B1
:1028A0009F918F910F900FBE0F901F901895909150
:1028B000120180911301981761F0E92FF0E0E05FB9
:1028C000F84F80819F5F903809F490E09093120157
:1028D00008958FEF08951F920F920FB60F92112453
:1028E0002F933F934F935F936F937F938F939F9318
:1028F000AF93BF93EF93FF938091C6008132B1F005
:1029000028F48831C9F40E94020930C08F3341F0A5
:102910008E3791F49FB7F89480913B06826023C074
:102920009FB7F89480913B0681601DC09FB7F894D3
:1029300080913B06886017C0E091130191E09E0FE3
:10294000903809F490E020911201921739F0F0E0EC
:10295000E05FF84F80839093130108C09FB7F8940D
:1029600080913B06806880933B069FBFFF91EF916B
:10297000BF91AF919F918F917F916F915F914F9197
:102980003F912F910F900FBE0F901F90189580913F
:102990001301809312010895CF93C0913B06CC237D
:1029A00009F49BC08C2F807649F181E080933A0630
:1029B0000E945413C6FF17C0C5FF02C08FEF01C0AD
:1029C0008DEF0E94972D81E00E94BC2D9FB7F89457
:1029D00080913B068F7E80933B069FBF80913B0694
:1029E00084FFFCCF03C08EEF0E94972D9FB7F89411
:1029F00080913B068F7980933B069FBFC4FF06C042
:102A00000E94541381E0809339066EC0C0FF0AC053
:102A10000E9439319FB7F89480913B068E7F809356
:102A20003B069FBFC3FF15C080913A06803149F431
:102A300080E280933A060E945C190E947E191092EF
:102A400049069FB7F89480913B06877F80933B06A9
:102A50009FBFC1FF1FC080913A06883099F480E182
:102A600080933A060E945B130E947E190E944F16C3
:102A70008091CD0781FF04C081E08093490602C0A8
:102A8000109249069FB7F89480913B068D7F809302
:102A90003B069FBFC2FF14C00E94AE24892B31F0B9
:102AA0000E94541388E080933A0602C010923A06BE
:102AB0009FB7F89480913B068B7F80933B069FBF26
:102AC000C7FF0BC08CEF0E94972D9FB7F8948091A1
:102AD0003B068F7780933B069FBF80913A068473B5
:102AE00019F0CF910C947E19CF9108950E94CC14C7
:102AF00080913906811117C08091B401882389F033
:102B0000843229F484EB91E00E94D9320AC080918A
:102B10003A06813011F489E004C084EB91E00E9410
:102B2000D9090C94812D089580914906882341F09C
:102B30009FB7F89480913B06826080933B069FBFCD
:102B40000895DF92EF92FF920F931F93CF93DF933D
:102B50000E94F22D80913A06813051F482E00E9469
:102B6000BC2DC0E0E12CF12CD0E087E4D82E11C0C0
:102B700010923A0684EB91E00E94B932F2CF8A308B
:102B800069F08D3059F0DD23F1F0D1E0893209F49C
:102B900057C00E9457148F3F91F756C0EC2FF0E0BA
:102BA000EC54FE4F10820E947615EE2009F446C0C8
:102BB00064EB71E084E191E00E94E2380E94E22D32
:102BC000C0E0E12C3CC0813220F38F3211F3883217
:102BD000C9F1CF3428F08BE00E94812DC0E0D9CF1D
:102BE0000C2F10E0982F9F7D9734D9F4FF2081F0AF
:102BF00064EB71E084E191E00E94ED38F801EC545F
:102C0000FE4F10820E947615C0E0EE24E39402C0CD
:102C1000FF24F394EC2FF0E0EC54FE4FD082CF5F12
:102C2000B8CFE1E0EC0F9FE9980FD801AC54BE4F4C
:102C30009A3108F480528C93CE2FABCFC0E0F12CA8
:102C4000D0E0A7CFD1E0A5CF0E9494150E94CC146C
:102C500080913906882309F49CCFDF91CF911F9191
:102C60000F91FF90EF90DF9008950E94941580914E
:102C70003A06803171F481E0809349060AC0809160
:102C80003A06803159F40E94CC14809139068111A2
:102C900005C00E94AE24892BB1F7F1CF0895809131
:102CA000CD0782FF02C0289A01C0289880913A0679
:102CB0008471A1F0809132028093460280913302A8
:102CC000809345028091C007880F8450819580933E
:102CD000440280916F00826080936F00089580911C
:102CE0006F008D7F80936F0080918100887F81606D
:102CF00080938100109231028091C3078F3F21F4AD
:102D000090913B0695FF09C090913A06943029F0C6
:102D100090E00E94DF2881E001C080E09091CD0723
:102D200092FF02C091E08927882311F0289A089524
:102D3000289808951F920F920FB60F9211242F9387
:102D40003F934F935F936F937F938F939F93AF9333
:102D5000BF93EF93FF93809131028111FEC18BB13C
:102D600090914602907E8F71892B8BB98BB1837EB7
:102D700090914502892B8BB98091440286BD82E0F7
:102D800085BD81E0809331027894809158029091C2
:102D90005902892B09F0B3C0809136029091350217
:102DA000981709F4A1C0E091360286E0E89FF0018F
:102DB0001124E65AFD4FF0935902E09358028381A3
:102DC0009481909389008093880080819181909371
:102DD000540280935302E281809155028E17C1F113
:102DE000E093550283E1E89FF0011124E258FD4F82
:102DF000F0935702E093560285859685A785B089A2
:102E0000B695A7959795879580933702909338024A
:102E1000A0933902B0933A0280933B0290933C0214
:102E2000A0933D02B0933E0280933F0290934002F4
:102E3000A0934102B09342028091CD079091CE07BA
:102E400090FF06C08289882319F081890E947D1332
:102E5000E0915602F09157029081809132028927C9
:102E600080934602A0915802B091590215962C9178
:102E700081819281A381B481022E04C0B695A79569
:102E8000979587950A94D2F78093470290934802CA
:102E9000A0934902B0934A0285819681A781B085AB
:102EA000022E04C0B695A795979587950A94D2F7F8
:102EB00080934B0290934C02A0934D02B0934E022C
:102EC00081859285A385B48504C0B695A79597950D
:102ED00087952A95D2F780934F0290935002A09342
:102EE0005102B09352020BC00E946F169FB7F89424
:102EF00080913B06846080933B069FBF2EC10E9459
:102F00001F2D109245024091370250913802609176
:102F1000390270913A028091470290914802A09143
:102F20004902B0914A02840F951FA61FB71F8093D4
:102F3000370290933802A0933902B0933A02E0919D
:102F40005602F09157024585568567857089481766
:102F500059076A077B0768F524E0209345024585F9
:102F6000568567857089841B950BA60BB70B8093DC
:102F7000370290933802A0933902B0933A0220812D
:102F800080913D0690913E06A0913F06B09140068B
:102F900025FF04C00197A109B10903C00196A11D35
:102FA000B11D80933D0690933E06A0933F06B093DB
:102FB000400640913B0250913C0260913D0270916D
:102FC0003E0280914B0290914C02A0914D02B09133
:102FD0004E02840F951FA61FB71F80933B0290934C
:102FE0003C02A0933D02B0933E024585568567851D
:102FF0007089481759076A077B0778F520914502C1
:103000002860209345024585568567857089841B15
:10301000950BA60BB70B80933B0290933C02A093B9
:103020003D02B0933E02208180914106909142067C
:10303000A0914306B091440626FF04C00197A10960
:10304000B10903C00196A11DB11D80934106909363
:103050004206A0934306B093440640913F0250912C
:103060004002609141027091420280914F02909122
:103070005002A0915102B0915202840F951FA61FD9
:10308000B71F80933F0290934002A0934102B093F8
:1030900042024585568567857089481759076A0732
:1030A0007B0778F5209145022061209345024585F4
:1030B000568567857089841B950BA60BB70B80938B
:1030C0003F0290934002A0934102B09342022081BC
:1030D0008091450690914606A0914706B09148061A
:1030E00027FF04C00197A109B10903C00196A11DE2
:1030F000B11D8093450690934606A0934706B09372
:10310000480680913A06843039F4909145028091C6
:103110003C0689238093450280915302909154028A
:1031200001979093540280935302892B69F4109273
:10313000590210925802809136028F5F80933602B6
:10314000863011F41092360290914502809133023C
:1031500089278093450210923102FF91EF91BF9130
:10316000AF919F918F917F916F915F914F913F911F
:103170002F910F900FBE0F901F9018951F920F92D6
:103180000FB60F9211248F939F938BB190913302BE
:103190009C71837E892B8BB915BC9F918F910F9069
:1031A0000FBE0F901F9018950F931F93CF93DF932F
:1031B0001092330210923202C0E0D0E01C2F0C2F8C
:1031C0008091C10790E00C2E02C0959587950A94D6
:1031D000E2F780FF08C0812F0E941E2390913302E6
:1031E000892B809333028091C20790E002C09595AD
:1031F00087950A95E2F780FF08C0812F0E94282357
:1032000090913202892B809332022196C330D105EE
:10321000A9F6DF91CF911F910F9108950E946F162B
:103220008BE2E4E0F2E0DF011D928A95E9F783E2A8
:10323000E7E3F2E0DF011D928A95E9F71092300290
:1032400010922F02109236021092350281E0809384
:103250003402109231020E94D4188BB1837E909177
:103260003302892B8BB98BB18F7190913202892BEC
:103270008BB908958AB18C618AB9209A8AB1806E1F
:103280008AB9E1E8F0E080818F7E80838081886068
:103290008083E0E8F0E080818C7F808380818F7084
:1032A0008083EEE6F0E08081887F808314BC15BCCB
:1032B0008081816080830895CF93DF93C0912F0236
:1032C000D09130022097B9F081E08093050260919F
:1032D0001B0270911C0280911D0290911E029B01A5
:1032E000AC010E948B376E8B7F8B888F998F1092E9
:1032F000300210922F02DF91CF9108952F923F92CA
:103300004F925F926F927F928F929F92AF92BF92F5
:10331000CF92DF92EF92FF920F931F93CF93DF93A1
:10332000CDB7DEB7E7970FB6F894DEBF0FBECDBFBF
:103330009091360280913402981709F442C6809128
:103340002F0290913002892B09F083C20E94AE2493
:10335000FC019093300280932F02892B09F431C62F
:1033600080910502882319F010920502E5C0809132
:1033700004028F5F853019F08093040202C010921E
:103380000402209104022983858153E1529FA00108
:1033900011248A0102581D4FD8018C938681978190
:1033A000A085B185AC01BD0193E0440F551F661F98
:1033B000771F9A95D1F7D80111964D935D936D9330
:1033C0007C93149782859385A485B585AC01BD0156
:1033D00023E0440F551F661F771F2A95D1F7D801A8
:1033E00015964D935D936D937C931897868597857D
:1033F000A089B189AC01BD0133E0440F551F661FA0
:10340000771F3A95D1F7D80119964D935D936D9337
:103410007C931C9782899389A489B589AC01BD01ED
:10342000A3E0440F551F661F771FAA95D1F7D80157
:103430001D964D935D936D937C9350978481529626
:103440008C9360817181828193810E94AC35CB0124
:103450000E948013F801818B20912F02309130025D
:103460003A832983D90152966D917D918D919C91DA
:1034700055970E94DB356093060270930702809394
:10348000080290930902E981FA8122A533A544A597
:1034900055A50E9433359B01AC0160930A027093DD
:1034A0000B0280930C0290930D0260E070E080EAC2
:1034B0009FE30E94333560930E0270930F02809356
:1034C00010029093110210921202109213021092A5
:1034D00014021092150280913A068032E9F460914C
:1034E000230270912402809125029091260260931C
:1034F0001B0270931C0280931D0290931E029B017D
:10350000AC010E948B37A981BA8156966D937D9349
:103510008D939C93599710C0E981FA8166897789C8
:10352000808D918D0E942A3860931B0270931C023B
:1035300080931D0290931E0210921702109218029F
:103540001092190210921A0220912F02309130022B
:103550003A832983D90196968D909D90AD90BC9029
:103560009997A501940160E070E080E09FE30E94DC
:1035700033352B013C0180913A06E981FA81C2A4DE
:10358000D3A4E4A4F5A4803209F050C0F2E0F09393
:103590001602A981BA8156962D913D914D915C916B
:1035A000599729833A834B835C83C301B2010E94FC
:1035B0008B379B01AC01C701B6010E9433342B014C
:1035C0003C0120E030E0A9010E94293587FF1DC0A1
:1035D000A5019401C501B4010E943434A7019601EC
:1035E0000E948B379B01AC0169817A818B819C8120
:1035F0000E9433340E942A3860932302709324027D
:10360000809325029093260224C140921702509283
:1036100018026092190270921A02109223021092FC
:103620002402109225021092260213C11092160253
:10363000C0922702D0922802E0922902F0922A0238
:103640000E94BE244B015C0160932302709324020C
:1036500080932502909326029B01AC010E948B3738
:103660006D837E838F839887E0912F02F0913002E3
:10367000FF87EE8722A533A544A555A529873A875C
:103680004B875C8726893789408D518D29833A8302
:103690004B835C839B01AC0169817A818B819C8126
:1036A0000E943334A30192010E948B3729853A8509
:1036B0004B855C850E94343420E030E040E05FE3DD
:1036C0000E948B376B017C0120E030E0A9010E9451
:1036D0004B3718160CF0ADC0A701960169857A85A5
:1036E0008B859C850E944B3718160CF08EC0EE859A
:1036F000FF8582A093A0A4A0B5A02D813E814F811B
:103700005885C501B4010E943334A30192010E947F
:103710008B379B01AC0160932B0270932C0280933A
:103720002D0290932E02C701B6010E944B37181646
:10373000DCF5C501B4010E942A3860931F02709322
:1037400020028093210290932202A50194016981B5
:103750007A818B819C810E942935811104C0F1E01E
:10376000F093160276C029813A814B815C81C501B4
:10377000B4010E943334A30192010E948B379B0154
:10378000AC016091270270912802809129029091EA
:103790002A020E9433346093270270932802809398
:1037A000290290932A0255C0C0922702D092280283
:1037B000E0922902F0922A02C0922B02D0922C02AF
:1037C000E0922D02F0922E02AE85BF8596966D9105
:1037D0007D918D919C9199979B01AC010E9434340D
:1037E000A70196010E948B372D813E814F8158851C
:1037F0000E9434340E942A3860931F027093200282
:10380000809321029093220224C0B2E0B09316026A
:1038100080911B0290911C02A0911D02B0911E028A
:1038200080931F0290932002A0932102B093220262
:1038300010C01092270210922802109229021092B2
:103840002A0280921F0290922002A0922102B0923E
:10385000220280913502082F10E026E0209FF0011F
:10386000219FF00D1124E65AFD4F809104028283BE
:1038700040912F02509130025F874E87DA019A966D
:10388000BC91B9A7FA01F3A5FAA7DA019C96BC91FD
:10389000BBA7FA01F5A5FCA720910E0230910F02FB
:1038A000409110025091110269A57AA58B2F9F2F8C
:1038B0000E9433346DA37EA38FA398A720E030E04D
:1038C000A9010E94293587FF04C01DA21EA21FA2C4
:1038D00018A6209127022D8B309128023E8B409113
:1038E00029024F8B50912A02588F80911F02898F95
:1038F000909120029A8FA0912102AB8FB091220269
:10390000BC8FE0912B02ED8FF0912C02FE8F209165
:103910002D022F8F30912E0238A3409116024C8B2E
:1039200050911B02598380911C028D8390911D023E
:103930009987A0911E02AD87B0911702B9A3E091BB
:103940001802EAA3F0911902FBA320911A022CA3FA
:103950008091230290912402A0912502B091260229
:103960008AAB9BABACABBDAB2D8D3E8D4F8D58A1C3
:103970006D897E898F89988D0E942935811103C0B8
:1039800092E09DA702C0A1E0ADA7B9A5BFABEAA593
:10399000EEAB2BA43CA48EE3C82E83ECD82E8EE293
:1039A000E82E89E3F82E188A198A1A8A1B8A46019A
:1039B0005701FC89FF2321F0F13009F471C0A6C042
:1039C000AE85BF8596962D913D914D915C919997CD
:1039D000C701B6010E948B372B013C0120E030E08B
:1039E00040E05FE30E948B3729813D8149855D85F9
:1039F0000E943434A70196010E948B379B01AC01D1
:103A00006FA97EA9C1010E9433346FAB7EAB1C014C
:103A10002D893E894F89588D0E94293587FF33C0F3
:103A20002D893E894F89588D69A57AA58BA59CA5BE
:103A30000E9433349B01AC010E9434346B017C0141
:103A400029813D8149855D85698D7A8D8B8D9C8D20
:103A50000E9434349B01AC01C701B6010E9433358A
:103A60006B017C01B98DB983EA8DED83FB8DF987FC
:103A70002C8D2D873DA53C8B4D894FAB5E895EAB70
:103A80002F88388CBEC0A301920169817D81898510
:103A90009D850E94343469837D8389879D87B1C069
:103AA000298D3A8D4B8D5C8DC701B6010E948B37F5
:103AB0009B01AC016FA97EA9C1010E9433342B0187
:103AC0003C019B01AC016D8D7E8D8F8D98A10E9474
:103AD0004B3718160CF092C02D8D3E8D4F8D58A18E
:103AE0006FA97EA9C1010E943334298D3A8D4B8D77
:103AF0005C8D0E9433356B017C018D8D8FAB9E8D6B
:103B00009EAB2F8C38A0A2E0AC8B7BC0EE85FF85EE
:103B100026A137A140A551A5C701B6010E948B3748
:103B20002B013C019B01AC0169817D8189859D85CB
:103B30000E944B371816D4F520E030E040E05FE3F8
:103B4000C301B2010E948B379B01AC0169817D8169
:103B500089859D850E943334A70196010E948B3789
:103B60009B01AC016FA97EA9C1010E9433346EA7ED
:103B70007FA788AB99AB29A13AA14BA15CA10E9478
:103B80004B3718169CF4A301920169817D818985C8
:103B90009D850E94333469837D8389879D87FEA537
:103BA000FFAB2FA52EAB28A839A82BC029A13AA17D
:103BB0004BA15CA16FA97EA9C1010E9433349B0176
:103BC000AC010E9434346B017C012AA93BA94CA9A9
:103BD0005DA969817D8189859D850E9434349B0121
:103BE000AC01C701B6010E9433356B017C0139A1DC
:103BF0003FAB4AA14EAB2BA03CA003C04FAA5EAA8C
:103C00001301A7019601688979898A899B890E9495
:103C10003434688B798B8A8B9B8B9B01AC01C501FB
:103C2000B4010E944B3718160CF461C02DA13EA1BF
:103C30004FA158A56FA97EA9C1010E944B37181644
:103C40000CF44BC05C895093160289819D81A98533
:103C5000BD8580931B0290931C02A0931D02B0931C
:103C60001E0240900A0250900B0260900C0270906D
:103C70000D02A30192016FA97EA9C1010E948B3799
:103C800069837A838B839C830E9412356B017C014C
:103C900060910602709107028091080290910902DA
:103CA0000E9412354B015C01A70196010E9433343A
:103CB0000E94AC356D837E838F83988786E0809FDA
:103CC000F001819FF00D1124E65AFD4FAD81BE81B8
:103CD000B183A083AB2B29F14FC02EE333EC4EE22E
:103CE00059E3C501B4010E9434344B015C012889B9
:103CF00039894A895B89C501B4010E9433346B015B
:103D00007C0129A13AA14BA15CA16FA97EA9C101A7
:103D10000E944B3718160CF44CCEFC89F093160217
:103D200094CF80913A06803239F510921B0210929E
:103D30001C0210921D0210921E021092120210928A
:103D400013021092140210921502C0920602D09231
:103D50000702E0920802F0920902A3019201C70152
:103D6000B6010E943335AE85BF859A966D937D93DB
:103D70008D939C939D9718C120911202309113024C
:103D80004091140250911502688979898A899B892A
:103D90000E9434342B013C0129813A814B815C81A2
:103DA000C501B4010E9433349B01AC01C301B201CF
:103DB0000E9433354B015C0129813A814B815C8142
:103DC000C701B6010E943334A50194010E948B37CC
:103DD0006093120270931302809314029093150261
:103DE00020EC31EE44E65EE4C501B4010E948B375D
:103DF0000E9412350E94AC35603DB7E07B0781051B
:103E0000910550F426E0209FF001219FF00D112430
:103E1000E65AFD4F15824CC0603A3FE073078105BA
:103E2000910558F446E0409FF001419FF00D1124A8
:103E3000E65AFD4F51E055831BC06034AFE17A076D
:103E40008105910558F4B6E0B09FF001B19FF00DE7
:103E50001124E65AFD4F22E025830AC036E0309F48
:103E6000F001319FF00D1124E65AFD4F43E04583E8
:103E700056E0509FF001519FF00D1124E65AFD4F7E
:103E80002581022E04C096958795779567950A94AB
:103E9000D2F7AD81BE8102C0AA0FBB1F2A95E2F7FF
:103EA000B183A08361157105B1E08B07910558F4CA
:103EB00026E0209FF001219FF00D1124E65AFD4FCE
:103EC0007483638304C04FEF5FEF54834383809117
:103ED0003402809335028F5F863019F0809334026C
:103EE00002C01092340220911702309118024091C2
:103EF000190250911A026FA97EA9C1010E944B3785
:103F00001816C4F4E0912F02F09130028FA99EA9F7
:103F1000D10182A793A7A4A7B5A789819A81AB8174
:103F2000BC818093060290930702A0930802B0938D
:103F30000902FEC920E030E0A9016FA97EA9C101F4
:103F40000E944B371816B4F510921B0210921C02F7
:103F500010921D0210921E02109212021092130271
:103F60001092140210921502C0920602D09207021B
:103F7000E0920802F0920902A0912F02B091300263
:103F8000BA83A98320910A0230910B0240910C025E
:103F900050910D02C701B6010E943335E981FA81C3
:103FA00062A773A784A795A70E94172888E080932B
:103FB0003A0607C01092300210922F020E949A24F3
:103FC000B7C9E7960FB6F894DEBF0FBECDBFDF913D
:103FD000CF911F910F91FF90EF90DF90CF90BF9006
:103FE000AF909F908F907F906F905F904F903F9099
:103FF0002F900895F999FECF92BD81BD81E08FBBCE
:1040000080B50895F894F999FECF92BD81BD81E005
:104010008FBB80B58627482F082E000C550B262F06
:1040200030E024233523232B39F06F3F19F060BD96
:1040300084E006C084E104C0882321F060BD84E2EE
:104040008FBBF99A789408959F92AF92BF92CF92C6
:10405000DF92EF92FF920F931F93CF93DF935C0158
:104060008A017B01E40EF51EEB01912C6C01C61A4E
:10407000D70ACE018C0D9D1DCE15DF0589F091105C
:1040800008C0292D990C330B232F221F2227221F12
:1040900001C021E06991922E960E0E940220E9CF84
:1040A000692DC501800F911FDF91CF911F910F9155
:1040B000FF90EF90DF90CF90BF90AF909F900C94C7
:1040C00002209F92AF92BF92CF92DF92EF92FF9227
:1040D0000F931F93CF93DF935B018A017C01E40E62
:1040E000F51EEC01912C6B01C81AD90AC6018C0F80
:1040F0009D1FCE15DF0589F00E94FA1F911008C0A0
:10410000292D990C330B232F221F2227221F01C098
:1041100021E0982E920E8993E9CFC501800F911F5F
:104120000E94FA1F21E030E0981611F020E030E004
:10413000C901DF91CF911F910F91FF90EF90DF9018
:10414000CF90BF90AF909F90089521E5829FC001CE
:10415000112440E550E09D5F0C94242040E550E0A0
:10416000BC018EEA93E00C9424202DE0829FC001D4
:1041700011244CE050E09E5F0C94242069E080E024
:1041800090E00E9402204EE450E060E977E081E098
:1041900090E00C942420E0E9F7E08AE080AB8FEF18
:1041A00083AB11AA82E082AB8FE184AB8AE097ED0A
:1041B000A3EABCE385AB96ABA7ABB0AF8FE692E1C9
:1041C000A3E0BBE381AF92AFA3AFB4AF17AE80E083
:1041D00090E0A8ECB1E48093D0079093D107A0932E
:1041E000D207B093D30780E090E0AAEFB4E48093C5
:1041F000D4079093D507A093D607B093D70784E64A
:1042000090E09093D9078093D80780E090E0A0E8F1
:10421000BFE38093DA079093DB07A093DC07B093AA
:10422000DD0782E391E096AF85AF80E090E0A8ECF7
:10423000B2E480839183A283B38384839583A6832E
:10424000B78380879187A287B38780E090E4ACE949
:10425000B5E484879587A687B787808B918BA28BDF
:10426000B38B848B958BA68BB78B80E09FECA9E1F9
:10427000BAE4808F918FA28FB38F848F958FA68F92
:10428000B78F80E098ECAFEAB8E480A391A3A2A333
:10429000B3A386E696ECA0E0B4EC84A395A3A6A312
:1042A000B7A38DEC9CE8A3ECB3EC80A791A7A2A7E1
:1042B000B3A780E090E0A0E2B2EC84A795A7A6A700
:1042C000B7A70C94BE201F93CF93DF93182FEB0159
:1042D00081E5189FB00111247D5F40E550E0CE01DB
:1042E0000E946120892B39F41882BE01812F0E941F
:1042F000A52080E001C081E0DF91CF911F9108955A
:10430000CF93DF93EC0140E550E06EEA73E00E944A
:104310006120892B21F41882CE010E94AE2081E019
:10432000DF91CF9108951F93CF93DF93182FEB0167
:104330008DE0189FB00111247E5F4CE050E0CE016B
:104340000E946120892B59F48CE0FE0111928A951C
:10435000E9F7BE01812F0E94B52080E001C081E015
:10436000DF91CF911F91089580E090E00E94FA1FA5
:10437000893059F44EE450E061E070E080E997E064
:104380000E94612021E0892B09F420E0822F08950A
:10439000CF92DF92EF92FF92CF93DF93C82F6A0103
:1043A0007B0120E030E0A901C701B6010E94293558
:1043B00087FD07C1C43608F441C08CE98C0F20E0AA
:1043C000833098F590E0880F991F880F991F22304D
:1043D00059F0FC012330F1F0213019F0E057F84F8B
:1043E0001FC0E456F84F1CC0EC01C855D84F20E060
:1043F00030E040E752E4C701B6010E948B3720E06D
:1044000030E040E752E40E948B37688379838A83E7
:104410009B83D3C0EC54F84FF7FAF094F7F8F0947C
:10442000C082D182E282F382C8C02F5F8A3008F452
:10443000CAC0243009F4C7C08A50C2CFC701B60130
:104440000E946E380E94AC358C2F90E08932910525
:1044500008F0B9C0FC01EF5AFF4F0C94C23863302A
:1044600008F4B3C06093C007A8C06093C307A5C099
:104470006093C10702C06093C2070E94D4189DC018
:104480008091CD079091CE07662311F0846091C092
:104490008B7F8FC08091CD079091CE07662311F05E
:1044A000806487C08F7B85C08091CD079091CE07B7
:1044B000662311F080687DC08F777BC06093C4074E
:1044C000C092C507D092C607E092C707F092C8070E
:1044D00074C0C092C907D092CA07E092CB07F0928D
:1044E000CC076BC08091CD079091CE07662311F069
:1044F00081605FC08E7F5DC08091CD079091CE07B7
:10450000662311F0826055C08D7F53C08091CD0726
:104510009091CE07662321F084FF59C0806249C084
:104520008F7D47C08091CD079091CE07662311F013
:10453000886001C0877F9093CE078093CD070E944B
:104540001B293BC08091CD079091CE07662311F0C7
:1045500080612FC08F7C2DC06093CF072EC0C0928A
:10456000D007D092D107E092D207F092D30725C0AE
:10457000C092D407D092D507E092D607F092D70721
:104580001CC070E07093D9076093D80716C0C09222
:10459000DA07D092DB07E092DC07F092DD070DC06E
:1045A0008091CD079091CE07662311F0916001C0F4
:1045B0009E7F9093CE078093CD070E94BE2080E01F
:1045C00007C084E005C083E003C086E001C08AE044
:1045D000DF91CF91FF90EF90DF90CF9008951F93E0
:1045E000CF93DF93CDB7DEB72C970FB6F894DEBF2D
:1045F0000FBECDBF0E94B421811107C087E00E9489
:10460000812D0E94CB200E94FA2D10E0BE016F5F29
:104610007F4F812F0E949321811103C087E00E9468
:10462000812D1F5F183091F72C960FB6F894DEBFDE
:104630000FBECDBFDF91CF911F910895882321F048
:10464000813021F080E1089584E0089588E00895A4
:10465000882321F0813021F080E8089580E20895D8
:1046600080E40895882321F0813021F080E10895CD
:1046700082E0089584E008952F923F924F925F92D6
:104680006F927F928F929F92AF92BF92CF92DF9262
:10469000EF92FF920F931F93CF93DF93C091FB0292
:1046A000C11101C0C2E1C150D091F902DC1709F477
:1046B0001DC1EC2EF12C2EE2C29F8001112403506B
:1046C0001D4FF801A28CB38CC48CD58C66A177A148
:1046D00080A591A59B01AC010E943434F80122A56C
:1046E00033A544A555A50E948B374B018C019B0136
:1046F000AC01B501C6010E94293587FD02C05401F5
:1047000068018EE28E9DF0018F9DF00D1124E35023
:10471000FD4FC501D601868B978BA08FB18FC1113C
:1047200001C0C2E1C150DC1761F02EE22E9DC00134
:104730002F9D900D11249C0123503D4F7901DEE205
:1047400033C08091FC02D81360C00E945C195DC028
:10475000AC2EB12CDA9DC001DB9D900D1124FC0123
:10476000E350FD4F6F01C11101C0C2E1C150809102
:10477000FC028C1302C00E945C19DA9D8001DB9D53
:10478000100D112403501D4FF801828C938CA48CC2
:10479000B58CA501940166897789808D918D0E94E1
:1047A0002935811106C076018091F902C813D0CF56
:1047B0002CC0F80166A177A180A591A59B01AC0151
:1047C0000E943434F80122A533A544A555A50E94C2
:1047D0008B37F70126893789408D518D0E943434FB
:1047E0002B013C019B01AC01C501B4010E944B3778
:1047F000F80118162CF4468A578A608E718ED3CF32
:10480000868A978AA08EB18ECECFD091F902FEE231
:10481000DF9F8001112403501D4FC1E0CD0FC23135
:1048200009F4C0E02090FB028EE2382EC21509F494
:104830005BC0CC2ED12C3C9CC0013D9C900D112422
:104840009C0123503D4F7901F80146885788608CC0
:10485000718CF90186889788A08CB18CA501940190
:10486000C301B2010E94293587FF24C0F80166A167
:1048700077A180A591A59B01AC010E943434F80179
:1048800022A533A544A555A50E948B37A30192010B
:104890000E9434342B013C019B01AC01C501B401E1
:1048A0000E944B37181634F4F701468A578A608EF7
:1048B000718EDC2F3C9CF0013D9CF00D1124E350E7
:1048C000FD4F228D338D448D558D66897789808D7E
:1048D000918D0E942935811101C0DC2FCF5FC2313B
:1048E00009F4C0E08701A2CFD093F902DF91CF9104
:1048F0001F910F91FF90EF90DF90CF90BF90AF90FE
:104900009F908F907F906F905F904F903F902F90EF
:1049100008958CE1EDEDF2E0DF011D928A95E9F753
:104920001092FC021092FB0281E08093FA02109236
:10493000F90208959091FC028091FB02891769F0B9
:1049400081E0890F823109F480E02091F90292130D
:1049500002C08093F9028093FC0208958091FC02CA
:104960009091FB02981739F02EE2829FC00111242A
:1049700083509D4F089580E090E00895E091FC02FF
:10498000EF5FE23109F4E0E08091FB028E1761F005
:104990008EE2E89FF0011124E350FD4F668977898C
:1049A000808D918D0C942A3860E070E0CB010895E1
:1049B00081E02091FC029091FA02291380E0089591
:1049C0002F923F924F925F926F927F928F929F921F
:1049D000AF92BF92CF92DF92EF92FF920F931F930D
:1049E000CF93DF93CDB7DEB7E7970FB6F894DEBF6E
:1049F0000FBECDBF4B8F5C8F6D8F7E8F2FAB209105
:104A0000FB02422F50E05AA349A3EEE22E9FA001E1
:104A10001124FA01E350FD4FE082F18202831383F7
:104A2000C482128A138A148A158A12A613A614A69F
:104A300015A6158249E956E766E97EE746A357A31E
:104A400060A771A798AB8FA740E957E05EA34DA37D
:104A50006E015DE0C50ED11C8DED92E09CA78BA789
:104A60003EE2239FC0011124AC014D5F5C4F58A36F
:104A70004F8FCE0101969CA38BA39AAB89AB2DEDF2
:104A800032E038A72FA340E957E05EA74DA7F12CED
:104A90008F01CF0142969CAB8BAB3596FEABEDAB55
:104AA0001801FAE22F0E311CEFA5F8A9619171915E
:104AB00081919191F8ABEFA7EDA5FEA58190919022
:104AC000A190B190FEA7EDA7A50194010E948B379C
:104AD0000E945837F60161937193819391936F010E
:104AE000EFA1F8A54190519061907190F8A7EFA3C4
:104AF00064197509860997092B013C0197FF07C0C6
:104B0000442455243201461A570A680A790AEF8D5F
:104B1000F8A14192519261927192F8A3EF8FEBA9A3
:104B2000FCA9208131814281538124153505460538
:104B3000570510F4A3019201EBA9FCA9208331834E
:104B4000428353830E94DD35A50194010E943335D1
:104B50004B015C01E9A9FAA9619371938193919347
:104B6000FAABE9AB20E030E0A9010E94293587FFCC
:104B700008C08F2D0E942823EDA9FEA99081892BC2
:104B80008083A5019401C501B4010E948B37F10116
:104B900020813181428153810E943434F10160834C
:104BA000718382839383F394F3E0FF127DCF0E949D
:104BB0002A384B015C01F101608371838283938306
:104BC000F80182899389A489B589892B8A2B8B2B3B
:104BD00009F4FAC120E030E0A9016B8D7C8D8D8D48
:104BE0009E8D0E94293587FD22C0FFA9FF2361F019
:104BF0002B8D3C8D4D8D5E8DC501B4010E943335EA
:104C00006B8F7C8F8D8F9E8F20E030E040E85FE3DC
:104C10006B8D7C8D8D8D9E8D0E94293587FF0FC0F9
:104C20001B8E1C8E20E82D8F3FE33E8F08C049E984
:104C30004B8F56E75C8F86E98D8F9EE79E8FA5018F
:104C4000940160E070E080E89FE30E9433356FA339
:104C500078A789A79AA7FE013D96FA8FE98F812C44
:104C6000912C54012EE249A15AA1249FC001259FF5
:104C7000900D1124FC01ED5DFC4FF8A3EF8FEBA12B
:104C8000FCA1C080D180E280F38020E030E0A90167
:104C9000C701B6010E942935882309F46AC0A7011B
:104CA00096016FA178A589A59AA50E948B372B0143
:104CB0003C01EBA1FCA160837183828393839B0100
:104CC000AC0160E070E080E89FE30E9433356B0147
:104CD0007C01E894F7F8EDA1FEA124853585468591
:104CE0005785C701B6010E948B371B018C012B8DA4
:104CF0003C8D4D8D5E8D0E944B37181624F02B8E07
:104D00003C8E0D8F1E8FEF8DF8A1008111812280C6
:104D10003380EDA1FEA1208D318D428D538DC701D1
:104D2000B6010E948B377B016C019B01AC01B8017D
:104D3000C1010E94293587FD02C087011601C80103
:104D4000D101EF8DF8A180839183A283B383EBA57A
:104D5000FCA52485358546855785C301B2010E948F
:104D60008B379B01AC01C501B4010E9433344B0168
:104D70005C012BA13CA12C5F3F4F3CA32BA34BA577
:104D80005CA54C5F5F4F5CA74BA78DA19EA10496CD
:104D90009EA38DA3E98DFA8DE217F30709F06FCF7B
:104DA0009091FB028091FC02981313C08EE229A11E
:104DB0003AA1829FF001839FF00D1124E350FD4F33
:104DC000168A178A108E118E168E178E10A211A2B7
:104DD0005BC0A501940160E070E080E89FE30E9461
:104DE000333420E030E040E05FE30E948B370E94E4
:104DF0002A386B017C018EE249A15AA1849FF001FF
:104E0000859FF00D1124E350FD4F2091C50730918F
:104E1000C6074091C7075091C80766A177A180A532
:104E200091A50E948B37A70196010E948B374B01F9
:104E30005C01A701960160E070E080E89FE30E94BA
:104E400033349B01AC01C501B4010E9433357B01B1
:104E50008C0120E030E0A9010E94293587FF04C0C1
:104E6000E12CF12C00E010E08EE229A13AA1829F12
:104E7000F001839FF00D1124E350FD4FA701B8010D
:104E8000468F578F60A371A32B8D3C8D4D8D5E8D0A
:104E90006B8D7C8D8D8D9E8D0E948B377B018C015F
:104EA0008EE249A15AA1849FF001859FF00D112443
:104EB000E350FD4FC701D80182A393A3A4A3B5A3D8
:104EC000A68CB78CC0A0D1A06090F5027090F602BD
:104ED0008090F7029090F8029301A401B701C801F5
:104EE0000E94293587FD05C0B62DA72DF82DE92D87
:104EF00004C0BE2DAF2DF02FE12F9501A6016B2F21
:104F00007A2F8F2F9E2F0E944B3718166CF093012B
:104F1000A401B701C8010E94293587FD03C05301D0
:104F2000640102C0570168018EE229A13AA1829F63
:104F3000F001839FF00D1124E350FD4FC501D60110
:104F4000828F938FA48FB58F8CE0FE013196A9EEEE
:104F5000B2E001900D928A95E1F7C701D8018093E4
:104F6000F5029093F602A093F702B093F8028CE05A
:104F7000FE013D96ADEDB2E001900D928A95E1F70C
:104F80008091FA028093FB028F5F823109F480E006
:104F90008093FA02E7960FB6F894DEBF0FBECDBF3E
:104FA000DF91CF911F910F91FF90EF90DF90CF9005
:104FB000BF90AF909F908F907F906F905F904F9039
:104FC0003F902F900C943C23E7960FB6F894DEBFE9
:104FD0000FBECDBFDF91CF911F910F91FF90EF904A
:104FE000DF90CF90BF90AF909F908F907F906F9009
:104FF0005F904F903F902F900895ADE3B6E0EDEDB8
:10500000F2E04D915D916D917D914193519361934A
:10501000719382E0E93EF807A1F708958091FB02C1
:105020009091FC02891708F48E5E891B08950E94F6
:105030005C198091FC028093F9020C943C234F92FE
:105040005F926F927F92AF92BF92CF92DF92EF9278
:10505000FF920F931F93CF93DF937C01FB015A01C3
:10506000C081D0E0DC01AC0FBD1F8C918D3231F4DA
:10507000ED01229611968C9101E00BC08B3221F04C
:105080002196CE0DDF1D04C0ED01229611968C9164
:1050900000E0512C612C10E020E030E0A9016E010D
:1050A00060ED762E780E89E08715D8F06394A8E03D
:1050B000A61598F051101150A5E0B0E00E94C83834
:1050C000DC01CB01880F991FAA1FBB1F9C01AD01FA
:1050D000270D311D411D511D0BC0511009C01F5F0F
:1050E00007C0BEEF7B1208C0511006C05524539470
:1050F0002196D6018C91D3CF662009F450C06F0160
:10510000CA01B9010E94DB352B013C0120E030E0EF
:10511000A9010E942935882349F11F3F64F42AE040
:1051200037ED43E25CE3C301B2010E948B372B01F0
:105130003C011E5FF2CF1F3F59F42DEC3CEC4CECD0
:105140005DE3C301B2010E948B372B013C010EC00D
:10515000112361F020E030E040E251E4C301B201EC
:105160000E948B372B013C011150F2CF002351F0EC
:1051700077FA709477F87094F501408251826282D8
:10518000738206C0D5014D925D926D927C92139709
:10519000CE19DF09C150F601C08381E001C080E073
:1051A000DF91CF911F910F91FF90EF90DF90CF9003
:1051B000BF90AF907F906F905F904F900895009751
:1051C00041F0EFE9FFE03197F1F700C000000197EF
:1051D000F6CF08958F929F92AF92BF92CF92DF92B7
:1051E000EF92FF9269017A019B01AC010E948B371B
:1051F0004B015C01A7019601C701B6010E948B37E4
:105200009B01AC01C501B4010E943434FF90EF90C2
:10521000DF90CF90BF90AF909F908F900C942A38E2
:10522000EBE6F0E08081897E8083E8E6F0E0808133
:105230008E7F8083089584B1897E84B99091CD0753
:1052400085B196FF02C0897E01C0866185B993FF52
:105250000BC080916B00866180936B008091680029
:1052600081608093680008950C9410291F920F921A
:105270000FB60F9211242F933F934F935F936F9329
:105280007F938F939F93AF93BF93EF93FF938091FF
:105290003A06813071F080913B0685FD0AC00E947C
:1052A00002099FB7F89480913B06806680933B0685
:1052B0009FBFFF91EF91BF91AF919F918F917F9190
:1052C0006F915F914F913F912F910F900FBE0F9073
:1052D0001F9018952F923F924F925F926F927F92FC
:1052E0008F929F92AF92BF92CF92DF92EF92FF92F6
:1052F0000F931F93CF93DF93CDB7DEB76E970FB6A3
:10530000F894DEBF0FBECDBF909139069111BCC19C
:10531000082F8091D4079091D507A091D607B0911E
:10532000D7078D8B9E8BAF8BB88F34EBA32E37E0D6
:10533000B32EDE011D966D01FE0170967F01212CBA
:10534000312C812C912C10E0812F0E943223D70127
:105350008D937D01812F0E941E23F60181936F01A1
:10536000D5014D905D906D907D905D019101A401FE
:10537000C301B2010E94293587FF02C01201430117
:105380001F5F133009F720E030E040EC5FEBB10124
:10539000C4010E948B372B013C010E94892426E026
:1053A000922EBB24B39488248394E02FF0E0FA8FEC
:1053B000E98F9301820130580B8F1C8F2D8F3E8F08
:1053C0001E0110E1210E311C8091CD07AB2C86FD12
:1053D000A824E090CF07F12C9E012F5F3F4F3C8B1C
:1053E0002B8BF901DE011D9680E090E0D12C60E06E
:1053F000782F298D3A8D082E02C0359527950A946D
:10540000E2F7A9014170552720FF11C06F5FB1106D
:1054100009C00B8D1C8D2D8D3E8D00831183228341
:10542000338309C0408251826282738204C0108239
:10543000118212821382970102C0359527957A95C1
:10544000E2F720FF09C000811181228133813058A9
:105450000083118322833383452B11F02C91D22AB0
:105460000196119634968330910511F670E080E034
:1054700090E00E94DB350E942A389B01AC01D0925B
:105480003C066D897E898F89988D0E948B37AB0190
:10549000BC01C12CE12CF12C870120E0CE0101964A
:1054A0000E94E0240E947E190E944F1693B1AA2008
:1054B00011F016E19127DE015096FE013D96819193
:1054C000282F2D2129F02C91292311F08095D82205
:1054D0001196E215F30599F7D0923C060E947E19C9
:1054E00080913B0684FF03C00E94CC14CDC08D2D5B
:1054F0008C71E1F60E940E190E9489248091D807D0
:105500009091D9070E94DF288091D0079091D10710
:10551000A091D207B091D3078D8B9E8BAF8BB88FA4
:10552000B8249A94911050CF2090CF07312C8090BE
:10553000DA079090DB07A090DC07B090DD079501BB
:10554000840130580D8B1E8B2F8B388F89E3C82E2A
:1055500086E0D82E90E9E92E97E0F92E00E010E0E1
:10556000898D9A8D002E02C0959587950A94E2F751
:1055700080FF3FC0C101002E02C0959587950A9417
:10558000E2F780FF24C0D70194964D905D906D9016
:105590007C909797A3019201C501B4010E94343415
:1055A000EB89FC896083718382839383D7012D917A
:1055B0003D914D915C91C301B2010E948B370E94D5
:1055C0005837F601648375838683978326C08D8957
:1055D0009E89AF89B88DEB89FC8980839183A283F2
:1055E000B383D60114961D921D921D921C9217979B
:1055F00014C0F60164817581868197810E94DD3532
:10560000D7012D913D914D915C910E943335EB89ED
:10561000FC8960837183828393830F5F1F4F2B8983
:105620003C892C5F3F4F3C8B2B8B34E0C30ED11C4D
:1056300084E0E80EF11C0330110509F091CF0E94BF
:10564000FD274091D4075091D5076091D6077091FE
:10565000D707C12CE12CF12C870120E0CE01019667
:105660000E94E02488E080933A069FB7F8948091E6
:105670003B06826080933B069FBF0E94CC140E9431
:10568000351684E080933A066E960FB6F894DEBF26
:105690000FBECDBFDF91CF911F910F91FF90EF9083
:1056A000DF90CF90BF90AF909F908F907F906F9042
:1056B0005F904F903F902F900895AF92BF92CF92FE
:1056C000DF92EF92FF920F931F93CF93DF93EC0142
:1056D00004EB17E05C018CE0A80EB11CC990D990D6
:1056E000E990F99020E030E0A901C701B6010E94DD
:1056F0004B37181664F0F801219131914191519185
:105700008F01C701B6010E94293587FF29C080910A
:105710003A06803179F49FB7F89480913B0688600F
:1057200080933B069FBF0E94CC148091390688234A
:10573000D1F31AC00E9402099FB7F89480913B06EA
:10574000806680933B069FBFDF91CF911F910F91A1
:10575000FF90EF90DF90CF90BF90AF900C94CC145F
:10576000CA15DB0509F0BACFDF91CF911F910F91D8
:10577000FF90EF90DF90CF90BF90AF900895CF93C0
:10578000DF93EC018991882319F00E941114FACF5C
:10579000DF91CF910895CF93DF93FC018491EF01C6
:1057A0002196882321F00E941114FE01F7CFDF918A
:1057B000CF910895EF92FF920F931F93CF93DF93B2
:1057C000CDB7DEB728970FB6F894DEBF0FBECDBFBA
:1057D0009E012F5F3F4F79018E01075F1F4FF90137
:1057E000982F9170919386950E171F07C9F7F801AE
:1057F00082918F01805D0E9411140E151F05B9F76B
:1058000028960FB6F894DEBF0FBECDBFDF91CF91C3
:105810001F910F91FF90EF9008951F93CF93DF9307
:1058200000D01F92CDB7DEB7811109C080E30F9081
:105830000F900F90DF91CF911F910C94111490E075
:105840002AE011E0190FE1E0F0E0EC0FFD1FE90F95
:10585000F11D622F0E949438905D9083912F8111E9
:10586000F0CF112341F0FE01E10FF11D80810E9474
:1058700011141150F6CF0F900F900F90DF91CF9130
:105880001F9108958F929F92AF92BF92CF92DF9215
:10589000EF92FF920F931F93CF93DF93CDB7DEB7B5
:1058A0002A970FB6F894DEBF0FBECDBF6B017C0107
:1058B000042F20E030E0A9010E94293587FF07C0AE
:1058C0008DE20E941114F7FAF094F7F8F094102F7B
:1058D000123060F020E030E048EC52E4C701B6013D
:1058E0000E948B376B017C011250F2CF00FF0AC07F
:1058F00020E030E040E251E4C701B6010E948B375E
:105900006B017C0120E030E040E05FE3C701B601BD
:105910000E9434340E94A535E1E0F0E0EC0FFD1F59
:10592000E00FF11D2EE2208310E03AE0832E912C4F
:10593000A12CB12C6115710581059105A9F01013F9
:1059400001C01F5FEE24E394F12CEC0EFD1EE10E6E
:10595000F11CA50194010E94A038605DF7016083ED
:10596000B901CA011F5FE6CF80E3101748F4E1E0F8
:10597000F0E0EC0FFD1FE10FF11D80831F5FF5CFFD
:1059800010130BC081E0810FE1E0F0E0EC0FFD1F90
:10599000E80FF11D1E5F80E38083112341F0FE01BB
:1059A000E10FF11D80810E9411141150F6CF2A964B
:1059B0000FB6F894DEBF0FBECDBFDF91CF911F9120
:1059C0000F91FF90EF90DF90CF90BF90AF909F909E
:1059D0008F9008952091CD0720FF08C02BE832E476
:1059E00041E25DE30E948B3744E001C043E00C9448
:1059F000422C2091CD0720FF08C02BE832E441E281
:105A00005DE30E948B3741E001C040E00C94422CE2
:105A100043E00C94422C3D988091CD0787FF04C051
:105A200045981092DE070895459A80E28093DE073C
:105A3000089586B180729091DE078927089580913C
:105A40004A068130A1F40E94192D882381F010921A
:105A50004A068CE0EDE3F6E0ABE4B6E001900D928F
:105A60008A95E1F780913B06886080933B06089514
:105A7000CF93C82F8FE798E00E94CB2B8C2F90E01C
:105A8000FC013197E631F10580F5E658FF4F0C94A3
:105A9000C23887E698E002C085E598E00E94CB2BEB
:105AA0002BC083E498E0FACF89E398E0F7CF88E24F
:105AB00098E0F4CF89E198E0F1CF88EF97E0EECF5E
:105AC0008FEE97E0EBCF84EE97E0E8CF81ED97E0A3
:105AD000E5CF83EC97E0E2CF8DEA97E0DFCF89E96D
